{
  "_format": "hh-sol-artifact-1",
  "contractName": "RollStakingFactoryV2",
  "sourceName": "contracts/RollStakingFactoryV2.sol",
  "abi": [
    {
      "inputs": [
        {
          "internalType": "address",
          "name": "_registry",
          "type": "address"
        }
      ],
      "stateMutability": "nonpayable",
      "type": "constructor"
    },
    {
      "anonymous": false,
      "inputs": [
        {
          "indexed": false,
          "internalType": "address",
          "name": "stakingContract",
          "type": "address"
        }
      ],
      "name": "Deployed",
      "type": "event"
    },
    {
      "inputs": [
        {
          "internalType": "address[]",
          "name": "_rewardTokens",
          "type": "address[]"
        },
        {
          "internalType": "address",
          "name": "_stakedToken",
          "type": "address"
        }
      ],
      "name": "createStakingContract",
      "outputs": [
        {
          "internalType": "address",
          "name": "",
          "type": "address"
        }
      ],
      "stateMutability": "nonpayable",
      "type": "function"
    },
    {
      "inputs": [],
      "name": "registry",
      "outputs": [
        {
          "internalType": "contract IStakingRegistry",
          "name": "",
          "type": "address"
        }
      ],
      "stateMutability": "view",
      "type": "function"
    }
  ],
  "bytecode": "0x60a060405234801561001057600080fd5b506040516145be3803806145be8339818101604052602081101561003357600080fd5b81019080805190602001909291905050508073ffffffffffffffffffffffffffffffffffffffff1660808173ffffffffffffffffffffffffffffffffffffffff1660601b815250505060805160601c6145166100a860003980610173528061019e52806102a9528061035552506145166000f3fe608060405234801561001057600080fd5b50600436106100365760003560e01c80637b1039991461003b5780637d4496ed1461006f575b600080fd5b610043610171565b604051808273ffffffffffffffffffffffffffffffffffffffff16815260200191505060405180910390f35b6101456004803603604081101561008557600080fd5b81019080803590602001906401000000008111156100a257600080fd5b8201836020820111156100b457600080fd5b803590602001918460208302840111640100000000831117156100d657600080fd5b919080806020026020016040519081016040528093929190818152602001838360200280828437600081840152601f19601f820116905080830192505050505050509192919290803573ffffffffffffffffffffffffffffffffffffffff169060200190929190505050610195565b604051808273ffffffffffffffffffffffffffffffffffffffff16815260200191505060405180910390f35b7f000000000000000000000000000000000000000000000000000000000000000081565b600080333385857f00000000000000000000000000000000000000000000000000000000000000006040516101c990610488565b808673ffffffffffffffffffffffffffffffffffffffff1681526020018573ffffffffffffffffffffffffffffffffffffffff168152602001806020018473ffffffffffffffffffffffffffffffffffffffff1681526020018373ffffffffffffffffffffffffffffffffffffffff168152602001828103825285818151815260200191508051906020019060200280838360005b8381101561027957808201518184015260208101905061025e565b505050509050019650505050505050604051809103906000f0801580156102a4573d6000803e3d6000fd5b5090507f000000000000000000000000000000000000000000000000000000000000000073ffffffffffffffffffffffffffffffffffffffff16639cae6eae8260016040518363ffffffff1660e01b8152600401808373ffffffffffffffffffffffffffffffffffffffff168152602001821515815260200192505050600060405180830381600087803b15801561033b57600080fd5b505af115801561034f573d6000803e3d6000fd5b505050507f000000000000000000000000000000000000000000000000000000000000000073ffffffffffffffffffffffffffffffffffffffff16635faa4ea6823360006040518463ffffffff1660e01b8152600401808473ffffffffffffffffffffffffffffffffffffffff1681526020018373ffffffffffffffffffffffffffffffffffffffff1681526020018273ffffffffffffffffffffffffffffffffffffffff1681526020019350505050600060405180830381600087803b15801561041957600080fd5b505af115801561042d573d6000803e3d6000fd5b505050507ff40fcec21964ffb566044d083b4073f29f7f7929110ea19e1b3ebe375d89055e81604051808273ffffffffffffffffffffffffffffffffffffffff16815260200191505060405180910390a18091505092915050565b61404b806104968339019056fe60a06040523480156200001157600080fd5b506040516200404b3803806200404b833981810160405260a08110156200003757600080fd5b810190808051906020019092919080519060200190929190805160405193929190846401000000008211156200006c57600080fd5b838201915060208201858111156200008357600080fd5b8251866020820283011164010000000082111715620000a157600080fd5b8083526020830192505050908051906020019060200280838360005b83811015620000da578082015181840152602081019050620000bd565b5050505090500160405260200180519060200190929190805190602001909291905050508481600073ffffffffffffffffffffffffffffffffffffffff168273ffffffffffffffffffffffffffffffffffffffff161415620001a4576040517f08c379a00000000000000000000000000000000000000000000000000000000081526004018080602001828103825260198152602001807f4f776e657220616464726573732063616e6e6f7420626520300000000000000081525060200191505060405180910390fd5b816000806101000a81548173ffffffffffffffffffffffffffffffffffffffff021916908373ffffffffffffffffffffffffffffffffffffffff1602179055508073ffffffffffffffffffffffffffffffffffffffff1660808173ffffffffffffffffffffffffffffffffffffffff1660601b815250507fb532073b38c83145e3e5135377a08bf9aab55bc0fd7c1179cd4fb995d2a5159c600083604051808373ffffffffffffffffffffffffffffffffffffffff1681526020018273ffffffffffffffffffffffffffffffffffffffff1681526020019250505060405180910390a15050600073ffffffffffffffffffffffffffffffffffffffff1660008054906101000a900473ffffffffffffffffffffffffffffffffffffffff1673ffffffffffffffffffffffffffffffffffffffff1614156200034d576040517f08c379a00000000000000000000000000000000000000000000000000000000081526004018080602001828103825260118152602001807f4f776e6572206d7573742062652073657400000000000000000000000000000081525060200191505060405180910390fd5b600160078190555060005b8351811015620004685760088482815181106200037157fe5b60200260200101519080600181540180825580915050600190039060005260206000200160009091909190916101000a81548173ffffffffffffffffffffffffffffffffffffffff021916908373ffffffffffffffffffffffffffffffffffffffff1602179055506040518060400160405280600081526020016000815250600960008684815181106200040157fe5b602002602001015173ffffffffffffffffffffffffffffffffffffffff1673ffffffffffffffffffffffffffffffffffffffff1681526020019081526020016000206000820151816000015560208201518160010155905050808060010191505062000358565b5081600460006101000a81548173ffffffffffffffffffffffffffffffffffffffff021916908373ffffffffffffffffffffffffffffffffffffffff16021790555083600360016101000a81548173ffffffffffffffffffffffffffffffffffffffff021916908373ffffffffffffffffffffffffffffffffffffffff160217905550505050505060805160601c613b386200051360003980611d7f5280611f445250613b386000f3fe608060405234801561001057600080fd5b50600436106101f05760003560e01c806379ba50971161010f578063d086fb60116100a2578063eda4e6d611610071578063eda4e6d61461089b578063f1229777146108b9578063f5ab16cc14610911578063fc0c546a14610970576101f0565b8063d086fb601461072d578063e70b9e27146107fb578063e9fad8ee14610873578063ebe2b12b1461087d576101f0565b806391b4ded9116100de57806391b4ded91461066b578063a694fc3a14610689578063bcd11014146106b7578063c8f33c911461070f576101f0565b806379ba5097146105db5780637b103999146105e557806380faa57d146106195780638da5cb5b14610637576101f0565b80633d18b912116101875780635c975abb116101565780635c975abb146104b3578063654e51e7146104d35780637035ab981461050b57806370a0823114610583576101f0565b80633d18b912146103e95780633fc6df6e146103f35780634eedafb81461042757806353a47bb71461047f576101f0565b8063211dc32d116101c3578063211dc32d146102cb5780632e1a7d4d14610343578063386a9525146103715780633c6444bc1461038f576101f0565b80631627540c146101f557806316c38b3c1461023957806318160ddd146102695780631976214314610287575b600080fd5b6102376004803603602081101561020b57600080fd5b81019080803573ffffffffffffffffffffffffffffffffffffffff1690602001909291905050506109a4565b005b6102676004803603602081101561024f57600080fd5b81019080803515159060200190929190505050610a3d565b005b610271610aca565b6040518082815260200191505060405180910390f35b6102c96004803603602081101561029d57600080fd5b81019080803573ffffffffffffffffffffffffffffffffffffffff169060200190929190505050610ad4565b005b61032d600480360360408110156102e157600080fd5b81019080803573ffffffffffffffffffffffffffffffffffffffff169060200190929190803573ffffffffffffffffffffffffffffffffffffffff169060200190929190505050610bc3565b6040518082815260200191505060405180910390f35b61036f6004803603602081101561035957600080fd5b8101908080359060200190929190505050610d69565b005b610379611235565b6040518082815260200191505060405180910390f35b6103d1600480360360208110156103a557600080fd5b81019080803573ffffffffffffffffffffffffffffffffffffffff16906020019092919050505061123b565b60405180821515815260200191505060405180910390f35b6103f16112dd565b005b6103fb6119ee565b604051808273ffffffffffffffffffffffffffffffffffffffff16815260200191505060405180910390f35b6104536004803603602081101561043d57600080fd5b8101908080359060200190929190505050611a14565b604051808273ffffffffffffffffffffffffffffffffffffffff16815260200191505060405180910390f35b610487611a53565b604051808273ffffffffffffffffffffffffffffffffffffffff16815260200191505060405180910390f35b6104bb611a79565b60405180821515815260200191505060405180910390f35b610509600480360360408110156104e957600080fd5b810190808035906020019092919080359060200190929190505050611a8c565b005b61056d6004803603604081101561052157600080fd5b81019080803573ffffffffffffffffffffffffffffffffffffffff169060200190929190803573ffffffffffffffffffffffffffffffffffffffff169060200190929190505050611bbc565b6040518082815260200191505060405180910390f35b6105c56004803603602081101561059957600080fd5b81019080803573ffffffffffffffffffffffffffffffffffffffff169060200190929190505050611be1565b6040518082815260200191505060405180910390f35b6105e3611c2a565b005b6105ed611f42565b604051808273ffffffffffffffffffffffffffffffffffffffff16815260200191505060405180910390f35b610621611f66565b6040518082815260200191505060405180910390f35b61063f611f79565b604051808273ffffffffffffffffffffffffffffffffffffffff16815260200191505060405180910390f35b610673611f9d565b6040518082815260200191505060405180910390f35b6106b56004803603602081101561069f57600080fd5b8101908080359060200190929190505050611fa3565b005b6106f9600480360360208110156106cd57600080fd5b81019080803573ffffffffffffffffffffffffffffffffffffffff169060200190929190505050612477565b6040518082815260200191505060405180910390f35b6107176124dc565b6040518082815260200191505060405180910390f35b6107f96004803603604081101561074357600080fd5b810190808035906020019064010000000081111561076057600080fd5b82018360208201111561077257600080fd5b8035906020019184602083028401116401000000008311171561079457600080fd5b9091929391929390803590602001906401000000008111156107b557600080fd5b8201836020820111156107c757600080fd5b803590602001918460208302840111640100000000831117156107e957600080fd5b90919293919293905050506124e2565b005b61085d6004803603604081101561081157600080fd5b81019080803573ffffffffffffffffffffffffffffffffffffffff169060200190929190803573ffffffffffffffffffffffffffffffffffffffff169060200190929190505050612c25565b6040518082815260200191505060405180910390f35b61087b612c4a565b005b610885612c9c565b6040518082815260200191505060405180910390f35b6108a3612ca2565b6040518082815260200191505060405180910390f35b6108fb600480360360208110156108cf57600080fd5b81019080803573ffffffffffffffffffffffffffffffffffffffff169060200190929190505050612ca8565b6040518082815260200191505060405180910390f35b6109536004803603602081101561092757600080fd5b81019080803573ffffffffffffffffffffffffffffffffffffffff169060200190929190505050612d94565b604051808381526020018281526020019250505060405180910390f35b610978612db8565b604051808273ffffffffffffffffffffffffffffffffffffffff16815260200191505060405180910390f35b6109ac612dde565b80600160006101000a81548173ffffffffffffffffffffffffffffffffffffffff021916908373ffffffffffffffffffffffffffffffffffffffff1602179055507f906a1c6bd7e3091ea86693dd029a831c19049ce77f1dce2ce0bab1cacbabce2281604051808273ffffffffffffffffffffffffffffffffffffffff16815260200191505060405180910390a150565b610a45612dde565b600360009054906101000a900460ff1615158115151415610a6557610ac7565b80600360006101000a81548160ff0219169083151502179055508015610a8d57426002819055505b7f8fb6c181ee25a520cf3dd6565006ef91229fcfe5a989566c2a3b8c115570cec58160405180821515815260200191505060405180910390a15b50565b6000600554905090565b610adc612dde565b600073ffffffffffffffffffffffffffffffffffffffff168173ffffffffffffffffffffffffffffffffffffffff161415610b7f576040517f08c379a000000000000000000000000000000000000000000000000000000000815260040180806020018281038252600f8152602001807f496e76616c69642061646472657373000000000000000000000000000000000081525060200191505060405180910390fd5b80600360016101000a81548173ffffffffffffffffffffffffffffffffffffffff021916908373ffffffffffffffffffffffffffffffffffffffff16021790555050565b600080600960008473ffffffffffffffffffffffffffffffffffffffff1673ffffffffffffffffffffffffffffffffffffffff1681526020019081526020016000209050610d60600b60008573ffffffffffffffffffffffffffffffffffffffff1673ffffffffffffffffffffffffffffffffffffffff16815260200190815260200160002060008673ffffffffffffffffffffffffffffffffffffffff1673ffffffffffffffffffffffffffffffffffffffff16815260200190815260200160002054610d52670de0b6b3a7640000610d44610d2d600a60008a73ffffffffffffffffffffffffffffffffffffffff1673ffffffffffffffffffffffffffffffffffffffff16815260200190815260200160002060008b73ffffffffffffffffffffffffffffffffffffffff1673ffffffffffffffffffffffffffffffffffffffff16815260200190815260200160002054610d1f8a612ca8565b612e8490919063ffffffff16565b610d368a611be1565b612f0790919063ffffffff16565b612f8d90919063ffffffff16565b61301690919063ffffffff16565b91505092915050565b60026007541415610de2576040517f08c379a000000000000000000000000000000000000000000000000000000000815260040180806020018281038252601f8152602001807f5265656e7472616e637947756172643a207265656e7472616e742063616c6c0081525060200191505060405180910390fd5b60026007819055503360005b600880549050811015610ecb5760006009600060088481548110610e0e57fe5b9060005260206000200160009054906101000a900473ffffffffffffffffffffffffffffffffffffffff1673ffffffffffffffffffffffffffffffffffffffff1673ffffffffffffffffffffffffffffffffffffffff1681526020019081526020016000209050610eb560088381548110610e8557fe5b9060005260206000200160009054906101000a900473ffffffffffffffffffffffffffffffffffffffff16612ca8565b8160010181905550508080600101915050610dee565b50610ed4611f66565b600f8190555060005b60088054905081101561115b5760006009600060088481548110610efd57fe5b9060005260206000200160009054906101000a900473ffffffffffffffffffffffffffffffffffffffff1673ffffffffffffffffffffffffffffffffffffffff1673ffffffffffffffffffffffffffffffffffffffff1681526020019081526020016000209050600073ffffffffffffffffffffffffffffffffffffffff168373ffffffffffffffffffffffffffffffffffffffff161461114d57610fd98360088481548110610fa957fe5b9060005260206000200160009054906101000a900473ffffffffffffffffffffffffffffffffffffffff16610bc3565b600b600060088581548110610fea57fe5b9060005260206000200160009054906101000a900473ffffffffffffffffffffffffffffffffffffffff1673ffffffffffffffffffffffffffffffffffffffff1673ffffffffffffffffffffffffffffffffffffffff16815260200190815260200160002060008573ffffffffffffffffffffffffffffffffffffffff1673ffffffffffffffffffffffffffffffffffffffff168152602001908152602001600020819055508060010154600a6000600885815481106110a657fe5b9060005260206000200160009054906101000a900473ffffffffffffffffffffffffffffffffffffffff1673ffffffffffffffffffffffffffffffffffffffff1673ffffffffffffffffffffffffffffffffffffffff16815260200190815260200160002060008573ffffffffffffffffffffffffffffffffffffffff1673ffffffffffffffffffffffffffffffffffffffff168152602001908152602001600020819055505b508080600101915050610edd565b50600082116111d2576040517f08c379a00000000000000000000000000000000000000000000000000000000081526004018080602001828103825260118152602001807f43616e6e6f74207769746864726177203000000000000000000000000000000081525060200191505060405180910390fd5b6111db8261309e565b3373ffffffffffffffffffffffffffffffffffffffff167f7084f5476618d8e60b11ef0d7d3f06914655adb8793e28ff7f018d4c76d505d5836040518082815260200191505060405180910390a250600160078190555050565b600e5481565b600080600090505b6008805490508110156112d2576008818154811061125d57fe5b9060005260206000200160009054906101000a900473ffffffffffffffffffffffffffffffffffffffff1673ffffffffffffffffffffffffffffffffffffffff168373ffffffffffffffffffffffffffffffffffffffff1614156112c55760019150506112d8565b8080600101915050611243565b50600090505b919050565b60026007541415611356576040517f08c379a000000000000000000000000000000000000000000000000000000000815260040180806020018281038252601f8152602001807f5265656e7472616e637947756172643a207265656e7472616e742063616c6c0081525060200191505060405180910390fd5b60026007819055503360005b60088054905081101561143f576000600960006008848154811061138257fe5b9060005260206000200160009054906101000a900473ffffffffffffffffffffffffffffffffffffffff1673ffffffffffffffffffffffffffffffffffffffff1673ffffffffffffffffffffffffffffffffffffffff1681526020019081526020016000209050611429600883815481106113f957fe5b9060005260206000200160009054906101000a900473ffffffffffffffffffffffffffffffffffffffff16612ca8565b8160010181905550508080600101915050611362565b50611448611f66565b600f8190555060005b6008805490508110156116cf576000600960006008848154811061147157fe5b9060005260206000200160009054906101000a900473ffffffffffffffffffffffffffffffffffffffff1673ffffffffffffffffffffffffffffffffffffffff1673ffffffffffffffffffffffffffffffffffffffff1681526020019081526020016000209050600073ffffffffffffffffffffffffffffffffffffffff168373ffffffffffffffffffffffffffffffffffffffff16146116c15761154d836008848154811061151d57fe5b9060005260206000200160009054906101000a900473ffffffffffffffffffffffffffffffffffffffff16610bc3565b600b60006008858154811061155e57fe5b9060005260206000200160009054906101000a900473ffffffffffffffffffffffffffffffffffffffff1673ffffffffffffffffffffffffffffffffffffffff1673ffffffffffffffffffffffffffffffffffffffff16815260200190815260200160002060008573ffffffffffffffffffffffffffffffffffffffff1673ffffffffffffffffffffffffffffffffffffffff168152602001908152602001600020819055508060010154600a60006008858154811061161a57fe5b9060005260206000200160009054906101000a900473ffffffffffffffffffffffffffffffffffffffff1673ffffffffffffffffffffffffffffffffffffffff1673ffffffffffffffffffffffffffffffffffffffff16815260200190815260200160002060008573ffffffffffffffffffffffffffffffffffffffff1673ffffffffffffffffffffffffffffffffffffffff168152602001908152602001600020819055505b508080600101915050611451565b5060005b6008805490508110156119e257600060096000600884815481106116f357fe5b9060005260206000200160009054906101000a900473ffffffffffffffffffffffffffffffffffffffff1673ffffffffffffffffffffffffffffffffffffffff1673ffffffffffffffffffffffffffffffffffffffff16815260200190815260200160002090506000600b60006008858154811061176d57fe5b9060005260206000200160009054906101000a900473ffffffffffffffffffffffffffffffffffffffff1673ffffffffffffffffffffffffffffffffffffffff1673ffffffffffffffffffffffffffffffffffffffff16815260200190815260200160002060003373ffffffffffffffffffffffffffffffffffffffff1673ffffffffffffffffffffffffffffffffffffffff16815260200190815260200160002054905060008111156119d3576000600b60006008868154811061182e57fe5b9060005260206000200160009054906101000a900473ffffffffffffffffffffffffffffffffffffffff1673ffffffffffffffffffffffffffffffffffffffff1673ffffffffffffffffffffffffffffffffffffffff16815260200190815260200160002060003373ffffffffffffffffffffffffffffffffffffffff1673ffffffffffffffffffffffffffffffffffffffff168152602001908152602001600020819055506119363382600886815481106118e657fe5b9060005260206000200160009054906101000a900473ffffffffffffffffffffffffffffffffffffffff1673ffffffffffffffffffffffffffffffffffffffff1661319e9092919063ffffffff16565b6008838154811061194357fe5b9060005260206000200160009054906101000a900473ffffffffffffffffffffffffffffffffffffffff1673ffffffffffffffffffffffffffffffffffffffff163373ffffffffffffffffffffffffffffffffffffffff167f540798df468d7b23d11f156fdb954cb19ad414d150722a7b6d55ba369dea792e836040518082815260200191505060405180910390a35b505080806001019150506116d3565b50506001600781905550565b600360019054906101000a900473ffffffffffffffffffffffffffffffffffffffff1681565b60088181548110611a2457600080fd5b906000526020600020016000915054906101000a900473ffffffffffffffffffffffffffffffffffffffff1681565b600160009054906101000a900473ffffffffffffffffffffffffffffffffffffffff1681565b600360009054906101000a900460ff1681565b611a94612dde565b600d544211611aee576040517f08c379a000000000000000000000000000000000000000000000000000000000815260040180806020018281038252606c815260200180613945606c913960800191505060405180910390fd5b81421080611afc5750600082145b611b51576040517f08c379a000000000000000000000000000000000000000000000000000000000815260040180806020018281038252602f8152602001806138f0602f913960400191505060405180910390fd5b6000821415611b665742600c81905550611b6e565b81600c819055505b80600e819055507fcd7c861d63893659123f817b192b8621ff1923a7c4589c260173cedcf9e986a6600c54600e54604051808381526020018281526020019250505060405180910390a15050565b600a602052816000526040600020602052806000526040600020600091509150505481565b6000600660008373ffffffffffffffffffffffffffffffffffffffff1673ffffffffffffffffffffffffffffffffffffffff168152602001908152602001600020549050919050565b600160009054906101000a900473ffffffffffffffffffffffffffffffffffffffff1673ffffffffffffffffffffffffffffffffffffffff163373ffffffffffffffffffffffffffffffffffffffff1614611cd0576040517f08c379a00000000000000000000000000000000000000000000000000000000081526004018080602001828103825260358152602001806138bb6035913960400191505060405180910390fd5b7fb532073b38c83145e3e5135377a08bf9aab55bc0fd7c1179cd4fb995d2a5159c60008054906101000a900473ffffffffffffffffffffffffffffffffffffffff16600160009054906101000a900473ffffffffffffffffffffffffffffffffffffffff16604051808373ffffffffffffffffffffffffffffffffffffffff1681526020018273ffffffffffffffffffffffffffffffffffffffff1681526020019250505060405180910390a17f000000000000000000000000000000000000000000000000000000000000000073ffffffffffffffffffffffffffffffffffffffff16635faa4ea630600160009054906101000a900473ffffffffffffffffffffffffffffffffffffffff1660008054906101000a900473ffffffffffffffffffffffffffffffffffffffff166040518463ffffffff1660e01b8152600401808473ffffffffffffffffffffffffffffffffffffffff1681526020018373ffffffffffffffffffffffffffffffffffffffff1681526020018273ffffffffffffffffffffffffffffffffffffffff1681526020019350505050600060405180830381600087803b158015611e8457600080fd5b505af1158015611e98573d6000803e3d6000fd5b50505050600160009054906101000a900473ffffffffffffffffffffffffffffffffffffffff166000806101000a81548173ffffffffffffffffffffffffffffffffffffffff021916908373ffffffffffffffffffffffffffffffffffffffff1602179055506000600160006101000a81548173ffffffffffffffffffffffffffffffffffffffff021916908373ffffffffffffffffffffffffffffffffffffffff160217905550565b7f000000000000000000000000000000000000000000000000000000000000000081565b6000611f7442600d54613240565b905090565b60008054906101000a900473ffffffffffffffffffffffffffffffffffffffff1681565b60025481565b6002600754141561201c576040517f08c379a000000000000000000000000000000000000000000000000000000000815260040180806020018281038252601f8152602001807f5265656e7472616e637947756172643a207265656e7472616e742063616c6c0081525060200191505060405180910390fd5b600260078190555061202c613259565b3360005b60088054905081101561210d576000600960006008848154811061205057fe5b9060005260206000200160009054906101000a900473ffffffffffffffffffffffffffffffffffffffff1673ffffffffffffffffffffffffffffffffffffffff1673ffffffffffffffffffffffffffffffffffffffff16815260200190815260200160002090506120f7600883815481106120c757fe5b9060005260206000200160009054906101000a900473ffffffffffffffffffffffffffffffffffffffff16612ca8565b8160010181905550508080600101915050612030565b50612116611f66565b600f8190555060005b60088054905081101561239d576000600960006008848154811061213f57fe5b9060005260206000200160009054906101000a900473ffffffffffffffffffffffffffffffffffffffff1673ffffffffffffffffffffffffffffffffffffffff1673ffffffffffffffffffffffffffffffffffffffff1681526020019081526020016000209050600073ffffffffffffffffffffffffffffffffffffffff168373ffffffffffffffffffffffffffffffffffffffff161461238f5761221b83600884815481106121eb57fe5b9060005260206000200160009054906101000a900473ffffffffffffffffffffffffffffffffffffffff16610bc3565b600b60006008858154811061222c57fe5b9060005260206000200160009054906101000a900473ffffffffffffffffffffffffffffffffffffffff1673ffffffffffffffffffffffffffffffffffffffff1673ffffffffffffffffffffffffffffffffffffffff16815260200190815260200160002060008573ffffffffffffffffffffffffffffffffffffffff1673ffffffffffffffffffffffffffffffffffffffff168152602001908152602001600020819055508060010154600a6000600885815481106122e857fe5b9060005260206000200160009054906101000a900473ffffffffffffffffffffffffffffffffffffffff1673ffffffffffffffffffffffffffffffffffffffff1673ffffffffffffffffffffffffffffffffffffffff16815260200190815260200160002060008573ffffffffffffffffffffffffffffffffffffffff1673ffffffffffffffffffffffffffffffffffffffff168152602001908152602001600020819055505b50808060010191505061211f565b5060008211612414576040517f08c379a000000000000000000000000000000000000000000000000000000000815260040180806020018281038252600e8152602001807f43616e6e6f74207374616b65203000000000000000000000000000000000000081525060200191505060405180910390fd5b61241d826132c1565b3373ffffffffffffffffffffffffffffffffffffffff167f9e71bc8eea02a63969f509818f2dafb9254532904319f9dbda79b67bd34a5f3d836040518082815260200191505060405180910390a250600160078190555050565b600080600960008473ffffffffffffffffffffffffffffffffffffffff1673ffffffffffffffffffffffffffffffffffffffff16815260200190815260200160002090506124d4600e548260000154612f0790919063ffffffff16565b915050919050565b600f5481565b6124ea6133c3565b600080600090505b6008805490508110156125cf576000600960006008848154811061251257fe5b9060005260206000200160009054906101000a900473ffffffffffffffffffffffffffffffffffffffff1673ffffffffffffffffffffffffffffffffffffffff1673ffffffffffffffffffffffffffffffffffffffff16815260200190815260200160002090506125b96008838154811061258957fe5b9060005260206000200160009054906101000a900473ffffffffffffffffffffffffffffffffffffffff16612ca8565b81600101819055505080806001019150506124f2565b506125d8611f66565b600f8190555060005b60088054905081101561285f576000600960006008848154811061260157fe5b9060005260206000200160009054906101000a900473ffffffffffffffffffffffffffffffffffffffff1673ffffffffffffffffffffffffffffffffffffffff1673ffffffffffffffffffffffffffffffffffffffff1681526020019081526020016000209050600073ffffffffffffffffffffffffffffffffffffffff168373ffffffffffffffffffffffffffffffffffffffff1614612851576126dd83600884815481106126ad57fe5b9060005260206000200160009054906101000a900473ffffffffffffffffffffffffffffffffffffffff16610bc3565b600b6000600885815481106126ee57fe5b9060005260206000200160009054906101000a900473ffffffffffffffffffffffffffffffffffffffff1673ffffffffffffffffffffffffffffffffffffffff1673ffffffffffffffffffffffffffffffffffffffff16815260200190815260200160002060008573ffffffffffffffffffffffffffffffffffffffff1673ffffffffffffffffffffffffffffffffffffffff168152602001908152602001600020819055508060010154600a6000600885815481106127aa57fe5b9060005260206000200160009054906101000a900473ffffffffffffffffffffffffffffffffffffffff1673ffffffffffffffffffffffffffffffffffffffff1673ffffffffffffffffffffffffffffffffffffffff16815260200190815260200160002060008573ffffffffffffffffffffffffffffffffffffffff1673ffffffffffffffffffffffffffffffffffffffff168152602001908152602001600020819055505b5080806001019150506125e1565b50828290508585905014801561287c575082829050600880549050145b6128d1576040517f08c379a00000000000000000000000000000000000000000000000000000000081526004018080602001828103825260468152602001806139b16046913960600191505060405180910390fd5b60005b83839050811015612bf9576000600960008686858181106128f157fe5b9050602002013573ffffffffffffffffffffffffffffffffffffffff1673ffffffffffffffffffffffffffffffffffffffff1673ffffffffffffffffffffffffffffffffffffffff1681526020019081526020016000209050600d5442106129875761297a600e5488888581811061296557fe5b90506020020135612f8d90919063ffffffff16565b8160000181905550612a23565b600061299e42600d54612e8490919063ffffffff16565b9050600c544210156129c4576129c1600c54600d54612e8490919063ffffffff16565b90505b60006129dd836000015483612f0790919063ffffffff16565b9050612a18600e54612a0a838c8c898181106129f557fe5b9050602002013561301690919063ffffffff16565b612f8d90919063ffffffff16565b836000018190555050505b6000858584818110612a3157fe5b9050602002013573ffffffffffffffffffffffffffffffffffffffff1673ffffffffffffffffffffffffffffffffffffffff166370a08231306040518263ffffffff1660e01b8152600401808273ffffffffffffffffffffffffffffffffffffffff16815260200191505060206040518083038186803b158015612ab457600080fd5b505afa158015612ac8573d6000803e3d6000fd5b505050506040513d6020811015612ade57600080fd5b81019080805190602001909291905050509050612b06600e5482612f8d90919063ffffffff16565b82600001541115612b62576040517f08c379a000000000000000000000000000000000000000000000000000000000815260040180806020018281038252602c815260200180613a26602c913960400191505060405180910390fd5b858584818110612b6e57fe5b9050602002013573ffffffffffffffffffffffffffffffffffffffff1673ffffffffffffffffffffffffffffffffffffffff167ffb5edb6eb340a01f6a67189edc978df97841c43752c212fc85995ea230017635898986818110612bce57fe5b905060200201356040518082815260200191505060405180910390a2505080806001019150506128d4565b5042600f81905550612c18600e54600c5461301690919063ffffffff16565b600d819055505050505050565b600b602052816000526040600020602052806000526040600020600091509150505481565b612c92600660003373ffffffffffffffffffffffffffffffffffffffff1673ffffffffffffffffffffffffffffffffffffffff16815260200190815260200160002054610d69565b612c9a6112dd565b565b600d5481565b600c5481565b600080600960008473ffffffffffffffffffffffffffffffffffffffff1673ffffffffffffffffffffffffffffffffffffffff168152602001908152602001600020905060006005541480612cfe5750600c5442105b15612d10578060010154915050612d8f565b612d8b612d78612d1e610aca565b612d6a670de0b6b3a7640000612d5c8660000154612d4e600f54612d40611f66565b612e8490919063ffffffff16565b612f0790919063ffffffff16565b612f0790919063ffffffff16565b612f8d90919063ffffffff16565b826001015461301690919063ffffffff16565b9150505b919050565b60096020528060005260406000206000915090508060000154908060010154905082565b600460009054906101000a900473ffffffffffffffffffffffffffffffffffffffff1681565b60008054906101000a900473ffffffffffffffffffffffffffffffffffffffff1673ffffffffffffffffffffffffffffffffffffffff163373ffffffffffffffffffffffffffffffffffffffff1614612e82576040517f08c379a000000000000000000000000000000000000000000000000000000000815260040180806020018281038252602f8152602001806139f7602f913960400191505060405180910390fd5b565b600082821115612efc576040517f08c379a000000000000000000000000000000000000000000000000000000000815260040180806020018281038252601e8152602001807f536166654d6174683a207375627472616374696f6e206f766572666c6f77000081525060200191505060405180910390fd5b818303905092915050565b600080831415612f1a5760009050612f87565b6000828402905082848281612f2b57fe5b0414612f82576040517f08c379a0000000000000000000000000000000000000000000000000000000008152600401808060200182810382526021815260200180613a526021913960400191505060405180910390fd5b809150505b92915050565b6000808211613004576040517f08c379a000000000000000000000000000000000000000000000000000000000815260040180806020018281038252601a8152602001807f536166654d6174683a206469766973696f6e206279207a65726f00000000000081525060200191505060405180910390fd5b81838161300d57fe5b04905092915050565b600080828401905083811015613094576040517f08c379a000000000000000000000000000000000000000000000000000000000815260040180806020018281038252601b8152602001807f536166654d6174683a206164646974696f6e206f766572666c6f77000000000081525060200191505060405180910390fd5b8091505092915050565b6130b381600554612e8490919063ffffffff16565b60058190555061310b81600660003373ffffffffffffffffffffffffffffffffffffffff1673ffffffffffffffffffffffffffffffffffffffff16815260200190815260200160002054612e8490919063ffffffff16565b600660003373ffffffffffffffffffffffffffffffffffffffff1673ffffffffffffffffffffffffffffffffffffffff1681526020019081526020016000208190555061319b3382600460009054906101000a900473ffffffffffffffffffffffffffffffffffffffff1673ffffffffffffffffffffffffffffffffffffffff1661319e9092919063ffffffff16565b50565b61323b8363a9059cbb60e01b8484604051602401808373ffffffffffffffffffffffffffffffffffffffff16815260200182815260200192505050604051602081830303815290604052907bffffffffffffffffffffffffffffffffffffffffffffffffffffffff19166020820180517bffffffffffffffffffffffffffffffffffffffffffffffffffffffff838183161783525050505061346b565b505050565b600081831061324f5781613251565b825b905092915050565b600360009054906101000a900460ff16156132bf576040517f08c379a000000000000000000000000000000000000000000000000000000000815260040180806020018281038252603c815260200180613a73603c913960400191505060405180910390fd5b565b6132d68160055461301690919063ffffffff16565b60058190555061332e81600660003373ffffffffffffffffffffffffffffffffffffffff1673ffffffffffffffffffffffffffffffffffffffff1681526020019081526020016000205461301690919063ffffffff16565b600660003373ffffffffffffffffffffffffffffffffffffffff1673ffffffffffffffffffffffffffffffffffffffff168152602001908152602001600020819055506133c0333083600460009054906101000a900473ffffffffffffffffffffffffffffffffffffffff1673ffffffffffffffffffffffffffffffffffffffff1661355a909392919063ffffffff16565b50565b600360019054906101000a900473ffffffffffffffffffffffffffffffffffffffff1673ffffffffffffffffffffffffffffffffffffffff163373ffffffffffffffffffffffffffffffffffffffff1614613469576040517f08c379a000000000000000000000000000000000000000000000000000000000815260040180806020018281038252602a815260200180613aaf602a913960400191505060405180910390fd5b565b60006134cd826040518060400160405280602081526020017f5361666545524332303a206c6f772d6c6576656c2063616c6c206661696c65648152508573ffffffffffffffffffffffffffffffffffffffff1661361b9092919063ffffffff16565b9050600081511115613555578080602001905160208110156134ee57600080fd5b8101908080519060200190929190505050613554576040517f08c379a000000000000000000000000000000000000000000000000000000000815260040180806020018281038252602a815260200180613ad9602a913960400191505060405180910390fd5b5b505050565b613615846323b872dd60e01b858585604051602401808473ffffffffffffffffffffffffffffffffffffffff1681526020018373ffffffffffffffffffffffffffffffffffffffff1681526020018281526020019350505050604051602081830303815290604052907bffffffffffffffffffffffffffffffffffffffffffffffffffffffff19166020820180517bffffffffffffffffffffffffffffffffffffffffffffffffffffffff838183161783525050505061346b565b50505050565b606061362a8484600085613633565b90509392505050565b60608247101561368e576040517f08c379a000000000000000000000000000000000000000000000000000000000815260040180806020018281038252602681526020018061391f6026913960400191505060405180910390fd5b613697856137db565b613709576040517f08c379a000000000000000000000000000000000000000000000000000000000815260040180806020018281038252601d8152602001807f416464726573733a2063616c6c20746f206e6f6e2d636f6e747261637400000081525060200191505060405180910390fd5b6000808673ffffffffffffffffffffffffffffffffffffffff1685876040518082805190602001908083835b602083106137585780518252602082019150602081019050602083039250613735565b6001836020036101000a03801982511681845116808217855250505050505090500191505060006040518083038185875af1925050503d80600081146137ba576040519150601f19603f3d011682016040523d82523d6000602084013e6137bf565b606091505b50915091506137cf8282866137ee565b92505050949350505050565b600080823b905060008111915050919050565b606083156137fe578290506138b3565b6000835111156138115782518084602001fd5b816040517f08c379a00000000000000000000000000000000000000000000000000000000081526004018080602001828103825283818151815260200191508051906020019080838360005b8381101561387857808201518184015260208101905061385d565b50505050905090810190601f1680156138a55780820380516001836020036101000a031916815260200191505b509250505060405180910390fd5b939250505056fe596f75206d757374206265206e6f6d696e61746564206265666f726520796f752063616e20616363657074206f776e657273686970526f6c6c5374616b696e67526577617264733a205374617274206d7573742062652061206675747572652064617465416464726573733a20696e73756666696369656e742062616c616e636520666f722063616c6c526f6c6c5374616b696e67526577617264733a2050726576696f7573207265776172647320706572696f64206d75737420626520636f6d706c657465206265666f7265206368616e67696e6720746865206475726174696f6e20666f7220746865206e657720706572696f64526f6c6c5374616b696e67526577617264733a20416d6f756e74206f662072657761726473206e6f74206d61746368696e672072657761726420746f6b656e20636f756e742e4f6e6c792074686520636f6e7472616374206f776e6572206d617920706572666f726d207468697320616374696f6e526f6c6c5374616b696e67526577617264733a2050726f76696465642072657761726420746f6f2068696768536166654d6174683a206d756c7469706c69636174696f6e206f766572666c6f775468697320616374696f6e2063616e6e6f7420626520706572666f726d6564207768696c652074686520636f6e74726163742069732070617573656443616c6c6572206973206e6f742052657761726473446973747269627574696f6e20636f6e74726163745361666545524332303a204552433230206f7065726174696f6e20646964206e6f742073756363656564a264697066735822122030751b3284a093e3d0a586e7d6cbffa04990b77aebbf03fb7e7ca6b51cf54f2464736f6c63430007060033a26469706673582212209106469fd246734c7a27f535b983e40235652baa9fa2f35054535bb4b56d643e64736f6c63430007060033",
  "linkReferences": {},
  "deployedLinkReferences": {}
}