{
  "_format": "hh-sol-artifact-1",
  "contractName": "Attacker",
  "sourceName": "contracts/test/Attacker.sol",
  "abi": [
    {
      "payable": true,
      "stateMutability": "payable",
      "type": "fallback"
    },
    {
      "constant": false,
      "inputs": [
        {
          "internalType": "bool",
          "name": "_shouldTry",
          "type": "bool"
        }
      ],
      "name": "attack",
      "outputs": [],
      "payable": false,
      "stateMutability": "nonpayable",
      "type": "function"
    },
    {
      "constant": true,
      "inputs": [],
      "name": "attackSuccess",
      "outputs": [
        {
          "internalType": "bool",
          "name": "",
          "type": "bool"
        }
      ],
      "payable": false,
      "stateMutability": "view",
      "type": "function"
    },
    {
      "constant": false,
      "inputs": [
        {
          "internalType": "address payable",
          "name": "_victimAddress",
          "type": "address"
        },
        {
          "internalType": "bytes32",
          "name": "_scheduleId",
          "type": "bytes32"
        }
      ],
      "name": "setVictim",
      "outputs": [],
      "payable": false,
      "stateMutability": "nonpayable",
      "type": "function"
    }
  ],
  "bytecode": "0x608060405234801561001057600080fd5b50610364806100206000396000f3fe6080604052600436106100345760003560e01c806353441e251461012a578063702f9b8e14610185578063b97a58ee146101c2575b600260009054906101000a900460ff161561004e57610128565b6001600260006101000a81548160ff0219169083151502179055506002809054906101000a900460ff161561010c576000809054906101000a900473ffffffffffffffffffffffffffffffffffffffff1673ffffffffffffffffffffffffffffffffffffffff1663bd66528a6001546040518263ffffffff1660e01b815260040180828152602001915050600060405180830381600087803b1580156100f357600080fd5b505af1158015610107573d6000803e3d6000fd5b505050505b6001600260016101000a81548160ff0219169083151502179055505b005b34801561013657600080fd5b506101836004803603604081101561014d57600080fd5b81019080803573ffffffffffffffffffffffffffffffffffffffff169060200190929190803590602001909291905050506101f1565b005b34801561019157600080fd5b506101c0600480360360208110156101a857600080fd5b8101908080351515906020019092919050505061023c565b005b3480156101ce57600080fd5b506101d761031c565b604051808215151515815260200191505060405180910390f35b816000806101000a81548173ffffffffffffffffffffffffffffffffffffffff021916908373ffffffffffffffffffffffffffffffffffffffff160217905550806001819055505050565b6000600260006101000a81548160ff0219169083151502179055506000600260016101000a81548160ff021916908315150217905550806002806101000a81548160ff0219169083151502179055506000809054906101000a900473ffffffffffffffffffffffffffffffffffffffff1673ffffffffffffffffffffffffffffffffffffffff1663bd66528a6001546040518263ffffffff1660e01b815260040180828152602001915050600060405180830381600087803b15801561030157600080fd5b505af1158015610315573d6000803e3d6000fd5b5050505050565b600260019054906101000a900460ff168156fea265627a7a723158200eb7bf39910f234dad8e834eea4c4ce2568abb40713c0500ef9d397c20f3d50064736f6c634300050f0032",
  "linkReferences": {},
  "deployedLinkReferences": {}
}