{
  "_format": "hh-sol-artifact-1",
  "contractName": "EternalStorage",
  "sourceName": "contracts/EternalStorage.sol",
  "abi": [
    {
      "inputs": [],
      "stateMutability": "nonpayable",
      "type": "constructor"
    },
    {
      "anonymous": false,
      "inputs": [
        {
          "indexed": true,
          "internalType": "address",
          "name": "from",
          "type": "address"
        },
        {
          "indexed": true,
          "internalType": "uint256",
          "name": "campaignIndex",
          "type": "uint256"
        }
      ],
      "name": "CampaignCreated",
      "type": "event"
    },
    {
      "anonymous": false,
      "inputs": [
        {
          "indexed": true,
          "internalType": "bytes32",
          "name": "role",
          "type": "bytes32"
        },
        {
          "indexed": true,
          "internalType": "bytes32",
          "name": "previousAdminRole",
          "type": "bytes32"
        },
        {
          "indexed": true,
          "internalType": "bytes32",
          "name": "newAdminRole",
          "type": "bytes32"
        }
      ],
      "name": "RoleAdminChanged",
      "type": "event"
    },
    {
      "anonymous": false,
      "inputs": [
        {
          "indexed": true,
          "internalType": "bytes32",
          "name": "role",
          "type": "bytes32"
        },
        {
          "indexed": true,
          "internalType": "address",
          "name": "account",
          "type": "address"
        },
        {
          "indexed": true,
          "internalType": "address",
          "name": "sender",
          "type": "address"
        }
      ],
      "name": "RoleGranted",
      "type": "event"
    },
    {
      "anonymous": false,
      "inputs": [
        {
          "indexed": true,
          "internalType": "bytes32",
          "name": "role",
          "type": "bytes32"
        },
        {
          "indexed": true,
          "internalType": "address",
          "name": "account",
          "type": "address"
        },
        {
          "indexed": true,
          "internalType": "address",
          "name": "sender",
          "type": "address"
        }
      ],
      "name": "RoleRevoked",
      "type": "event"
    },
    {
      "inputs": [],
      "name": "DEFAULT_ADMIN_ROLE",
      "outputs": [
        {
          "internalType": "bytes32",
          "name": "",
          "type": "bytes32"
        }
      ],
      "stateMutability": "view",
      "type": "function"
    },
    {
      "inputs": [],
      "name": "WRITER_ROLE",
      "outputs": [
        {
          "internalType": "bytes32",
          "name": "",
          "type": "bytes32"
        }
      ],
      "stateMutability": "view",
      "type": "function"
    },
    {
      "inputs": [
        {
          "components": [
            {
              "internalType": "bytes32",
              "name": "campaignId",
              "type": "bytes32"
            },
            {
              "internalType": "bytes32[]",
              "name": "phases",
              "type": "bytes32[]"
            },
            {
              "internalType": "string",
              "name": "metadata",
              "type": "string"
            }
          ],
          "internalType": "struct MembershipsTypes.Campaign",
          "name": "value",
          "type": "tuple"
        }
      ],
      "name": "addCampaign",
      "outputs": [],
      "stateMutability": "nonpayable",
      "type": "function"
    },
    {
      "inputs": [
        {
          "internalType": "address",
          "name": "",
          "type": "address"
        },
        {
          "internalType": "uint256",
          "name": "",
          "type": "uint256"
        }
      ],
      "name": "campaignsByAddress",
      "outputs": [
        {
          "internalType": "uint256",
          "name": "campaignIndex",
          "type": "uint256"
        },
        {
          "internalType": "enum MembershipsTypes.UserType",
          "name": "userType",
          "type": "uint8"
        }
      ],
      "stateMutability": "view",
      "type": "function"
    },
    {
      "inputs": [
        {
          "internalType": "address",
          "name": "",
          "type": "address"
        }
      ],
      "name": "campaignsCreatedByAddress",
      "outputs": [
        {
          "internalType": "uint256",
          "name": "",
          "type": "uint256"
        }
      ],
      "stateMutability": "view",
      "type": "function"
    },
    {
      "inputs": [
        {
          "internalType": "bytes32",
          "name": "scheduleID",
          "type": "bytes32"
        },
        {
          "internalType": "address",
          "name": "addr",
          "type": "address"
        }
      ],
      "name": "getBuyPerWallet",
      "outputs": [
        {
          "internalType": "uint256",
          "name": "",
          "type": "uint256"
        }
      ],
      "stateMutability": "view",
      "type": "function"
    },
    {
      "inputs": [
        {
          "internalType": "bytes32",
          "name": "scheduleID",
          "type": "bytes32"
        }
      ],
      "name": "getBuyWalletCount",
      "outputs": [
        {
          "internalType": "uint256",
          "name": "",
          "type": "uint256"
        }
      ],
      "stateMutability": "view",
      "type": "function"
    },
    {
      "inputs": [
        {
          "internalType": "uint256",
          "name": "record",
          "type": "uint256"
        }
      ],
      "name": "getCampaign",
      "outputs": [
        {
          "components": [
            {
              "internalType": "bytes32",
              "name": "campaignId",
              "type": "bytes32"
            },
            {
              "internalType": "bytes32[]",
              "name": "phases",
              "type": "bytes32[]"
            },
            {
              "internalType": "string",
              "name": "metadata",
              "type": "string"
            }
          ],
          "internalType": "struct MembershipsTypes.Campaign",
          "name": "",
          "type": "tuple"
        }
      ],
      "stateMutability": "view",
      "type": "function"
    },
    {
      "inputs": [
        {
          "internalType": "address",
          "name": "addr",
          "type": "address"
        }
      ],
      "name": "getCampaignByAddressLength",
      "outputs": [
        {
          "internalType": "uint256",
          "name": "",
          "type": "uint256"
        }
      ],
      "stateMutability": "view",
      "type": "function"
    },
    {
      "inputs": [
        {
          "internalType": "address",
          "name": "addr",
          "type": "address"
        }
      ],
      "name": "getCampaignCreatedByAddress",
      "outputs": [
        {
          "internalType": "uint256",
          "name": "",
          "type": "uint256"
        }
      ],
      "stateMutability": "view",
      "type": "function"
    },
    {
      "inputs": [],
      "name": "getCampaignsLength",
      "outputs": [
        {
          "internalType": "uint256",
          "name": "",
          "type": "uint256"
        }
      ],
      "stateMutability": "view",
      "type": "function"
    },
    {
      "inputs": [
        {
          "internalType": "bytes32",
          "name": "scheduleID",
          "type": "bytes32"
        },
        {
          "internalType": "enum MembershipsTypes.UserType",
          "name": "userType",
          "type": "uint8"
        }
      ],
      "name": "getClaimed",
      "outputs": [
        {
          "internalType": "uint256",
          "name": "",
          "type": "uint256"
        }
      ],
      "stateMutability": "view",
      "type": "function"
    },
    {
      "inputs": [
        {
          "internalType": "bytes32",
          "name": "record",
          "type": "bytes32"
        }
      ],
      "name": "getReferral",
      "outputs": [
        {
          "components": [
            {
              "internalType": "address",
              "name": "referral",
              "type": "address"
            },
            {
              "internalType": "uint256",
              "name": "referralFee",
              "type": "uint256"
            }
          ],
          "internalType": "struct MembershipsTypes.ScheduleReferral",
          "name": "",
          "type": "tuple"
        }
      ],
      "stateMutability": "view",
      "type": "function"
    },
    {
      "inputs": [
        {
          "internalType": "bytes32",
          "name": "role",
          "type": "bytes32"
        }
      ],
      "name": "getRoleAdmin",
      "outputs": [
        {
          "internalType": "bytes32",
          "name": "",
          "type": "bytes32"
        }
      ],
      "stateMutability": "view",
      "type": "function"
    },
    {
      "inputs": [
        {
          "internalType": "bytes32",
          "name": "record",
          "type": "bytes32"
        }
      ],
      "name": "getSchedule",
      "outputs": [
        {
          "components": [
            {
              "internalType": "bool",
              "name": "initialized",
              "type": "bool"
            },
            {
              "internalType": "bool",
              "name": "revoked",
              "type": "bool"
            },
            {
              "internalType": "address",
              "name": "owner",
              "type": "address"
            },
            {
              "internalType": "uint256",
              "name": "start",
              "type": "uint256"
            },
            {
              "internalType": "uint256",
              "name": "duration",
              "type": "uint256"
            },
            {
              "internalType": "bytes32",
              "name": "merkleRoot",
              "type": "bytes32"
            },
            {
              "internalType": "uint256",
              "name": "amountTotal",
              "type": "uint256"
            },
            {
              "internalType": "uint256",
              "name": "released",
              "type": "uint256"
            },
            {
              "internalType": "address[]",
              "name": "lotToken",
              "type": "address[]"
            },
            {
              "internalType": "uint256[]",
              "name": "lotSize",
              "type": "uint256[]"
            },
            {
              "components": [
                {
                  "internalType": "address",
                  "name": "token",
                  "type": "address"
                },
                {
                  "internalType": "enum MembershipsTypes.AssetType",
                  "name": "assetType",
                  "type": "uint8"
                }
              ],
              "internalType": "struct MembershipsTypes.Asset",
              "name": "paymentAsset",
              "type": "tuple"
            },
            {
              "internalType": "uint256",
              "name": "pricePerLot",
              "type": "uint256"
            },
            {
              "internalType": "uint256",
              "name": "rollFee",
              "type": "uint256"
            },
            {
              "internalType": "uint256",
              "name": "maxBuyPerWallet",
              "type": "uint256"
            }
          ],
          "internalType": "struct MembershipsTypes.MintingSchedule",
          "name": "",
          "type": "tuple"
        }
      ],
      "stateMutability": "view",
      "type": "function"
    },
    {
      "inputs": [],
      "name": "getTokensAllowed",
      "outputs": [
        {
          "internalType": "address[]",
          "name": "",
          "type": "address[]"
        }
      ],
      "stateMutability": "view",
      "type": "function"
    },
    {
      "inputs": [
        {
          "internalType": "bytes32",
          "name": "role",
          "type": "bytes32"
        },
        {
          "internalType": "address",
          "name": "account",
          "type": "address"
        }
      ],
      "name": "grantRole",
      "outputs": [],
      "stateMutability": "nonpayable",
      "type": "function"
    },
    {
      "inputs": [
        {
          "internalType": "bytes32",
          "name": "role",
          "type": "bytes32"
        },
        {
          "internalType": "address",
          "name": "account",
          "type": "address"
        }
      ],
      "name": "hasRole",
      "outputs": [
        {
          "internalType": "bool",
          "name": "",
          "type": "bool"
        }
      ],
      "stateMutability": "view",
      "type": "function"
    },
    {
      "inputs": [
        {
          "internalType": "address",
          "name": "addr",
          "type": "address"
        }
      ],
      "name": "isTokenAllowed",
      "outputs": [
        {
          "internalType": "bool",
          "name": "",
          "type": "bool"
        }
      ],
      "stateMutability": "view",
      "type": "function"
    },
    {
      "inputs": [
        {
          "internalType": "bytes32",
          "name": "record",
          "type": "bytes32"
        },
        {
          "internalType": "address",
          "name": "oldReferral",
          "type": "address"
        }
      ],
      "name": "removeReferral",
      "outputs": [],
      "stateMutability": "nonpayable",
      "type": "function"
    },
    {
      "inputs": [
        {
          "internalType": "bytes32",
          "name": "role",
          "type": "bytes32"
        },
        {
          "internalType": "address",
          "name": "account",
          "type": "address"
        }
      ],
      "name": "renounceRole",
      "outputs": [],
      "stateMutability": "nonpayable",
      "type": "function"
    },
    {
      "inputs": [
        {
          "internalType": "bytes32",
          "name": "role",
          "type": "bytes32"
        },
        {
          "internalType": "address",
          "name": "account",
          "type": "address"
        }
      ],
      "name": "revokeRole",
      "outputs": [],
      "stateMutability": "nonpayable",
      "type": "function"
    },
    {
      "inputs": [
        {
          "internalType": "bytes32",
          "name": "",
          "type": "bytes32"
        }
      ],
      "name": "scheduleToCampaign",
      "outputs": [
        {
          "internalType": "bytes32",
          "name": "campaignId",
          "type": "bytes32"
        },
        {
          "internalType": "uint256",
          "name": "campaignIndex",
          "type": "uint256"
        },
        {
          "internalType": "uint256",
          "name": "scheduleIndex",
          "type": "uint256"
        }
      ],
      "stateMutability": "view",
      "type": "function"
    },
    {
      "inputs": [
        {
          "internalType": "bytes32",
          "name": "",
          "type": "bytes32"
        }
      ],
      "name": "schedules",
      "outputs": [
        {
          "internalType": "bool",
          "name": "initialized",
          "type": "bool"
        },
        {
          "internalType": "bool",
          "name": "revoked",
          "type": "bool"
        },
        {
          "internalType": "address",
          "name": "owner",
          "type": "address"
        },
        {
          "internalType": "uint256",
          "name": "start",
          "type": "uint256"
        },
        {
          "internalType": "uint256",
          "name": "duration",
          "type": "uint256"
        },
        {
          "internalType": "bytes32",
          "name": "merkleRoot",
          "type": "bytes32"
        },
        {
          "internalType": "uint256",
          "name": "amountTotal",
          "type": "uint256"
        },
        {
          "internalType": "uint256",
          "name": "released",
          "type": "uint256"
        },
        {
          "components": [
            {
              "internalType": "address",
              "name": "token",
              "type": "address"
            },
            {
              "internalType": "enum MembershipsTypes.AssetType",
              "name": "assetType",
              "type": "uint8"
            }
          ],
          "internalType": "struct MembershipsTypes.Asset",
          "name": "paymentAsset",
          "type": "tuple"
        },
        {
          "internalType": "uint256",
          "name": "pricePerLot",
          "type": "uint256"
        },
        {
          "internalType": "uint256",
          "name": "rollFee",
          "type": "uint256"
        },
        {
          "internalType": "uint256",
          "name": "maxBuyPerWallet",
          "type": "uint256"
        }
      ],
      "stateMutability": "view",
      "type": "function"
    },
    {
      "inputs": [
        {
          "internalType": "bytes32",
          "name": "scheduleID",
          "type": "bytes32"
        },
        {
          "internalType": "address",
          "name": "addr",
          "type": "address"
        },
        {
          "internalType": "uint256",
          "name": "value",
          "type": "uint256"
        }
      ],
      "name": "setBuyPerWallet",
      "outputs": [],
      "stateMutability": "nonpayable",
      "type": "function"
    },
    {
      "inputs": [
        {
          "internalType": "bytes32",
          "name": "scheduleID",
          "type": "bytes32"
        },
        {
          "internalType": "enum MembershipsTypes.UserType",
          "name": "userType",
          "type": "uint8"
        },
        {
          "internalType": "uint256",
          "name": "value",
          "type": "uint256"
        }
      ],
      "name": "setClaimed",
      "outputs": [],
      "stateMutability": "nonpayable",
      "type": "function"
    },
    {
      "inputs": [
        {
          "internalType": "bytes32",
          "name": "record",
          "type": "bytes32"
        },
        {
          "components": [
            {
              "internalType": "address",
              "name": "referral",
              "type": "address"
            },
            {
              "internalType": "uint256",
              "name": "referralFee",
              "type": "uint256"
            }
          ],
          "internalType": "struct MembershipsTypes.ScheduleReferral",
          "name": "value",
          "type": "tuple"
        }
      ],
      "name": "setReferral",
      "outputs": [],
      "stateMutability": "nonpayable",
      "type": "function"
    },
    {
      "inputs": [
        {
          "internalType": "bytes32",
          "name": "record",
          "type": "bytes32"
        },
        {
          "components": [
            {
              "internalType": "bool",
              "name": "initialized",
              "type": "bool"
            },
            {
              "internalType": "bool",
              "name": "revoked",
              "type": "bool"
            },
            {
              "internalType": "address",
              "name": "owner",
              "type": "address"
            },
            {
              "internalType": "uint256",
              "name": "start",
              "type": "uint256"
            },
            {
              "internalType": "uint256",
              "name": "duration",
              "type": "uint256"
            },
            {
              "internalType": "bytes32",
              "name": "merkleRoot",
              "type": "bytes32"
            },
            {
              "internalType": "uint256",
              "name": "amountTotal",
              "type": "uint256"
            },
            {
              "internalType": "uint256",
              "name": "released",
              "type": "uint256"
            },
            {
              "internalType": "address[]",
              "name": "lotToken",
              "type": "address[]"
            },
            {
              "internalType": "uint256[]",
              "name": "lotSize",
              "type": "uint256[]"
            },
            {
              "components": [
                {
                  "internalType": "address",
                  "name": "token",
                  "type": "address"
                },
                {
                  "internalType": "enum MembershipsTypes.AssetType",
                  "name": "assetType",
                  "type": "uint8"
                }
              ],
              "internalType": "struct MembershipsTypes.Asset",
              "name": "paymentAsset",
              "type": "tuple"
            },
            {
              "internalType": "uint256",
              "name": "pricePerLot",
              "type": "uint256"
            },
            {
              "internalType": "uint256",
              "name": "rollFee",
              "type": "uint256"
            },
            {
              "internalType": "uint256",
              "name": "maxBuyPerWallet",
              "type": "uint256"
            }
          ],
          "internalType": "struct MembershipsTypes.MintingSchedule",
          "name": "value",
          "type": "tuple"
        }
      ],
      "name": "setSchedule",
      "outputs": [],
      "stateMutability": "nonpayable",
      "type": "function"
    },
    {
      "inputs": [
        {
          "internalType": "address",
          "name": "token",
          "type": "address"
        },
        {
          "internalType": "bool",
          "name": "value",
          "type": "bool"
        }
      ],
      "name": "setTokensAllowed",
      "outputs": [],
      "stateMutability": "nonpayable",
      "type": "function"
    },
    {
      "inputs": [
        {
          "internalType": "bytes4",
          "name": "interfaceId",
          "type": "bytes4"
        }
      ],
      "name": "supportsInterface",
      "outputs": [
        {
          "internalType": "bool",
          "name": "",
          "type": "bool"
        }
      ],
      "stateMutability": "view",
      "type": "function"
    },
    {
      "inputs": [
        {
          "internalType": "address",
          "name": "referral",
          "type": "address"
        },
        {
          "internalType": "uint256",
          "name": "campaignIndex",
          "type": "uint256"
        }
      ],
      "name": "updateReferralIndex",
      "outputs": [],
      "stateMutability": "nonpayable",
      "type": "function"
    }
  ],
  "bytecode": "0x60806040523480156200001157600080fd5b50620000276000801b336200005f60201b60201c565b620000597f2b8f168f361ac1393a163ed4adfa899a87be7b7c71645167bdaddd822ae453c8306200005f60201b60201c565b620001c2565b6200007182826200015060201b60201c565b6200014c57600160008084815260200190815260200160002060000160008373ffffffffffffffffffffffffffffffffffffffff1673ffffffffffffffffffffffffffffffffffffffff16815260200190815260200160002060006101000a81548160ff021916908315150217905550620000f1620001ba60201b60201c565b73ffffffffffffffffffffffffffffffffffffffff168173ffffffffffffffffffffffffffffffffffffffff16837f2f8788117e7eff1d82e926ec794901d17c78024a50270940304540a733656f0d60405160405180910390a45b5050565b600080600084815260200190815260200160002060000160008373ffffffffffffffffffffffffffffffffffffffff1673ffffffffffffffffffffffffffffffffffffffff16815260200190815260200160002060009054906101000a900460ff16905092915050565b600033905090565b61479680620001d26000396000f3fe608060405234801561001057600080fd5b50600436106101e55760003560e01c806391100e051161010f578063c5350128116100a2578063efc427b711610071578063efc427b71461060a578063f730f4591461063a578063f9eaee0d14610656578063fb5474ae14610686576101e5565b8063c535012814610565578063d1e16bfa14610581578063d547741f146105bc578063e4e4f803146105d8576101e5565b8063a8c2cda4116100de578063a8c2cda4146104cb578063ac886f26146104e7578063b3b736a314610517578063c2f1ee9d14610547576101e5565b806391100e051461044357806391d148541461045f5780639beaab7b1461048f578063a217fddf146104ad576101e5565b80633923c75a116101875780635598f8cc116101565780635598f8cc14610397578063662353b1146103c757806382e58d51146103f75780638d0ba65c14610427576101e5565b80633923c75a146102eb5780633adc277a1461031b5780633c6392781461034b578063433f4c2b1461037b576101e5565b8063248a9ca3116101c3578063248a9ca3146102525780632f2ff15d1461028257806336568abe1461029e57806338ff4d57146102ba576101e5565b806301ffc9a7146101ea5780631c9784f91461021a57806322366f5014610236575b600080fd5b61020460048036038101906101ff91906128f8565b6106a4565b6040516102119190612fbe565b60405180910390f35b610234600480360381019061022f9190612925565b61071e565b005b610250600480360381019061024b9190612689565b610c13565b005b61026c60048036038101906102679190612709565b610e50565b6040516102799190613093565b60405180910390f35b61029c60048036038101906102979190612736565b610e6f565b005b6102b860048036038101906102b39190612736565b610e98565b005b6102d460048036038101906102cf91906126c9565b610f1b565b6040516102e29291906131c1565b60405180910390f35b6103056004803603810190610300919061265c565b610f59565b60405161031291906131a6565b60405180910390f35b61033560048036038101906103309190612709565b610fa2565b6040516103429190613169565b60405180910390f35b61036560048036038101906103609190612736565b611237565b60405161037291906131a6565b60405180910390f35b6103956004803603810190610390919061285c565b611292565b005b6103b160048036038101906103ac919061296e565b6112ec565b6040516103be9190613147565b60405180910390f35b6103e160048036038101906103dc919061265c565b61141c565b6040516103ee91906131a6565b60405180910390f35b610411600480360381019061040c9190612709565b611434565b60405161041e919061318b565b60405180910390f35b610441600480360381019061043c91906128b8565b6114c1565b005b61045d60048036038101906104589190612809565b61151b565b005b61047960048036038101906104749190612736565b6115a0565b6040516104869190612fbe565b60405180910390f35b61049761160a565b6040516104a49190613093565b60405180910390f35b6104b561162e565b6040516104c29190613093565b60405180910390f35b6104e560048036038101906104e09190612776565b611635565b005b61050160048036038101906104fc9190612709565b611745565b60405161050e91906131a6565b60405180910390f35b610531600480360381019061052c919061265c565b611762565b60405161053e91906131a6565b60405180910390f35b61054f6117ab565b60405161055c9190612f9c565b60405180910390f35b61057f600480360381019061057a9190612736565b611839565b005b61059b60048036038101906105969190612709565b611b10565b6040516105b39c9b9a99989796959493929190612fd9565b60405180910390f35b6105d660048036038101906105d19190612736565b611c45565b005b6105f260048036038101906105ed9190612709565b611c6e565b604051610601939291906130ae565b60405180910390f35b610624600480360381019061061f91906127c9565b611c98565b60405161063191906131a6565b60405180910390f35b610654600480360381019061064f91906126c9565b611ceb565b005b610670600480360381019061066b919061265c565b611e90565b60405161067d9190612fbe565b60405180910390f35b61068e611f3f565b60405161069b91906131a6565b60405180910390f35b60007f7965db0b000000000000000000000000000000000000000000000000000000007bffffffffffffffffffffffffffffffffffffffffffffffffffffffff1916827bffffffffffffffffffffffffffffffffffffffffffffffffffffffff19161480610717575061071682611f4c565b5b9050919050565b7f2b8f168f361ac1393a163ed4adfa899a87be7b7c71645167bdaddd822ae453c86107508161074b611fb6565b611fbe565b6000828060200190610762919061324d565b600081811061077457610773613fcd565b5b905060200201359050600183908060018154018082558091505060019003906000526020600020906003020160009091909190915081816107b59190614576565b505060005b8380602001906107ca919061324d565b905081101561087057604051806060016040528085600001358152602001600180805490506107f99190613618565b81526020018281525060026000868060200190610816919061324d565b8581811061082757610826613fcd565b5b905060200201358152602001908152602001600020600082015181600001556020820151816001015560408201518160020155905050808061086890613eaa565b9150506107ba565b5060006006600083815260200190815260200160002060000160029054906101000a900473ffffffffffffffffffffffffffffffffffffffff1690506000600360008373ffffffffffffffffffffffffffffffffffffffff1673ffffffffffffffffffffffffffffffffffffffff168152602001908152602001600020549050600180805490506109019190613618565b600460008473ffffffffffffffffffffffffffffffffffffffff1673ffffffffffffffffffffffffffffffffffffffff1681526020019081526020016000206000838152602001908152602001600020600001819055506000600460008473ffffffffffffffffffffffffffffffffffffffff1673ffffffffffffffffffffffffffffffffffffffff168152602001908152602001600020600083815260200190815260200160002060010160006101000a81548160ff021916908360038111156109cf576109ce613f40565b5b0217905550600360008373ffffffffffffffffffffffffffffffffffffffff1673ffffffffffffffffffffffffffffffffffffffff1681526020019081526020016000206000815480929190610a2490613eaa565b919050555060005b858060200190610a3c919061324d565b9050811015610b6d576000600a6000888060200190610a5b919061324d565b85818110610a6c57610a6b613fcd565b5b90506020020135815260200190815260200160002060000160009054906101000a900473ffffffffffffffffffffffffffffffffffffffff169050600073ffffffffffffffffffffffffffffffffffffffff168173ffffffffffffffffffffffffffffffffffffffff1614610b59573073ffffffffffffffffffffffffffffffffffffffff1663f730f4598260018080549050610b099190613618565b6040518363ffffffff1660e01b8152600401610b26929190612f73565b600060405180830381600087803b158015610b4057600080fd5b505af1158015610b54573d6000803e3d6000fd5b505050505b508080610b6590613eaa565b915050610a2c565b50600560008373ffffffffffffffffffffffffffffffffffffffff1673ffffffffffffffffffffffffffffffffffffffff1681526020019081526020016000206000815480929190610bbe90613eaa565b91905055506001805490508273ffffffffffffffffffffffffffffffffffffffff167ffc5b9d1c2c1134048e1792e3ae27d4eee04f460d341711c7088000d2ca21862160405160405180910390a35050505050565b7f2b8f168f361ac1393a163ed4adfa899a87be7b7c71645167bdaddd822ae453c8610c4581610c40611fb6565b611fbe565b60005b600b80549050811015610ddf578373ffffffffffffffffffffffffffffffffffffffff16600b8281548110610c8057610c7f613fcd565b5b9060005260206000200160009054906101000a900473ffffffffffffffffffffffffffffffffffffffff1673ffffffffffffffffffffffffffffffffffffffff161415610dcc578215610cd35750610e4b565b600b6001600b80549050610ce79190613618565b81548110610cf857610cf7613fcd565b5b9060005260206000200160009054906101000a900473ffffffffffffffffffffffffffffffffffffffff16600b8281548110610d3757610d36613fcd565b5b9060005260206000200160006101000a81548173ffffffffffffffffffffffffffffffffffffffff021916908373ffffffffffffffffffffffffffffffffffffffff160217905550600b805480610d9157610d90613f9e565b5b6001900381819060005260206000200160006101000a81549073ffffffffffffffffffffffffffffffffffffffff0219169055905550610e4b565b8080610dd790613eaa565b915050610c48565b508115610e4a57600b839080600181540180825580915050600190039060005260206000200160009091909190916101000a81548173ffffffffffffffffffffffffffffffffffffffff021916908373ffffffffffffffffffffffffffffffffffffffff1602179055505b5b505050565b6000806000838152602001908152602001600020600101549050919050565b610e7882610e50565b610e8981610e84611fb6565b611fbe565b610e93838361205b565b505050565b610ea0611fb6565b73ffffffffffffffffffffffffffffffffffffffff168173ffffffffffffffffffffffffffffffffffffffff1614610f0d576040517f08c379a0000000000000000000000000000000000000000000000000000000008152600401610f0490613127565b60405180910390fd5b610f17828261213b565b5050565b6004602052816000526040600020602052806000526040600020600091509150508060000154908060010160009054906101000a900460ff16905082565b6000600560008373ffffffffffffffffffffffffffffffffffffffff1673ffffffffffffffffffffffffffffffffffffffff168152602001908152602001600020549050919050565b610faa612458565b60066000838152602001908152602001600020604051806101c00160405290816000820160009054906101000a900460ff161515151581526020016000820160019054906101000a900460ff161515151581526020016000820160029054906101000a900473ffffffffffffffffffffffffffffffffffffffff1673ffffffffffffffffffffffffffffffffffffffff1673ffffffffffffffffffffffffffffffffffffffff16815260200160018201548152602001600282015481526020016003820154815260200160048201548152602001600582015481526020016006820180548060200260200160405190810160405280929190818152602001828054801561110c57602002820191906000526020600020905b8160009054906101000a900473ffffffffffffffffffffffffffffffffffffffff1673ffffffffffffffffffffffffffffffffffffffff16815260200190600101908083116110c2575b505050505081526020016007820180548060200260200160405190810160405280929190818152602001828054801561116457602002820191906000526020600020905b815481526020019060010190808311611150575b50505050508152602001600882016040518060400160405290816000820160009054906101000a900473ffffffffffffffffffffffffffffffffffffffff1673ffffffffffffffffffffffffffffffffffffffff1673ffffffffffffffffffffffffffffffffffffffff1681526020016000820160149054906101000a900460ff1660018111156111f8576111f7613f40565b5b600181111561120a57611209613f40565b5b81525050815260200160098201548152602001600a8201548152602001600b820154815250509050919050565b60006008600084815260200190815260200160002060008373ffffffffffffffffffffffffffffffffffffffff1673ffffffffffffffffffffffffffffffffffffffff16815260200190815260200160002054905092915050565b7f2b8f168f361ac1393a163ed4adfa899a87be7b7c71645167bdaddd822ae453c86112c4816112bf611fb6565b611fbe565b816006600085815260200190815260200160002081816112e49190614584565b905050505050565b6112f46124ea565b6001828154811061130857611307613fcd565b5b9060005260206000209060030201604051806060016040529081600082015481526020016001820180548060200260200160405190810160405280929190818152602001828054801561137a57602002820191906000526020600020905b815481526020019060010190808311611366575b5050505050815260200160028201805461139390613e5c565b80601f01602080910402602001604051908101604052809291908181526020018280546113bf90613e5c565b801561140c5780601f106113e15761010080835404028352916020019161140c565b820191906000526020600020905b8154815290600101906020018083116113ef57829003601f168201915b5050505050815250509050919050565b60056020528060005260406000206000915090505481565b61143c61250e565b600a60008381526020019081526020016000206040518060400160405290816000820160009054906101000a900473ffffffffffffffffffffffffffffffffffffffff1673ffffffffffffffffffffffffffffffffffffffff1673ffffffffffffffffffffffffffffffffffffffff1681526020016001820154815250509050919050565b7f2b8f168f361ac1393a163ed4adfa899a87be7b7c71645167bdaddd822ae453c86114f3816114ee611fb6565b611fbe565b81600a600085815260200190815260200160002081816115139190614592565b905050505050565b7f2b8f168f361ac1393a163ed4adfa899a87be7b7c71645167bdaddd822ae453c861154d81611548611fb6565b611fbe565b8160076000868152602001908152602001600020600085600381111561157657611575613f40565b5b600381111561158857611587613f40565b5b81526020019081526020016000208190555050505050565b600080600084815260200190815260200160002060000160008373ffffffffffffffffffffffffffffffffffffffff1673ffffffffffffffffffffffffffffffffffffffff16815260200190815260200160002060009054906101000a900460ff16905092915050565b7f2b8f168f361ac1393a163ed4adfa899a87be7b7c71645167bdaddd822ae453c881565b6000801b81565b7f2b8f168f361ac1393a163ed4adfa899a87be7b7c71645167bdaddd822ae453c861166781611662611fb6565b611fbe565b60006008600086815260200190815260200160002060008573ffffffffffffffffffffffffffffffffffffffff1673ffffffffffffffffffffffffffffffffffffffff1681526020019081526020016000205414156116ea576009600085815260200190815260200160002060008154809291906116e490613eaa565b91905055505b816008600086815260200190815260200160002060008573ffffffffffffffffffffffffffffffffffffffff1673ffffffffffffffffffffffffffffffffffffffff1681526020019081526020016000208190555050505050565b600060096000838152602001908152602001600020549050919050565b6000600360008373ffffffffffffffffffffffffffffffffffffffff1673ffffffffffffffffffffffffffffffffffffffff168152602001908152602001600020549050919050565b6060600b80548060200260200160405190810160405280929190818152602001828054801561182f57602002820191906000526020600020905b8160009054906101000a900473ffffffffffffffffffffffffffffffffffffffff1673ffffffffffffffffffffffffffffffffffffffff16815260200190600101908083116117e5575b5050505050905090565b7f2b8f168f361ac1393a163ed4adfa899a87be7b7c71645167bdaddd822ae453c861186b81611866611fb6565b611fbe565b6000600360008473ffffffffffffffffffffffffffffffffffffffff1673ffffffffffffffffffffffffffffffffffffffff16815260200190815260200160002054905060005b81811015611b09576002600086815260200190815260200160002060010154600460008673ffffffffffffffffffffffffffffffffffffffff1673ffffffffffffffffffffffffffffffffffffffff1681526020019081526020016000206000838152602001908152602001600020600001541415611af657600460008573ffffffffffffffffffffffffffffffffffffffff1673ffffffffffffffffffffffffffffffffffffffff16815260200190815260200160002060006001846119799190613618565b8152602001908152602001600020600460008673ffffffffffffffffffffffffffffffffffffffff1673ffffffffffffffffffffffffffffffffffffffff1681526020019081526020016000206000838152602001908152602001600020600082015481600001556001820160009054906101000a900460ff168160010160006101000a81548160ff02191690836003811115611a1957611a18613f40565b5b0217905550905050600460008573ffffffffffffffffffffffffffffffffffffffff1673ffffffffffffffffffffffffffffffffffffffff1681526020019081526020016000206000600184611a6f9190613618565b81526020019081526020016000206000808201600090556001820160006101000a81549060ff02191690555050600360008573ffffffffffffffffffffffffffffffffffffffff1673ffffffffffffffffffffffffffffffffffffffff1681526020019081526020016000206000815480929190611aec90613e22565b9190505550611b09565b8080611b0190613eaa565b9150506118b2565b5050505050565b60066020528060005260406000206000915090508060000160009054906101000a900460ff16908060000160019054906101000a900460ff16908060000160029054906101000a900473ffffffffffffffffffffffffffffffffffffffff1690806001015490806002015490806003015490806004015490806005015490806008016040518060400160405290816000820160009054906101000a900473ffffffffffffffffffffffffffffffffffffffff1673ffffffffffffffffffffffffffffffffffffffff1673ffffffffffffffffffffffffffffffffffffffff1681526020016000820160149054906101000a900460ff166001811115611c1857611c17613f40565b5b6001811115611c2a57611c29613f40565b5b815250509080600901549080600a01549080600b015490508c565b611c4e82610e50565b611c5f81611c5a611fb6565b611fbe565b611c69838361213b565b505050565b60026020528060005260406000206000915090508060000154908060010154908060020154905083565b6000600760008481526020019081526020016000206000836003811115611cc257611cc1613f40565b5b6003811115611cd457611cd3613f40565b5b815260200190815260200160002054905092915050565b7f2b8f168f361ac1393a163ed4adfa899a87be7b7c71645167bdaddd822ae453c8611d1d81611d18611fb6565b611fbe565b6000600360008573ffffffffffffffffffffffffffffffffffffffff1673ffffffffffffffffffffffffffffffffffffffff16815260200190815260200160002054905082600460008673ffffffffffffffffffffffffffffffffffffffff1673ffffffffffffffffffffffffffffffffffffffff1681526020019081526020016000206000838152602001908152602001600020600001819055506002600460008673ffffffffffffffffffffffffffffffffffffffff1673ffffffffffffffffffffffffffffffffffffffff168152602001908152602001600020600083815260200190815260200160002060010160006101000a81548160ff02191690836003811115611e3057611e2f613f40565b5b0217905550600360008573ffffffffffffffffffffffffffffffffffffffff1673ffffffffffffffffffffffffffffffffffffffff1681526020019081526020016000206000815480929190611e8590613eaa565b919050555050505050565b600080600090505b600b80549050811015611f34578273ffffffffffffffffffffffffffffffffffffffff16600b8281548110611ed057611ecf613fcd565b5b9060005260206000200160009054906101000a900473ffffffffffffffffffffffffffffffffffffffff1673ffffffffffffffffffffffffffffffffffffffff161415611f21576001915050611f3a565b8080611f2c90613eaa565b915050611e98565b50600090505b919050565b6000600180549050905090565b60007f01ffc9a7000000000000000000000000000000000000000000000000000000007bffffffffffffffffffffffffffffffffffffffffffffffffffffffff1916827bffffffffffffffffffffffffffffffffffffffffffffffffffffffff1916149050919050565b600033905090565b611fc882826115a0565b61205757611fed8173ffffffffffffffffffffffffffffffffffffffff16601461221c565b611ffb8360001c602061221c565b60405160200161200c929190612f39565b6040516020818303038152906040526040517f08c379a000000000000000000000000000000000000000000000000000000000815260040161204e91906130e5565b60405180910390fd5b5050565b61206582826115a0565b61213757600160008084815260200190815260200160002060000160008373ffffffffffffffffffffffffffffffffffffffff1673ffffffffffffffffffffffffffffffffffffffff16815260200190815260200160002060006101000a81548160ff0219169083151502179055506120dc611fb6565b73ffffffffffffffffffffffffffffffffffffffff168173ffffffffffffffffffffffffffffffffffffffff16837f2f8788117e7eff1d82e926ec794901d17c78024a50270940304540a733656f0d60405160405180910390a45b5050565b61214582826115a0565b1561221857600080600084815260200190815260200160002060000160008373ffffffffffffffffffffffffffffffffffffffff1673ffffffffffffffffffffffffffffffffffffffff16815260200190815260200160002060006101000a81548160ff0219169083151502179055506121bd611fb6565b73ffffffffffffffffffffffffffffffffffffffff168173ffffffffffffffffffffffffffffffffffffffff16837ff6391f5c32d9c69d2a47ea670b442974b53935d1edc7fd64eb21e047a839171b60405160405180910390a45b5050565b60606000600283600261222f91906135be565b6122399190613568565b67ffffffffffffffff81111561225257612251613ffc565b5b6040519080825280601f01601f1916602001820160405280156122845781602001600182028036833780820191505090505b5090507f3000000000000000000000000000000000000000000000000000000000000000816000815181106122bc576122bb613fcd565b5b60200101907effffffffffffffffffffffffffffffffffffffffffffffffffffffffffffff1916908160001a9053507f7800000000000000000000000000000000000000000000000000000000000000816001815181106123205761231f613fcd565b5b60200101907effffffffffffffffffffffffffffffffffffffffffffffffffffffffffffff1916908160001a9053506000600184600261236091906135be565b61236a9190613568565b90505b600181111561240a577f3031323334353637383961626364656600000000000000000000000000000000600f8616601081106123ac576123ab613fcd565b5b1a60f81b8282815181106123c3576123c2613fcd565b5b60200101907effffffffffffffffffffffffffffffffffffffffffffffffffffffffffffff1916908160001a905350600485901c94508061240390613e22565b905061236d565b506000841461244e576040517f08c379a000000000000000000000000000000000000000000000000000000000815260040161244590613107565b60405180910390fd5b8091505092915050565b604051806101c00160405280600015158152602001600015158152602001600073ffffffffffffffffffffffffffffffffffffffff168152602001600081526020016000815260200160008019168152602001600081526020016000815260200160608152602001606081526020016124cf61253e565b81526020016000815260200160008152602001600081525090565b60405180606001604052806000801916815260200160608152602001606081525090565b6040518060400160405280600073ffffffffffffffffffffffffffffffffffffffff168152602001600081525090565b6040518060400160405280600073ffffffffffffffffffffffffffffffffffffffff1681526020016000600181111561257a57612579613f40565b5b81525090565b60008135905061258f816146c3565b92915050565b6000813590506125a4816146da565b92915050565b6000813590506125b9816146f1565b92915050565b6000813590506125ce81614708565b92915050565b6000813590506125e38161472f565b92915050565b6000606082840312156125ff576125fe61417a565b5b81905092915050565b60006101e0828403121561261f5761261e61417a565b5b81905092915050565b60006040828403121561263e5761263d61417a565b5b81905092915050565b6000813590506126568161473f565b92915050565b6000602082840312156126725761267161418e565b5b600061268084828501612580565b91505092915050565b600080604083850312156126a05761269f61418e565b5b60006126ae85828601612580565b92505060206126bf85828601612595565b9150509250929050565b600080604083850312156126e0576126df61418e565b5b60006126ee85828601612580565b92505060206126ff85828601612647565b9150509250929050565b60006020828403121561271f5761271e61418e565b5b600061272d848285016125aa565b91505092915050565b6000806040838503121561274d5761274c61418e565b5b600061275b858286016125aa565b925050602061276c85828601612580565b9150509250929050565b60008060006060848603121561278f5761278e61418e565b5b600061279d868287016125aa565b93505060206127ae86828701612580565b92505060406127bf86828701612647565b9150509250925092565b600080604083850312156127e0576127df61418e565b5b60006127ee858286016125aa565b92505060206127ff858286016125d4565b9150509250929050565b6000806000606084860312156128225761282161418e565b5b6000612830868287016125aa565b9350506020612841868287016125d4565b925050604061285286828701612647565b9150509250925092565b600080604083850312156128735761287261418e565b5b6000612881858286016125aa565b925050602083013567ffffffffffffffff8111156128a2576128a1614189565b5b6128ae85828601612608565b9150509250929050565b600080606083850312156128cf576128ce61418e565b5b60006128dd858286016125aa565b92505060206128ee85828601612628565b9150509250929050565b60006020828403121561290e5761290d61418e565b5b600061291c848285016125bf565b91505092915050565b60006020828403121561293b5761293a61418e565b5b600082013567ffffffffffffffff81111561295957612958614189565b5b612965848285016125e9565b91505092915050565b6000602082840312156129845761298361418e565b5b600061299284828501612647565b91505092915050565b60006129a783836129e3565b60208301905092915050565b60006129bf8383612b97565b60208301905092915050565b60006129d78383612f1b565b60208301905092915050565b6129ec8161374c565b82525050565b6129fb8161374c565b82525050565b6000612a0c82613462565b612a1681856134f7565b9350612a21836133bf565b8060005b83811015612a52578151612a39888261299b565b9750612a44836134d0565b925050600181019050612a25565b5085935050505092915050565b6000612a6a82613462565b612a748185613508565b9350612a7f836133bf565b8060005b83811015612ab0578151612a97888261299b565b9750612aa2836134d0565b925050600181019050612a83565b5085935050505092915050565b6000612ac882613483565b612ad28185613519565b9350612add836133ee565b8060005b83811015612b0e578151612af588826129b3565b9750612b00836134dd565b925050600181019050612ae1565b5085935050505092915050565b6000612b26826134a4565b612b30818561352a565b9350612b3b8361341d565b8060005b83811015612b6c578151612b5388826129cb565b9750612b5e836134ea565b925050600181019050612b3f565b5085935050505092915050565b612b828161375e565b82525050565b612b918161375e565b82525050565b612ba08161376a565b82525050565b612baf8161376a565b82525050565b612bbe816138c4565b82525050565b612bcd816138d6565b82525050565b6000612bde826134c5565b612be8818561353b565b9350612bf8818560208601613b2f565b612c0181614193565b840191505092915050565b6000612c17826134c5565b612c21818561354c565b9350612c31818560208601613b2f565b612c3a81614193565b840191505092915050565b6000612c50826134c5565b612c5a818561355d565b9350612c6a818560208601613b2f565b80840191505092915050565b6000612c8360208361354c565b9150612c8e8261422f565b602082019050919050565b6000612ca660178361355d565b9150612cb182614258565b601782019050919050565b6000612cc960118361355d565b9150612cd482614281565b601182019050919050565b6000612cec602f8361354c565b9150612cf7826142aa565b604082019050919050565b604082016000820151612d1860008501826129e3565b506020820151612d2b6020850182612bb5565b50505050565b604082016000820151612d4760008501826129e3565b506020820151612d5a6020850182612bb5565b50505050565b6000606083016000830151612d786000860182612b97565b5060208301518482036020860152612d908282612abd565b91505060408301518482036040860152612daa8282612bd3565b9150508091505092915050565b60006101e083016000830151612dd06000860182612b79565b506020830151612de36020860182612b79565b506040830151612df660408601826129e3565b506060830151612e096060860182612f1b565b506080830151612e1c6080860182612f1b565b5060a0830151612e2f60a0860182612b97565b5060c0830151612e4260c0860182612f1b565b5060e0830151612e5560e0860182612f1b565b50610100830151848203610100860152612e6f8282612a01565b915050610120830151848203610120860152612e8b8282612b1b565b915050610140830151612ea2610140860182612d02565b50610160830151612eb7610180860182612f1b565b50610180830151612ecc6101a0860182612f1b565b506101a0830151612ee16101c0860182612f1b565b508091505092915050565b604082016000820151612f0260008501826129e3565b506020820151612f156020850182612f1b565b50505050565b612f24816137e6565b82525050565b612f33816137e6565b82525050565b6000612f4482612c99565b9150612f508285612c45565b9150612f5b82612cbc565b9150612f678284612c45565b91508190509392505050565b6000604082019050612f8860008301856129f2565b612f956020830184612f2a565b9392505050565b60006020820190508181036000830152612fb68184612a5f565b905092915050565b6000602082019050612fd36000830184612b88565b92915050565b60006101a082019050612fef600083018f612b88565b612ffc602083018e612b88565b613009604083018d6129f2565b613016606083018c612f2a565b613023608083018b612f2a565b61303060a083018a612ba6565b61303d60c0830189612f2a565b61304a60e0830188612f2a565b613058610100830187612d31565b613066610140830186612f2a565b613074610160830185612f2a565b613082610180830184612f2a565b9d9c50505050505050505050505050565b60006020820190506130a86000830184612ba6565b92915050565b60006060820190506130c36000830186612ba6565b6130d06020830185612f2a565b6130dd6040830184612f2a565b949350505050565b600060208201905081810360008301526130ff8184612c0c565b905092915050565b6000602082019050818103600083015261312081612c76565b9050919050565b6000602082019050818103600083015261314081612cdf565b9050919050565b600060208201905081810360008301526131618184612d60565b905092915050565b600060208201905081810360008301526131838184612db7565b905092915050565b60006040820190506131a06000830184612eec565b92915050565b60006020820190506131bb6000830184612f2a565b92915050565b60006040820190506131d66000830185612f2a565b6131e36020830184612bc4565b9392505050565b600080833560016020038436030381126132075761320661417f565b5b80840192508235915067ffffffffffffffff82111561322957613228614175565b5b60208301925060208202360383131561324557613244614184565b5b509250929050565b6000808335600160200384360303811261326a5761326961417f565b5b80840192508235915067ffffffffffffffff82111561328c5761328b614175565b5b6020830192506020820236038313156132a8576132a7614184565b5b509250929050565b600080833560016020038436030381126132cd576132cc61417f565b5b80840192508235915067ffffffffffffffff8211156132ef576132ee614175565b5b60208301925060208202360383131561330b5761330a614184565b5b509250929050565b600080833560016020038436030381126133305761332f61417f565b5b80840192508235915067ffffffffffffffff82111561335257613351614175565b5b60208301925060018202360383131561336e5761336d614184565b5b509250929050565b60008190506001806001038301049050919050565b60008190506001806001038301049050919050565b60008190506001806001038301049050919050565b6000819050919050565b6000819050602082019050919050565b60008190508160005260206000209050919050565b6000819050919050565b6000819050602082019050919050565b60008190508160005260206000209050919050565b6000819050919050565b6000819050602082019050919050565b60008190508160005260206000209050919050565b60008190508160005260206000209050919050565b600082905092915050565b600081519050919050565b600081549050919050565b600082905092915050565b600081519050919050565b600081549050919050565b600082905092915050565b600081519050919050565b600081549050919050565b600082905092915050565b600081519050919050565b6000602082019050919050565b6000602082019050919050565b6000602082019050919050565b600082825260208201905092915050565b600082825260208201905092915050565b600082825260208201905092915050565b600082825260208201905092915050565b600082825260208201905092915050565b600082825260208201905092915050565b600081905092915050565b6000613573826137e6565b915061357e836137e6565b9250827fffffffffffffffffffffffffffffffffffffffffffffffffffffffffffffffff038211156135b3576135b2613f11565b5b828201905092915050565b60006135c9826137e6565b91506135d4836137e6565b9250817fffffffffffffffffffffffffffffffffffffffffffffffffffffffffffffffff048311821515161561360d5761360c613f11565b5b828202905092915050565b6000613623826137e6565b915061362e836137e6565b92508282101561364157613640613f11565b5b828203905092915050565b601f82111561368d5761365e81613442565b61366784613e4c565b81016020851015613676578190505b61368a61368285613e4c565b830182613813565b50505b505050565b818310156136cb576136a382613376565b6136ac84613376565b6136b5836133cf565b8181018382016136c581836137f0565b50505050505b505050565b81831015613709576136e18261338b565b6136ea8461338b565b6136f3836133fe565b8181018382016137038183613836565b50505050505b505050565b818310156137475761371f826133a0565b613728846133a0565b6137318361342d565b8181018382016137418183613859565b50505050505b505050565b6000613757826137c6565b9050919050565b60008115159050919050565b6000819050919050565b60007fffffffff0000000000000000000000000000000000000000000000000000000082169050919050565b60008190506137ae8261469b565b919050565b60008190506137c1826146af565b919050565b600073ffffffffffffffffffffffffffffffffffffffff82169050919050565b6000819050919050565b5b8181101561380f57613804600082614217565b6001810190506137f1565b5050565b5b8181101561383257613827600082614217565b600181019050613814565b5050565b5b818110156138555761384a6000826141ff565b600181019050613837565b5050565b5b818110156138785761386d600082614217565b60018101905061385a565b5050565b6000613887826138e8565b9050919050565b60006138998261375e565b9050919050565b60006138ab8261376a565b9050919050565b60006138bd826137a0565b9050919050565b60006138cf826137a0565b9050919050565b60006138e1826137b3565b9050919050565b60006138f3826138fa565b9050919050565b6000613905826137c6565b9050919050565b6000613917826137e6565b9050919050565b6139288383613457565b61393281836140d3565b61393b836133b5565b613944836133cf565b6000805b8481101561397f578361395a81614065565b905061396781848661462c565b60208501945060018401935050600181019050613948565b5050505050505050565b6139938383613478565b61399d8183614109565b6139a6836133e4565b6139af836133fe565b6000805b848110156139ea57836139c581614091565b90506139d2818486614651565b602085019450600184019350506001810190506139b3565b5050505050505050565b6139fe8383613499565b613a08818361413f565b613a1183613413565b613a1a8361342d565b6000805b84811015613a555783613a30816140bd565b9050613a3d818486614676565b60208501945060018401935050600181019050613a1e565b5050505050505050565b613a6983836134ba565b67ffffffffffffffff811115613a8257613a81613ffc565b5b613a8c8254613e5c565b613a9782828561364c565b6000601f831160018114613ac65760008415613ab4578287013590505b613abe8582613e8e565b865550613b26565b601f198416613ad486613442565b60005b82811015613afc57848901358255600182019150602085019450602081019050613ad7565b86831015613b195784890135613b15601f891682613ef3565b8355505b6001600288020188555050505b50505050505050565b60005b83811015613b4d578082015181840152602081019050613b32565b83811115613b5c576000848401525b50505050565b600081016000830180613b7481614065565b9050613b8081846144bf565b505050600081016020830180613b95816140a7565b9050613ba181846145e6565b5050505050565b600081016000830180613bba81614091565b9050613bc68184614535565b5050506001810160208301613bdb818561324d565b613be68183866144f2565b505050506002810160408301613bfc8185613313565b613c07818386614558565b505050505050565b600081016000830180613c218161407b565b9050613c2d8184614512565b505050600081016020830180613c428161407b565b9050613c4e81846145c3565b505050600081016040830180613c6381614065565b9050613c6f8184614609565b505050600181016060830180613c84816140bd565b9050613c9081846145a0565b505050600281016080830180613ca5816140bd565b9050613cb181846145a0565b5050506003810160a0830180613cc681614091565b9050613cd28184614535565b5050506004810160c0830180613ce7816140bd565b9050613cf381846145a0565b5050506005810160e0830180613d08816140bd565b9050613d1481846145a0565b505050600681016101008301613d2a81856131ea565b613d358183866144e2565b50505050600781016101208301613d4c81856132b0565b613d57818386614502565b5050505060088101610140830180613d6f8184614568565b50505060098101610180830180613d85816140bd565b9050613d9181846145a0565b505050600a81016101a0830180613da7816140bd565b9050613db381846145a0565b505050600b81016101c0830180613dc9816140bd565b9050613dd581846145a0565b5050505050565b600081016000830180613dee81614065565b9050613dfa81846144bf565b505050600181016020830180613e0f816140bd565b9050613e1b81846145a0565b5050505050565b6000613e2d826137e6565b91506000821415613e4157613e40613f11565b5b600182039050919050565b60006020601f8301049050919050565b60006002820490506001821680613e7457607f821691505b60208210811415613e8857613e87613f6f565b5b50919050565b6000613e9a8383613ef3565b9150826002028217905092915050565b6000613eb5826137e6565b91507fffffffffffffffffffffffffffffffffffffffffffffffffffffffffffffffff821415613ee857613ee7613f11565b5b600182019050919050565b6000613f04600019846008026141f2565b1980831691505092915050565b7f4e487b7100000000000000000000000000000000000000000000000000000000600052601160045260246000fd5b7f4e487b7100000000000000000000000000000000000000000000000000000000600052602160045260246000fd5b7f4e487b7100000000000000000000000000000000000000000000000000000000600052602260045260246000fd5b7f4e487b7100000000000000000000000000000000000000000000000000000000600052603160045260246000fd5b7f4e487b7100000000000000000000000000000000000000000000000000000000600052603260045260246000fd5b7f4e487b7100000000000000000000000000000000000000000000000000000000600052604160045260246000fd5b6000819050919050565b6000819050919050565b600061404a826141e5565b9050919050565b6000819050919050565b6000819050919050565b60008135614072816146c3565b80915050919050565b60008135614088816146da565b80915050919050565b6000813561409e816146f1565b80915050919050565b600081356140b48161471f565b80915050919050565b600081356140ca8161473f565b80915050919050565b680100000000000000008211156140ed576140ec613ffc565b5b6140f68161346d565b828255614104838284613692565b505050565b6801000000000000000082111561412357614122613ffc565b5b61412c8161348e565b82825561413a8382846136d0565b505050565b6801000000000000000082111561415957614158613ffc565b5b614162816134af565b82825561417083828461370e565b505050565b600080fd5b600080fd5b600080fd5b600080fd5b600080fd5b600080fd5b6000601f19601f8301169050919050565b60008160001b9050919050565b60008160101b9050919050565b60008160a01b9050919050565b60008160081b9050919050565b600082821b905092915050565b60008160001c9050919050565b600082821c905092915050565b614207614756565b614212818484614651565b505050565b61421f61475b565b61422a818484614676565b505050565b7f537472696e67733a20686578206c656e67746820696e73756666696369656e74600082015250565b7f416363657373436f6e74726f6c3a206163636f756e7420000000000000000000600082015250565b7f206973206d697373696e6720726f6c6520000000000000000000000000000000600082015250565b7f416363657373436f6e74726f6c3a2063616e206f6e6c792072656e6f756e636560008201527f20726f6c657320666f722073656c660000000000000000000000000000000000602082015250565b600060ff614306846141a4565b9350801983169250808416831791505092915050565b600061ff0061432a846141cb565b9350801983169250808416831791505092915050565b600074ff0000000000000000000000000000000000000000614361846141be565b9350801983169250808416831791505092915050565b600073ffffffffffffffffffffffffffffffffffffffff614397846141a4565b9350801983169250808416831791505092915050565b600075ffffffffffffffffffffffffffffffffffffffff00006143cf846141b1565b9350801983169250808416831791505092915050565b60007fffffffffffffffffffffffffffffffffffffffffffffffffffffffffffffffff614411846141a4565b9350801983169250808416831791505092915050565b60006008830261444b73ffffffffffffffffffffffffffffffffffffffff826141d8565b61445586836141d8565b95508019841693508086168417925050509392505050565b60006008830261449d7fffffffffffffffffffffffffffffffffffffffffffffffffffffffffffffffff826141d8565b6144a786836141d8565b95508019841693508086168417925050509392505050565b6144c88261387c565b6144db6144d48261402b565b8354614377565b8255505050565b6144ed83838361391e565b505050565b6144fd838383613989565b505050565b61450d8383836139f4565b505050565b61451b8261388e565b61452e61452782614035565b83546142f9565b8255505050565b61453e826138a0565b61455161454a8261403f565b83546143e5565b8255505050565b614563838383613a5f565b505050565b6145728282613b62565b5050565b6145808282613ba8565b5050565b61458e8282613c0f565b5050565b61459c8282613ddc565b5050565b6145a98261390c565b6145bc6145b58261405b565b83546143e5565b8255505050565b6145cc8261388e565b6145df6145d882614035565b835461431c565b8255505050565b6145ef826138b2565b6146026145fb82614051565b8354614340565b8255505050565b6146128261387c565b61462561461e8261402b565b83546143ad565b8255505050565b6146358361387c565b6146496146418261402b565b848454614427565b825550505050565b61465a836138a0565b61466e6146668261403f565b84845461446d565b825550505050565b61467f8361390c565b61469361468b8261405b565b84845461446d565b825550505050565b600281106146ac576146ab613f40565b5b50565b600481106146c0576146bf613f40565b5b50565b6146cc8161374c565b81146146d757600080fd5b50565b6146e38161375e565b81146146ee57600080fd5b50565b6146fa8161376a565b811461470557600080fd5b50565b61471181613774565b811461471c57600080fd5b50565b6002811061472c57600080fd5b50565b6004811061473c57600080fd5b50565b614748816137e6565b811461475357600080fd5b50565b600090565b60009056fea26469706673582212202249b653878de193facfd6c9b8d9ca58d2195fb50fb4bcd26b66eef7bbb0ead764736f6c63430008070033",
  "linkReferences": {},
  "deployedLinkReferences": {}
}