{
  "_format": "hh-sol-artifact-1",
  "contractName": "EternalStorage",
  "sourceName": "contracts/EternalStorage.sol",
  "abi": [
    {
      "inputs": [],
      "stateMutability": "nonpayable",
      "type": "constructor"
    },
    {
      "anonymous": false,
      "inputs": [
        {
          "indexed": true,
          "internalType": "address",
          "name": "from",
          "type": "address"
        },
        {
          "indexed": true,
          "internalType": "uint256",
          "name": "campaignIndex",
          "type": "uint256"
        }
      ],
      "name": "CampaignCreated",
      "type": "event"
    },
    {
      "anonymous": false,
      "inputs": [
        {
          "indexed": true,
          "internalType": "bytes32",
          "name": "role",
          "type": "bytes32"
        },
        {
          "indexed": true,
          "internalType": "bytes32",
          "name": "previousAdminRole",
          "type": "bytes32"
        },
        {
          "indexed": true,
          "internalType": "bytes32",
          "name": "newAdminRole",
          "type": "bytes32"
        }
      ],
      "name": "RoleAdminChanged",
      "type": "event"
    },
    {
      "anonymous": false,
      "inputs": [
        {
          "indexed": true,
          "internalType": "bytes32",
          "name": "role",
          "type": "bytes32"
        },
        {
          "indexed": true,
          "internalType": "address",
          "name": "account",
          "type": "address"
        },
        {
          "indexed": true,
          "internalType": "address",
          "name": "sender",
          "type": "address"
        }
      ],
      "name": "RoleGranted",
      "type": "event"
    },
    {
      "anonymous": false,
      "inputs": [
        {
          "indexed": true,
          "internalType": "bytes32",
          "name": "role",
          "type": "bytes32"
        },
        {
          "indexed": true,
          "internalType": "address",
          "name": "account",
          "type": "address"
        },
        {
          "indexed": true,
          "internalType": "address",
          "name": "sender",
          "type": "address"
        }
      ],
      "name": "RoleRevoked",
      "type": "event"
    },
    {
      "inputs": [],
      "name": "DEFAULT_ADMIN_ROLE",
      "outputs": [
        {
          "internalType": "bytes32",
          "name": "",
          "type": "bytes32"
        }
      ],
      "stateMutability": "view",
      "type": "function"
    },
    {
      "inputs": [],
      "name": "WRITER_ROLE",
      "outputs": [
        {
          "internalType": "bytes32",
          "name": "",
          "type": "bytes32"
        }
      ],
      "stateMutability": "view",
      "type": "function"
    },
    {
      "inputs": [
        {
          "components": [
            {
              "internalType": "bytes32",
              "name": "campaignId",
              "type": "bytes32"
            },
            {
              "internalType": "uint256",
              "name": "phasesLength",
              "type": "uint256"
            },
            {
              "internalType": "bytes32[]",
              "name": "phases",
              "type": "bytes32[]"
            },
            {
              "internalType": "string",
              "name": "metadata",
              "type": "string"
            }
          ],
          "internalType": "struct MembershipsTypes.Campaign",
          "name": "value",
          "type": "tuple"
        }
      ],
      "name": "addCampaign",
      "outputs": [],
      "stateMutability": "nonpayable",
      "type": "function"
    },
    {
      "inputs": [
        {
          "internalType": "uint256",
          "name": "",
          "type": "uint256"
        }
      ],
      "name": "campaigns",
      "outputs": [
        {
          "internalType": "bytes32",
          "name": "campaignId",
          "type": "bytes32"
        },
        {
          "internalType": "uint256",
          "name": "phasesLength",
          "type": "uint256"
        },
        {
          "internalType": "string",
          "name": "metadata",
          "type": "string"
        }
      ],
      "stateMutability": "view",
      "type": "function"
    },
    {
      "inputs": [
        {
          "internalType": "address",
          "name": "",
          "type": "address"
        },
        {
          "internalType": "uint256",
          "name": "",
          "type": "uint256"
        }
      ],
      "name": "campaignsByOwner",
      "outputs": [
        {
          "internalType": "uint256",
          "name": "",
          "type": "uint256"
        }
      ],
      "stateMutability": "view",
      "type": "function"
    },
    {
      "inputs": [
        {
          "internalType": "address",
          "name": "",
          "type": "address"
        }
      ],
      "name": "campaignsByOwnerLength",
      "outputs": [
        {
          "internalType": "uint256",
          "name": "",
          "type": "uint256"
        }
      ],
      "stateMutability": "view",
      "type": "function"
    },
    {
      "inputs": [],
      "name": "campaignsLength",
      "outputs": [
        {
          "internalType": "uint256",
          "name": "",
          "type": "uint256"
        }
      ],
      "stateMutability": "view",
      "type": "function"
    },
    {
      "inputs": [
        {
          "internalType": "bytes32",
          "name": "scheduleID",
          "type": "bytes32"
        },
        {
          "internalType": "address",
          "name": "addr",
          "type": "address"
        }
      ],
      "name": "getBuyPerWallet",
      "outputs": [
        {
          "internalType": "uint256",
          "name": "",
          "type": "uint256"
        }
      ],
      "stateMutability": "view",
      "type": "function"
    },
    {
      "inputs": [
        {
          "internalType": "uint256",
          "name": "record",
          "type": "uint256"
        }
      ],
      "name": "getCampaign",
      "outputs": [
        {
          "components": [
            {
              "internalType": "bytes32",
              "name": "campaignId",
              "type": "bytes32"
            },
            {
              "internalType": "uint256",
              "name": "phasesLength",
              "type": "uint256"
            },
            {
              "internalType": "bytes32[]",
              "name": "phases",
              "type": "bytes32[]"
            },
            {
              "internalType": "string",
              "name": "metadata",
              "type": "string"
            }
          ],
          "internalType": "struct MembershipsTypes.Campaign",
          "name": "",
          "type": "tuple"
        }
      ],
      "stateMutability": "view",
      "type": "function"
    },
    {
      "inputs": [
        {
          "internalType": "bytes32",
          "name": "scheduleID",
          "type": "bytes32"
        },
        {
          "internalType": "enum MembershipsTypes.UserType",
          "name": "userType",
          "type": "uint8"
        }
      ],
      "name": "getClaimed",
      "outputs": [
        {
          "internalType": "uint256",
          "name": "",
          "type": "uint256"
        }
      ],
      "stateMutability": "view",
      "type": "function"
    },
    {
      "inputs": [
        {
          "internalType": "bytes32",
          "name": "record",
          "type": "bytes32"
        }
      ],
      "name": "getReferral",
      "outputs": [
        {
          "components": [
            {
              "internalType": "address",
              "name": "referral",
              "type": "address"
            },
            {
              "internalType": "uint256",
              "name": "referralFee",
              "type": "uint256"
            }
          ],
          "internalType": "struct MembershipsTypes.ScheduleReferral",
          "name": "",
          "type": "tuple"
        }
      ],
      "stateMutability": "view",
      "type": "function"
    },
    {
      "inputs": [
        {
          "internalType": "bytes32",
          "name": "role",
          "type": "bytes32"
        }
      ],
      "name": "getRoleAdmin",
      "outputs": [
        {
          "internalType": "bytes32",
          "name": "",
          "type": "bytes32"
        }
      ],
      "stateMutability": "view",
      "type": "function"
    },
    {
      "inputs": [
        {
          "internalType": "bytes32",
          "name": "record",
          "type": "bytes32"
        }
      ],
      "name": "getSchedule",
      "outputs": [
        {
          "components": [
            {
              "internalType": "bool",
              "name": "initialized",
              "type": "bool"
            },
            {
              "internalType": "bool",
              "name": "revoked",
              "type": "bool"
            },
            {
              "internalType": "address",
              "name": "owner",
              "type": "address"
            },
            {
              "internalType": "uint256",
              "name": "start",
              "type": "uint256"
            },
            {
              "internalType": "uint256",
              "name": "duration",
              "type": "uint256"
            },
            {
              "internalType": "bytes32",
              "name": "merkleRoot",
              "type": "bytes32"
            },
            {
              "internalType": "uint256",
              "name": "amountTotal",
              "type": "uint256"
            },
            {
              "internalType": "uint256",
              "name": "released",
              "type": "uint256"
            },
            {
              "internalType": "address[]",
              "name": "lotToken",
              "type": "address[]"
            },
            {
              "internalType": "uint256[]",
              "name": "lotSize",
              "type": "uint256[]"
            },
            {
              "components": [
                {
                  "internalType": "address",
                  "name": "token",
                  "type": "address"
                },
                {
                  "internalType": "enum MembershipsTypes.AssetType",
                  "name": "assetType",
                  "type": "uint8"
                }
              ],
              "internalType": "struct MembershipsTypes.Asset",
              "name": "paymentAsset",
              "type": "tuple"
            },
            {
              "internalType": "uint256",
              "name": "pricePerLot",
              "type": "uint256"
            },
            {
              "internalType": "uint256",
              "name": "rollFee",
              "type": "uint256"
            },
            {
              "internalType": "uint256",
              "name": "maxBuyPerWallet",
              "type": "uint256"
            }
          ],
          "internalType": "struct MembershipsTypes.MintingSchedule",
          "name": "",
          "type": "tuple"
        }
      ],
      "stateMutability": "view",
      "type": "function"
    },
    {
      "inputs": [
        {
          "internalType": "bytes32",
          "name": "role",
          "type": "bytes32"
        },
        {
          "internalType": "address",
          "name": "account",
          "type": "address"
        }
      ],
      "name": "grantRole",
      "outputs": [],
      "stateMutability": "nonpayable",
      "type": "function"
    },
    {
      "inputs": [
        {
          "internalType": "bytes32",
          "name": "role",
          "type": "bytes32"
        },
        {
          "internalType": "address",
          "name": "account",
          "type": "address"
        }
      ],
      "name": "hasRole",
      "outputs": [
        {
          "internalType": "bool",
          "name": "",
          "type": "bool"
        }
      ],
      "stateMutability": "view",
      "type": "function"
    },
    {
      "inputs": [
        {
          "internalType": "bytes32",
          "name": "role",
          "type": "bytes32"
        },
        {
          "internalType": "address",
          "name": "account",
          "type": "address"
        }
      ],
      "name": "renounceRole",
      "outputs": [],
      "stateMutability": "nonpayable",
      "type": "function"
    },
    {
      "inputs": [
        {
          "internalType": "bytes32",
          "name": "role",
          "type": "bytes32"
        },
        {
          "internalType": "address",
          "name": "account",
          "type": "address"
        }
      ],
      "name": "revokeRole",
      "outputs": [],
      "stateMutability": "nonpayable",
      "type": "function"
    },
    {
      "inputs": [
        {
          "internalType": "bytes32",
          "name": "",
          "type": "bytes32"
        }
      ],
      "name": "scheduleToCampaign",
      "outputs": [
        {
          "internalType": "bytes32",
          "name": "campaignId",
          "type": "bytes32"
        },
        {
          "internalType": "uint256",
          "name": "campaignIndex",
          "type": "uint256"
        },
        {
          "internalType": "uint256",
          "name": "scheduleIndex",
          "type": "uint256"
        }
      ],
      "stateMutability": "view",
      "type": "function"
    },
    {
      "inputs": [
        {
          "internalType": "bytes32",
          "name": "",
          "type": "bytes32"
        }
      ],
      "name": "schedules",
      "outputs": [
        {
          "internalType": "bool",
          "name": "initialized",
          "type": "bool"
        },
        {
          "internalType": "bool",
          "name": "revoked",
          "type": "bool"
        },
        {
          "internalType": "address",
          "name": "owner",
          "type": "address"
        },
        {
          "internalType": "uint256",
          "name": "start",
          "type": "uint256"
        },
        {
          "internalType": "uint256",
          "name": "duration",
          "type": "uint256"
        },
        {
          "internalType": "bytes32",
          "name": "merkleRoot",
          "type": "bytes32"
        },
        {
          "internalType": "uint256",
          "name": "amountTotal",
          "type": "uint256"
        },
        {
          "internalType": "uint256",
          "name": "released",
          "type": "uint256"
        },
        {
          "components": [
            {
              "internalType": "address",
              "name": "token",
              "type": "address"
            },
            {
              "internalType": "enum MembershipsTypes.AssetType",
              "name": "assetType",
              "type": "uint8"
            }
          ],
          "internalType": "struct MembershipsTypes.Asset",
          "name": "paymentAsset",
          "type": "tuple"
        },
        {
          "internalType": "uint256",
          "name": "pricePerLot",
          "type": "uint256"
        },
        {
          "internalType": "uint256",
          "name": "rollFee",
          "type": "uint256"
        },
        {
          "internalType": "uint256",
          "name": "maxBuyPerWallet",
          "type": "uint256"
        }
      ],
      "stateMutability": "view",
      "type": "function"
    },
    {
      "inputs": [
        {
          "internalType": "bytes32",
          "name": "",
          "type": "bytes32"
        }
      ],
      "name": "schedulesReferral",
      "outputs": [
        {
          "internalType": "address",
          "name": "referral",
          "type": "address"
        },
        {
          "internalType": "uint256",
          "name": "referralFee",
          "type": "uint256"
        }
      ],
      "stateMutability": "view",
      "type": "function"
    },
    {
      "inputs": [
        {
          "internalType": "bytes32",
          "name": "scheduleID",
          "type": "bytes32"
        },
        {
          "internalType": "address",
          "name": "addr",
          "type": "address"
        },
        {
          "internalType": "uint256",
          "name": "value",
          "type": "uint256"
        }
      ],
      "name": "setBuyPerWallet",
      "outputs": [],
      "stateMutability": "nonpayable",
      "type": "function"
    },
    {
      "inputs": [
        {
          "internalType": "uint256",
          "name": "record",
          "type": "uint256"
        },
        {
          "components": [
            {
              "internalType": "bytes32",
              "name": "campaignId",
              "type": "bytes32"
            },
            {
              "internalType": "uint256",
              "name": "phasesLength",
              "type": "uint256"
            },
            {
              "internalType": "bytes32[]",
              "name": "phases",
              "type": "bytes32[]"
            },
            {
              "internalType": "string",
              "name": "metadata",
              "type": "string"
            }
          ],
          "internalType": "struct MembershipsTypes.Campaign",
          "name": "value",
          "type": "tuple"
        }
      ],
      "name": "setCampaign",
      "outputs": [],
      "stateMutability": "nonpayable",
      "type": "function"
    },
    {
      "inputs": [
        {
          "internalType": "bytes32",
          "name": "scheduleID",
          "type": "bytes32"
        },
        {
          "internalType": "enum MembershipsTypes.UserType",
          "name": "userType",
          "type": "uint8"
        },
        {
          "internalType": "uint256",
          "name": "value",
          "type": "uint256"
        }
      ],
      "name": "setClaimed",
      "outputs": [],
      "stateMutability": "nonpayable",
      "type": "function"
    },
    {
      "inputs": [
        {
          "internalType": "bytes32",
          "name": "record",
          "type": "bytes32"
        },
        {
          "components": [
            {
              "internalType": "address",
              "name": "referral",
              "type": "address"
            },
            {
              "internalType": "uint256",
              "name": "referralFee",
              "type": "uint256"
            }
          ],
          "internalType": "struct MembershipsTypes.ScheduleReferral",
          "name": "value",
          "type": "tuple"
        }
      ],
      "name": "setReferral",
      "outputs": [],
      "stateMutability": "nonpayable",
      "type": "function"
    },
    {
      "inputs": [
        {
          "internalType": "bytes32",
          "name": "record",
          "type": "bytes32"
        },
        {
          "components": [
            {
              "internalType": "bool",
              "name": "initialized",
              "type": "bool"
            },
            {
              "internalType": "bool",
              "name": "revoked",
              "type": "bool"
            },
            {
              "internalType": "address",
              "name": "owner",
              "type": "address"
            },
            {
              "internalType": "uint256",
              "name": "start",
              "type": "uint256"
            },
            {
              "internalType": "uint256",
              "name": "duration",
              "type": "uint256"
            },
            {
              "internalType": "bytes32",
              "name": "merkleRoot",
              "type": "bytes32"
            },
            {
              "internalType": "uint256",
              "name": "amountTotal",
              "type": "uint256"
            },
            {
              "internalType": "uint256",
              "name": "released",
              "type": "uint256"
            },
            {
              "internalType": "address[]",
              "name": "lotToken",
              "type": "address[]"
            },
            {
              "internalType": "uint256[]",
              "name": "lotSize",
              "type": "uint256[]"
            },
            {
              "components": [
                {
                  "internalType": "address",
                  "name": "token",
                  "type": "address"
                },
                {
                  "internalType": "enum MembershipsTypes.AssetType",
                  "name": "assetType",
                  "type": "uint8"
                }
              ],
              "internalType": "struct MembershipsTypes.Asset",
              "name": "paymentAsset",
              "type": "tuple"
            },
            {
              "internalType": "uint256",
              "name": "pricePerLot",
              "type": "uint256"
            },
            {
              "internalType": "uint256",
              "name": "rollFee",
              "type": "uint256"
            },
            {
              "internalType": "uint256",
              "name": "maxBuyPerWallet",
              "type": "uint256"
            }
          ],
          "internalType": "struct MembershipsTypes.MintingSchedule",
          "name": "value",
          "type": "tuple"
        }
      ],
      "name": "setSchedule",
      "outputs": [],
      "stateMutability": "nonpayable",
      "type": "function"
    },
    {
      "inputs": [
        {
          "internalType": "bytes4",
          "name": "interfaceId",
          "type": "bytes4"
        }
      ],
      "name": "supportsInterface",
      "outputs": [
        {
          "internalType": "bool",
          "name": "",
          "type": "bool"
        }
      ],
      "stateMutability": "view",
      "type": "function"
    }
  ],
  "bytecode": "0x60806040523480156200001157600080fd5b50620000276000801b336200005f60201b60201c565b620000597f2b8f168f361ac1393a163ed4adfa899a87be7b7c71645167bdaddd822ae453c8336200005f60201b60201c565b620001c2565b6200007182826200015060201b60201c565b6200014c57600160008084815260200190815260200160002060000160008373ffffffffffffffffffffffffffffffffffffffff1673ffffffffffffffffffffffffffffffffffffffff16815260200190815260200160002060006101000a81548160ff021916908315150217905550620000f1620001ba60201b60201c565b73ffffffffffffffffffffffffffffffffffffffff168173ffffffffffffffffffffffffffffffffffffffff16837f2f8788117e7eff1d82e926ec794901d17c78024a50270940304540a733656f0d60405160405180910390a45b5050565b600080600084815260200190815260200160002060000160008373ffffffffffffffffffffffffffffffffffffffff1673ffffffffffffffffffffffffffffffffffffffff16815260200190815260200160002060009054906101000a900460ff16905092915050565b600033905090565b613bfa80620001d26000396000f3fe608060405234801561001057600080fd5b506004361061018e5760003560e01c806382e58d51116100de578063a347942111610097578063d1e16bfa11610071578063d1e16bfa146104e0578063d547741f1461051b578063e4e4f80314610537578063efc427b7146105695761018e565b8063a347942114610478578063a5c23c2414610494578063a8c2cda4146104c45761018e565b806382e58d51146103a45780638d0ba65c146103d457806391100e05146103f057806391d148541461040c5780639beaab7b1461043c578063a217fddf1461045a5761018e565b80633adc277a1161014b5780634bc0e4f8116101255780634bc0e4f8146103095780635598f8cc146103255780635f3179c31461035557806380845447146103735761018e565b80633adc277a1461028d5780633c639278146102bd578063433f4c2b146102ed5761018e565b806301ffc9a714610193578063141961bc146101c3578063198dccbb146101f5578063248a9ca3146102255780632f2ff15d1461025557806336568abe14610271575b600080fd5b6101ad60048036038101906101a89190611b08565b610599565b6040516101ba9190611b50565b60405180910390f35b6101dd60048036038101906101d89190611ba1565b610613565b6040516101ec93929190611c8f565b60405180910390f35b61020f600480360381019061020a9190611d2b565b6106c5565b60405161021c9190611d6b565b60405180910390f35b61023f600480360381019061023a9190611db2565b6106ea565b60405161024c9190611ddf565b60405180910390f35b61026f600480360381019061026a9190611dfa565b610709565b005b61028b60048036038101906102869190611dfa565b610732565b005b6102a760048036038101906102a29190611db2565b6107b5565b6040516102b491906121af565b60405180910390f35b6102d760048036038101906102d29190611dfa565b610a4a565b6040516102e49190611d6b565b60405180910390f35b610307600480360381019061030291906121f6565b610aa5565b005b610323600480360381019061031e9190612271565b610aff565b005b61033f600480360381019061033a9190611ba1565b610b59565b60405161034c9190612430565b60405180910390f35b61035d610c84565b60405161036a9190611d6b565b60405180910390f35b61038d60048036038101906103889190611db2565b610c8a565b60405161039b929190612461565b60405180910390f35b6103be60048036038101906103b99190611db2565b610cce565b6040516103cb91906124b9565b60405180910390f35b6103ee60048036038101906103e991906124f3565b610d5b565b005b61040a60048036038101906104059190612558565b610db5565b005b61042660048036038101906104219190611dfa565b610e3a565b6040516104339190611b50565b60405180910390f35b610444610ea4565b6040516104519190611ddf565b60405180910390f35b610462610ec8565b60405161046f9190611ddf565b60405180910390f35b610492600480360381019061048d91906125ab565b610ecf565b005b6104ae60048036038101906104a991906125f4565b61121e565b6040516104bb9190611d6b565b60405180910390f35b6104de60048036038101906104d99190612621565b611236565b005b6104fa60048036038101906104f59190611db2565b611290565b6040516105129c9b9a999897969594939291906126a3565b60405180910390f35b61053560048036038101906105309190611dfa565b6113c5565b005b610551600480360381019061054c9190611db2565b6113ee565b6040516105609392919061275d565b60405180910390f35b610583600480360381019061057e9190612794565b611418565b6040516105909190611d6b565b60405180910390f35b60007f7965db0b000000000000000000000000000000000000000000000000000000007bffffffffffffffffffffffffffffffffffffffffffffffffffffffff1916827bffffffffffffffffffffffffffffffffffffffffffffffffffffffff1916148061060c575061060b8261146b565b5b9050919050565b600660205280600052604060002060009150905080600001549080600101549080600301805461064290612803565b80601f016020809104026020016040519081016040528092919081815260200182805461066e90612803565b80156106bb5780601f10610690576101008083540402835291602001916106bb565b820191906000526020600020905b81548152906001019060200180831161069e57829003601f168201915b5050505050905083565b6009602052816000526040600020602052806000526040600020600091509150505481565b6000806000838152602001908152602001600020600101549050919050565b610712826106ea565b6107238161071e6114d5565b6114dd565b61072d838361157a565b505050565b61073a6114d5565b73ffffffffffffffffffffffffffffffffffffffff168173ffffffffffffffffffffffffffffffffffffffff16146107a7576040517f08c379a000000000000000000000000000000000000000000000000000000000815260040161079e906128a7565b60405180910390fd5b6107b1828261165a565b5050565b6107bd611977565b60016000838152602001908152602001600020604051806101c00160405290816000820160009054906101000a900460ff161515151581526020016000820160019054906101000a900460ff161515151581526020016000820160029054906101000a900473ffffffffffffffffffffffffffffffffffffffff1673ffffffffffffffffffffffffffffffffffffffff1673ffffffffffffffffffffffffffffffffffffffff16815260200160018201548152602001600282015481526020016003820154815260200160048201548152602001600582015481526020016006820180548060200260200160405190810160405280929190818152602001828054801561091f57602002820191906000526020600020905b8160009054906101000a900473ffffffffffffffffffffffffffffffffffffffff1673ffffffffffffffffffffffffffffffffffffffff16815260200190600101908083116108d5575b505050505081526020016007820180548060200260200160405190810160405280929190818152602001828054801561097757602002820191906000526020600020905b815481526020019060010190808311610963575b50505050508152602001600882016040518060400160405290816000820160009054906101000a900473ffffffffffffffffffffffffffffffffffffffff1673ffffffffffffffffffffffffffffffffffffffff1673ffffffffffffffffffffffffffffffffffffffff1681526020016000820160149054906101000a900460ff166001811115610a0b57610a0a611fd4565b5b6001811115610a1d57610a1c611fd4565b5b81525050815260200160098201548152602001600a8201548152602001600b820154815250509050919050565b60006003600084815260200190815260200160002060008373ffffffffffffffffffffffffffffffffffffffff1673ffffffffffffffffffffffffffffffffffffffff16815260200190815260200160002054905092915050565b7f2b8f168f361ac1393a163ed4adfa899a87be7b7c71645167bdaddd822ae453c8610ad781610ad26114d5565b6114dd565b81600160008581526020019081526020016000208181610af79190613421565b905050505050565b7f2b8f168f361ac1393a163ed4adfa899a87be7b7c71645167bdaddd822ae453c8610b3181610b2c6114d5565b6114dd565b81600660008581526020019081526020016000208181610b5191906138ce565b905050505050565b610b61611a09565b60066000838152602001908152602001600020604051806080016040529081600082015481526020016001820154815260200160028201805480602002602001604051908101604052809291908181526020018280548015610be257602002820191906000526020600020905b815481526020019060010190808311610bce575b50505050508152602001600382018054610bfb90612803565b80601f0160208091040260200160405190810160405280929190818152602001828054610c2790612803565b8015610c745780601f10610c4957610100808354040283529160200191610c74565b820191906000526020600020905b815481529060010190602001808311610c5757829003601f168201915b5050505050815250509050919050565b60055481565b60046020528060005260406000206000915090508060000160009054906101000a900473ffffffffffffffffffffffffffffffffffffffff16908060010154905082565b610cd6611a34565b600460008381526020019081526020016000206040518060400160405290816000820160009054906101000a900473ffffffffffffffffffffffffffffffffffffffff1673ffffffffffffffffffffffffffffffffffffffff1673ffffffffffffffffffffffffffffffffffffffff1681526020016001820154815250509050919050565b7f2b8f168f361ac1393a163ed4adfa899a87be7b7c71645167bdaddd822ae453c8610d8d81610d886114d5565b6114dd565b81600460008581526020019081526020016000208181610dad9190613922565b905050505050565b7f2b8f168f361ac1393a163ed4adfa899a87be7b7c71645167bdaddd822ae453c8610de781610de26114d5565b6114dd565b81600260008681526020019081526020016000206000856003811115610e1057610e0f611fd4565b5b6003811115610e2257610e21611fd4565b5b81526020019081526020016000208190555050505050565b600080600084815260200190815260200160002060000160008373ffffffffffffffffffffffffffffffffffffffff1673ffffffffffffffffffffffffffffffffffffffff16815260200190815260200160002060009054906101000a900460ff16905092915050565b7f2b8f168f361ac1393a163ed4adfa899a87be7b7c71645167bdaddd822ae453c881565b6000801b81565b7f2b8f168f361ac1393a163ed4adfa899a87be7b7c71645167bdaddd822ae453c8610f0181610efc6114d5565b6114dd565b6000828060400190610f13919061342f565b6000818110610f2557610f24613930565b5b9050602002013590506000600860006001600085815260200190815260200160002060000160029054906101000a900473ffffffffffffffffffffffffffffffffffffffff1673ffffffffffffffffffffffffffffffffffffffff1673ffffffffffffffffffffffffffffffffffffffff168152602001908152602001600020549050600554600960006001600086815260200190815260200160002060000160029054906101000a900473ffffffffffffffffffffffffffffffffffffffff1673ffffffffffffffffffffffffffffffffffffffff1673ffffffffffffffffffffffffffffffffffffffff16815260200190815260200160002060008381526020019081526020016000208190555083600660006005548152602001908152602001600020818161105791906138ce565b90505060005b84602001358110156110f8576040518060600160405280866000013581526020016005548152602001828152506007600087806040019061109e919061342f565b858181106110af576110ae613930565b5b90506020020135815260200190815260200160002060008201518160000155602082015181600101556040820151816002015590505080806110f09061395f565b91505061105d565b506005546001600084815260200190815260200160002060000160029054906101000a900473ffffffffffffffffffffffffffffffffffffffff1673ffffffffffffffffffffffffffffffffffffffff167ffc5b9d1c2c1134048e1792e3ae27d4eee04f460d341711c7088000d2ca21862160405160405180910390a3600860006001600085815260200190815260200160002060000160029054906101000a900473ffffffffffffffffffffffffffffffffffffffff1673ffffffffffffffffffffffffffffffffffffffff1673ffffffffffffffffffffffffffffffffffffffff16815260200190815260200160002060008154809291906111fb9061395f565b9190505550600560008154809291906112139061395f565b919050555050505050565b60086020528060005260406000206000915090505481565b806003600085815260200190815260200160002060008473ffffffffffffffffffffffffffffffffffffffff1673ffffffffffffffffffffffffffffffffffffffff16815260200190815260200160002081905550505050565b60016020528060005260406000206000915090508060000160009054906101000a900460ff16908060000160019054906101000a900460ff16908060000160029054906101000a900473ffffffffffffffffffffffffffffffffffffffff1690806001015490806002015490806003015490806004015490806005015490806008016040518060400160405290816000820160009054906101000a900473ffffffffffffffffffffffffffffffffffffffff1673ffffffffffffffffffffffffffffffffffffffff1673ffffffffffffffffffffffffffffffffffffffff1681526020016000820160149054906101000a900460ff16600181111561139857611397611fd4565b5b60018111156113aa576113a9611fd4565b5b815250509080600901549080600a01549080600b015490508c565b6113ce826106ea565b6113df816113da6114d5565b6114dd565b6113e9838361165a565b505050565b60076020528060005260406000206000915090508060000154908060010154908060020154905083565b600060026000848152602001908152602001600020600083600381111561144257611441611fd4565b5b600381111561145457611453611fd4565b5b815260200190815260200160002054905092915050565b60007f01ffc9a7000000000000000000000000000000000000000000000000000000007bffffffffffffffffffffffffffffffffffffffffffffffffffffffff1916827bffffffffffffffffffffffffffffffffffffffffffffffffffffffff1916149050919050565b600033905090565b6114e78282610e3a565b6115765761150c8173ffffffffffffffffffffffffffffffffffffffff16601461173b565b61151a8360001c602061173b565b60405160200161152b929190613a7c565b6040516020818303038152906040526040517f08c379a000000000000000000000000000000000000000000000000000000000815260040161156d9190613ab6565b60405180910390fd5b5050565b6115848282610e3a565b61165657600160008084815260200190815260200160002060000160008373ffffffffffffffffffffffffffffffffffffffff1673ffffffffffffffffffffffffffffffffffffffff16815260200190815260200160002060006101000a81548160ff0219169083151502179055506115fb6114d5565b73ffffffffffffffffffffffffffffffffffffffff168173ffffffffffffffffffffffffffffffffffffffff16837f2f8788117e7eff1d82e926ec794901d17c78024a50270940304540a733656f0d60405160405180910390a45b5050565b6116648282610e3a565b1561173757600080600084815260200190815260200160002060000160008373ffffffffffffffffffffffffffffffffffffffff1673ffffffffffffffffffffffffffffffffffffffff16815260200190815260200160002060006101000a81548160ff0219169083151502179055506116dc6114d5565b73ffffffffffffffffffffffffffffffffffffffff168173ffffffffffffffffffffffffffffffffffffffff16837ff6391f5c32d9c69d2a47ea670b442974b53935d1edc7fd64eb21e047a839171b60405160405180910390a45b5050565b60606000600283600261174e9190612c85565b6117589190613ad8565b67ffffffffffffffff81111561177157611770612c1c565b5b6040519080825280601f01601f1916602001820160405280156117a35781602001600182028036833780820191505090505b5090507f3000000000000000000000000000000000000000000000000000000000000000816000815181106117db576117da613930565b5b60200101907effffffffffffffffffffffffffffffffffffffffffffffffffffffffffffff1916908160001a9053507f78000000000000000000000000000000000000000000000000000000000000008160018151811061183f5761183e613930565b5b60200101907effffffffffffffffffffffffffffffffffffffffffffffffffffffffffffff1916908160001a9053506000600184600261187f9190612c85565b6118899190613ad8565b90505b6001811115611929577f3031323334353637383961626364656600000000000000000000000000000000600f8616601081106118cb576118ca613930565b5b1a60f81b8282815181106118e2576118e1613930565b5b60200101907effffffffffffffffffffffffffffffffffffffffffffffffffffffffffffff1916908160001a905350600485901c94508061192290613b2e565b905061188c565b506000841461196d576040517f08c379a000000000000000000000000000000000000000000000000000000000815260040161196490613ba4565b60405180910390fd5b8091505092915050565b604051806101c00160405280600015158152602001600015158152602001600073ffffffffffffffffffffffffffffffffffffffff168152602001600081526020016000815260200160008019168152602001600081526020016000815260200160608152602001606081526020016119ee611a64565b81526020016000815260200160008152602001600081525090565b6040518060800160405280600080191681526020016000815260200160608152602001606081525090565b6040518060400160405280600073ffffffffffffffffffffffffffffffffffffffff168152602001600081525090565b6040518060400160405280600073ffffffffffffffffffffffffffffffffffffffff16815260200160006001811115611aa057611a9f611fd4565b5b81525090565b600080fd5b600080fd5b60007fffffffff0000000000000000000000000000000000000000000000000000000082169050919050565b611ae581611ab0565b8114611af057600080fd5b50565b600081359050611b0281611adc565b92915050565b600060208284031215611b1e57611b1d611aa6565b5b6000611b2c84828501611af3565b91505092915050565b60008115159050919050565b611b4a81611b35565b82525050565b6000602082019050611b656000830184611b41565b92915050565b6000819050919050565b611b7e81611b6b565b8114611b8957600080fd5b50565b600081359050611b9b81611b75565b92915050565b600060208284031215611bb757611bb6611aa6565b5b6000611bc584828501611b8c565b91505092915050565b6000819050919050565b611be181611bce565b82525050565b611bf081611b6b565b82525050565b600081519050919050565b600082825260208201905092915050565b60005b83811015611c30578082015181840152602081019050611c15565b83811115611c3f576000848401525b50505050565b6000601f19601f8301169050919050565b6000611c6182611bf6565b611c6b8185611c01565b9350611c7b818560208601611c12565b611c8481611c45565b840191505092915050565b6000606082019050611ca46000830186611bd8565b611cb16020830185611be7565b8181036040830152611cc38184611c56565b9050949350505050565b600073ffffffffffffffffffffffffffffffffffffffff82169050919050565b6000611cf882611ccd565b9050919050565b611d0881611ced565b8114611d1357600080fd5b50565b600081359050611d2581611cff565b92915050565b60008060408385031215611d4257611d41611aa6565b5b6000611d5085828601611d16565b9250506020611d6185828601611b8c565b9150509250929050565b6000602082019050611d806000830184611be7565b92915050565b611d8f81611bce565b8114611d9a57600080fd5b50565b600081359050611dac81611d86565b92915050565b600060208284031215611dc857611dc7611aa6565b5b6000611dd684828501611d9d565b91505092915050565b6000602082019050611df46000830184611bd8565b92915050565b60008060408385031215611e1157611e10611aa6565b5b6000611e1f85828601611d9d565b9250506020611e3085828601611d16565b9150509250929050565b611e4381611b35565b82525050565b611e5281611ced565b82525050565b611e6181611b6b565b82525050565b611e7081611bce565b82525050565b600081519050919050565b600082825260208201905092915050565b6000819050602082019050919050565b6000611eae8383611e49565b60208301905092915050565b6000602082019050919050565b6000611ed282611e76565b611edc8185611e81565b9350611ee783611e92565b8060005b83811015611f18578151611eff8882611ea2565b9750611f0a83611eba565b925050600181019050611eeb565b5085935050505092915050565b600081519050919050565b600082825260208201905092915050565b6000819050602082019050919050565b6000611f5d8383611e58565b60208301905092915050565b6000602082019050919050565b6000611f8182611f25565b611f8b8185611f30565b9350611f9683611f41565b8060005b83811015611fc7578151611fae8882611f51565b9750611fb983611f69565b925050600181019050611f9a565b5085935050505092915050565b7f4e487b7100000000000000000000000000000000000000000000000000000000600052602160045260246000fd5b6002811061201457612013611fd4565b5b50565b600081905061202582612003565b919050565b600061203582612017565b9050919050565b6120458161202a565b82525050565b6040820160008201516120616000850182611e49565b506020820151612074602085018261203c565b50505050565b60006101e0830160008301516120936000860182611e3a565b5060208301516120a66020860182611e3a565b5060408301516120b96040860182611e49565b5060608301516120cc6060860182611e58565b5060808301516120df6080860182611e58565b5060a08301516120f260a0860182611e67565b5060c083015161210560c0860182611e58565b5060e083015161211860e0860182611e58565b506101008301518482036101008601526121328282611ec7565b91505061012083015184820361012086015261214e8282611f76565b91505061014083015161216561014086018261204b565b5061016083015161217a610180860182611e58565b5061018083015161218f6101a0860182611e58565b506101a08301516121a46101c0860182611e58565b508091505092915050565b600060208201905081810360008301526121c9818461207a565b905092915050565b600080fd5b60006101e082840312156121ed576121ec6121d1565b5b81905092915050565b6000806040838503121561220d5761220c611aa6565b5b600061221b85828601611d9d565b925050602083013567ffffffffffffffff81111561223c5761223b611aab565b5b612248858286016121d6565b9150509250929050565b600060808284031215612268576122676121d1565b5b81905092915050565b6000806040838503121561228857612287611aa6565b5b600061229685828601611b8c565b925050602083013567ffffffffffffffff8111156122b7576122b6611aab565b5b6122c385828601612252565b9150509250929050565b600081519050919050565b600082825260208201905092915050565b6000819050602082019050919050565b60006123058383611e67565b60208301905092915050565b6000602082019050919050565b6000612329826122cd565b61233381856122d8565b935061233e836122e9565b8060005b8381101561236f57815161235688826122f9565b975061236183612311565b925050600181019050612342565b5085935050505092915050565b600082825260208201905092915050565b600061239882611bf6565b6123a2818561237c565b93506123b2818560208601611c12565b6123bb81611c45565b840191505092915050565b60006080830160008301516123de6000860182611e67565b5060208301516123f16020860182611e58565b5060408301518482036040860152612409828261231e565b91505060608301518482036060860152612423828261238d565b9150508091505092915050565b6000602082019050818103600083015261244a81846123c6565b905092915050565b61245b81611ced565b82525050565b60006040820190506124766000830185612452565b6124836020830184611be7565b9392505050565b6040820160008201516124a06000850182611e49565b5060208201516124b36020850182611e58565b50505050565b60006040820190506124ce600083018461248a565b92915050565b6000604082840312156124ea576124e96121d1565b5b81905092915050565b6000806060838503121561250a57612509611aa6565b5b600061251885828601611d9d565b9250506020612529858286016124d4565b9150509250929050565b6004811061254057600080fd5b50565b60008135905061255281612533565b92915050565b60008060006060848603121561257157612570611aa6565b5b600061257f86828701611d9d565b935050602061259086828701612543565b92505060406125a186828701611b8c565b9150509250925092565b6000602082840312156125c1576125c0611aa6565b5b600082013567ffffffffffffffff8111156125df576125de611aab565b5b6125eb84828501612252565b91505092915050565b60006020828403121561260a57612609611aa6565b5b600061261884828501611d16565b91505092915050565b60008060006060848603121561263a57612639611aa6565b5b600061264886828701611d9d565b935050602061265986828701611d16565b925050604061266a86828701611b8c565b9150509250925092565b60408201600082015161268a6000850182611e49565b50602082015161269d602085018261203c565b50505050565b60006101a0820190506126b9600083018f611b41565b6126c6602083018e611b41565b6126d3604083018d612452565b6126e0606083018c611be7565b6126ed608083018b611be7565b6126fa60a083018a611bd8565b61270760c0830189611be7565b61271460e0830188611be7565b612722610100830187612674565b612730610140830186611be7565b61273e610160830185611be7565b61274c610180830184611be7565b9d9c50505050505050505050505050565b60006060820190506127726000830186611bd8565b61277f6020830185611be7565b61278c6040830184611be7565b949350505050565b600080604083850312156127ab576127aa611aa6565b5b60006127b985828601611d9d565b92505060206127ca85828601612543565b9150509250929050565b7f4e487b7100000000000000000000000000000000000000000000000000000000600052602260045260246000fd5b6000600282049050600182168061281b57607f821691505b6020821081141561282f5761282e6127d4565b5b50919050565b7f416363657373436f6e74726f6c3a2063616e206f6e6c792072656e6f756e636560008201527f20726f6c657320666f722073656c660000000000000000000000000000000000602082015250565b6000612891602f83611c01565b915061289c82612835565b604082019050919050565b600060208201905081810360008301526128c081612884565b9050919050565b6128d081611b35565b81146128db57600080fd5b50565b600081356128eb816128c7565b80915050919050565b60008160001b9050919050565b600060ff61290e846128f4565b9350801983169250808416831791505092915050565b600061292f82611b35565b9050919050565b6000819050919050565b61294982612924565b61295c61295582612936565b8354612901565b8255505050565b60008160081b9050919050565b600061ff0061297e84612963565b9350801983169250808416831791505092915050565b61299d82612924565b6129b06129a982612936565b8354612970565b8255505050565b600081356129c481611cff565b80915050919050565b60008160101b9050919050565b600075ffffffffffffffffffffffffffffffffffffffff00006129fc846129cd565b9350801983169250808416831791505092915050565b6000819050919050565b6000612a37612a32612a2d84611ccd565b612a12565b611ccd565b9050919050565b6000612a4982612a1c565b9050919050565b6000612a5b82612a3e565b9050919050565b6000819050919050565b612a7582612a50565b612a88612a8182612a62565b83546129da565b8255505050565b60008135612a9c81611b75565b80915050919050565b60007fffffffffffffffffffffffffffffffffffffffffffffffffffffffffffffffff612ad1846128f4565b9350801983169250808416831791505092915050565b6000612b02612afd612af884611b6b565b612a12565b611b6b565b9050919050565b6000819050919050565b612b1c82612ae7565b612b2f612b2882612b09565b8354612aa5565b8255505050565b60008135612b4381611d86565b80915050919050565b6000612b5782611bce565b9050919050565b60008160001c9050919050565b6000612b7682612b5e565b9050919050565b612b8682612b4c565b612b99612b9282612b6b565b8354612aa5565b8255505050565b600080fd5b600080fd5b600080fd5b60008083356001602003843603038112612bcc57612bcb612ba0565b5b80840192508235915067ffffffffffffffff821115612bee57612bed612ba5565b5b602083019250602082023603831315612c0a57612c09612baa565b5b509250929050565b6000819050919050565b7f4e487b7100000000000000000000000000000000000000000000000000000000600052604160045260246000fd5b600081549050919050565b7f4e487b7100000000000000000000000000000000000000000000000000000000600052601160045260246000fd5b6000612c9082611b6b565b9150612c9b83611b6b565b9250817fffffffffffffffffffffffffffffffffffffffffffffffffffffffffffffffff0483118215151615612cd457612cd3612c56565b5b828202905092915050565b60008190506001806001038301049050919050565b60008190508160005260206000209050919050565b600082821b905092915050565b600060088302612d467fffffffffffffffffffffffffffffffffffffffffffffffffffffffffffffffff82612d09565b612d508683612d09565b95508019841693508086168417925050509392505050565b612d7183612ae7565b612d85612d7d82612b09565b848454612d16565b825550505050565b600090565b612d9a612d8d565b612da5818484612d68565b505050565b5b81811015612dc957612dbe600082612d92565b600181019050612dab565b5050565b600082821c905092915050565b81831015612e1357612deb82612cdf565b612df484612cdf565b612dfd83612cf4565b818101838201612e0d8183612daa565b50505050505b505050565b68010000000000000000821115612e3257612e31612c1c565b5b612e3b81612c4b565b828255612e49838284612dda565b505050565b600082905092915050565b600060088302612e7d73ffffffffffffffffffffffffffffffffffffffff82612d09565b612e878683612d09565b95508019841693508086168417925050509392505050565b612ea883612a50565b612ebc612eb482612a62565b848454612e59565b825550505050565b612ece8383612e4e565b612ed88183612e18565b612ee183612c12565b612eea83612cf4565b6000805b84811015612f255783612f00816129b7565b9050612f0d818486612e9f565b60208501945060018401935050600181019050612eee565b5050505050505050565b612f3a838383612ec4565b505050565b60008083356001602003843603038112612f5c57612f5b612ba0565b5b80840192508235915067ffffffffffffffff821115612f7e57612f7d612ba5565b5b602083019250602082023603831315612f9a57612f99612baa565b5b509250929050565b6000819050919050565b600081549050919050565b60008190506001806001038301049050919050565b60008190508160005260206000209050919050565b5b8181101561300057612ff5600082612d92565b600181019050612fe2565b5050565b8183101561303d5761301582612fb7565b61301e84612fb7565b61302783612fcc565b8181018382016130378183612fe1565b50505050505b505050565b6801000000000000000082111561305c5761305b612c1c565b5b61306581612fac565b828255613073838284613004565b505050565b600082905092915050565b61308d8383613078565b6130978183613042565b6130a083612fa2565b6130a983612fcc565b6000805b848110156130e457836130bf81612a8f565b90506130cc818486612d68565b602085019450600184019350506001810190506130ad565b5050505050505050565b6130f9838383613083565b505050565b600073ffffffffffffffffffffffffffffffffffffffff61311e846128f4565b9350801983169250808416831791505092915050565b61313d82612a50565b61315061314982612a62565b83546130fe565b8255505050565b6002811061316457600080fd5b50565b6000813561317481613157565b80915050919050565b60008160a01b9050919050565b600074ff00000000000000000000000000000000000000006131ab8461317d565b9350801983169250808416831791505092915050565b60006131cc82612017565b9050919050565b6000819050919050565b6131e6826131c1565b6131f96131f2826131d3565b835461318a565b8255505050565b600081016000830180613212816129b7565b905061321e8184613134565b50505060008101602083018061323381613167565b905061323f81846131dd565b5050505050565b6132508282613200565b5050565b600081016000830180613266816128de565b90506132728184612940565b505050600081016020830180613287816128de565b90506132938184612994565b5050506000810160408301806132a8816129b7565b90506132b48184612a6c565b5050506001810160608301806132c981612a8f565b90506132d58184612b13565b5050506002810160808301806132ea81612a8f565b90506132f68184612b13565b5050506003810160a083018061330b81612b36565b90506133178184612b7d565b5050506004810160c083018061332c81612a8f565b90506133388184612b13565b5050506005810160e083018061334d81612a8f565b90506133598184612b13565b50505060068101610100830161336f8185612baf565b61337a818386612f2f565b505050506007810161012083016133918185612f3f565b61339c8183866130ee565b50505050600881016101408301806133b48184613246565b505050600981016101808301806133ca81612a8f565b90506133d68184612b13565b505050600a81016101a08301806133ec81612a8f565b90506133f88184612b13565b505050600b81016101c083018061340e81612a8f565b905061341a8184612b13565b5050505050565b61342b8282613254565b5050565b6000808335600160200384360303811261344c5761344b612ba0565b5b80840192508235915067ffffffffffffffff82111561346e5761346d612ba5565b5b60208301925060208202360383131561348a57613489612baa565b5b509250929050565b6000819050919050565b600081549050919050565b60008190506001806001038301049050919050565b60008190508160005260206000209050919050565b6134da83612b4c565b6134ee6134e682612b6b565b848454612d16565b825550505050565b600090565b6135036134f6565b61350e8184846134d1565b505050565b5b81811015613532576135276000826134fb565b600181019050613514565b5050565b8183101561356f57613547826134a7565b613550846134a7565b613559836134bc565b8181018382016135698183613513565b50505050505b505050565b6801000000000000000082111561358e5761358d612c1c565b5b6135978161349c565b8282556135a5838284613536565b505050565b600082905092915050565b6135bf83836135aa565b6135c98183613574565b6135d283613492565b6135db836134bc565b6000805b8481101561361657836135f181612b36565b90506135fe8184866134d1565b602085019450600184019350506001810190506135df565b5050505050505050565b61362b8383836135b5565b505050565b6000808335600160200384360303811261364d5761364c612ba0565b5b80840192508235915067ffffffffffffffff82111561366f5761366e612ba5565b5b60208301925060018202360383131561368b5761368a612baa565b5b509250929050565b600082905092915050565b60008190508160005260206000209050919050565b60006020601f8301049050919050565b5b818110156136e2576136d7600082612d92565b6001810190506136c4565b5050565b601f821115613727576136f88161369e565b613701846136b3565b81016020851015613710578190505b61372461371c856136b3565b8301826136c3565b50505b505050565b600061373d60001984600802612dcd565b1980831691505092915050565b6000613756838361372c565b9150826002028217905092915050565b6137708383613693565b67ffffffffffffffff81111561378957613788612c1c565b5b6137938254612803565b61379e8282856136e6565b6000601f8311600181146137cd57600084156137bb578287013590505b6137c5858261374a565b86555061382d565b601f1984166137db8661369e565b60005b82811015613803578489013582556001820191506020850194506020810190506137de565b86831015613820578489013561381c601f89168261372c565b8355505b6001600288020188555050505b50505050505050565b613841838383613766565b505050565b60008101600083018061385881612b36565b90506138648184612b7d565b50505060018101602083018061387981612a8f565b90506138858184612b13565b505050600281016040830161389a818561342f565b6138a5818386613620565b5050505060038101606083016138bb8185613630565b6138c6818386613836565b505050505050565b6138d88282613846565b5050565b6000810160008301806138ee816129b7565b90506138fa8184613134565b50505060018101602083018061390f81612a8f565b905061391b8184612b13565b5050505050565b61392c82826138dc565b5050565b7f4e487b7100000000000000000000000000000000000000000000000000000000600052603260045260246000fd5b600061396a82611b6b565b91507fffffffffffffffffffffffffffffffffffffffffffffffffffffffffffffffff82141561399d5761399c612c56565b5b600182019050919050565b600081905092915050565b7f416363657373436f6e74726f6c3a206163636f756e7420000000000000000000600082015250565b60006139e96017836139a8565b91506139f4826139b3565b601782019050919050565b6000613a0a82611bf6565b613a1481856139a8565b9350613a24818560208601611c12565b80840191505092915050565b7f206973206d697373696e6720726f6c6520000000000000000000000000000000600082015250565b6000613a666011836139a8565b9150613a7182613a30565b601182019050919050565b6000613a87826139dc565b9150613a9382856139ff565b9150613a9e82613a59565b9150613aaa82846139ff565b91508190509392505050565b60006020820190508181036000830152613ad08184611c56565b905092915050565b6000613ae382611b6b565b9150613aee83611b6b565b9250827fffffffffffffffffffffffffffffffffffffffffffffffffffffffffffffffff03821115613b2357613b22612c56565b5b828201905092915050565b6000613b3982611b6b565b91506000821415613b4d57613b4c612c56565b5b600182039050919050565b7f537472696e67733a20686578206c656e67746820696e73756666696369656e74600082015250565b6000613b8e602083611c01565b9150613b9982613b58565b602082019050919050565b60006020820190508181036000830152613bbd81613b81565b905091905056fea264697066735822122054c18e2e54146e84183540d514bdd12542706a3a0019c894b4a190dd65b2a33064736f6c63430008090033",
  "linkReferences": {},
  "deployedLinkReferences": {}
}