{
  "_format": "hh-sol-artifact-1",
  "contractName": "EternalStorage",
  "sourceName": "contracts/EternalStorage.sol",
  "abi": [
    {
      "inputs": [],
      "stateMutability": "nonpayable",
      "type": "constructor"
    },
    {
      "anonymous": false,
      "inputs": [
        {
          "indexed": true,
          "internalType": "address",
          "name": "from",
          "type": "address"
        },
        {
          "indexed": true,
          "internalType": "uint256",
          "name": "campaignIndex",
          "type": "uint256"
        }
      ],
      "name": "CampaignCreated",
      "type": "event"
    },
    {
      "anonymous": false,
      "inputs": [
        {
          "indexed": true,
          "internalType": "bytes32",
          "name": "role",
          "type": "bytes32"
        },
        {
          "indexed": true,
          "internalType": "bytes32",
          "name": "previousAdminRole",
          "type": "bytes32"
        },
        {
          "indexed": true,
          "internalType": "bytes32",
          "name": "newAdminRole",
          "type": "bytes32"
        }
      ],
      "name": "RoleAdminChanged",
      "type": "event"
    },
    {
      "anonymous": false,
      "inputs": [
        {
          "indexed": true,
          "internalType": "bytes32",
          "name": "role",
          "type": "bytes32"
        },
        {
          "indexed": true,
          "internalType": "address",
          "name": "account",
          "type": "address"
        },
        {
          "indexed": true,
          "internalType": "address",
          "name": "sender",
          "type": "address"
        }
      ],
      "name": "RoleGranted",
      "type": "event"
    },
    {
      "anonymous": false,
      "inputs": [
        {
          "indexed": true,
          "internalType": "bytes32",
          "name": "role",
          "type": "bytes32"
        },
        {
          "indexed": true,
          "internalType": "address",
          "name": "account",
          "type": "address"
        },
        {
          "indexed": true,
          "internalType": "address",
          "name": "sender",
          "type": "address"
        }
      ],
      "name": "RoleRevoked",
      "type": "event"
    },
    {
      "inputs": [],
      "name": "DEFAULT_ADMIN_ROLE",
      "outputs": [
        {
          "internalType": "bytes32",
          "name": "",
          "type": "bytes32"
        }
      ],
      "stateMutability": "view",
      "type": "function"
    },
    {
      "inputs": [],
      "name": "WRITER_ROLE",
      "outputs": [
        {
          "internalType": "bytes32",
          "name": "",
          "type": "bytes32"
        }
      ],
      "stateMutability": "view",
      "type": "function"
    },
    {
      "inputs": [
        {
          "components": [
            {
              "internalType": "bytes32",
              "name": "campaignId",
              "type": "bytes32"
            },
            {
              "internalType": "uint256",
              "name": "phasesLength",
              "type": "uint256"
            },
            {
              "internalType": "bytes32[]",
              "name": "phases",
              "type": "bytes32[]"
            },
            {
              "internalType": "string",
              "name": "metadata",
              "type": "string"
            }
          ],
          "internalType": "struct MembershipsTypes.Campaign",
          "name": "value",
          "type": "tuple"
        }
      ],
      "name": "addCampaign",
      "outputs": [],
      "stateMutability": "nonpayable",
      "type": "function"
    },
    {
      "inputs": [
        {
          "internalType": "uint256",
          "name": "",
          "type": "uint256"
        }
      ],
      "name": "campaigns",
      "outputs": [
        {
          "internalType": "bytes32",
          "name": "campaignId",
          "type": "bytes32"
        },
        {
          "internalType": "uint256",
          "name": "phasesLength",
          "type": "uint256"
        },
        {
          "internalType": "string",
          "name": "metadata",
          "type": "string"
        }
      ],
      "stateMutability": "view",
      "type": "function"
    },
    {
      "inputs": [
        {
          "internalType": "address",
          "name": "",
          "type": "address"
        },
        {
          "internalType": "uint256",
          "name": "",
          "type": "uint256"
        }
      ],
      "name": "campaignsByAddress",
      "outputs": [
        {
          "internalType": "uint256",
          "name": "campaignIndex",
          "type": "uint256"
        },
        {
          "internalType": "enum MembershipsTypes.UserType",
          "name": "userType",
          "type": "uint8"
        }
      ],
      "stateMutability": "view",
      "type": "function"
    },
    {
      "inputs": [
        {
          "internalType": "address",
          "name": "",
          "type": "address"
        }
      ],
      "name": "campaignsByAddressLength",
      "outputs": [
        {
          "internalType": "uint256",
          "name": "",
          "type": "uint256"
        }
      ],
      "stateMutability": "view",
      "type": "function"
    },
    {
      "inputs": [],
      "name": "campaignsLength",
      "outputs": [
        {
          "internalType": "uint256",
          "name": "",
          "type": "uint256"
        }
      ],
      "stateMutability": "view",
      "type": "function"
    },
    {
      "inputs": [
        {
          "internalType": "bytes32",
          "name": "scheduleID",
          "type": "bytes32"
        },
        {
          "internalType": "address",
          "name": "addr",
          "type": "address"
        }
      ],
      "name": "getBuyPerWallet",
      "outputs": [
        {
          "internalType": "uint256",
          "name": "",
          "type": "uint256"
        }
      ],
      "stateMutability": "view",
      "type": "function"
    },
    {
      "inputs": [
        {
          "internalType": "uint256",
          "name": "record",
          "type": "uint256"
        }
      ],
      "name": "getCampaign",
      "outputs": [
        {
          "components": [
            {
              "internalType": "bytes32",
              "name": "campaignId",
              "type": "bytes32"
            },
            {
              "internalType": "uint256",
              "name": "phasesLength",
              "type": "uint256"
            },
            {
              "internalType": "bytes32[]",
              "name": "phases",
              "type": "bytes32[]"
            },
            {
              "internalType": "string",
              "name": "metadata",
              "type": "string"
            }
          ],
          "internalType": "struct MembershipsTypes.Campaign",
          "name": "",
          "type": "tuple"
        }
      ],
      "stateMutability": "view",
      "type": "function"
    },
    {
      "inputs": [
        {
          "internalType": "address",
          "name": "addr",
          "type": "address"
        }
      ],
      "name": "getCampaignByAddressLength",
      "outputs": [
        {
          "internalType": "uint256",
          "name": "",
          "type": "uint256"
        }
      ],
      "stateMutability": "view",
      "type": "function"
    },
    {
      "inputs": [
        {
          "internalType": "bytes32",
          "name": "scheduleID",
          "type": "bytes32"
        },
        {
          "internalType": "enum MembershipsTypes.UserType",
          "name": "userType",
          "type": "uint8"
        }
      ],
      "name": "getClaimed",
      "outputs": [
        {
          "internalType": "uint256",
          "name": "",
          "type": "uint256"
        }
      ],
      "stateMutability": "view",
      "type": "function"
    },
    {
      "inputs": [
        {
          "internalType": "bytes32",
          "name": "record",
          "type": "bytes32"
        }
      ],
      "name": "getReferral",
      "outputs": [
        {
          "components": [
            {
              "internalType": "address",
              "name": "referral",
              "type": "address"
            },
            {
              "internalType": "uint256",
              "name": "referralFee",
              "type": "uint256"
            }
          ],
          "internalType": "struct MembershipsTypes.ScheduleReferral",
          "name": "",
          "type": "tuple"
        }
      ],
      "stateMutability": "view",
      "type": "function"
    },
    {
      "inputs": [
        {
          "internalType": "bytes32",
          "name": "role",
          "type": "bytes32"
        }
      ],
      "name": "getRoleAdmin",
      "outputs": [
        {
          "internalType": "bytes32",
          "name": "",
          "type": "bytes32"
        }
      ],
      "stateMutability": "view",
      "type": "function"
    },
    {
      "inputs": [
        {
          "internalType": "bytes32",
          "name": "record",
          "type": "bytes32"
        }
      ],
      "name": "getSchedule",
      "outputs": [
        {
          "components": [
            {
              "internalType": "bool",
              "name": "initialized",
              "type": "bool"
            },
            {
              "internalType": "bool",
              "name": "revoked",
              "type": "bool"
            },
            {
              "internalType": "address",
              "name": "owner",
              "type": "address"
            },
            {
              "internalType": "uint256",
              "name": "start",
              "type": "uint256"
            },
            {
              "internalType": "uint256",
              "name": "duration",
              "type": "uint256"
            },
            {
              "internalType": "bytes32",
              "name": "merkleRoot",
              "type": "bytes32"
            },
            {
              "internalType": "uint256",
              "name": "amountTotal",
              "type": "uint256"
            },
            {
              "internalType": "uint256",
              "name": "released",
              "type": "uint256"
            },
            {
              "internalType": "address[]",
              "name": "lotToken",
              "type": "address[]"
            },
            {
              "internalType": "uint256[]",
              "name": "lotSize",
              "type": "uint256[]"
            },
            {
              "components": [
                {
                  "internalType": "address",
                  "name": "token",
                  "type": "address"
                },
                {
                  "internalType": "enum MembershipsTypes.AssetType",
                  "name": "assetType",
                  "type": "uint8"
                }
              ],
              "internalType": "struct MembershipsTypes.Asset",
              "name": "paymentAsset",
              "type": "tuple"
            },
            {
              "internalType": "uint256",
              "name": "pricePerLot",
              "type": "uint256"
            },
            {
              "internalType": "uint256",
              "name": "rollFee",
              "type": "uint256"
            },
            {
              "internalType": "uint256",
              "name": "maxBuyPerWallet",
              "type": "uint256"
            }
          ],
          "internalType": "struct MembershipsTypes.MintingSchedule",
          "name": "",
          "type": "tuple"
        }
      ],
      "stateMutability": "view",
      "type": "function"
    },
    {
      "inputs": [
        {
          "internalType": "bytes32",
          "name": "role",
          "type": "bytes32"
        },
        {
          "internalType": "address",
          "name": "account",
          "type": "address"
        }
      ],
      "name": "grantRole",
      "outputs": [],
      "stateMutability": "nonpayable",
      "type": "function"
    },
    {
      "inputs": [
        {
          "internalType": "bytes32",
          "name": "role",
          "type": "bytes32"
        },
        {
          "internalType": "address",
          "name": "account",
          "type": "address"
        }
      ],
      "name": "hasRole",
      "outputs": [
        {
          "internalType": "bool",
          "name": "",
          "type": "bool"
        }
      ],
      "stateMutability": "view",
      "type": "function"
    },
    {
      "inputs": [
        {
          "internalType": "bytes32",
          "name": "record",
          "type": "bytes32"
        },
        {
          "internalType": "address",
          "name": "oldReferral",
          "type": "address"
        }
      ],
      "name": "removeReferral",
      "outputs": [],
      "stateMutability": "nonpayable",
      "type": "function"
    },
    {
      "inputs": [
        {
          "internalType": "bytes32",
          "name": "role",
          "type": "bytes32"
        },
        {
          "internalType": "address",
          "name": "account",
          "type": "address"
        }
      ],
      "name": "renounceRole",
      "outputs": [],
      "stateMutability": "nonpayable",
      "type": "function"
    },
    {
      "inputs": [
        {
          "internalType": "bytes32",
          "name": "role",
          "type": "bytes32"
        },
        {
          "internalType": "address",
          "name": "account",
          "type": "address"
        }
      ],
      "name": "revokeRole",
      "outputs": [],
      "stateMutability": "nonpayable",
      "type": "function"
    },
    {
      "inputs": [
        {
          "internalType": "bytes32",
          "name": "",
          "type": "bytes32"
        }
      ],
      "name": "scheduleToCampaign",
      "outputs": [
        {
          "internalType": "bytes32",
          "name": "campaignId",
          "type": "bytes32"
        },
        {
          "internalType": "uint256",
          "name": "campaignIndex",
          "type": "uint256"
        },
        {
          "internalType": "uint256",
          "name": "scheduleIndex",
          "type": "uint256"
        }
      ],
      "stateMutability": "view",
      "type": "function"
    },
    {
      "inputs": [
        {
          "internalType": "bytes32",
          "name": "",
          "type": "bytes32"
        }
      ],
      "name": "schedules",
      "outputs": [
        {
          "internalType": "bool",
          "name": "initialized",
          "type": "bool"
        },
        {
          "internalType": "bool",
          "name": "revoked",
          "type": "bool"
        },
        {
          "internalType": "address",
          "name": "owner",
          "type": "address"
        },
        {
          "internalType": "uint256",
          "name": "start",
          "type": "uint256"
        },
        {
          "internalType": "uint256",
          "name": "duration",
          "type": "uint256"
        },
        {
          "internalType": "bytes32",
          "name": "merkleRoot",
          "type": "bytes32"
        },
        {
          "internalType": "uint256",
          "name": "amountTotal",
          "type": "uint256"
        },
        {
          "internalType": "uint256",
          "name": "released",
          "type": "uint256"
        },
        {
          "components": [
            {
              "internalType": "address",
              "name": "token",
              "type": "address"
            },
            {
              "internalType": "enum MembershipsTypes.AssetType",
              "name": "assetType",
              "type": "uint8"
            }
          ],
          "internalType": "struct MembershipsTypes.Asset",
          "name": "paymentAsset",
          "type": "tuple"
        },
        {
          "internalType": "uint256",
          "name": "pricePerLot",
          "type": "uint256"
        },
        {
          "internalType": "uint256",
          "name": "rollFee",
          "type": "uint256"
        },
        {
          "internalType": "uint256",
          "name": "maxBuyPerWallet",
          "type": "uint256"
        }
      ],
      "stateMutability": "view",
      "type": "function"
    },
    {
      "inputs": [
        {
          "internalType": "bytes32",
          "name": "",
          "type": "bytes32"
        }
      ],
      "name": "schedulesReferral",
      "outputs": [
        {
          "internalType": "address",
          "name": "referral",
          "type": "address"
        },
        {
          "internalType": "uint256",
          "name": "referralFee",
          "type": "uint256"
        }
      ],
      "stateMutability": "view",
      "type": "function"
    },
    {
      "inputs": [
        {
          "internalType": "bytes32",
          "name": "scheduleID",
          "type": "bytes32"
        },
        {
          "internalType": "address",
          "name": "addr",
          "type": "address"
        },
        {
          "internalType": "uint256",
          "name": "value",
          "type": "uint256"
        }
      ],
      "name": "setBuyPerWallet",
      "outputs": [],
      "stateMutability": "nonpayable",
      "type": "function"
    },
    {
      "inputs": [
        {
          "internalType": "uint256",
          "name": "record",
          "type": "uint256"
        },
        {
          "components": [
            {
              "internalType": "bytes32",
              "name": "campaignId",
              "type": "bytes32"
            },
            {
              "internalType": "uint256",
              "name": "phasesLength",
              "type": "uint256"
            },
            {
              "internalType": "bytes32[]",
              "name": "phases",
              "type": "bytes32[]"
            },
            {
              "internalType": "string",
              "name": "metadata",
              "type": "string"
            }
          ],
          "internalType": "struct MembershipsTypes.Campaign",
          "name": "value",
          "type": "tuple"
        }
      ],
      "name": "setCampaign",
      "outputs": [],
      "stateMutability": "nonpayable",
      "type": "function"
    },
    {
      "inputs": [
        {
          "internalType": "bytes32",
          "name": "scheduleID",
          "type": "bytes32"
        },
        {
          "internalType": "enum MembershipsTypes.UserType",
          "name": "userType",
          "type": "uint8"
        },
        {
          "internalType": "uint256",
          "name": "value",
          "type": "uint256"
        }
      ],
      "name": "setClaimed",
      "outputs": [],
      "stateMutability": "nonpayable",
      "type": "function"
    },
    {
      "inputs": [
        {
          "internalType": "bytes32",
          "name": "record",
          "type": "bytes32"
        },
        {
          "components": [
            {
              "internalType": "address",
              "name": "referral",
              "type": "address"
            },
            {
              "internalType": "uint256",
              "name": "referralFee",
              "type": "uint256"
            }
          ],
          "internalType": "struct MembershipsTypes.ScheduleReferral",
          "name": "value",
          "type": "tuple"
        }
      ],
      "name": "setReferral",
      "outputs": [],
      "stateMutability": "nonpayable",
      "type": "function"
    },
    {
      "inputs": [
        {
          "internalType": "bytes32",
          "name": "record",
          "type": "bytes32"
        },
        {
          "components": [
            {
              "internalType": "bool",
              "name": "initialized",
              "type": "bool"
            },
            {
              "internalType": "bool",
              "name": "revoked",
              "type": "bool"
            },
            {
              "internalType": "address",
              "name": "owner",
              "type": "address"
            },
            {
              "internalType": "uint256",
              "name": "start",
              "type": "uint256"
            },
            {
              "internalType": "uint256",
              "name": "duration",
              "type": "uint256"
            },
            {
              "internalType": "bytes32",
              "name": "merkleRoot",
              "type": "bytes32"
            },
            {
              "internalType": "uint256",
              "name": "amountTotal",
              "type": "uint256"
            },
            {
              "internalType": "uint256",
              "name": "released",
              "type": "uint256"
            },
            {
              "internalType": "address[]",
              "name": "lotToken",
              "type": "address[]"
            },
            {
              "internalType": "uint256[]",
              "name": "lotSize",
              "type": "uint256[]"
            },
            {
              "components": [
                {
                  "internalType": "address",
                  "name": "token",
                  "type": "address"
                },
                {
                  "internalType": "enum MembershipsTypes.AssetType",
                  "name": "assetType",
                  "type": "uint8"
                }
              ],
              "internalType": "struct MembershipsTypes.Asset",
              "name": "paymentAsset",
              "type": "tuple"
            },
            {
              "internalType": "uint256",
              "name": "pricePerLot",
              "type": "uint256"
            },
            {
              "internalType": "uint256",
              "name": "rollFee",
              "type": "uint256"
            },
            {
              "internalType": "uint256",
              "name": "maxBuyPerWallet",
              "type": "uint256"
            }
          ],
          "internalType": "struct MembershipsTypes.MintingSchedule",
          "name": "value",
          "type": "tuple"
        }
      ],
      "name": "setSchedule",
      "outputs": [],
      "stateMutability": "nonpayable",
      "type": "function"
    },
    {
      "inputs": [
        {
          "internalType": "bytes4",
          "name": "interfaceId",
          "type": "bytes4"
        }
      ],
      "name": "supportsInterface",
      "outputs": [
        {
          "internalType": "bool",
          "name": "",
          "type": "bool"
        }
      ],
      "stateMutability": "view",
      "type": "function"
    }
  ],
  "bytecode": "0x60806040523480156200001157600080fd5b50620000276000801b336200005f60201b60201c565b620000597f2b8f168f361ac1393a163ed4adfa899a87be7b7c71645167bdaddd822ae453c8336200005f60201b60201c565b620001c2565b6200007182826200015060201b60201c565b6200014c57600160008084815260200190815260200160002060000160008373ffffffffffffffffffffffffffffffffffffffff1673ffffffffffffffffffffffffffffffffffffffff16815260200190815260200160002060006101000a81548160ff021916908315150217905550620000f1620001ba60201b60201c565b73ffffffffffffffffffffffffffffffffffffffff168173ffffffffffffffffffffffffffffffffffffffff16837f2f8788117e7eff1d82e926ec794901d17c78024a50270940304540a733656f0d60405160405180910390a45b5050565b600080600084815260200190815260200160002060000160008373ffffffffffffffffffffffffffffffffffffffff1673ffffffffffffffffffffffffffffffffffffffff16815260200190815260200160002060009054906101000a900460ff16905092915050565b600033905090565b6141b080620001d26000396000f3fe608060405234801561001057600080fd5b50600436106101c45760003560e01c80638d0ba65c116100f9578063b3b736a311610097578063d547741f11610071578063d547741f1461056e578063e4e4f8031461058a578063efc427b7146105bc578063f5aa2053146105ec576101c4565b8063b3b736a3146104e7578063c535012814610517578063d1e16bfa14610533576101c4565b80639beaab7b116100d35780639beaab7b14610473578063a217fddf14610491578063a3479421146104af578063a8c2cda4146104cb576101c4565b80638d0ba65c1461040b57806391100e051461042757806391d1485414610443576101c4565b80633c639278116101665780635598f8cc116101405780635598f8cc1461035c5780635f3179c31461038c57806380845447146103aa57806382e58d51146103db576101c4565b80633c639278146102f4578063433f4c2b146103245780634bc0e4f814610340576101c4565b80632f2ff15d116101a25780632f2ff15d1461025b57806336568abe1461027757806338ff4d57146102935780633adc277a146102c4576101c4565b806301ffc9a7146101c9578063141961bc146101f9578063248a9ca31461022b575b600080fd5b6101e360048036038101906101de9190612304565b61061c565b6040516101f091906129b9565b60405180910390f35b610213600480360381019061020e919061237a565b610696565b60405161022293929190612aa9565b60405180910390f35b61024560048036038101906102409190612115565b610748565b6040516102529190612a8e565b60405180910390f35b61027560048036038101906102709190612142565b610767565b005b610291600480360381019061028c9190612142565b610790565b005b6102ad60048036038101906102a891906120d5565b610813565b6040516102bb929190612bfa565b60405180910390f35b6102de60048036038101906102d99190612115565b610851565b6040516102eb9190612ba2565b60405180910390f35b61030e60048036038101906103099190612142565b610ae6565b60405161031b9190612bdf565b60405180910390f35b61033e60048036038101906103399190612268565b610b41565b005b61035a600480360381019061035591906123a7565b610b9b565b005b6103766004803603810190610371919061237a565b610bf5565b6040516103839190612b80565b60405180910390f35b610394610d20565b6040516103a19190612bdf565b60405180910390f35b6103c460048036038101906103bf9190612115565b610d26565b6040516103d2929190612990565b60405180910390f35b6103f560048036038101906103f09190612115565b610d6a565b6040516104029190612bc4565b60405180910390f35b610425600480360381019061042091906122c4565b610df7565b005b610441600480360381019061043c9190612215565b610fed565b005b61045d60048036038101906104589190612142565b611072565b60405161046a91906129b9565b60405180910390f35b61047b6110dc565b6040516104889190612a8e565b60405180910390f35b610499611100565b6040516104a69190612a8e565b60405180910390f35b6104c960048036038101906104c49190612331565b611107565b005b6104e560048036038101906104e09190612182565b611439565b005b61050160048036038101906104fc91906120a8565b611493565b60405161050e9190612bdf565b60405180910390f35b610531600480360381019061052c9190612142565b6114dc565b005b61054d60048036038101906105489190612115565b6117b3565b6040516105659c9b9a999897969594939291906129d4565b60405180910390f35b61058860048036038101906105839190612142565b6118e8565b005b6105a4600480360381019061059f9190612115565b611911565b6040516105b393929190612ae7565b60405180910390f35b6105d660048036038101906105d191906121d5565b61193b565b6040516105e39190612bdf565b60405180910390f35b610606600480360381019061060191906120a8565b61198e565b6040516106139190612bdf565b60405180910390f35b60007f7965db0b000000000000000000000000000000000000000000000000000000007bffffffffffffffffffffffffffffffffffffffffffffffffffffffff1916827bffffffffffffffffffffffffffffffffffffffffffffffffffffffff1916148061068f575061068e826119a6565b5b9050919050565b60026020528060005260406000206000915090508060000154908060010154908060030180546106c5906138a5565b80601f01602080910402602001604051908101604052809291908181526020018280546106f1906138a5565b801561073e5780601f106107135761010080835404028352916020019161073e565b820191906000526020600020905b81548152906001019060200180831161072157829003601f168201915b5050505050905083565b6000806000838152602001908152602001600020600101549050919050565b61077082610748565b6107818161077c611a10565b611a18565b61078b8383611ab5565b505050565b610798611a10565b73ffffffffffffffffffffffffffffffffffffffff168173ffffffffffffffffffffffffffffffffffffffff1614610805576040517f08c379a00000000000000000000000000000000000000000000000000000000081526004016107fc90612b60565b60405180910390fd5b61080f8282611b95565b5050565b6005602052816000526040600020602052806000526040600020600091509150508060000154908060010160009054906101000a900460ff16905082565b610859611eb2565b60066000838152602001908152602001600020604051806101c00160405290816000820160009054906101000a900460ff161515151581526020016000820160019054906101000a900460ff161515151581526020016000820160029054906101000a900473ffffffffffffffffffffffffffffffffffffffff1673ffffffffffffffffffffffffffffffffffffffff1673ffffffffffffffffffffffffffffffffffffffff1681526020016001820154815260200160028201548152602001600382015481526020016004820154815260200160058201548152602001600682018054806020026020016040519081016040528092919081815260200182805480156109bb57602002820191906000526020600020905b8160009054906101000a900473ffffffffffffffffffffffffffffffffffffffff1673ffffffffffffffffffffffffffffffffffffffff1681526020019060010190808311610971575b5050505050815260200160078201805480602002602001604051908101604052809291908181526020018280548015610a1357602002820191906000526020600020905b8154815260200190600101908083116109ff575b50505050508152602001600882016040518060400160405290816000820160009054906101000a900473ffffffffffffffffffffffffffffffffffffffff1673ffffffffffffffffffffffffffffffffffffffff1673ffffffffffffffffffffffffffffffffffffffff1681526020016000820160149054906101000a900460ff166001811115610aa757610aa6613989565b5b6001811115610ab957610ab8613989565b5b81525050815260200160098201548152602001600a8201548152602001600b820154815250509050919050565b60006008600084815260200190815260200160002060008373ffffffffffffffffffffffffffffffffffffffff1673ffffffffffffffffffffffffffffffffffffffff16815260200190815260200160002054905092915050565b7f2b8f168f361ac1393a163ed4adfa899a87be7b7c71645167bdaddd822ae453c8610b7381610b6e611a10565b611a18565b81600660008581526020019081526020016000208181610b939190613f9e565b905050505050565b7f2b8f168f361ac1393a163ed4adfa899a87be7b7c71645167bdaddd822ae453c8610bcd81610bc8611a10565b611a18565b81600260008581526020019081526020016000208181610bed9190613f90565b905050505050565b610bfd611f44565b60026000838152602001908152602001600020604051806080016040529081600082015481526020016001820154815260200160028201805480602002602001604051908101604052809291908181526020018280548015610c7e57602002820191906000526020600020905b815481526020019060010190808311610c6a575b50505050508152602001600382018054610c97906138a5565b80601f0160208091040260200160405190810160405280929190818152602001828054610cc3906138a5565b8015610d105780601f10610ce557610100808354040283529160200191610d10565b820191906000526020600020905b815481529060010190602001808311610cf357829003601f168201915b5050505050815250509050919050565b60015481565b60096020528060005260406000206000915090508060000160009054906101000a900473ffffffffffffffffffffffffffffffffffffffff16908060010154905082565b610d72611f6f565b600960008381526020019081526020016000206040518060400160405290816000820160009054906101000a900473ffffffffffffffffffffffffffffffffffffffff1673ffffffffffffffffffffffffffffffffffffffff1673ffffffffffffffffffffffffffffffffffffffff1681526020016001820154815250509050919050565b7f2b8f168f361ac1393a163ed4adfa899a87be7b7c71645167bdaddd822ae453c8610e2981610e24611a10565b611a18565b81600960008581526020019081526020016000208181610e499190613fac565b9050506000826000016020810190610e6191906120a8565b90506000600460008373ffffffffffffffffffffffffffffffffffffffff1673ffffffffffffffffffffffffffffffffffffffff1681526020019081526020016000205490506003600086815260200190815260200160002060010154600560008473ffffffffffffffffffffffffffffffffffffffff1673ffffffffffffffffffffffffffffffffffffffff1681526020019081526020016000206000838152602001908152602001600020600001819055506002600560008473ffffffffffffffffffffffffffffffffffffffff1673ffffffffffffffffffffffffffffffffffffffff168152602001908152602001600020600083815260200190815260200160002060010160006101000a81548160ff02191690836003811115610f8c57610f8b613989565b5b0217905550600460008373ffffffffffffffffffffffffffffffffffffffff1673ffffffffffffffffffffffffffffffffffffffff1681526020019081526020016000206000815480929190610fe1906138f3565b91905055505050505050565b7f2b8f168f361ac1393a163ed4adfa899a87be7b7c71645167bdaddd822ae453c861101f8161101a611a10565b611a18565b8160076000868152602001908152602001600020600085600381111561104857611047613989565b5b600381111561105a57611059613989565b5b81526020019081526020016000208190555050505050565b600080600084815260200190815260200160002060000160008373ffffffffffffffffffffffffffffffffffffffff1673ffffffffffffffffffffffffffffffffffffffff16815260200190815260200160002060009054906101000a900460ff16905092915050565b7f2b8f168f361ac1393a163ed4adfa899a87be7b7c71645167bdaddd822ae453c881565b6000801b81565b7f2b8f168f361ac1393a163ed4adfa899a87be7b7c71645167bdaddd822ae453c861113981611134611a10565b611a18565b600082806040019061114b9190612c86565b600081811061115d5761115c6139e7565b5b9050602002013590508260026000600154815260200190815260200160002081816111889190613f90565b90505060005b836020013581101561122957604051806060016040528085600001358152602001600154815260200182815250600360008680604001906111cf9190612c86565b858181106111e0576111df6139e7565b5b9050602002013581526020019081526020016000206000820151816000015560208201518160010155604082015181600201559050508080611221906138f3565b91505061118e565b5060006006600083815260200190815260200160002060000160029054906101000a900473ffffffffffffffffffffffffffffffffffffffff1690506000600460008373ffffffffffffffffffffffffffffffffffffffff1673ffffffffffffffffffffffffffffffffffffffff168152602001908152602001600020549050600154600560008473ffffffffffffffffffffffffffffffffffffffff1673ffffffffffffffffffffffffffffffffffffffff1681526020019081526020016000206000838152602001908152602001600020600001819055506000600560008473ffffffffffffffffffffffffffffffffffffffff1673ffffffffffffffffffffffffffffffffffffffff168152602001908152602001600020600083815260200190815260200160002060010160006101000a81548160ff0219169083600381111561137a57611379613989565b5b0217905550600460008373ffffffffffffffffffffffffffffffffffffffff1673ffffffffffffffffffffffffffffffffffffffff16815260200190815260200160002060008154809291906113cf906138f3565b9190505550600160008154809291906113e7906138f3565b91905055506001548273ffffffffffffffffffffffffffffffffffffffff167ffc5b9d1c2c1134048e1792e3ae27d4eee04f460d341711c7088000d2ca21862160405160405180910390a35050505050565b806008600085815260200190815260200160002060008473ffffffffffffffffffffffffffffffffffffffff1673ffffffffffffffffffffffffffffffffffffffff16815260200190815260200160002081905550505050565b6000600460008373ffffffffffffffffffffffffffffffffffffffff1673ffffffffffffffffffffffffffffffffffffffff168152602001908152602001600020549050919050565b7f2b8f168f361ac1393a163ed4adfa899a87be7b7c71645167bdaddd822ae453c861150e81611509611a10565b611a18565b6000600460008473ffffffffffffffffffffffffffffffffffffffff1673ffffffffffffffffffffffffffffffffffffffff16815260200190815260200160002054905060005b81811015611757576003600086815260200190815260200160002060010154600560008673ffffffffffffffffffffffffffffffffffffffff1673ffffffffffffffffffffffffffffffffffffffff168152602001908152602001600020600083815260200190815260200160002060000154141561174457600560008573ffffffffffffffffffffffffffffffffffffffff1673ffffffffffffffffffffffffffffffffffffffff168152602001908152602001600020600060018461161c9190613040565b8152602001908152602001600020600560008673ffffffffffffffffffffffffffffffffffffffff1673ffffffffffffffffffffffffffffffffffffffff1681526020019081526020016000206000838152602001908152602001600020600082015481600001556001820160009054906101000a900460ff168160010160006101000a81548160ff021916908360038111156116bc576116bb613989565b5b0217905550905050600560008573ffffffffffffffffffffffffffffffffffffffff1673ffffffffffffffffffffffffffffffffffffffff16815260200190815260200160002060006001846117129190613040565b81526020019081526020016000206000808201600090556001820160006101000a81549060ff02191690555050611757565b808061174f906138f3565b915050611555565b50600460008473ffffffffffffffffffffffffffffffffffffffff1673ffffffffffffffffffffffffffffffffffffffff16815260200190815260200160002060008154809291906117a89061386b565b919050555050505050565b60066020528060005260406000206000915090508060000160009054906101000a900460ff16908060000160019054906101000a900460ff16908060000160029054906101000a900473ffffffffffffffffffffffffffffffffffffffff1690806001015490806002015490806003015490806004015490806005015490806008016040518060400160405290816000820160009054906101000a900473ffffffffffffffffffffffffffffffffffffffff1673ffffffffffffffffffffffffffffffffffffffff1673ffffffffffffffffffffffffffffffffffffffff1681526020016000820160149054906101000a900460ff1660018111156118bb576118ba613989565b5b60018111156118cd576118cc613989565b5b815250509080600901549080600a01549080600b015490508c565b6118f182610748565b611902816118fd611a10565b611a18565b61190c8383611b95565b505050565b60036020528060005260406000206000915090508060000154908060010154908060020154905083565b600060076000848152602001908152602001600020600083600381111561196557611964613989565b5b600381111561197757611976613989565b5b815260200190815260200160002054905092915050565b60046020528060005260406000206000915090505481565b60007f01ffc9a7000000000000000000000000000000000000000000000000000000007bffffffffffffffffffffffffffffffffffffffffffffffffffffffff1916827bffffffffffffffffffffffffffffffffffffffffffffffffffffffff1916149050919050565b600033905090565b611a228282611072565b611ab157611a478173ffffffffffffffffffffffffffffffffffffffff166014611c76565b611a558360001c6020611c76565b604051602001611a66929190612956565b6040516020818303038152906040526040517f08c379a0000000000000000000000000000000000000000000000000000000008152600401611aa89190612b1e565b60405180910390fd5b5050565b611abf8282611072565b611b9157600160008084815260200190815260200160002060000160008373ffffffffffffffffffffffffffffffffffffffff1673ffffffffffffffffffffffffffffffffffffffff16815260200190815260200160002060006101000a81548160ff021916908315150217905550611b36611a10565b73ffffffffffffffffffffffffffffffffffffffff168173ffffffffffffffffffffffffffffffffffffffff16837f2f8788117e7eff1d82e926ec794901d17c78024a50270940304540a733656f0d60405160405180910390a45b5050565b611b9f8282611072565b15611c7257600080600084815260200190815260200160002060000160008373ffffffffffffffffffffffffffffffffffffffff1673ffffffffffffffffffffffffffffffffffffffff16815260200190815260200160002060006101000a81548160ff021916908315150217905550611c17611a10565b73ffffffffffffffffffffffffffffffffffffffff168173ffffffffffffffffffffffffffffffffffffffff16837ff6391f5c32d9c69d2a47ea670b442974b53935d1edc7fd64eb21e047a839171b60405160405180910390a45b5050565b606060006002836002611c899190612fe6565b611c939190612f90565b67ffffffffffffffff811115611cac57611cab613a16565b5b6040519080825280601f01601f191660200182016040528015611cde5781602001600182028036833780820191505090505b5090507f300000000000000000000000000000000000000000000000000000000000000081600081518110611d1657611d156139e7565b5b60200101907effffffffffffffffffffffffffffffffffffffffffffffffffffffffffffff1916908160001a9053507f780000000000000000000000000000000000000000000000000000000000000081600181518110611d7a57611d796139e7565b5b60200101907effffffffffffffffffffffffffffffffffffffffffffffffffffffffffffff1916908160001a90535060006001846002611dba9190612fe6565b611dc49190612f90565b90505b6001811115611e64577f3031323334353637383961626364656600000000000000000000000000000000600f861660108110611e0657611e056139e7565b5b1a60f81b828281518110611e1d57611e1c6139e7565b5b60200101907effffffffffffffffffffffffffffffffffffffffffffffffffffffffffffff1916908160001a905350600485901c945080611e5d9061386b565b9050611dc7565b5060008414611ea8576040517f08c379a0000000000000000000000000000000000000000000000000000000008152600401611e9f90612b40565b60405180910390fd5b8091505092915050565b604051806101c00160405280600015158152602001600015158152602001600073ffffffffffffffffffffffffffffffffffffffff16815260200160008152602001600081526020016000801916815260200160008152602001600081526020016060815260200160608152602001611f29611f9f565b81526020016000815260200160008152602001600081525090565b6040518060800160405280600080191681526020016000815260200160608152602001606081525090565b6040518060400160405280600073ffffffffffffffffffffffffffffffffffffffff168152602001600081525090565b6040518060400160405280600073ffffffffffffffffffffffffffffffffffffffff16815260200160006001811115611fdb57611fda613989565b5b81525090565b600081359050611ff0816140dd565b92915050565b6000813590506120058161410b565b92915050565b60008135905061201a81614122565b92915050565b60008135905061202f81614149565b92915050565b60006080828403121561204b5761204a613b94565b5b81905092915050565b60006101e0828403121561206b5761206a613b94565b5b81905092915050565b60006040828403121561208a57612089613b94565b5b81905092915050565b6000813590506120a281614159565b92915050565b6000602082840312156120be576120bd613ba8565b5b60006120cc84828501611fe1565b91505092915050565b600080604083850312156120ec576120eb613ba8565b5b60006120fa85828601611fe1565b925050602061210b85828601612093565b9150509250929050565b60006020828403121561212b5761212a613ba8565b5b600061213984828501611ff6565b91505092915050565b6000806040838503121561215957612158613ba8565b5b600061216785828601611ff6565b925050602061217885828601611fe1565b9150509250929050565b60008060006060848603121561219b5761219a613ba8565b5b60006121a986828701611ff6565b93505060206121ba86828701611fe1565b92505060406121cb86828701612093565b9150509250925092565b600080604083850312156121ec576121eb613ba8565b5b60006121fa85828601611ff6565b925050602061220b85828601612020565b9150509250929050565b60008060006060848603121561222e5761222d613ba8565b5b600061223c86828701611ff6565b935050602061224d86828701612020565b925050604061225e86828701612093565b9150509250925092565b6000806040838503121561227f5761227e613ba8565b5b600061228d85828601611ff6565b925050602083013567ffffffffffffffff8111156122ae576122ad613ba3565b5b6122ba85828601612054565b9150509250929050565b600080606083850312156122db576122da613ba8565b5b60006122e985828601611ff6565b92505060206122fa85828601612074565b9150509250929050565b60006020828403121561231a57612319613ba8565b5b60006123288482850161200b565b91505092915050565b60006020828403121561234757612346613ba8565b5b600082013567ffffffffffffffff81111561236557612364613ba3565b5b61237184828501612035565b91505092915050565b6000602082840312156123905761238f613ba8565b5b600061239e84828501612093565b91505092915050565b600080604083850312156123be576123bd613ba8565b5b60006123cc85828601612093565b925050602083013567ffffffffffffffff8111156123ed576123ec613ba3565b5b6123f985828601612035565b9150509250929050565b600061240f838361244b565b60208301905092915050565b600061242783836125a1565b60208301905092915050565b600061243f8383612938565b60208301905092915050565b61245481613174565b82525050565b61246381613174565b82525050565b600061247482612e9b565b61247e8185612f30565b935061248983612df8565b8060005b838110156124ba5781516124a18882612403565b97506124ac83612f09565b92505060018101905061248d565b5085935050505092915050565b60006124d282612ebc565b6124dc8185612f41565b93506124e783612e27565b8060005b838110156125185781516124ff888261241b565b975061250a83612f16565b9250506001810190506124eb565b5085935050505092915050565b600061253082612edd565b61253a8185612f52565b935061254583612e56565b8060005b8381101561257657815161255d8882612433565b975061256883612f23565b925050600181019050612549565b5085935050505092915050565b61258c81613186565b82525050565b61259b81613186565b82525050565b6125aa81613192565b82525050565b6125b981613192565b82525050565b6125c8816132ec565b82525050565b6125d7816132fe565b82525050565b60006125e882612efe565b6125f28185612f63565b9350612602818560208601613557565b61260b81613bad565b840191505092915050565b600061262182612efe565b61262b8185612f74565b935061263b818560208601613557565b61264481613bad565b840191505092915050565b600061265a82612efe565b6126648185612f85565b9350612674818560208601613557565b80840191505092915050565b600061268d602083612f74565b915061269882613c49565b602082019050919050565b60006126b0601783612f85565b91506126bb82613c72565b601782019050919050565b60006126d3601183612f85565b91506126de82613c9b565b601182019050919050565b60006126f6602f83612f74565b915061270182613cc4565b604082019050919050565b604082016000820151612722600085018261244b565b50602082015161273560208501826125bf565b50505050565b604082016000820151612751600085018261244b565b50602082015161276460208501826125bf565b50505050565b600060808301600083015161278260008601826125a1565b5060208301516127956020860182612938565b50604083015184820360408601526127ad82826124c7565b915050606083015184820360608601526127c782826125dd565b9150508091505092915050565b60006101e0830160008301516127ed6000860182612583565b5060208301516128006020860182612583565b506040830151612813604086018261244b565b5060608301516128266060860182612938565b5060808301516128396080860182612938565b5060a083015161284c60a08601826125a1565b5060c083015161285f60c0860182612938565b5060e083015161287260e0860182612938565b5061010083015184820361010086015261288c8282612469565b9150506101208301518482036101208601526128a88282612525565b9150506101408301516128bf61014086018261270c565b506101608301516128d4610180860182612938565b506101808301516128e96101a0860182612938565b506101a08301516128fe6101c0860182612938565b508091505092915050565b60408201600082015161291f600085018261244b565b5060208201516129326020850182612938565b50505050565b6129418161320e565b82525050565b6129508161320e565b82525050565b6000612961826126a3565b915061296d828561264f565b9150612978826126c6565b9150612984828461264f565b91508190509392505050565b60006040820190506129a5600083018561245a565b6129b26020830184612947565b9392505050565b60006020820190506129ce6000830184612592565b92915050565b60006101a0820190506129ea600083018f612592565b6129f7602083018e612592565b612a04604083018d61245a565b612a11606083018c612947565b612a1e608083018b612947565b612a2b60a083018a6125b0565b612a3860c0830189612947565b612a4560e0830188612947565b612a5361010083018761273b565b612a61610140830186612947565b612a6f610160830185612947565b612a7d610180830184612947565b9d9c50505050505050505050505050565b6000602082019050612aa360008301846125b0565b92915050565b6000606082019050612abe60008301866125b0565b612acb6020830185612947565b8181036040830152612add8184612616565b9050949350505050565b6000606082019050612afc60008301866125b0565b612b096020830185612947565b612b166040830184612947565b949350505050565b60006020820190508181036000830152612b388184612616565b905092915050565b60006020820190508181036000830152612b5981612680565b9050919050565b60006020820190508181036000830152612b79816126e9565b9050919050565b60006020820190508181036000830152612b9a818461276a565b905092915050565b60006020820190508181036000830152612bbc81846127d4565b905092915050565b6000604082019050612bd96000830184612909565b92915050565b6000602082019050612bf46000830184612947565b92915050565b6000604082019050612c0f6000830185612947565b612c1c60208301846125ce565b9392505050565b60008083356001602003843603038112612c4057612c3f613b99565b5b80840192508235915067ffffffffffffffff821115612c6257612c61613b8f565b5b602083019250602082023603831315612c7e57612c7d613b9e565b5b509250929050565b60008083356001602003843603038112612ca357612ca2613b99565b5b80840192508235915067ffffffffffffffff821115612cc557612cc4613b8f565b5b602083019250602082023603831315612ce157612ce0613b9e565b5b509250929050565b60008083356001602003843603038112612d0657612d05613b99565b5b80840192508235915067ffffffffffffffff821115612d2857612d27613b8f565b5b602083019250602082023603831315612d4457612d43613b9e565b5b509250929050565b60008083356001602003843603038112612d6957612d68613b99565b5b80840192508235915067ffffffffffffffff821115612d8b57612d8a613b8f565b5b602083019250600182023603831315612da757612da6613b9e565b5b509250929050565b60008190506001806001038301049050919050565b60008190506001806001038301049050919050565b60008190506001806001038301049050919050565b6000819050919050565b6000819050602082019050919050565b60008190508160005260206000209050919050565b6000819050919050565b6000819050602082019050919050565b60008190508160005260206000209050919050565b6000819050919050565b6000819050602082019050919050565b60008190508160005260206000209050919050565b60008190508160005260206000209050919050565b600082905092915050565b600081519050919050565b600081549050919050565b600082905092915050565b600081519050919050565b600081549050919050565b600082905092915050565b600081519050919050565b600081549050919050565b600082905092915050565b600081519050919050565b6000602082019050919050565b6000602082019050919050565b6000602082019050919050565b600082825260208201905092915050565b600082825260208201905092915050565b600082825260208201905092915050565b600082825260208201905092915050565b600082825260208201905092915050565b600081905092915050565b6000612f9b8261320e565b9150612fa68361320e565b9250827fffffffffffffffffffffffffffffffffffffffffffffffffffffffffffffffff03821115612fdb57612fda61395a565b5b828201905092915050565b6000612ff18261320e565b9150612ffc8361320e565b9250817fffffffffffffffffffffffffffffffffffffffffffffffffffffffffffffffff04831182151516156130355761303461395a565b5b828202905092915050565b600061304b8261320e565b91506130568361320e565b9250828210156130695761306861395a565b5b828203905092915050565b601f8211156130b55761308681612e7b565b61308f84613895565b8101602085101561309e578190505b6130b26130aa85613895565b83018261323b565b50505b505050565b818310156130f3576130cb82612daf565b6130d484612daf565b6130dd83612e08565b8181018382016130ed8183613218565b50505050505b505050565b818310156131315761310982612dc4565b61311284612dc4565b61311b83612e37565b81810183820161312b818361325e565b50505050505b505050565b8183101561316f5761314782612dd9565b61315084612dd9565b61315983612e66565b8181018382016131698183613281565b50505050505b505050565b600061317f826131ee565b9050919050565b60008115159050919050565b6000819050919050565b60007fffffffff0000000000000000000000000000000000000000000000000000000082169050919050565b60008190506131d6826140b5565b919050565b60008190506131e9826140c9565b919050565b600073ffffffffffffffffffffffffffffffffffffffff82169050919050565b6000819050919050565b5b818110156132375761322c600082613c31565b600181019050613219565b5050565b5b8181101561325a5761324f600082613c31565b60018101905061323c565b5050565b5b8181101561327d57613272600082613c19565b60018101905061325f565b5050565b5b818110156132a057613295600082613c31565b600181019050613282565b5050565b60006132af82613310565b9050919050565b60006132c182613186565b9050919050565b60006132d382613192565b9050919050565b60006132e5826131c8565b9050919050565b60006132f7826131c8565b9050919050565b6000613309826131db565b9050919050565b600061331b82613322565b9050919050565b600061332d826131ee565b9050919050565b600061333f8261320e565b9050919050565b6133508383612e90565b61335a8183613aed565b61336383612dee565b61336c83612e08565b6000805b848110156133a7578361338281613a7f565b905061338f818486614046565b60208501945060018401935050600181019050613370565b5050505050505050565b6133bb8383612eb1565b6133c58183613b23565b6133ce83612e1d565b6133d783612e37565b6000805b8481101561341257836133ed81613aab565b90506133fa81848661406b565b602085019450600184019350506001810190506133db565b5050505050505050565b6134268383612ed2565b6134308183613b59565b61343983612e4c565b61344283612e66565b6000805b8481101561347d578361345881613ad7565b9050613465818486614090565b60208501945060018401935050600181019050613446565b5050505050505050565b6134918383612ef3565b67ffffffffffffffff8111156134aa576134a9613a16565b5b6134b482546138a5565b6134bf828285613074565b6000601f8311600181146134ee57600084156134dc578287013590505b6134e685826138d7565b86555061354e565b601f1984166134fc86612e7b565b60005b82811015613524578489013582556001820191506020850194506020810190506134ff565b86831015613541578489013561353d601f89168261393c565b8355505b6001600288020188555050505b50505050505050565b60005b8381101561357557808201518184015260208101905061355a565b83811115613584576000848401525b50505050565b60008101600083018061359c81613a7f565b90506135a88184613ed9565b5050506000810160208301806135bd81613ac1565b90506135c98184614000565b5050505050565b6000810160008301806135e281613aab565b90506135ee8184613f4f565b50505060018101602083018061360381613ad7565b905061360f8184613fba565b50505060028101604083016136248185612c86565b61362f818386613f0c565b5050505060038101606083016136458185612d4c565b613650818386613f72565b505050505050565b60008101600083018061366a81613a95565b90506136768184613f2c565b50505060008101602083018061368b81613a95565b90506136978184613fdd565b5050506000810160408301806136ac81613a7f565b90506136b88184614023565b5050506001810160608301806136cd81613ad7565b90506136d98184613fba565b5050506002810160808301806136ee81613ad7565b90506136fa8184613fba565b5050506003810160a083018061370f81613aab565b905061371b8184613f4f565b5050506004810160c083018061373081613ad7565b905061373c8184613fba565b5050506005810160e083018061375181613ad7565b905061375d8184613fba565b5050506006810161010083016137738185612c23565b61377e818386613efc565b505050506007810161012083016137958185612ce9565b6137a0818386613f1c565b50505050600881016101408301806137b88184613f82565b505050600981016101808301806137ce81613ad7565b90506137da8184613fba565b505050600a81016101a08301806137f081613ad7565b90506137fc8184613fba565b505050600b81016101c083018061381281613ad7565b905061381e8184613fba565b5050505050565b60008101600083018061383781613a7f565b90506138438184613ed9565b50505060018101602083018061385881613ad7565b90506138648184613fba565b5050505050565b60006138768261320e565b9150600082141561388a5761388961395a565b5b600182039050919050565b60006020601f8301049050919050565b600060028204905060018216806138bd57607f821691505b602082108114156138d1576138d06139b8565b5b50919050565b60006138e3838361393c565b9150826002028217905092915050565b60006138fe8261320e565b91507fffffffffffffffffffffffffffffffffffffffffffffffffffffffffffffffff8214156139315761393061395a565b5b600182019050919050565b600061394d60001984600802613c0c565b1980831691505092915050565b7f4e487b7100000000000000000000000000000000000000000000000000000000600052601160045260246000fd5b7f4e487b7100000000000000000000000000000000000000000000000000000000600052602160045260246000fd5b7f4e487b7100000000000000000000000000000000000000000000000000000000600052602260045260246000fd5b7f4e487b7100000000000000000000000000000000000000000000000000000000600052603260045260246000fd5b7f4e487b7100000000000000000000000000000000000000000000000000000000600052604160045260246000fd5b6000819050919050565b6000819050919050565b6000613a6482613bff565b9050919050565b6000819050919050565b6000819050919050565b60008135613a8c816140dd565b80915050919050565b60008135613aa2816140f4565b80915050919050565b60008135613ab88161410b565b80915050919050565b60008135613ace81614139565b80915050919050565b60008135613ae481614159565b80915050919050565b68010000000000000000821115613b0757613b06613a16565b5b613b1081612ea6565b828255613b1e8382846130ba565b505050565b68010000000000000000821115613b3d57613b3c613a16565b5b613b4681612ec7565b828255613b548382846130f8565b505050565b68010000000000000000821115613b7357613b72613a16565b5b613b7c81612ee8565b828255613b8a838284613136565b505050565b600080fd5b600080fd5b600080fd5b600080fd5b600080fd5b600080fd5b6000601f19601f8301169050919050565b60008160001b9050919050565b60008160101b9050919050565b60008160a01b9050919050565b60008160081b9050919050565b600082821b905092915050565b60008160001c9050919050565b600082821c905092915050565b613c21614170565b613c2c81848461406b565b505050565b613c39614175565b613c44818484614090565b505050565b7f537472696e67733a20686578206c656e67746820696e73756666696369656e74600082015250565b7f416363657373436f6e74726f6c3a206163636f756e7420000000000000000000600082015250565b7f206973206d697373696e6720726f6c6520000000000000000000000000000000600082015250565b7f416363657373436f6e74726f6c3a2063616e206f6e6c792072656e6f756e636560008201527f20726f6c657320666f722073656c660000000000000000000000000000000000602082015250565b600060ff613d2084613bbe565b9350801983169250808416831791505092915050565b600061ff00613d4484613be5565b9350801983169250808416831791505092915050565b600074ff0000000000000000000000000000000000000000613d7b84613bd8565b9350801983169250808416831791505092915050565b600073ffffffffffffffffffffffffffffffffffffffff613db184613bbe565b9350801983169250808416831791505092915050565b600075ffffffffffffffffffffffffffffffffffffffff0000613de984613bcb565b9350801983169250808416831791505092915050565b60007fffffffffffffffffffffffffffffffffffffffffffffffffffffffffffffffff613e2b84613bbe565b9350801983169250808416831791505092915050565b600060088302613e6573ffffffffffffffffffffffffffffffffffffffff82613bf2565b613e6f8683613bf2565b95508019841693508086168417925050509392505050565b600060088302613eb77fffffffffffffffffffffffffffffffffffffffffffffffffffffffffffffffff82613bf2565b613ec18683613bf2565b95508019841693508086168417925050509392505050565b613ee2826132a4565b613ef5613eee82613a45565b8354613d91565b8255505050565b613f07838383613346565b505050565b613f178383836133b1565b505050565b613f2783838361341c565b505050565b613f35826132b6565b613f48613f4182613a4f565b8354613d13565b8255505050565b613f58826132c8565b613f6b613f6482613a59565b8354613dff565b8255505050565b613f7d838383613487565b505050565b613f8c828261358a565b5050565b613f9a82826135d0565b5050565b613fa88282613658565b5050565b613fb68282613825565b5050565b613fc382613334565b613fd6613fcf82613a75565b8354613dff565b8255505050565b613fe6826132b6565b613ff9613ff282613a4f565b8354613d36565b8255505050565b614009826132da565b61401c61401582613a6b565b8354613d5a565b8255505050565b61402c826132a4565b61403f61403882613a45565b8354613dc7565b8255505050565b61404f836132a4565b61406361405b82613a45565b848454613e41565b825550505050565b614074836132c8565b61408861408082613a59565b848454613e87565b825550505050565b61409983613334565b6140ad6140a582613a75565b848454613e87565b825550505050565b600281106140c6576140c5613989565b5b50565b600481106140da576140d9613989565b5b50565b6140e681613174565b81146140f157600080fd5b50565b6140fd81613186565b811461410857600080fd5b50565b61411481613192565b811461411f57600080fd5b50565b61412b8161319c565b811461413657600080fd5b50565b6002811061414657600080fd5b50565b6004811061415657600080fd5b50565b6141628161320e565b811461416d57600080fd5b50565b600090565b60009056fea26469706673582212201e87f1e899c07f5a2efe20e2bae402a9971ea43f56a74f8e3e68d91511df6c3a64736f6c63430008070033",
  "linkReferences": {},
  "deployedLinkReferences": {}
}