{
  "_format": "hh-sol-artifact-1",
  "contractName": "MembershipsView",
  "sourceName": "contracts/MembershipsView.sol",
  "abi": [
    {
      "inputs": [
        {
          "internalType": "address",
          "name": "eternalStorage",
          "type": "address"
        }
      ],
      "stateMutability": "nonpayable",
      "type": "constructor"
    },
    {
      "inputs": [
        {
          "internalType": "uint256",
          "name": "index",
          "type": "uint256"
        }
      ],
      "name": "getCampaign",
      "outputs": [
        {
          "components": [
            {
              "internalType": "bytes32",
              "name": "campaignId",
              "type": "bytes32"
            },
            {
              "internalType": "uint256",
              "name": "phasesLength",
              "type": "uint256"
            },
            {
              "internalType": "bytes32[]",
              "name": "phases",
              "type": "bytes32[]"
            },
            {
              "internalType": "string",
              "name": "metadata",
              "type": "string"
            }
          ],
          "internalType": "struct MembershipsTypes.Campaign",
          "name": "",
          "type": "tuple"
        }
      ],
      "stateMutability": "view",
      "type": "function"
    },
    {
      "inputs": [
        {
          "internalType": "address",
          "name": "owner",
          "type": "address"
        }
      ],
      "name": "getCampaignByOwner",
      "outputs": [
        {
          "internalType": "uint256",
          "name": "",
          "type": "uint256"
        },
        {
          "components": [
            {
              "internalType": "bytes32",
              "name": "campaignId",
              "type": "bytes32"
            },
            {
              "internalType": "uint256",
              "name": "phasesLength",
              "type": "uint256"
            },
            {
              "internalType": "bytes32[]",
              "name": "phases",
              "type": "bytes32[]"
            },
            {
              "internalType": "string",
              "name": "metadata",
              "type": "string"
            }
          ],
          "internalType": "struct MembershipsTypes.Campaign[]",
          "name": "",
          "type": "tuple[]"
        }
      ],
      "stateMutability": "view",
      "type": "function"
    },
    {
      "inputs": [
        {
          "internalType": "address",
          "name": "referral",
          "type": "address"
        }
      ],
      "name": "getCampaignByReferral",
      "outputs": [
        {
          "internalType": "uint256",
          "name": "",
          "type": "uint256"
        },
        {
          "components": [
            {
              "internalType": "bytes32",
              "name": "campaignId",
              "type": "bytes32"
            },
            {
              "internalType": "uint256",
              "name": "phasesLength",
              "type": "uint256"
            },
            {
              "internalType": "bytes32[]",
              "name": "phases",
              "type": "bytes32[]"
            },
            {
              "internalType": "string",
              "name": "metadata",
              "type": "string"
            }
          ],
          "internalType": "struct MembershipsTypes.Campaign[]",
          "name": "",
          "type": "tuple[]"
        }
      ],
      "stateMutability": "view",
      "type": "function"
    },
    {
      "inputs": [
        {
          "internalType": "bytes32",
          "name": "schedule",
          "type": "bytes32"
        }
      ],
      "name": "getCampaignBySchedule",
      "outputs": [
        {
          "components": [
            {
              "internalType": "bytes32",
              "name": "campaignId",
              "type": "bytes32"
            },
            {
              "internalType": "uint256",
              "name": "campaignIndex",
              "type": "uint256"
            },
            {
              "internalType": "uint256",
              "name": "scheduleIndex",
              "type": "uint256"
            }
          ],
          "internalType": "struct MembershipsTypes.ScheduleCampaign",
          "name": "",
          "type": "tuple"
        }
      ],
      "stateMutability": "view",
      "type": "function"
    },
    {
      "inputs": [],
      "name": "getCampaignsLength",
      "outputs": [
        {
          "internalType": "uint256",
          "name": "",
          "type": "uint256"
        }
      ],
      "stateMutability": "view",
      "type": "function"
    },
    {
      "inputs": [
        {
          "internalType": "bytes32",
          "name": "scheduleId",
          "type": "bytes32"
        }
      ],
      "name": "getSchedule",
      "outputs": [
        {
          "components": [
            {
              "internalType": "bool",
              "name": "initialized",
              "type": "bool"
            },
            {
              "internalType": "bool",
              "name": "revoked",
              "type": "bool"
            },
            {
              "internalType": "address",
              "name": "owner",
              "type": "address"
            },
            {
              "internalType": "uint256",
              "name": "start",
              "type": "uint256"
            },
            {
              "internalType": "uint256",
              "name": "duration",
              "type": "uint256"
            },
            {
              "internalType": "bytes32",
              "name": "merkleRoot",
              "type": "bytes32"
            },
            {
              "internalType": "uint256",
              "name": "amountTotal",
              "type": "uint256"
            },
            {
              "internalType": "uint256",
              "name": "released",
              "type": "uint256"
            },
            {
              "internalType": "address[]",
              "name": "lotToken",
              "type": "address[]"
            },
            {
              "internalType": "uint256[]",
              "name": "lotSize",
              "type": "uint256[]"
            },
            {
              "components": [
                {
                  "internalType": "address",
                  "name": "token",
                  "type": "address"
                },
                {
                  "internalType": "enum MembershipsTypes.AssetType",
                  "name": "assetType",
                  "type": "uint8"
                }
              ],
              "internalType": "struct MembershipsTypes.Asset",
              "name": "paymentAsset",
              "type": "tuple"
            },
            {
              "internalType": "uint256",
              "name": "pricePerLot",
              "type": "uint256"
            },
            {
              "internalType": "uint256",
              "name": "rollFee",
              "type": "uint256"
            },
            {
              "internalType": "uint256",
              "name": "maxBuyPerWallet",
              "type": "uint256"
            }
          ],
          "internalType": "struct MembershipsTypes.MintingSchedule",
          "name": "",
          "type": "tuple"
        }
      ],
      "stateMutability": "view",
      "type": "function"
    }
  ],
  "bytecode": "0x60806040523480156200001157600080fd5b5060405162001eef38038062001eef833981810160405281019062000037919062000095565b806000806101000a81548173ffffffffffffffffffffffffffffffffffffffff021916908373ffffffffffffffffffffffffffffffffffffffff160217905550506200011a565b6000815190506200008f8162000100565b92915050565b600060208284031215620000ae57620000ad620000fb565b5b6000620000be848285016200007e565b91505092915050565b6000620000d482620000db565b9050919050565b600073ffffffffffffffffffffffffffffffffffffffff82169050919050565b600080fd5b6200010b81620000c7565b81146200011757600080fd5b50565b611dc5806200012a6000396000f3fe608060405234801561001057600080fd5b50600436106100625760003560e01c80633adc277a146100675780635598f8cc14610097578063786dd9dd146100c7578063e3ba797a146100f7578063f3e2ec1614610128578063fb5474ae14610159575b600080fd5b610081600480360381019061007c9190611146565b610177565b60405161008e9190611889565b60405180910390f35b6100b160048036038101906100ac9190611258565b610234565b6040516100be9190611867565b60405180910390f35b6100e160048036038101906100dc9190611146565b6102f1565b6040516100ee91906118ab565b60405180910390f35b610111600480360381019061010c9190611119565b6103d3565b60405161011f9291906118e1565b60405180910390f35b610142600480360381019061013d9190611119565b6106cb565b6040516101509291906118e1565b60405180910390f35b6101616109c3565b60405161016e91906118c6565b60405180910390f35b61017f610a69565b60008054906101000a900473ffffffffffffffffffffffffffffffffffffffff1673ffffffffffffffffffffffffffffffffffffffff16633adc277a836040518263ffffffff1660e01b81526004016101d8919061184c565b60006040518083038186803b1580156101f057600080fd5b505afa158015610204573d6000803e3d6000fd5b505050506040513d6000823e3d601f19601f8201168201806040525081019061022d919061120f565b9050919050565b61023c610afb565b60008054906101000a900473ffffffffffffffffffffffffffffffffffffffff1673ffffffffffffffffffffffffffffffffffffffff16635598f8cc836040518263ffffffff1660e01b815260040161029591906118c6565b60006040518083038186803b1580156102ad57600080fd5b505afa1580156102c1573d6000803e3d6000fd5b505050506040513d6000823e3d601f19601f820116820180604052508101906102ea91906111c6565b9050919050565b6102f9610b26565b60008060008060009054906101000a900473ffffffffffffffffffffffffffffffffffffffff1673ffffffffffffffffffffffffffffffffffffffff1663e4e4f803866040518263ffffffff1660e01b8152600401610358919061184c565b60606040518083038186803b15801561037057600080fd5b505afa158015610384573d6000803e3d6000fd5b505050506040513d601f19601f820116820180604052508101906103a89190611173565b9250925092506040518060600160405280848152602001838152602001828152509350505050919050565b6000606060008060009054906101000a900473ffffffffffffffffffffffffffffffffffffffff1673ffffffffffffffffffffffffffffffffffffffff1663f5aa2053856040518263ffffffff1660e01b81526004016104339190611808565b60206040518083038186803b15801561044b57600080fd5b505afa15801561045f573d6000803e3d6000fd5b505050506040513d601f19601f820116820180604052508101906104839190611285565b905060008167ffffffffffffffff8111156104a1576104a0611c9c565b5b6040519080825280602002602001820160405280156104da57816020015b6104c7610afb565b8152602001906001900390816104bf5790505b5090506000805b838110156106bc5760008060008054906101000a900473ffffffffffffffffffffffffffffffffffffffff1673ffffffffffffffffffffffffffffffffffffffff166338ff4d578a856040518363ffffffff1660e01b8152600401610547929190611823565b604080518083038186803b15801561055e57600080fd5b505afa158015610572573d6000803e3d6000fd5b505050506040513d601f19601f8201168201806040525081019061059691906112b2565b91509150600260038111156105ae576105ad611c3e565b5b8160038111156105c1576105c0611c3e565b5b14156106a75760008060009054906101000a900473ffffffffffffffffffffffffffffffffffffffff1673ffffffffffffffffffffffffffffffffffffffff16635598f8cc846040518263ffffffff1660e01b815260040161062391906118c6565b60006040518083038186803b15801561063b57600080fd5b505afa15801561064f573d6000803e3d6000fd5b505050506040513d6000823e3d601f19601f8201168201806040525081019061067891906111c6565b90508086868061068790611bc6565b97508151811061069a57610699611c6d565b5b6020026020010181905250505b505080806106b490611bc6565b9150506104e1565b50808294509450505050915091565b6000606060008060009054906101000a900473ffffffffffffffffffffffffffffffffffffffff1673ffffffffffffffffffffffffffffffffffffffff1663f5aa2053856040518263ffffffff1660e01b815260040161072b9190611808565b60206040518083038186803b15801561074357600080fd5b505afa158015610757573d6000803e3d6000fd5b505050506040513d601f19601f8201168201806040525081019061077b9190611285565b905060008167ffffffffffffffff81111561079957610798611c9c565b5b6040519080825280602002602001820160405280156107d257816020015b6107bf610afb565b8152602001906001900390816107b75790505b5090506000805b838110156109b45760008060008054906101000a900473ffffffffffffffffffffffffffffffffffffffff1673ffffffffffffffffffffffffffffffffffffffff166338ff4d578a856040518363ffffffff1660e01b815260040161083f929190611823565b604080518083038186803b15801561085657600080fd5b505afa15801561086a573d6000803e3d6000fd5b505050506040513d601f19601f8201168201806040525081019061088e91906112b2565b91509150600060038111156108a6576108a5611c3e565b5b8160038111156108b9576108b8611c3e565b5b141561099f5760008060009054906101000a900473ffffffffffffffffffffffffffffffffffffffff1673ffffffffffffffffffffffffffffffffffffffff16635598f8cc846040518263ffffffff1660e01b815260040161091b91906118c6565b60006040518083038186803b15801561093357600080fd5b505afa158015610947573d6000803e3d6000fd5b505050506040513d6000823e3d601f19601f8201168201806040525081019061097091906111c6565b90508086868061097f90611bc6565b97508151811061099257610991611c6d565b5b6020026020010181905250505b505080806109ac90611bc6565b9150506107d9565b50808294509450505050915091565b60008060009054906101000a900473ffffffffffffffffffffffffffffffffffffffff1673ffffffffffffffffffffffffffffffffffffffff16635f3179c36040518163ffffffff1660e01b815260040160206040518083038186803b158015610a2c57600080fd5b505afa158015610a40573d6000803e3d6000fd5b505050506040513d601f19601f82011682018060405250810190610a649190611285565b905090565b604051806101c00160405280600015158152602001600015158152602001600073ffffffffffffffffffffffffffffffffffffffff16815260200160008152602001600081526020016000801916815260200160008152602001600081526020016060815260200160608152602001610ae0610b4a565b81526020016000815260200160008152602001600081525090565b6040518060800160405280600080191681526020016000815260200160608152602001606081525090565b60405180606001604052806000801916815260200160008152602001600081525090565b6040518060400160405280600073ffffffffffffffffffffffffffffffffffffffff16815260200160006001811115610b8657610b85611c3e565b5b81525090565b6000610b9f610b9a84611936565b611911565b90508083825260208201905082856020860282011115610bc257610bc1611cda565b5b60005b85811015610bf25781610bd88882610d33565b845260208401935060208301925050600181019050610bc5565b5050509392505050565b6000610c0f610c0a84611962565b611911565b90508083825260208201905082856020860282011115610c3257610c31611cda565b5b60005b85811015610c625781610c488882610dfc565b845260208401935060208301925050600181019050610c35565b5050509392505050565b6000610c7f610c7a8461198e565b611911565b90508083825260208201905082856020860282011115610ca257610ca1611cda565b5b60005b85811015610cd25781610cb88882611104565b845260208401935060208301925050600181019050610ca5565b5050509392505050565b6000610cef610cea846119ba565b611911565b905082815260208101848484011115610d0b57610d0a611cdf565b5b610d16848285611b62565b509392505050565b600081359050610d2d81611d13565b92915050565b600081519050610d4281611d13565b92915050565b600082601f830112610d5d57610d5c611ccb565b5b8151610d6d848260208601610b8c565b91505092915050565b600082601f830112610d8b57610d8a611ccb565b5b8151610d9b848260208601610bfc565b91505092915050565b600082601f830112610db957610db8611ccb565b5b8151610dc9848260208601610c6c565b91505092915050565b600081519050610de181611d2a565b92915050565b600081359050610df681611d41565b92915050565b600081519050610e0b81611d41565b92915050565b600081519050610e2081611d58565b92915050565b600081519050610e3581611d68565b92915050565b600082601f830112610e5057610e4f611ccb565b5b8151610e60848260208601610cdc565b91505092915050565b600060408284031215610e7f57610e7e611cd0565b5b610e896040611911565b90506000610e9984828501610d33565b6000830152506020610ead84828501610e11565b60208301525092915050565b600060808284031215610ecf57610ece611cd0565b5b610ed96080611911565b90506000610ee984828501610dfc565b6000830152506020610efd84828501611104565b602083015250604082015167ffffffffffffffff811115610f2157610f20611cd5565b5b610f2d84828501610d76565b604083015250606082015167ffffffffffffffff811115610f5157610f50611cd5565b5b610f5d84828501610e3b565b60608301525092915050565b60006101e08284031215610f8057610f7f611cd0565b5b610f8b6101c0611911565b90506000610f9b84828501610dd2565b6000830152506020610faf84828501610dd2565b6020830152506040610fc384828501610d33565b6040830152506060610fd784828501611104565b6060830152506080610feb84828501611104565b60808301525060a0610fff84828501610dfc565b60a08301525060c061101384828501611104565b60c08301525060e061102784828501611104565b60e08301525061010082015167ffffffffffffffff81111561104c5761104b611cd5565b5b61105884828501610d48565b6101008301525061012082015167ffffffffffffffff81111561107e5761107d611cd5565b5b61108a84828501610da4565b610120830152506101406110a084828501610e69565b610140830152506101806110b684828501611104565b610160830152506101a06110cc84828501611104565b610180830152506101c06110e284828501611104565b6101a08301525092915050565b6000813590506110fe81611d78565b92915050565b60008151905061111381611d78565b92915050565b60006020828403121561112f5761112e611ce9565b5b600061113d84828501610d1e565b91505092915050565b60006020828403121561115c5761115b611ce9565b5b600061116a84828501610de7565b91505092915050565b60008060006060848603121561118c5761118b611ce9565b5b600061119a86828701610dfc565b93505060206111ab86828701611104565b92505060406111bc86828701611104565b9150509250925092565b6000602082840312156111dc576111db611ce9565b5b600082015167ffffffffffffffff8111156111fa576111f9611ce4565b5b61120684828501610eb9565b91505092915050565b60006020828403121561122557611224611ce9565b5b600082015167ffffffffffffffff81111561124357611242611ce4565b5b61124f84828501610f69565b91505092915050565b60006020828403121561126e5761126d611ce9565b5b600061127c848285016110ef565b91505092915050565b60006020828403121561129b5761129a611ce9565b5b60006112a984828501611104565b91505092915050565b600080604083850312156112c9576112c8611ce9565b5b60006112d785828601611104565b92505060206112e885828601610e26565b9150509250929050565b60006112fe838361134e565b60208301905092915050565b6000611316838361150a565b60208301905092915050565b600061132e838361159f565b905092915050565b600061134283836117ea565b60208301905092915050565b61135781611aeb565b82525050565b61136681611aeb565b82525050565b600061137782611a2b565b6113818185611a96565b935061138c836119eb565b8060005b838110156113bd5781516113a488826112f2565b97506113af83611a62565b925050600181019050611390565b5085935050505092915050565b60006113d582611a36565b6113df8185611aa7565b93506113ea836119fb565b8060005b8381101561141b578151611402888261130a565b975061140d83611a6f565b9250506001810190506113ee565b5085935050505092915050565b600061143382611a41565b61143d8185611ab8565b93508360208202850161144f85611a0b565b8060005b8581101561148b578484038952815161146c8582611322565b945061147783611a7c565b925060208a01995050600181019050611453565b50829750879550505050505092915050565b60006114a882611a4c565b6114b28185611ac9565b93506114bd83611a1b565b8060005b838110156114ee5781516114d58882611336565b97506114e083611a89565b9250506001810190506114c1565b5085935050505092915050565b61150481611afd565b82525050565b61151381611b09565b82525050565b61152281611b09565b82525050565b61153181611b50565b82525050565b600061154282611a57565b61154c8185611ada565b935061155c818560208601611b62565b61156581611cee565b840191505092915050565b604082016000820151611586600085018261134e565b5060208201516115996020850182611528565b50505050565b60006080830160008301516115b7600086018261150a565b5060208301516115ca60208601826117ea565b50604083015184820360408601526115e282826113ca565b915050606083015184820360608601526115fc8282611537565b9150508091505092915050565b6000608083016000830151611621600086018261150a565b50602083015161163460208601826117ea565b506040830151848203604086015261164c82826113ca565b915050606083015184820360608601526116668282611537565b9150508091505092915050565b60006101e08301600083015161168c60008601826114fb565b50602083015161169f60208601826114fb565b5060408301516116b2604086018261134e565b5060608301516116c560608601826117ea565b5060808301516116d860808601826117ea565b5060a08301516116eb60a086018261150a565b5060c08301516116fe60c08601826117ea565b5060e083015161171160e08601826117ea565b5061010083015184820361010086015261172b828261136c565b915050610120830151848203610120860152611747828261149d565b91505061014083015161175e610140860182611570565b506101608301516117736101808601826117ea565b506101808301516117886101a08601826117ea565b506101a083015161179d6101c08601826117ea565b508091505092915050565b6060820160008201516117be600085018261150a565b5060208201516117d160208501826117ea565b5060408201516117e460408501826117ea565b50505050565b6117f381611b46565b82525050565b61180281611b46565b82525050565b600060208201905061181d600083018461135d565b92915050565b6000604082019050611838600083018561135d565b61184560208301846117f9565b9392505050565b60006020820190506118616000830184611519565b92915050565b600060208201905081810360008301526118818184611609565b905092915050565b600060208201905081810360008301526118a38184611673565b905092915050565b60006060820190506118c060008301846117a8565b92915050565b60006020820190506118db60008301846117f9565b92915050565b60006040820190506118f660008301856117f9565b81810360208301526119088184611428565b90509392505050565b600061191b61192c565b90506119278282611b95565b919050565b6000604051905090565b600067ffffffffffffffff82111561195157611950611c9c565b5b602082029050602081019050919050565b600067ffffffffffffffff82111561197d5761197c611c9c565b5b602082029050602081019050919050565b600067ffffffffffffffff8211156119a9576119a8611c9c565b5b602082029050602081019050919050565b600067ffffffffffffffff8211156119d5576119d4611c9c565b5b6119de82611cee565b9050602081019050919050565b6000819050602082019050919050565b6000819050602082019050919050565b6000819050602082019050919050565b6000819050602082019050919050565b600081519050919050565b600081519050919050565b600081519050919050565b600081519050919050565b600081519050919050565b6000602082019050919050565b6000602082019050919050565b6000602082019050919050565b6000602082019050919050565b600082825260208201905092915050565b600082825260208201905092915050565b600082825260208201905092915050565b600082825260208201905092915050565b600082825260208201905092915050565b6000611af682611b26565b9050919050565b60008115159050919050565b6000819050919050565b6000819050611b2182611cff565b919050565b600073ffffffffffffffffffffffffffffffffffffffff82169050919050565b6000819050919050565b6000611b5b82611b13565b9050919050565b60005b83811015611b80578082015181840152602081019050611b65565b83811115611b8f576000848401525b50505050565b611b9e82611cee565b810181811067ffffffffffffffff82111715611bbd57611bbc611c9c565b5b80604052505050565b6000611bd182611b46565b91507fffffffffffffffffffffffffffffffffffffffffffffffffffffffffffffffff821415611c0457611c03611c0f565b5b600182019050919050565b7f4e487b7100000000000000000000000000000000000000000000000000000000600052601160045260246000fd5b7f4e487b7100000000000000000000000000000000000000000000000000000000600052602160045260246000fd5b7f4e487b7100000000000000000000000000000000000000000000000000000000600052603260045260246000fd5b7f4e487b7100000000000000000000000000000000000000000000000000000000600052604160045260246000fd5b600080fd5b600080fd5b600080fd5b600080fd5b600080fd5b600080fd5b600080fd5b6000601f19601f8301169050919050565b60028110611d1057611d0f611c3e565b5b50565b611d1c81611aeb565b8114611d2757600080fd5b50565b611d3381611afd565b8114611d3e57600080fd5b50565b611d4a81611b09565b8114611d5557600080fd5b50565b60028110611d6557600080fd5b50565b60048110611d7557600080fd5b50565b611d8181611b46565b8114611d8c57600080fd5b5056fea264697066735822122022fb6f81c06bf48db65e1c3f9a1604dc5bd0b7b4e1c8cc33166527916fe0797864736f6c63430008070033",
  "linkReferences": {},
  "deployedLinkReferences": {}
}