{
  "_format": "hh-sol-artifact-1",
  "contractName": "Memberships",
  "sourceName": "contracts/Memberships.sol",
  "abi": [
    {
      "inputs": [
        {
          "internalType": "address",
          "name": "eternalStorage_",
          "type": "address"
        },
        {
          "internalType": "address",
          "name": "membershipsImpl_",
          "type": "address"
        },
        {
          "internalType": "address",
          "name": "rollWallet",
          "type": "address"
        },
        {
          "internalType": "uint256",
          "name": "minRollFee",
          "type": "uint256"
        }
      ],
      "stateMutability": "nonpayable",
      "type": "constructor"
    },
    {
      "inputs": [
        {
          "internalType": "uint256",
          "name": "minRollFee",
          "type": "uint256"
        },
        {
          "internalType": "uint256",
          "name": "maxFee",
          "type": "uint256"
        }
      ],
      "name": "ErrorME01InvalidFee",
      "type": "error"
    },
    {
      "inputs": [],
      "name": "ErrorME02TokenNotAllowed",
      "type": "error"
    },
    {
      "inputs": [],
      "name": "ErrorME03NotEnoughTokens",
      "type": "error"
    },
    {
      "inputs": [],
      "name": "ErrorME04NotEnoughPhases",
      "type": "error"
    },
    {
      "inputs": [],
      "name": "ErrorME05OnlyOwnerAllowed",
      "type": "error"
    },
    {
      "inputs": [],
      "name": "ErrorME06ScheduleDoesNotExists",
      "type": "error"
    },
    {
      "inputs": [],
      "name": "ErrorME07ScheduleRevoked",
      "type": "error"
    },
    {
      "inputs": [],
      "name": "ErrorME08ScheduleNotActive",
      "type": "error"
    },
    {
      "inputs": [],
      "name": "ErrorME09ScheduleNotFinished",
      "type": "error"
    },
    {
      "inputs": [],
      "name": "ErrorME10ActionAllowlisted",
      "type": "error"
    },
    {
      "inputs": [],
      "name": "ErrorME11TransferError",
      "type": "error"
    },
    {
      "inputs": [],
      "name": "ErrorME12IndexOutOfBounds",
      "type": "error"
    },
    {
      "inputs": [],
      "name": "ErrorME13InvalidAddress",
      "type": "error"
    },
    {
      "inputs": [],
      "name": "ErrorME14BetaPeriodAlreadyFinish",
      "type": "error"
    },
    {
      "inputs": [],
      "name": "ErrorME15InvalidDate",
      "type": "error"
    },
    {
      "inputs": [],
      "name": "ErrorME16InvalidDuration",
      "type": "error"
    },
    {
      "inputs": [],
      "name": "ErrorME17InvalidPrice",
      "type": "error"
    },
    {
      "inputs": [],
      "name": "ErrorME18LotArrayLengthMismatch",
      "type": "error"
    },
    {
      "inputs": [],
      "name": "ErrorME19NotEnoughEth",
      "type": "error"
    },
    {
      "inputs": [],
      "name": "ErrorME20InvalidReferral",
      "type": "error"
    },
    {
      "inputs": [],
      "name": "ErrorME21InvalidReferralFee",
      "type": "error"
    },
    {
      "inputs": [],
      "name": "ErrorME22MaxBuyPerWalletExceeded",
      "type": "error"
    },
    {
      "inputs": [],
      "name": "ErrorME23TotalClaimedError",
      "type": "error"
    },
    {
      "inputs": [],
      "name": "ErrorME24InvalidProof",
      "type": "error"
    },
    {
      "inputs": [],
      "name": "ErrorME25ScheduleNotFinishedOrSoldOut",
      "type": "error"
    },
    {
      "inputs": [],
      "name": "ErrorME26OnlyMembershipsImpl",
      "type": "error"
    },
    {
      "inputs": [],
      "name": "ErrorME27TotalAmountExceeded",
      "type": "error"
    },
    {
      "inputs": [],
      "name": "ErrorME28InvalidAmount",
      "type": "error"
    },
    {
      "inputs": [],
      "name": "ErrorME29InvalidMaxBuyPerWallet",
      "type": "error"
    },
    {
      "anonymous": false,
      "inputs": [
        {
          "indexed": true,
          "internalType": "address",
          "name": "from",
          "type": "address"
        },
        {
          "indexed": true,
          "internalType": "address",
          "name": "addr",
          "type": "address"
        }
      ],
      "name": "EventEternalStorageUpdated",
      "type": "event"
    },
    {
      "anonymous": false,
      "inputs": [
        {
          "indexed": true,
          "internalType": "address",
          "name": "from",
          "type": "address"
        },
        {
          "indexed": true,
          "internalType": "address",
          "name": "addr",
          "type": "address"
        }
      ],
      "name": "EventMembershipsImplUpdated",
      "type": "event"
    },
    {
      "anonymous": false,
      "inputs": [
        {
          "indexed": false,
          "internalType": "uint256",
          "name": "newMinRollFee",
          "type": "uint256"
        }
      ],
      "name": "EventMinRollFeeUpdated",
      "type": "event"
    },
    {
      "anonymous": false,
      "inputs": [
        {
          "indexed": true,
          "internalType": "address",
          "name": "from",
          "type": "address"
        },
        {
          "indexed": true,
          "internalType": "bytes32",
          "name": "scheduleId",
          "type": "bytes32"
        },
        {
          "indexed": true,
          "internalType": "address",
          "name": "newReferral",
          "type": "address"
        }
      ],
      "name": "EventReferralUpdated",
      "type": "event"
    },
    {
      "anonymous": false,
      "inputs": [
        {
          "indexed": true,
          "internalType": "address",
          "name": "from",
          "type": "address"
        },
        {
          "indexed": true,
          "internalType": "address",
          "name": "addr",
          "type": "address"
        }
      ],
      "name": "EventRollWalletUpdated",
      "type": "event"
    },
    {
      "anonymous": false,
      "inputs": [
        {
          "indexed": true,
          "internalType": "address",
          "name": "from",
          "type": "address"
        },
        {
          "indexed": true,
          "internalType": "bytes32",
          "name": "scheduleId",
          "type": "bytes32"
        }
      ],
      "name": "EventScheduleCreated",
      "type": "event"
    },
    {
      "anonymous": false,
      "inputs": [
        {
          "indexed": true,
          "internalType": "address",
          "name": "from",
          "type": "address"
        },
        {
          "indexed": true,
          "internalType": "bytes32",
          "name": "scheduleId",
          "type": "bytes32"
        },
        {
          "indexed": true,
          "internalType": "address",
          "name": "token",
          "type": "address"
        }
      ],
      "name": "EventScheduleCreatedWithToken",
      "type": "event"
    },
    {
      "anonymous": false,
      "inputs": [
        {
          "indexed": true,
          "internalType": "address",
          "name": "sender",
          "type": "address"
        },
        {
          "indexed": true,
          "internalType": "bytes32",
          "name": "scheduleId",
          "type": "bytes32"
        },
        {
          "indexed": true,
          "internalType": "address",
          "name": "referral",
          "type": "address"
        },
        {
          "indexed": false,
          "internalType": "uint256",
          "name": "referralFee",
          "type": "uint256"
        }
      ],
      "name": "EventScheduleReferralSet",
      "type": "event"
    },
    {
      "anonymous": false,
      "inputs": [
        {
          "indexed": true,
          "internalType": "address",
          "name": "from",
          "type": "address"
        },
        {
          "indexed": true,
          "internalType": "address",
          "name": "token",
          "type": "address"
        },
        {
          "indexed": false,
          "internalType": "bool",
          "name": "value",
          "type": "bool"
        }
      ],
      "name": "EventTokenAllowedUpdated",
      "type": "event"
    },
    {
      "anonymous": false,
      "inputs": [
        {
          "indexed": true,
          "internalType": "address",
          "name": "previousOwner",
          "type": "address"
        },
        {
          "indexed": true,
          "internalType": "address",
          "name": "newOwner",
          "type": "address"
        }
      ],
      "name": "OwnershipTransferred",
      "type": "event"
    },
    {
      "anonymous": false,
      "inputs": [
        {
          "indexed": false,
          "internalType": "address",
          "name": "account",
          "type": "address"
        }
      ],
      "name": "Paused",
      "type": "event"
    },
    {
      "anonymous": false,
      "inputs": [
        {
          "indexed": true,
          "internalType": "bytes32",
          "name": "scheduleId",
          "type": "bytes32"
        }
      ],
      "name": "Revoked",
      "type": "event"
    },
    {
      "anonymous": false,
      "inputs": [
        {
          "indexed": false,
          "internalType": "address",
          "name": "account",
          "type": "address"
        }
      ],
      "name": "Unpaused",
      "type": "event"
    },
    {
      "inputs": [
        {
          "internalType": "bytes32",
          "name": "scheduleId",
          "type": "bytes32"
        },
        {
          "internalType": "uint256",
          "name": "amount",
          "type": "uint256"
        }
      ],
      "name": "buy",
      "outputs": [],
      "stateMutability": "payable",
      "type": "function"
    },
    {
      "inputs": [
        {
          "internalType": "bytes32",
          "name": "scheduleId",
          "type": "bytes32"
        },
        {
          "internalType": "uint256",
          "name": "amount",
          "type": "uint256"
        },
        {
          "internalType": "bytes32[]",
          "name": "proof",
          "type": "bytes32[]"
        }
      ],
      "name": "buyWithAllowlist",
      "outputs": [],
      "stateMutability": "payable",
      "type": "function"
    },
    {
      "inputs": [
        {
          "internalType": "bytes32",
          "name": "scheduleId",
          "type": "bytes32"
        }
      ],
      "name": "claim",
      "outputs": [],
      "stateMutability": "nonpayable",
      "type": "function"
    },
    {
      "inputs": [
        {
          "internalType": "bytes32",
          "name": "scheduleId",
          "type": "bytes32"
        }
      ],
      "name": "claimReferral",
      "outputs": [],
      "stateMutability": "nonpayable",
      "type": "function"
    },
    {
      "inputs": [
        {
          "internalType": "bytes32",
          "name": "scheduleId",
          "type": "bytes32"
        }
      ],
      "name": "claimRoll",
      "outputs": [],
      "stateMutability": "nonpayable",
      "type": "function"
    },
    {
      "inputs": [
        {
          "internalType": "bytes32",
          "name": "scheduleId",
          "type": "bytes32"
        }
      ],
      "name": "claimUnsoldTokens",
      "outputs": [],
      "stateMutability": "nonpayable",
      "type": "function"
    },
    {
      "inputs": [
        {
          "internalType": "address",
          "name": "holder",
          "type": "address"
        },
        {
          "internalType": "uint256",
          "name": "index",
          "type": "uint256"
        },
        {
          "internalType": "uint256",
          "name": "length",
          "type": "uint256"
        }
      ],
      "name": "computeScheduleIdForAddressAndIndex",
      "outputs": [
        {
          "internalType": "bytes32",
          "name": "",
          "type": "bytes32"
        }
      ],
      "stateMutability": "pure",
      "type": "function"
    },
    {
      "inputs": [
        {
          "internalType": "bytes32",
          "name": "scheduleId",
          "type": "bytes32"
        }
      ],
      "name": "computeUnsoldLots",
      "outputs": [
        {
          "internalType": "uint256",
          "name": "",
          "type": "uint256"
        }
      ],
      "stateMutability": "view",
      "type": "function"
    },
    {
      "inputs": [
        {
          "components": [
            {
              "internalType": "uint256",
              "name": "start",
              "type": "uint256"
            },
            {
              "internalType": "uint256",
              "name": "duration",
              "type": "uint256"
            },
            {
              "internalType": "bytes32",
              "name": "merkleRoot",
              "type": "bytes32"
            },
            {
              "internalType": "uint256",
              "name": "amountTotal",
              "type": "uint256"
            },
            {
              "internalType": "address[]",
              "name": "lotToken",
              "type": "address[]"
            },
            {
              "internalType": "uint256[]",
              "name": "lotSize",
              "type": "uint256[]"
            },
            {
              "internalType": "uint256",
              "name": "pricePerLot",
              "type": "uint256"
            },
            {
              "components": [
                {
                  "internalType": "address",
                  "name": "token",
                  "type": "address"
                },
                {
                  "internalType": "enum MembershipsTypes.AssetType",
                  "name": "assetType",
                  "type": "uint8"
                }
              ],
              "internalType": "struct MembershipsTypes.Asset",
              "name": "paymentAsset",
              "type": "tuple"
            },
            {
              "internalType": "uint256",
              "name": "rollFee",
              "type": "uint256"
            },
            {
              "internalType": "address",
              "name": "referral",
              "type": "address"
            },
            {
              "internalType": "uint256",
              "name": "referralFee",
              "type": "uint256"
            },
            {
              "internalType": "uint256",
              "name": "maxBuyPerWallet",
              "type": "uint256"
            }
          ],
          "internalType": "struct MembershipsTypes.CreateMintingScheduleParams[]",
          "name": "params",
          "type": "tuple[]"
        },
        {
          "internalType": "string",
          "name": "metadata",
          "type": "string"
        }
      ],
      "name": "createCampaign",
      "outputs": [],
      "stateMutability": "nonpayable",
      "type": "function"
    },
    {
      "inputs": [
        {
          "internalType": "enum MembershipsTypes.AssetType",
          "name": "assetType",
          "type": "uint8"
        },
        {
          "internalType": "address",
          "name": "tokenAddress",
          "type": "address"
        },
        {
          "internalType": "address",
          "name": "from",
          "type": "address"
        },
        {
          "internalType": "address",
          "name": "to",
          "type": "address"
        },
        {
          "internalType": "uint256",
          "name": "value",
          "type": "uint256"
        }
      ],
      "name": "doTransfer",
      "outputs": [],
      "stateMutability": "nonpayable",
      "type": "function"
    },
    {
      "inputs": [],
      "name": "getMinRollFee",
      "outputs": [
        {
          "internalType": "uint256",
          "name": "",
          "type": "uint256"
        }
      ],
      "stateMutability": "view",
      "type": "function"
    },
    {
      "inputs": [],
      "name": "owner",
      "outputs": [
        {
          "internalType": "address",
          "name": "",
          "type": "address"
        }
      ],
      "stateMutability": "view",
      "type": "function"
    },
    {
      "inputs": [],
      "name": "pause",
      "outputs": [],
      "stateMutability": "nonpayable",
      "type": "function"
    },
    {
      "inputs": [],
      "name": "paused",
      "outputs": [
        {
          "internalType": "bool",
          "name": "",
          "type": "bool"
        }
      ],
      "stateMutability": "view",
      "type": "function"
    },
    {
      "inputs": [],
      "name": "renounceOwnership",
      "outputs": [],
      "stateMutability": "nonpayable",
      "type": "function"
    },
    {
      "inputs": [
        {
          "internalType": "bytes32",
          "name": "scheduleId",
          "type": "bytes32"
        }
      ],
      "name": "revoke",
      "outputs": [],
      "stateMutability": "nonpayable",
      "type": "function"
    },
    {
      "inputs": [
        {
          "internalType": "bytes32",
          "name": "scheduleId",
          "type": "bytes32"
        },
        {
          "internalType": "bytes32",
          "name": "root",
          "type": "bytes32"
        }
      ],
      "name": "setAllowlist",
      "outputs": [],
      "stateMutability": "nonpayable",
      "type": "function"
    },
    {
      "inputs": [
        {
          "internalType": "address",
          "name": "addr",
          "type": "address"
        }
      ],
      "name": "setEternalStorageAddress",
      "outputs": [],
      "stateMutability": "nonpayable",
      "type": "function"
    },
    {
      "inputs": [
        {
          "internalType": "address",
          "name": "addr",
          "type": "address"
        }
      ],
      "name": "setMembershipsImplAddress",
      "outputs": [],
      "stateMutability": "nonpayable",
      "type": "function"
    },
    {
      "inputs": [
        {
          "internalType": "uint256",
          "name": "newMinRollFee",
          "type": "uint256"
        }
      ],
      "name": "setMinRollFee",
      "outputs": [],
      "stateMutability": "nonpayable",
      "type": "function"
    },
    {
      "inputs": [
        {
          "internalType": "address",
          "name": "newRollWallet",
          "type": "address"
        }
      ],
      "name": "setRollWallet",
      "outputs": [],
      "stateMutability": "nonpayable",
      "type": "function"
    },
    {
      "inputs": [
        {
          "internalType": "address",
          "name": "token",
          "type": "address"
        },
        {
          "internalType": "bool",
          "name": "value",
          "type": "bool"
        }
      ],
      "name": "setTokenAllow",
      "outputs": [],
      "stateMutability": "nonpayable",
      "type": "function"
    },
    {
      "inputs": [
        {
          "internalType": "address",
          "name": "newOwner",
          "type": "address"
        }
      ],
      "name": "transferOwnership",
      "outputs": [],
      "stateMutability": "nonpayable",
      "type": "function"
    },
    {
      "inputs": [
        {
          "internalType": "bytes32",
          "name": "scheduleId",
          "type": "bytes32"
        },
        {
          "internalType": "address",
          "name": "owner_",
          "type": "address"
        }
      ],
      "name": "transferScheduleOwner",
      "outputs": [],
      "stateMutability": "nonpayable",
      "type": "function"
    },
    {
      "inputs": [
        {
          "internalType": "bytes32",
          "name": "campaignId",
          "type": "bytes32"
        },
        {
          "internalType": "string",
          "name": "metadata",
          "type": "string"
        }
      ],
      "name": "updateCampaignMetadata",
      "outputs": [],
      "stateMutability": "nonpayable",
      "type": "function"
    },
    {
      "inputs": [
        {
          "internalType": "bytes32",
          "name": "scheduleId",
          "type": "bytes32"
        },
        {
          "internalType": "address",
          "name": "referral",
          "type": "address"
        }
      ],
      "name": "updateReferral",
      "outputs": [],
      "stateMutability": "nonpayable",
      "type": "function"
    }
  ],
  "bytecode": "0x60a06040523480156200001157600080fd5b506040516200642d3803806200642d83398181016040528101906200003791906200035b565b620000576200004b6200025960201b60201c565b6200026160201b60201c565b60008060146101000a81548160ff02191690831515021790555060018081905550600073ffffffffffffffffffffffffffffffffffffffff168473ffffffffffffffffffffffffffffffffffffffff161480620000e05750600073ffffffffffffffffffffffffffffffffffffffff168373ffffffffffffffffffffffffffffffffffffffff16145b80620001185750600073ffffffffffffffffffffffffffffffffffffffff168273ffffffffffffffffffffffffffffffffffffffff16145b1562000150576040517fdae3f98f00000000000000000000000000000000000000000000000000000000815260040160405180910390fd5b83600260006101000a81548173ffffffffffffffffffffffffffffffffffffffff021916908373ffffffffffffffffffffffffffffffffffffffff16021790555082600360006101000a81548173ffffffffffffffffffffffffffffffffffffffff021916908373ffffffffffffffffffffffffffffffffffffffff16021790555081600460006101000a81548173ffffffffffffffffffffffffffffffffffffffff021916908373ffffffffffffffffffffffffffffffffffffffff160217905550806005819055506201518060b46200022c91906200042a565b6200023c6200032560201b60201c565b620002489190620003cd565b608081815250505050505062000531565b600033905090565b60008060009054906101000a900473ffffffffffffffffffffffffffffffffffffffff169050816000806101000a81548173ffffffffffffffffffffffffffffffffffffffff021916908373ffffffffffffffffffffffffffffffffffffffff1602179055508173ffffffffffffffffffffffffffffffffffffffff168173ffffffffffffffffffffffffffffffffffffffff167f8be0079c531659141344cd1fd0a4f28419497f9722a3daafe3b4186f6b6457e060405160405180910390a35050565b600042905090565b6000815190506200033e81620004fd565b92915050565b600081519050620003558162000517565b92915050565b60008060008060808587031215620003785762000377620004f8565b5b600062000388878288016200032d565b94505060206200039b878288016200032d565b9350506040620003ae878288016200032d565b9250506060620003c18782880162000344565b91505092959194509250565b6000620003da82620004bf565b9150620003e783620004bf565b9250827fffffffffffffffffffffffffffffffffffffffffffffffffffffffffffffffff038211156200041f576200041e620004c9565b5b828201905092915050565b60006200043782620004bf565b91506200044483620004bf565b9250817fffffffffffffffffffffffffffffffffffffffffffffffffffffffffffffffff048311821515161562000480576200047f620004c9565b5b828202905092915050565b600062000498826200049f565b9050919050565b600073ffffffffffffffffffffffffffffffffffffffff82169050919050565b6000819050919050565b7f4e487b7100000000000000000000000000000000000000000000000000000000600052601160045260246000fd5b600080fd5b62000508816200048b565b81146200051457600080fd5b50565b6200052281620004bf565b81146200052e57600080fd5b50565b608051615ee06200054d6000396000611a5f0152615ee06000f3fe6080604052600436106101815760003560e01c80638da5cb5b116100d1578063cbc631c51161008a578063dca9e48d11610064578063dca9e48d146104e8578063e040994314610511578063e8d3e8c41461054e578063f2fde38b1461057757610181565b8063cbc631c51461046d578063d1a81d9f14610496578063d3bcccbd146104bf57610181565b80638da5cb5b146103735780639579b5f71461039e578063986c1b34146103c7578063b042657a146103f2578063b75c7dc61461041b578063bd66528a1461044457610181565b806339d0e28f1161013e5780638215b882116101185780638215b882146102e1578063827430e91461030a57806383b8473c146103335780638456cb591461035c57610181565b806339d0e28f146102765780635c975abb1461029f578063715018a6146102ca57610181565b806304e4cb34146101865780630c9b91a8146101a25780630ddeb632146101cb57806319e8dc9b146101e757806330ea59031461022457806335d35ad01461024d575b600080fd5b6101a0600480360381019061019b91906149db565b6105a0565b005b3480156101ae57600080fd5b506101c960048036038101906101c491906148bb565b6108a0565b005b6101e560048036038101906101e0919061499b565b610a53565b005b3480156101f357600080fd5b5061020e60048036038101906102099190614796565b610db9565b60405161021b91906154fc565b60405180910390f35b34801561023057600080fd5b5061024b6004803603810190610246919061488e565b610def565b005b34801561025957600080fd5b50610274600480360381019061026f9190614b0e565b611062565b005b34801561028257600080fd5b5061029d600480360381019061029891906148fb565b61116b565b005b3480156102ab57600080fd5b506102b461131e565b6040516102c191906154e1565b60405180910390f35b3480156102d657600080fd5b506102df611334565b005b3480156102ed57600080fd5b50610308600480360381019061030391906148bb565b6113bc565b005b34801561031657600080fd5b50610331600480360381019061032c919061488e565b61161f565b005b34801561033f57600080fd5b5061035a60048036038101906103559190614729565b611858565b005b34801561036857600080fd5b506103716119d9565b005b34801561037f57600080fd5b50610388611ac0565b6040516103959190615323565b60405180910390f35b3480156103aa57600080fd5b506103c560048036038101906103c0919061493b565b611ae9565b005b3480156103d357600080fd5b506103dc611ce7565b6040516103e9919061573a565b60405180910390f35b3480156103fe57600080fd5b506104196004803603810190610414919061488e565b611cf1565b005b34801561042757600080fd5b50610442600480360381019061043d919061488e565b611f40565b005b34801561045057600080fd5b5061046b6004803603810190610466919061488e565b612238565b005b34801561047957600080fd5b50610494600480360381019061048f9190614a4a565b612487565b005b3480156104a257600080fd5b506104bd60048036038101906104b89190614729565b612686565b005b3480156104cb57600080fd5b506104e660048036038101906104e19190614729565b612807565b005b3480156104f457600080fd5b5061050f600480360381019061050a9190614756565b612988565b005b34801561051d57600080fd5b506105386004803603810190610533919061488e565b612b63565b604051610545919061573a565b60405180910390f35b34801561055a57600080fd5b50610575600480360381019061057091906147e9565b612d17565b005b34801561058357600080fd5b5061059e60048036038101906105999190614729565b612f88565b005b6105a861131e565b156105e8576040517f08c379a00000000000000000000000000000000000000000000000000000000081526004016105df90615656565b60405180910390fd5b6002600154141561062e576040517f08c379a0000000000000000000000000000000000000000000000000000000008152600401610625906156d6565b60405180910390fd5b6002600181905550826000600360009054906101000a900473ffffffffffffffffffffffffffffffffffffffff1673ffffffffffffffffffffffffffffffffffffffff16633adc277a836040518263ffffffff1660e01b815260040161069491906154fc565b60006040518083038186803b1580156106ac57600080fd5b505afa1580156106c0573d6000803e3d6000fd5b505050506040513d6000823e3d601f19601f820116820180604052508101906106e99190614ac5565b9050806000015115806106fd575080602001515b80610712575061070b613080565b8160600151115b806107375750610720613080565b816080015182606001516107349190615983565b11155b1561076e576040517f729f015700000000000000000000000000000000000000000000000000000000815260040160405180910390fd5b600360009054906101000a900473ffffffffffffffffffffffffffffffffffffffff1673ffffffffffffffffffffffffffffffffffffffff1663ca2e8df33387866040518463ffffffff1660e01b81526004016107cd9392919061547a565b60006040518083038186803b1580156107e557600080fd5b505afa1580156107f9573d6000803e3d6000fd5b50505050600360009054906101000a900473ffffffffffffffffffffffffffffffffffffffff1673ffffffffffffffffffffffffffffffffffffffff16631d81019d30338888346040518663ffffffff1660e01b815260040161086095949392919061539e565b600060405180830381600087803b15801561087a57600080fd5b505af115801561088e573d6000803e3d6000fd5b50505050505060018081905550505050565b816000600360009054906101000a900473ffffffffffffffffffffffffffffffffffffffff1673ffffffffffffffffffffffffffffffffffffffff16633adc277a836040518263ffffffff1660e01b81526004016108fe91906154fc565b60006040518083038186803b15801561091657600080fd5b505afa15801561092a573d6000803e3d6000fd5b505050506040513d6000823e3d601f19601f820116820180604052508101906109539190614ac5565b9050806040015173ffffffffffffffffffffffffffffffffffffffff163373ffffffffffffffffffffffffffffffffffffffff16146109be576040517f3811ecb400000000000000000000000000000000000000000000000000000000815260040160405180910390fd5b600360009054906101000a900473ffffffffffffffffffffffffffffffffffffffff1673ffffffffffffffffffffffffffffffffffffffff16630c9b91a885856040518363ffffffff1660e01b8152600401610a1b929190615517565b600060405180830381600087803b158015610a3557600080fd5b505af1158015610a49573d6000803e3d6000fd5b5050505050505050565b610a5b61131e565b15610a9b576040517f08c379a0000000000000000000000000000000000000000000000000000000008152600401610a9290615656565b60405180910390fd5b60026001541415610ae1576040517f08c379a0000000000000000000000000000000000000000000000000000000008152600401610ad8906156d6565b60405180910390fd5b6002600181905550816000600360009054906101000a900473ffffffffffffffffffffffffffffffffffffffff1673ffffffffffffffffffffffffffffffffffffffff16633adc277a836040518263ffffffff1660e01b8152600401610b4791906154fc565b60006040518083038186803b158015610b5f57600080fd5b505afa158015610b73573d6000803e3d6000fd5b505050506040513d6000823e3d601f19601f82011682018060405250810190610b9c9190614ac5565b905080600001511580610bb0575080602001515b80610bc55750610bbe613080565b8160600151115b80610bea5750610bd3613080565b81608001518260600151610be79190615983565b11155b15610c21576040517f729f015700000000000000000000000000000000000000000000000000000000815260040160405180910390fd5b6000600360009054906101000a900473ffffffffffffffffffffffffffffffffffffffff1673ffffffffffffffffffffffffffffffffffffffff16633adc277a866040518263ffffffff1660e01b8152600401610c7e91906154fc565b60006040518083038186803b158015610c9657600080fd5b505afa158015610caa573d6000803e3d6000fd5b505050506040513d6000823e3d601f19601f82011682018060405250810190610cd39190614ac5565b905060008019168160a0015114610d16576040517f4568b11c00000000000000000000000000000000000000000000000000000000815260040160405180910390fd5b600360009054906101000a900473ffffffffffffffffffffffffffffffffffffffff1673ffffffffffffffffffffffffffffffffffffffff16631d81019d30338888346040518663ffffffff1660e01b8152600401610d7995949392919061539e565b600060405180830381600087803b158015610d9357600080fd5b505af1158015610da7573d6000803e3d6000fd5b50505050505050600180819055505050565b6000838383604051602001610dd0939291906152ba565b6040516020818303038152906040528051906020012090509392505050565b610df761131e565b15610e37576040517f08c379a0000000000000000000000000000000000000000000000000000000008152600401610e2e90615656565b60405180910390fd5b60026001541415610e7d576040517f08c379a0000000000000000000000000000000000000000000000000000000008152600401610e74906156d6565b60405180910390fd5b6002600181905550806000600360009054906101000a900473ffffffffffffffffffffffffffffffffffffffff1673ffffffffffffffffffffffffffffffffffffffff16633adc277a836040518263ffffffff1660e01b8152600401610ee391906154fc565b60006040518083038186803b158015610efb57600080fd5b505afa158015610f0f573d6000803e3d6000fd5b505050506040513d6000823e3d601f19601f82011682018060405250810190610f389190614ac5565b9050610f42613080565b81608001518260600151610f569190615983565b10158015610f6c57508060c001518160e0015114155b15610fa3576040517f16553ad800000000000000000000000000000000000000000000000000000000815260040160405180910390fd5b600360009054906101000a900473ffffffffffffffffffffffffffffffffffffffff1673ffffffffffffffffffffffffffffffffffffffff16631172d77330600460009054906101000a900473ffffffffffffffffffffffffffffffffffffffff16866040518463ffffffff1660e01b815260040161102493929190615367565b600060405180830381600087803b15801561103e57600080fd5b505af1158015611052573d6000803e3d6000fd5b5050505050506001808190555050565b61106a613088565b73ffffffffffffffffffffffffffffffffffffffff16611088611ac0565b73ffffffffffffffffffffffffffffffffffffffff16146110de576040517f08c379a00000000000000000000000000000000000000000000000000000000081526004016110d590615676565b60405180910390fd5b620f4240811061112a5780620f42406040517fc4ce6439000000000000000000000000000000000000000000000000000000008152600401611121929190615755565b60405180910390fd5b806005819055507fe7182f53622a6a079c8ce7fd586656e6e8e4a79e907bd54f19039ed4768824ef81604051611160919061573a565b60405180910390a150565b816000600360009054906101000a900473ffffffffffffffffffffffffffffffffffffffff1673ffffffffffffffffffffffffffffffffffffffff16633adc277a836040518263ffffffff1660e01b81526004016111c991906154fc565b60006040518083038186803b1580156111e157600080fd5b505afa1580156111f5573d6000803e3d6000fd5b505050506040513d6000823e3d601f19601f8201168201806040525081019061121e9190614ac5565b9050806040015173ffffffffffffffffffffffffffffffffffffffff163373ffffffffffffffffffffffffffffffffffffffff1614611289576040517f3811ecb400000000000000000000000000000000000000000000000000000000815260040160405180910390fd5b600360009054906101000a900473ffffffffffffffffffffffffffffffffffffffff1673ffffffffffffffffffffffffffffffffffffffff166339d0e28f85856040518363ffffffff1660e01b81526004016112e6929190615540565b600060405180830381600087803b15801561130057600080fd5b505af1158015611314573d6000803e3d6000fd5b5050505050505050565b60008060149054906101000a900460ff16905090565b61133c613088565b73ffffffffffffffffffffffffffffffffffffffff1661135a611ac0565b73ffffffffffffffffffffffffffffffffffffffff16146113b0576040517f08c379a00000000000000000000000000000000000000000000000000000000081526004016113a790615676565b60405180910390fd5b6113ba6000613090565b565b60026001541415611402576040517f08c379a00000000000000000000000000000000000000000000000000000000081526004016113f9906156d6565b60405180910390fd5b6002600181905550816000600360009054906101000a900473ffffffffffffffffffffffffffffffffffffffff1673ffffffffffffffffffffffffffffffffffffffff16633adc277a836040518263ffffffff1660e01b815260040161146891906154fc565b60006040518083038186803b15801561148057600080fd5b505afa158015611494573d6000803e3d6000fd5b505050506040513d6000823e3d601f19601f820116820180604052508101906114bd9190614ac5565b9050806040015173ffffffffffffffffffffffffffffffffffffffff163373ffffffffffffffffffffffffffffffffffffffff1614611528576040517f3811ecb400000000000000000000000000000000000000000000000000000000815260040160405180910390fd5b600360009054906101000a900473ffffffffffffffffffffffffffffffffffffffff1673ffffffffffffffffffffffffffffffffffffffff16638215b88285856040518363ffffffff1660e01b8152600401611585929190615517565b600060405180830381600087803b15801561159f57600080fd5b505af11580156115b3573d6000803e3d6000fd5b505050508273ffffffffffffffffffffffffffffffffffffffff16843373ffffffffffffffffffffffffffffffffffffffff167f1a3a8da1b8fd95dfec524d0586226a4e2c0bfc1b451eec177e17feb66ea1ce4d60405160405180910390a45050600180819055505050565b61162761131e565b15611667576040517f08c379a000000000000000000000000000000000000000000000000000000000815260040161165e90615656565b60405180910390fd5b600260015414156116ad576040517f08c379a00000000000000000000000000000000000000000000000000000000081526004016116a4906156d6565b60405180910390fd5b6002600181905550806000600360009054906101000a900473ffffffffffffffffffffffffffffffffffffffff1673ffffffffffffffffffffffffffffffffffffffff16633adc277a836040518263ffffffff1660e01b815260040161171391906154fc565b60006040518083038186803b15801561172b57600080fd5b505afa15801561173f573d6000803e3d6000fd5b505050506040513d6000823e3d601f19601f820116820180604052508101906117689190614ac5565b9050611772613080565b816080015182606001516117869190615983565b106117bd576040517f7a41948400000000000000000000000000000000000000000000000000000000815260040160405180910390fd5b600360009054906101000a900473ffffffffffffffffffffffffffffffffffffffff1673ffffffffffffffffffffffffffffffffffffffff16636e7019d130856040518363ffffffff1660e01b815260040161181a929190615451565b600060405180830381600087803b15801561183457600080fd5b505af1158015611848573d6000803e3d6000fd5b5050505050506001808190555050565b611860613088565b73ffffffffffffffffffffffffffffffffffffffff1661187e611ac0565b73ffffffffffffffffffffffffffffffffffffffff16146118d4576040517f08c379a00000000000000000000000000000000000000000000000000000000081526004016118cb90615676565b60405180910390fd5b600073ffffffffffffffffffffffffffffffffffffffff168173ffffffffffffffffffffffffffffffffffffffff16141561193b576040517fdae3f98f00000000000000000000000000000000000000000000000000000000815260040160405180910390fd5b80600260006101000a81548173ffffffffffffffffffffffffffffffffffffffff021916908373ffffffffffffffffffffffffffffffffffffffff1602179055508073ffffffffffffffffffffffffffffffffffffffff163373ffffffffffffffffffffffffffffffffffffffff167f498ca7b9e8f8e4c2f37dbb4a8dea2129800564d80cc820794a93f1aa214354d360405160405180910390a350565b6119e1613088565b73ffffffffffffffffffffffffffffffffffffffff166119ff611ac0565b73ffffffffffffffffffffffffffffffffffffffff1614611a55576040517f08c379a0000000000000000000000000000000000000000000000000000000008152600401611a4c90615676565b60405180910390fd5b611a5d613080565b7f00000000000000000000000000000000000000000000000000000000000000001015611ab6576040517f6396554f00000000000000000000000000000000000000000000000000000000815260040160405180910390fd5b611abe613154565b565b60008060009054906101000a900473ffffffffffffffffffffffffffffffffffffffff16905090565b826000600360009054906101000a900473ffffffffffffffffffffffffffffffffffffffff1673ffffffffffffffffffffffffffffffffffffffff16633adc277a836040518263ffffffff1660e01b8152600401611b4791906154fc565b60006040518083038186803b158015611b5f57600080fd5b505afa158015611b73573d6000803e3d6000fd5b505050506040513d6000823e3d601f19601f82011682018060405250810190611b9c9190614ac5565b9050806040015173ffffffffffffffffffffffffffffffffffffffff163373ffffffffffffffffffffffffffffffffffffffff1614611c07576040517f3811ecb400000000000000000000000000000000000000000000000000000000815260040160405180910390fd5b611c0f61131e565b15611c4f576040517f08c379a0000000000000000000000000000000000000000000000000000000008152600401611c4690615656565b60405180910390fd5b600360009054906101000a900473ffffffffffffffffffffffffffffffffffffffff1673ffffffffffffffffffffffffffffffffffffffff16639579b5f78686866040518463ffffffff1660e01b8152600401611cae93929190615569565b600060405180830381600087803b158015611cc857600080fd5b505af1158015611cdc573d6000803e3d6000fd5b505050505050505050565b6000600554905090565b611cf961131e565b15611d39576040517f08c379a0000000000000000000000000000000000000000000000000000000008152600401611d3090615656565b60405180910390fd5b60026001541415611d7f576040517f08c379a0000000000000000000000000000000000000000000000000000000008152600401611d76906156d6565b60405180910390fd5b6002600181905550806000600360009054906101000a900473ffffffffffffffffffffffffffffffffffffffff1673ffffffffffffffffffffffffffffffffffffffff16633adc277a836040518263ffffffff1660e01b8152600401611de591906154fc565b60006040518083038186803b158015611dfd57600080fd5b505afa158015611e11573d6000803e3d6000fd5b505050506040513d6000823e3d601f19601f82011682018060405250810190611e3a9190614ac5565b9050611e44613080565b81608001518260600151611e589190615983565b10158015611e6e57508060c001518160e0015114155b15611ea5576040517f16553ad800000000000000000000000000000000000000000000000000000000815260040160405180910390fd5b600360009054906101000a900473ffffffffffffffffffffffffffffffffffffffff1673ffffffffffffffffffffffffffffffffffffffff1663af9806cb30856040518363ffffffff1660e01b8152600401611f02929190615451565b600060405180830381600087803b158015611f1c57600080fd5b505af1158015611f30573d6000803e3d6000fd5b5050505050506001808190555050565b806000600360009054906101000a900473ffffffffffffffffffffffffffffffffffffffff1673ffffffffffffffffffffffffffffffffffffffff16633adc277a836040518263ffffffff1660e01b8152600401611f9e91906154fc565b60006040518083038186803b158015611fb657600080fd5b505afa158015611fca573d6000803e3d6000fd5b505050506040513d6000823e3d601f19601f82011682018060405250810190611ff39190614ac5565b9050806040015173ffffffffffffffffffffffffffffffffffffffff163373ffffffffffffffffffffffffffffffffffffffff161461205e576040517f3811ecb400000000000000000000000000000000000000000000000000000000815260040160405180910390fd5b826000600360009054906101000a900473ffffffffffffffffffffffffffffffffffffffff1673ffffffffffffffffffffffffffffffffffffffff16633adc277a836040518263ffffffff1660e01b81526004016120bc91906154fc565b60006040518083038186803b1580156120d457600080fd5b505afa1580156120e8573d6000803e3d6000fd5b505050506040513d6000823e3d601f19601f820116820180604052508101906121119190614ac5565b905080600001511580612125575080602001515b1561215c576040517fc9693df700000000000000000000000000000000000000000000000000000000815260040160405180910390fd5b61216461131e565b156121a4576040517f08c379a000000000000000000000000000000000000000000000000000000000815260040161219b90615656565b60405180910390fd5b600360009054906101000a900473ffffffffffffffffffffffffffffffffffffffff1673ffffffffffffffffffffffffffffffffffffffff1663b75c7dc6866040518263ffffffff1660e01b81526004016121ff91906154fc565b600060405180830381600087803b15801561221957600080fd5b505af115801561222d573d6000803e3d6000fd5b505050505050505050565b61224061131e565b15612280576040517f08c379a000000000000000000000000000000000000000000000000000000000815260040161227790615656565b60405180910390fd5b600260015414156122c6576040517f08c379a00000000000000000000000000000000000000000000000000000000081526004016122bd906156d6565b60405180910390fd5b6002600181905550806000600360009054906101000a900473ffffffffffffffffffffffffffffffffffffffff1673ffffffffffffffffffffffffffffffffffffffff16633adc277a836040518263ffffffff1660e01b815260040161232c91906154fc565b60006040518083038186803b15801561234457600080fd5b505afa158015612358573d6000803e3d6000fd5b505050506040513d6000823e3d601f19601f820116820180604052508101906123819190614ac5565b905061238b613080565b8160800151826060015161239f9190615983565b101580156123b557508060c001518160e0015114155b156123ec576040517f16553ad800000000000000000000000000000000000000000000000000000000815260040160405180910390fd5b600360009054906101000a900473ffffffffffffffffffffffffffffffffffffffff1673ffffffffffffffffffffffffffffffffffffffff1663c8622c2430856040518363ffffffff1660e01b8152600401612449929190615451565b600060405180830381600087803b15801561246357600080fd5b505af1158015612477573d6000803e3d6000fd5b5050505050506001808190555050565b600360009054906101000a900473ffffffffffffffffffffffffffffffffffffffff1673ffffffffffffffffffffffffffffffffffffffff163373ffffffffffffffffffffffffffffffffffffffff161461250e576040517fd4689e3e00000000000000000000000000000000000000000000000000000000815260040160405180910390fd5b600073ffffffffffffffffffffffffffffffffffffffff168273ffffffffffffffffffffffffffffffffffffffff161415612575576040517fdae3f98f00000000000000000000000000000000000000000000000000000000815260040160405180910390fd5b6000600181111561258957612588615bc3565b5b85600181111561259c5761259b615bc3565b5b141561264b5760008273ffffffffffffffffffffffffffffffffffffffff16826040516125c89061530e565b60006040518083038185875af1925050503d8060008114612605576040519150601f19603f3d011682016040523d82523d6000602084013e61260a565b606091505b5050905080612645576040517f4fed01d600000000000000000000000000000000000000000000000000000000815260040160405180910390fd5b5061267f565b600084905061267d8484848473ffffffffffffffffffffffffffffffffffffffff166131f7909392919063ffffffff16565b505b5050505050565b61268e613088565b73ffffffffffffffffffffffffffffffffffffffff166126ac611ac0565b73ffffffffffffffffffffffffffffffffffffffff1614612702576040517f08c379a00000000000000000000000000000000000000000000000000000000081526004016126f990615676565b60405180910390fd5b600073ffffffffffffffffffffffffffffffffffffffff168173ffffffffffffffffffffffffffffffffffffffff161415612769576040517fdae3f98f00000000000000000000000000000000000000000000000000000000815260040160405180910390fd5b80600460006101000a81548173ffffffffffffffffffffffffffffffffffffffff021916908373ffffffffffffffffffffffffffffffffffffffff1602179055508073ffffffffffffffffffffffffffffffffffffffff163373ffffffffffffffffffffffffffffffffffffffff167f92baa2c8b1b2bb52209462231f74c5b73540ece9f023368c56272d877351ceeb60405160405180910390a350565b61280f613088565b73ffffffffffffffffffffffffffffffffffffffff1661282d611ac0565b73ffffffffffffffffffffffffffffffffffffffff1614612883576040517f08c379a000000000000000000000000000000000000000000000000000000000815260040161287a90615676565b60405180910390fd5b600073ffffffffffffffffffffffffffffffffffffffff168173ffffffffffffffffffffffffffffffffffffffff1614156128ea576040517fdae3f98f00000000000000000000000000000000000000000000000000000000815260040160405180910390fd5b80600360006101000a81548173ffffffffffffffffffffffffffffffffffffffff021916908373ffffffffffffffffffffffffffffffffffffffff1602179055508073ffffffffffffffffffffffffffffffffffffffff163373ffffffffffffffffffffffffffffffffffffffff167f158c38d986c668cc9bc5ddbd3cfe5168008bdf4a8ab2f813855f8edae60ee64660405160405180910390a350565b612990613088565b73ffffffffffffffffffffffffffffffffffffffff166129ae611ac0565b73ffffffffffffffffffffffffffffffffffffffff1614612a04576040517f08c379a00000000000000000000000000000000000000000000000000000000081526004016129fb90615676565b60405180910390fd5b600073ffffffffffffffffffffffffffffffffffffffff168273ffffffffffffffffffffffffffffffffffffffff161415612a6b576040517fdae3f98f00000000000000000000000000000000000000000000000000000000815260040160405180910390fd5b600360009054906101000a900473ffffffffffffffffffffffffffffffffffffffff1673ffffffffffffffffffffffffffffffffffffffff166322366f5083836040518363ffffffff1660e01b8152600401612ac8929190615428565b600060405180830381600087803b158015612ae257600080fd5b505af1158015612af6573d6000803e3d6000fd5b505050508173ffffffffffffffffffffffffffffffffffffffff163373ffffffffffffffffffffffffffffffffffffffff167fb1e1107fa60e4c971a024ca8254246a18e31afa3f950e360da5f608e145c36b183604051612b5791906154e1565b60405180910390a35050565b6000816000600360009054906101000a900473ffffffffffffffffffffffffffffffffffffffff1673ffffffffffffffffffffffffffffffffffffffff16633adc277a836040518263ffffffff1660e01b8152600401612bc391906154fc565b60006040518083038186803b158015612bdb57600080fd5b505afa158015612bef573d6000803e3d6000fd5b505050506040513d6000823e3d601f19601f82011682018060405250810190612c189190614ac5565b905080600001511580612c2c575080602001515b15612c63576040517fc9693df700000000000000000000000000000000000000000000000000000000815260040160405180910390fd5b600360009054906101000a900473ffffffffffffffffffffffffffffffffffffffff1673ffffffffffffffffffffffffffffffffffffffff1663e0409943856040518263ffffffff1660e01b8152600401612cbe91906154fc565b60206040518083038186803b158015612cd657600080fd5b505afa158015612cea573d6000803e3d6000fd5b505050506040513d601f19601f82011682018060405250810190612d0e9190614b3b565b92505050919050565b60026001541415612d5d576040517f08c379a0000000000000000000000000000000000000000000000000000000008152600401612d54906156d6565b60405180910390fd5b6002600181905550612d6d61131e565b15612dad576040517f08c379a0000000000000000000000000000000000000000000000000000000008152600401612da490615656565b60405180910390fd5b6000825190506001811015612dee576040517fba1d8ef700000000000000000000000000000000000000000000000000000000815260040160405180910390fd5b60006040518060600160405280600080191681526020018367ffffffffffffffff811115612e1f57612e1e615c21565b5b604051908082528060200260200182016040528015612e4d5781602001602082028036833780820191505090505b50815260200184815250905060005b82811015612ec4576000612e8a868381518110612e7c57612e7b615bf2565b5b602002602001015183613280565b90508083602001518381518110612ea457612ea3615bf2565b5b602002602001018181525050508080612ebc90615b1d565b915050612e5c565b508060200151600081518110612edd57612edc615bf2565b5b6020026020010151816000018181525050600360009054906101000a900473ffffffffffffffffffffffffffffffffffffffff1673ffffffffffffffffffffffffffffffffffffffff16631c9784f9826040518263ffffffff1660e01b8152600401612f4991906156f6565b600060405180830381600087803b158015612f6357600080fd5b505af1158015612f77573d6000803e3d6000fd5b505050505050600180819055505050565b612f90613088565b73ffffffffffffffffffffffffffffffffffffffff16612fae611ac0565b73ffffffffffffffffffffffffffffffffffffffff1614613004576040517f08c379a0000000000000000000000000000000000000000000000000000000008152600401612ffb90615676565b60405180910390fd5b600073ffffffffffffffffffffffffffffffffffffffff168173ffffffffffffffffffffffffffffffffffffffff161415613074576040517f08c379a000000000000000000000000000000000000000000000000000000000815260040161306b90615616565b60405180910390fd5b61307d81613090565b50565b600042905090565b600033905090565b60008060009054906101000a900473ffffffffffffffffffffffffffffffffffffffff169050816000806101000a81548173ffffffffffffffffffffffffffffffffffffffff021916908373ffffffffffffffffffffffffffffffffffffffff1602179055508173ffffffffffffffffffffffffffffffffffffffff168173ffffffffffffffffffffffffffffffffffffffff167f8be0079c531659141344cd1fd0a4f28419497f9722a3daafe3b4186f6b6457e060405160405180910390a35050565b61315c61131e565b1561319c576040517f08c379a000000000000000000000000000000000000000000000000000000000815260040161319390615656565b60405180910390fd5b6001600060146101000a81548160ff0219169083151502179055507f62e78cea01bee320cd4e420270b5ea74000d11b0c9f74754ebdbfc544b05a2586131e0613088565b6040516131ed9190615323565b60405180910390a1565b61327a846323b872dd60e01b858585604051602401613218939291906153f1565b604051602081830303815290604052907bffffffffffffffffffffffffffffffffffffffffffffffffffffffff19166020820180517bffffffffffffffffffffffffffffffffffffffffffffffffffffffff83818316178352505050506139f2565b50505050565b6000600360009054906101000a900473ffffffffffffffffffffffffffffffffffffffff1673ffffffffffffffffffffffffffffffffffffffff1663fe947f3c846040518263ffffffff1660e01b81526004016132dd9190615718565b60006040518083038186803b1580156132f557600080fd5b505afa158015613309573d6000803e3d6000fd5b5050505060055483610100015110806133295750620f4240836101000151115b8061334b5750620f42408361014001518461010001516133499190615983565b115b1561339457600554620f42406040517fc4ce643900000000000000000000000000000000000000000000000000000000815260040161338b929190615755565b60405180910390fd5b6001808111156133a7576133a6615bc3565b5b8360e001516020015160018111156133c2576133c1615bc3565b5b14801561347f5750600360009054906101000a900473ffffffffffffffffffffffffffffffffffffffff1673ffffffffffffffffffffffffffffffffffffffff1663f9eaee0d8460e00151600001516040518263ffffffff1660e01b815260040161342d9190615323565b60206040518083038186803b15801561344557600080fd5b505afa158015613459573d6000803e3d6000fd5b505050506040513d601f19601f8201168201806040525081019061347d9190614861565b155b156134b6576040517f1f313be500000000000000000000000000000000000000000000000000000000815260040160405180910390fd5b60005b8360800151518110156135d1576000846080015182815181106134df576134de615bf2565b5b60200260200101519050613563600360009054906101000a900473ffffffffffffffffffffffffffffffffffffffff1686606001518760a00151858151811061352b5761352a615bf2565b5b602002602001015161353d91906159d9565b8373ffffffffffffffffffffffffffffffffffffffff16613ab99092919063ffffffff16565b6135bd333087606001518860a00151868151811061358457613583615bf2565b5b602002602001015161359691906159d9565b8473ffffffffffffffffffffffffffffffffffffffff166131f7909392919063ffffffff16565b5080806135c990615b1d565b9150506134b9565b506001808111156135e5576135e4615bc3565b5b8360e00151602001516001811115613600576135ff615bc3565b5b14156136535760008360e001516000015190506136513085606001518660c0015161362b91906159d9565b8373ffffffffffffffffffffffffffffffffffffffff16613ab99092919063ffffffff16565b505b6000604051806101c001604052806001151581526020016000151581526020013373ffffffffffffffffffffffffffffffffffffffff1681526020018560000151815260200185602001518152602001856040015181526020018560600151815260200160008152602001856080015181526020018560a0015181526020018560e0015181526020018560c0015181526020018561010001518152602001856101600151815250905060006137083385613bda565b9050600360009054906101000a900473ffffffffffffffffffffffffffffffffffffffff1673ffffffffffffffffffffffffffffffffffffffff1663433f4c2b82846040518363ffffffff1660e01b815260040161376792919061559b565b600060405180830381600087803b15801561378157600080fd5b505af1158015613795573d6000803e3d6000fd5b50505050600073ffffffffffffffffffffffffffffffffffffffff1685610120015173ffffffffffffffffffffffffffffffffffffffff161461390657600360009054906101000a900473ffffffffffffffffffffffffffffffffffffffff1673ffffffffffffffffffffffffffffffffffffffff16638d0ba65c82604051806040016040528089610120015173ffffffffffffffffffffffffffffffffffffffff1681526020018961014001518152506040518363ffffffff1660e01b81526004016138639291906155cb565b600060405180830381600087803b15801561387d57600080fd5b505af1158015613891573d6000803e3d6000fd5b5050505084610120015173ffffffffffffffffffffffffffffffffffffffff16813373ffffffffffffffffffffffffffffffffffffffff167f19589ccbdb0271dc4fbbd9f49082601f0d1ff3b8e7087c1026a8428411448e1c8861014001516040516138fd919061573a565b60405180910390a45b803373ffffffffffffffffffffffffffffffffffffffff167f078433ece835af411dea2934e9a4a3478be367902b1a036902693b0a0e9ce01860405160405180910390a360005b8560800151518110156139e6578560800151818151811061397157613970615bf2565b5b602002602001015173ffffffffffffffffffffffffffffffffffffffff16823373ffffffffffffffffffffffffffffffffffffffff167fa6a45dd8f88187786a5d483f7f2a4b4a6f3a2623c142e29b04ad351fe7fa159060405160405180910390a480806139de90615b1d565b91505061394d565b50809250505092915050565b6000613a54826040518060400160405280602081526020017f5361666545524332303a206c6f772d6c6576656c2063616c6c206661696c65648152508573ffffffffffffffffffffffffffffffffffffffff16613c999092919063ffffffff16565b9050600081511115613ab45780806020019051810190613a749190614861565b613ab3576040517f08c379a0000000000000000000000000000000000000000000000000000000008152600401613aaa906156b6565b60405180910390fd5b5b505050565b6000818473ffffffffffffffffffffffffffffffffffffffff1663dd62ed3e30866040518363ffffffff1660e01b8152600401613af792919061533e565b60206040518083038186803b158015613b0f57600080fd5b505afa158015613b23573d6000803e3d6000fd5b505050506040513d601f19601f82011682018060405250810190613b479190614b3b565b613b519190615983565b9050613bd48463095ea7b360e01b8584604051602401613b729291906154b8565b604051602081830303815290604052907bffffffffffffffffffffffffffffffffffffffffffffffffffffffff19166020820180517bffffffffffffffffffffffffffffffffffffffffffffffffffffffff83818316178352505050506139f2565b50505050565b6000613c918383600360009054906101000a900473ffffffffffffffffffffffffffffffffffffffff1673ffffffffffffffffffffffffffffffffffffffff16633923c75a876040518263ffffffff1660e01b8152600401613c3c9190615323565b60206040518083038186803b158015613c5457600080fd5b505afa158015613c68573d6000803e3d6000fd5b505050506040513d601f19601f82011682018060405250810190613c8c9190614b3b565b610db9565b905092915050565b6060613ca88484600085613cb1565b90509392505050565b606082471015613cf6576040517f08c379a0000000000000000000000000000000000000000000000000000000008152600401613ced90615636565b60405180910390fd5b613cff85613dc5565b613d3e576040517f08c379a0000000000000000000000000000000000000000000000000000000008152600401613d3590615696565b60405180910390fd5b6000808673ffffffffffffffffffffffffffffffffffffffff168587604051613d6791906152f7565b60006040518083038185875af1925050503d8060008114613da4576040519150601f19603f3d011682016040523d82523d6000602084013e613da9565b606091505b5091509150613db9828286613dd8565b92505050949350505050565b600080823b905060008111915050919050565b60608315613de857829050613e38565b600083511115613dfb5782518084602001fd5b816040517f08c379a0000000000000000000000000000000000000000000000000000000008152600401613e2f91906155f4565b60405180910390fd5b9392505050565b6000613e52613e4d846157a3565b61577e565b90508083825260208201905082856020860282011115613e7557613e74615c64565b5b60005b85811015613ea55781613e8b888261413f565b845260208401935060208301925050600181019050613e78565b5050509392505050565b6000613ec2613ebd846157a3565b61577e565b90508083825260208201905082856020860282011115613ee557613ee4615c64565b5b60005b85811015613f155781613efb8882614154565b845260208401935060208301925050600181019050613ee8565b5050509392505050565b6000613f32613f2d846157cf565b61577e565b90508083825260208201905082856020860282011115613f5557613f54615c64565b5b60005b85811015613f855781613f6b88826142a7565b845260208401935060208301925050600181019050613f58565b5050509392505050565b6000613fa2613f9d846157fb565b61577e565b90508083825260208201905082856020860282011115613fc557613fc4615c64565b5b60005b8581101561401357813567ffffffffffffffff811115613feb57613fea615c55565b5b808601613ff8898261441f565b85526020850194506020840193505050600181019050613fc8565b5050509392505050565b600061403061402b84615827565b61577e565b9050808382526020820190508285602086028201111561405357614052615c64565b5b60005b85811015614083578161406988826146ff565b845260208401935060208301925050600181019050614056565b5050509392505050565b60006140a061409b84615827565b61577e565b905080838252602082019050828560208602820111156140c3576140c2615c64565b5b60005b858110156140f357816140d98882614714565b8452602084019350602083019250506001810190506140c6565b5050509392505050565b600061411061410b84615853565b61577e565b90508281526020810184848401111561412c5761412b615c69565b5b614137848285615aaa565b509392505050565b60008135905061414e81615e3e565b92915050565b60008151905061416381615e3e565b92915050565b600082601f83011261417e5761417d615c55565b5b813561418e848260208601613e3f565b91505092915050565b600082601f8301126141ac576141ab615c55565b5b81516141bc848260208601613eaf565b91505092915050565b600082601f8301126141da576141d9615c55565b5b81356141ea848260208601613f1f565b91505092915050565b600082601f83011261420857614207615c55565b5b8135614218848260208601613f8f565b91505092915050565b600082601f83011261423657614235615c55565b5b813561424684826020860161401d565b91505092915050565b600082601f83011261426457614263615c55565b5b815161427484826020860161408d565b91505092915050565b60008135905061428c81615e55565b92915050565b6000815190506142a181615e55565b92915050565b6000813590506142b681615e6c565b92915050565b6000815190506142cb81615e6c565b92915050565b6000813590506142e081615e83565b92915050565b6000815190506142f581615e83565b92915050565b60008083601f84011261431157614310615c55565b5b8235905067ffffffffffffffff81111561432e5761432d615c50565b5b60208301915083600182028301111561434a57614349615c64565b5b9250929050565b600082601f83011261436657614365615c55565b5b81356143768482602086016140fd565b91505092915050565b60006040828403121561439557614394615c5a565b5b61439f604061577e565b905060006143af8482850161413f565b60008301525060206143c3848285016142d1565b60208301525092915050565b6000604082840312156143e5576143e4615c5a565b5b6143ef604061577e565b905060006143ff84828501614154565b6000830152506020614413848285016142e6565b60208301525092915050565b60006101a0828403121561443657614435615c5a565b5b61444161018061577e565b90506000614451848285016146ff565b6000830152506020614465848285016146ff565b6020830152506040614479848285016142a7565b604083015250606061448d848285016146ff565b606083015250608082013567ffffffffffffffff8111156144b1576144b0615c5f565b5b6144bd84828501614169565b60808301525060a082013567ffffffffffffffff8111156144e1576144e0615c5f565b5b6144ed84828501614221565b60a08301525060c0614501848285016146ff565b60c08301525060e06145158482850161437f565b60e08301525061012061452a848285016146ff565b610100830152506101406145408482850161413f565b61012083015250610160614556848285016146ff565b6101408301525061018061456c848285016146ff565b6101608301525092915050565b60006101e082840312156145905761458f615c5a565b5b61459b6101c061577e565b905060006145ab84828501614292565b60008301525060206145bf84828501614292565b60208301525060406145d384828501614154565b60408301525060606145e784828501614714565b60608301525060806145fb84828501614714565b60808301525060a061460f848285016142bc565b60a08301525060c061462384828501614714565b60c08301525060e061463784828501614714565b60e08301525061010082015167ffffffffffffffff81111561465c5761465b615c5f565b5b61466884828501614197565b6101008301525061012082015167ffffffffffffffff81111561468e5761468d615c5f565b5b61469a8482850161424f565b610120830152506101406146b0848285016143cf565b610140830152506101806146c684828501614714565b610160830152506101a06146dc84828501614714565b610180830152506101c06146f284828501614714565b6101a08301525092915050565b60008135905061470e81615e93565b92915050565b60008151905061472381615e93565b92915050565b60006020828403121561473f5761473e615c73565b5b600061474d8482850161413f565b91505092915050565b6000806040838503121561476d5761476c615c73565b5b600061477b8582860161413f565b925050602061478c8582860161427d565b9150509250929050565b6000806000606084860312156147af576147ae615c73565b5b60006147bd8682870161413f565b93505060206147ce868287016146ff565b92505060406147df868287016146ff565b9150509250925092565b60008060408385031215614800576147ff615c73565b5b600083013567ffffffffffffffff81111561481e5761481d615c6e565b5b61482a858286016141f3565b925050602083013567ffffffffffffffff81111561484b5761484a615c6e565b5b61485785828601614351565b9150509250929050565b60006020828403121561487757614876615c73565b5b600061488584828501614292565b91505092915050565b6000602082840312156148a4576148a3615c73565b5b60006148b2848285016142a7565b91505092915050565b600080604083850312156148d2576148d1615c73565b5b60006148e0858286016142a7565b92505060206148f18582860161413f565b9150509250929050565b6000806040838503121561491257614911615c73565b5b6000614920858286016142a7565b9250506020614931858286016142a7565b9150509250929050565b60008060006040848603121561495457614953615c73565b5b6000614962868287016142a7565b935050602084013567ffffffffffffffff81111561498357614982615c6e565b5b61498f868287016142fb565b92509250509250925092565b600080604083850312156149b2576149b1615c73565b5b60006149c0858286016142a7565b92505060206149d1858286016146ff565b9150509250929050565b6000806000606084860312156149f4576149f3615c73565b5b6000614a02868287016142a7565b9350506020614a13868287016146ff565b925050604084013567ffffffffffffffff811115614a3457614a33615c6e565b5b614a40868287016141c5565b9150509250925092565b600080600080600060a08688031215614a6657614a65615c73565b5b6000614a74888289016142d1565b9550506020614a858882890161413f565b9450506040614a968882890161413f565b9350506060614aa78882890161413f565b9250506080614ab8888289016146ff565b9150509295509295909350565b600060208284031215614adb57614ada615c73565b5b600082015167ffffffffffffffff811115614af957614af8615c6e565b5b614b0584828501614579565b91505092915050565b600060208284031215614b2457614b23615c73565b5b6000614b32848285016146ff565b91505092915050565b600060208284031215614b5157614b50615c73565b5b6000614b5f84828501614714565b91505092915050565b6000614b748383614bb0565b60208301905092915050565b6000614b8c8383614d7b565b60208301905092915050565b6000614ba48383615285565b60208301905092915050565b614bb981615a33565b82525050565b614bc881615a33565b82525050565b614bdf614bda82615a33565b615b66565b82525050565b6000614bf0826158b4565b614bfa8185615912565b9350614c0583615884565b8060005b83811015614c36578151614c1d8882614b68565b9750614c28836158eb565b925050600181019050614c09565b5085935050505092915050565b6000614c4e826158bf565b614c588185615923565b9350614c6383615894565b8060005b83811015614c94578151614c7b8882614b80565b9750614c86836158f8565b925050600181019050614c67565b5085935050505092915050565b6000614cac826158bf565b614cb68185615934565b9350614cc183615894565b8060005b83811015614cf2578151614cd98882614b80565b9750614ce4836158f8565b925050600181019050614cc5565b5085935050505092915050565b6000614d0a826158ca565b614d148185615945565b9350614d1f836158a4565b8060005b83811015614d50578151614d378882614b98565b9750614d4283615905565b925050600181019050614d23565b5085935050505092915050565b614d6681615a45565b82525050565b614d7581615a45565b82525050565b614d8481615a51565b82525050565b614d9381615a51565b82525050565b6000614da4826158d5565b614dae8185615956565b9350614dbe818560208601615ab9565b80840191505092915050565b614dd381615a98565b82525050565b6000614de58385615972565b9350614df2838584615aaa565b614dfb83615c78565b840190509392505050565b6000614e11826158e0565b614e1b8185615961565b9350614e2b818560208601615ab9565b614e3481615c78565b840191505092915050565b6000614e4a826158e0565b614e548185615972565b9350614e64818560208601615ab9565b614e6d81615c78565b840191505092915050565b6000614e85602683615972565b9150614e9082615c96565b604082019050919050565b6000614ea8602683615972565b9150614eb382615ce5565b604082019050919050565b6000614ecb601083615972565b9150614ed682615d34565b602082019050919050565b6000614eee602083615972565b9150614ef982615d5d565b602082019050919050565b6000614f11600083615956565b9150614f1c82615d86565b600082019050919050565b6000614f34601d83615972565b9150614f3f82615d89565b602082019050919050565b6000614f57602a83615972565b9150614f6282615db2565b604082019050919050565b6000614f7a601f83615972565b9150614f8582615e01565b602082019050919050565b604082016000820151614fa66000850182614bb0565b506020820151614fb96020850182614dca565b50505050565b6000606083016000830151614fd76000860182614d7b565b5060208301518482036020860152614fef8282614c43565b915050604083015184820360408601526150098282614e06565b9150508091505092915050565b60006101a08301600083015161502f6000860182615285565b5060208301516150426020860182615285565b5060408301516150556040860182614d7b565b5060608301516150686060860182615285565b50608083015184820360808601526150808282614be5565b91505060a083015184820360a086015261509a8282614cff565b91505060c08301516150af60c0860182615285565b5060e08301516150c260e0860182614f90565b506101008301516150d7610120860182615285565b506101208301516150ec610140860182614bb0565b50610140830151615101610160860182615285565b50610160830151615116610180860182615285565b508091505092915050565b60006101e08301600083015161513a6000860182614d5d565b50602083015161514d6020860182614d5d565b5060408301516151606040860182614bb0565b5060608301516151736060860182615285565b5060808301516151866080860182615285565b5060a083015161519960a0860182614d7b565b5060c08301516151ac60c0860182615285565b5060e08301516151bf60e0860182615285565b506101008301518482036101008601526151d98282614be5565b9150506101208301518482036101208601526151f58282614cff565b91505061014083015161520c610140860182614f90565b50610160830151615221610180860182615285565b506101808301516152366101a0860182615285565b506101a083015161524b6101c0860182615285565b508091505092915050565b60408201600082015161526c6000850182614bb0565b50602082015161527f6020850182615285565b50505050565b61528e81615a8e565b82525050565b61529d81615a8e565b82525050565b6152b46152af82615a8e565b615b8a565b82525050565b60006152c68286614bce565b6014820191506152d682856152a3565b6020820191506152e682846152a3565b602082019150819050949350505050565b60006153038284614d99565b915081905092915050565b600061531982614f04565b9150819050919050565b60006020820190506153386000830184614bbf565b92915050565b60006040820190506153536000830185614bbf565b6153606020830184614bbf565b9392505050565b600060608201905061537c6000830186614bbf565b6153896020830185614bbf565b6153966040830184614d8a565b949350505050565b600060a0820190506153b36000830188614bbf565b6153c06020830187614bbf565b6153cd6040830186614d8a565b6153da6060830185615294565b6153e76080830184615294565b9695505050505050565b60006060820190506154066000830186614bbf565b6154136020830185614bbf565b6154206040830184615294565b949350505050565b600060408201905061543d6000830185614bbf565b61544a6020830184614d6c565b9392505050565b60006040820190506154666000830185614bbf565b6154736020830184614d8a565b9392505050565b600060608201905061548f6000830186614bbf565b61549c6020830185614d8a565b81810360408301526154ae8184614ca1565b9050949350505050565b60006040820190506154cd6000830185614bbf565b6154da6020830184615294565b9392505050565b60006020820190506154f66000830184614d6c565b92915050565b60006020820190506155116000830184614d8a565b92915050565b600060408201905061552c6000830185614d8a565b6155396020830184614bbf565b9392505050565b60006040820190506155556000830185614d8a565b6155626020830184614d8a565b9392505050565b600060408201905061557e6000830186614d8a565b8181036020830152615591818486614dd9565b9050949350505050565b60006040820190506155b06000830185614d8a565b81810360208301526155c28184615121565b90509392505050565b60006060820190506155e06000830185614d8a565b6155ed6020830184615256565b9392505050565b6000602082019050818103600083015261560e8184614e3f565b905092915050565b6000602082019050818103600083015261562f81614e78565b9050919050565b6000602082019050818103600083015261564f81614e9b565b9050919050565b6000602082019050818103600083015261566f81614ebe565b9050919050565b6000602082019050818103600083015261568f81614ee1565b9050919050565b600060208201905081810360008301526156af81614f27565b9050919050565b600060208201905081810360008301526156cf81614f4a565b9050919050565b600060208201905081810360008301526156ef81614f6d565b9050919050565b600060208201905081810360008301526157108184614fbf565b905092915050565b600060208201905081810360008301526157328184615016565b905092915050565b600060208201905061574f6000830184615294565b92915050565b600060408201905061576a6000830185615294565b6157776020830184615294565b9392505050565b6000615788615799565b90506157948282615aec565b919050565b6000604051905090565b600067ffffffffffffffff8211156157be576157bd615c21565b5b602082029050602081019050919050565b600067ffffffffffffffff8211156157ea576157e9615c21565b5b602082029050602081019050919050565b600067ffffffffffffffff82111561581657615815615c21565b5b602082029050602081019050919050565b600067ffffffffffffffff82111561584257615841615c21565b5b602082029050602081019050919050565b600067ffffffffffffffff82111561586e5761586d615c21565b5b61587782615c78565b9050602081019050919050565b6000819050602082019050919050565b6000819050602082019050919050565b6000819050602082019050919050565b600081519050919050565b600081519050919050565b600081519050919050565b600081519050919050565b600081519050919050565b6000602082019050919050565b6000602082019050919050565b6000602082019050919050565b600082825260208201905092915050565b600082825260208201905092915050565b600082825260208201905092915050565b600082825260208201905092915050565b600081905092915050565b600082825260208201905092915050565b600082825260208201905092915050565b600061598e82615a8e565b915061599983615a8e565b9250827fffffffffffffffffffffffffffffffffffffffffffffffffffffffffffffffff038211156159ce576159cd615b94565b5b828201905092915050565b60006159e482615a8e565b91506159ef83615a8e565b9250817fffffffffffffffffffffffffffffffffffffffffffffffffffffffffffffffff0483118215151615615a2857615a27615b94565b5b828202905092915050565b6000615a3e82615a6e565b9050919050565b60008115159050919050565b6000819050919050565b6000819050615a6982615e2a565b919050565b600073ffffffffffffffffffffffffffffffffffffffff82169050919050565b6000819050919050565b6000615aa382615a5b565b9050919050565b82818337600083830152505050565b60005b83811015615ad7578082015181840152602081019050615abc565b83811115615ae6576000848401525b50505050565b615af582615c78565b810181811067ffffffffffffffff82111715615b1457615b13615c21565b5b80604052505050565b6000615b2882615a8e565b91507fffffffffffffffffffffffffffffffffffffffffffffffffffffffffffffffff821415615b5b57615b5a615b94565b5b600182019050919050565b6000615b7182615b78565b9050919050565b6000615b8382615c89565b9050919050565b6000819050919050565b7f4e487b7100000000000000000000000000000000000000000000000000000000600052601160045260246000fd5b7f4e487b7100000000000000000000000000000000000000000000000000000000600052602160045260246000fd5b7f4e487b7100000000000000000000000000000000000000000000000000000000600052603260045260246000fd5b7f4e487b7100000000000000000000000000000000000000000000000000000000600052604160045260246000fd5b600080fd5b600080fd5b600080fd5b600080fd5b600080fd5b600080fd5b600080fd5b600080fd5b6000601f19601f8301169050919050565b60008160601b9050919050565b7f4f776e61626c653a206e6577206f776e657220697320746865207a65726f206160008201527f6464726573730000000000000000000000000000000000000000000000000000602082015250565b7f416464726573733a20696e73756666696369656e742062616c616e636520666f60008201527f722063616c6c0000000000000000000000000000000000000000000000000000602082015250565b7f5061757361626c653a2070617573656400000000000000000000000000000000600082015250565b7f4f776e61626c653a2063616c6c6572206973206e6f7420746865206f776e6572600082015250565b50565b7f416464726573733a2063616c6c20746f206e6f6e2d636f6e7472616374000000600082015250565b7f5361666545524332303a204552433230206f7065726174696f6e20646964206e60008201527f6f74207375636365656400000000000000000000000000000000000000000000602082015250565b7f5265656e7472616e637947756172643a207265656e7472616e742063616c6c00600082015250565b60028110615e3b57615e3a615bc3565b5b50565b615e4781615a33565b8114615e5257600080fd5b50565b615e5e81615a45565b8114615e6957600080fd5b50565b615e7581615a51565b8114615e8057600080fd5b50565b60028110615e9057600080fd5b50565b615e9c81615a8e565b8114615ea757600080fd5b5056fea2646970667358221220440645c46cbb590d63e9d2db5da6dbf7becd7f52b9641ea97b189d8963f86cbb64736f6c63430008070033",
  "linkReferences": {},
  "deployedLinkReferences": {}
}