{
  "_format": "hh-sol-artifact-1",
  "contractName": "MembershipsImpl",
  "sourceName": "contracts/MembershipsImpl.sol",
  "abi": [
    {
      "inputs": [
        {
          "internalType": "address",
          "name": "eternalStorage",
          "type": "address"
        }
      ],
      "stateMutability": "nonpayable",
      "type": "constructor"
    },
    {
      "inputs": [
        {
          "internalType": "uint256",
          "name": "minRollFee",
          "type": "uint256"
        },
        {
          "internalType": "uint256",
          "name": "maxFee",
          "type": "uint256"
        }
      ],
      "name": "ErrorME01InvalidFee",
      "type": "error"
    },
    {
      "inputs": [],
      "name": "ErrorME02TokenNotAllowed",
      "type": "error"
    },
    {
      "inputs": [],
      "name": "ErrorME03NotEnoughTokens",
      "type": "error"
    },
    {
      "inputs": [],
      "name": "ErrorME04NotEnoughPhases",
      "type": "error"
    },
    {
      "inputs": [],
      "name": "ErrorME05OnlyOwnerAllowed",
      "type": "error"
    },
    {
      "inputs": [],
      "name": "ErrorME06ScheduleDoesNotExists",
      "type": "error"
    },
    {
      "inputs": [],
      "name": "ErrorME07ScheduleRevoked",
      "type": "error"
    },
    {
      "inputs": [],
      "name": "ErrorME08ScheduleNotActive",
      "type": "error"
    },
    {
      "inputs": [],
      "name": "ErrorME09ScheduleNotFinished",
      "type": "error"
    },
    {
      "inputs": [],
      "name": "ErrorME10ActionAllowlisted",
      "type": "error"
    },
    {
      "inputs": [],
      "name": "ErrorME11TransferError",
      "type": "error"
    },
    {
      "inputs": [],
      "name": "ErrorME12IndexOutOfBounds",
      "type": "error"
    },
    {
      "inputs": [],
      "name": "ErrorME13InvalidAddress",
      "type": "error"
    },
    {
      "inputs": [],
      "name": "ErrorME14BetaPeriodAlreadyFinish",
      "type": "error"
    },
    {
      "anonymous": false,
      "inputs": [
        {
          "indexed": true,
          "internalType": "address",
          "name": "from",
          "type": "address"
        },
        {
          "indexed": true,
          "internalType": "bytes32",
          "name": "scheduleId",
          "type": "bytes32"
        },
        {
          "indexed": false,
          "internalType": "uint256",
          "name": "lots",
          "type": "uint256"
        }
      ],
      "name": "EventBuyLot",
      "type": "event"
    },
    {
      "anonymous": false,
      "inputs": [
        {
          "indexed": true,
          "internalType": "address",
          "name": "from",
          "type": "address"
        },
        {
          "indexed": true,
          "internalType": "bytes32",
          "name": "scheduleId",
          "type": "bytes32"
        },
        {
          "indexed": true,
          "internalType": "address",
          "name": "token",
          "type": "address"
        },
        {
          "indexed": false,
          "internalType": "uint256",
          "name": "tokens",
          "type": "uint256"
        }
      ],
      "name": "EventBuyToken",
      "type": "event"
    },
    {
      "anonymous": false,
      "inputs": [
        {
          "indexed": true,
          "internalType": "address",
          "name": "from",
          "type": "address"
        },
        {
          "indexed": true,
          "internalType": "bytes32",
          "name": "scheduleId",
          "type": "bytes32"
        },
        {
          "indexed": false,
          "internalType": "uint256",
          "name": "value",
          "type": "uint256"
        }
      ],
      "name": "EventClaim",
      "type": "event"
    },
    {
      "anonymous": false,
      "inputs": [
        {
          "indexed": true,
          "internalType": "bytes32",
          "name": "role",
          "type": "bytes32"
        },
        {
          "indexed": true,
          "internalType": "bytes32",
          "name": "previousAdminRole",
          "type": "bytes32"
        },
        {
          "indexed": true,
          "internalType": "bytes32",
          "name": "newAdminRole",
          "type": "bytes32"
        }
      ],
      "name": "RoleAdminChanged",
      "type": "event"
    },
    {
      "anonymous": false,
      "inputs": [
        {
          "indexed": true,
          "internalType": "bytes32",
          "name": "role",
          "type": "bytes32"
        },
        {
          "indexed": true,
          "internalType": "address",
          "name": "account",
          "type": "address"
        },
        {
          "indexed": true,
          "internalType": "address",
          "name": "sender",
          "type": "address"
        }
      ],
      "name": "RoleGranted",
      "type": "event"
    },
    {
      "anonymous": false,
      "inputs": [
        {
          "indexed": true,
          "internalType": "bytes32",
          "name": "role",
          "type": "bytes32"
        },
        {
          "indexed": true,
          "internalType": "address",
          "name": "account",
          "type": "address"
        },
        {
          "indexed": true,
          "internalType": "address",
          "name": "sender",
          "type": "address"
        }
      ],
      "name": "RoleRevoked",
      "type": "event"
    },
    {
      "inputs": [],
      "name": "DEFAULT_ADMIN_ROLE",
      "outputs": [
        {
          "internalType": "bytes32",
          "name": "",
          "type": "bytes32"
        }
      ],
      "stateMutability": "view",
      "type": "function"
    },
    {
      "inputs": [],
      "name": "MEMBERSHIP_ROLE",
      "outputs": [
        {
          "internalType": "bytes32",
          "name": "",
          "type": "bytes32"
        }
      ],
      "stateMutability": "view",
      "type": "function"
    },
    {
      "inputs": [
        {
          "components": [
            {
              "internalType": "bytes32",
              "name": "campaignId",
              "type": "bytes32"
            },
            {
              "internalType": "uint256",
              "name": "phasesLength",
              "type": "uint256"
            },
            {
              "internalType": "bytes32[]",
              "name": "phases",
              "type": "bytes32[]"
            },
            {
              "internalType": "string",
              "name": "metadata",
              "type": "string"
            }
          ],
          "internalType": "struct MembershipsTypes.Campaign",
          "name": "value",
          "type": "tuple"
        }
      ],
      "name": "addCampaign",
      "outputs": [],
      "stateMutability": "nonpayable",
      "type": "function"
    },
    {
      "inputs": [
        {
          "internalType": "address",
          "name": "memberships",
          "type": "address"
        },
        {
          "internalType": "address",
          "name": "caller",
          "type": "address"
        },
        {
          "internalType": "bytes32",
          "name": "scheduleId",
          "type": "bytes32"
        },
        {
          "internalType": "uint256",
          "name": "amount",
          "type": "uint256"
        },
        {
          "internalType": "uint256",
          "name": "msgValue",
          "type": "uint256"
        }
      ],
      "name": "buy",
      "outputs": [],
      "stateMutability": "nonpayable",
      "type": "function"
    },
    {
      "inputs": [
        {
          "internalType": "address",
          "name": "memberships",
          "type": "address"
        },
        {
          "internalType": "bytes32",
          "name": "scheduleId",
          "type": "bytes32"
        }
      ],
      "name": "claim",
      "outputs": [],
      "stateMutability": "nonpayable",
      "type": "function"
    },
    {
      "inputs": [
        {
          "internalType": "address",
          "name": "memberships",
          "type": "address"
        },
        {
          "internalType": "bytes32",
          "name": "scheduleId",
          "type": "bytes32"
        }
      ],
      "name": "claimReferral",
      "outputs": [],
      "stateMutability": "nonpayable",
      "type": "function"
    },
    {
      "inputs": [
        {
          "internalType": "address",
          "name": "memberships",
          "type": "address"
        },
        {
          "internalType": "address",
          "name": "wallet",
          "type": "address"
        },
        {
          "internalType": "bytes32",
          "name": "scheduleId",
          "type": "bytes32"
        }
      ],
      "name": "claimRoll",
      "outputs": [],
      "stateMutability": "nonpayable",
      "type": "function"
    },
    {
      "inputs": [
        {
          "internalType": "address",
          "name": "memberships",
          "type": "address"
        },
        {
          "internalType": "bytes32",
          "name": "scheduleId",
          "type": "bytes32"
        }
      ],
      "name": "claimUnsoldTokens",
      "outputs": [],
      "stateMutability": "nonpayable",
      "type": "function"
    },
    {
      "inputs": [
        {
          "internalType": "bytes32",
          "name": "scheduleId",
          "type": "bytes32"
        }
      ],
      "name": "computeReleasableAmount",
      "outputs": [
        {
          "internalType": "uint256",
          "name": "",
          "type": "uint256"
        }
      ],
      "stateMutability": "view",
      "type": "function"
    },
    {
      "inputs": [
        {
          "components": [
            {
              "internalType": "uint256",
              "name": "start",
              "type": "uint256"
            },
            {
              "internalType": "uint256",
              "name": "duration",
              "type": "uint256"
            },
            {
              "internalType": "bytes32",
              "name": "merkleRoot",
              "type": "bytes32"
            },
            {
              "internalType": "uint256",
              "name": "amountTotal",
              "type": "uint256"
            },
            {
              "internalType": "address[]",
              "name": "lotToken",
              "type": "address[]"
            },
            {
              "internalType": "uint256[]",
              "name": "lotSize",
              "type": "uint256[]"
            },
            {
              "internalType": "uint256",
              "name": "pricePerLot",
              "type": "uint256"
            },
            {
              "components": [
                {
                  "internalType": "address",
                  "name": "token",
                  "type": "address"
                },
                {
                  "internalType": "enum MembershipsTypes.AssetType",
                  "name": "assetType",
                  "type": "uint8"
                }
              ],
              "internalType": "struct MembershipsTypes.Asset",
              "name": "paymentAsset",
              "type": "tuple"
            },
            {
              "internalType": "uint256",
              "name": "rollFee",
              "type": "uint256"
            },
            {
              "internalType": "address",
              "name": "referral",
              "type": "address"
            },
            {
              "internalType": "uint256",
              "name": "referralFee",
              "type": "uint256"
            },
            {
              "internalType": "uint256",
              "name": "maxBuyPerWallet",
              "type": "uint256"
            }
          ],
          "internalType": "struct MembershipsTypes.CreateMintingScheduleParams",
          "name": "params",
          "type": "tuple"
        }
      ],
      "name": "createMintingScheduleValidation",
      "outputs": [],
      "stateMutability": "view",
      "type": "function"
    },
    {
      "inputs": [
        {
          "internalType": "bytes32",
          "name": "scheduleId",
          "type": "bytes32"
        },
        {
          "internalType": "address",
          "name": "addr",
          "type": "address"
        }
      ],
      "name": "getBuyPerWallet",
      "outputs": [
        {
          "internalType": "uint256",
          "name": "",
          "type": "uint256"
        }
      ],
      "stateMutability": "view",
      "type": "function"
    },
    {
      "inputs": [
        {
          "internalType": "address",
          "name": "addr",
          "type": "address"
        }
      ],
      "name": "getCampaignByAddressLength",
      "outputs": [
        {
          "internalType": "uint256",
          "name": "",
          "type": "uint256"
        }
      ],
      "stateMutability": "view",
      "type": "function"
    },
    {
      "inputs": [
        {
          "internalType": "bytes32",
          "name": "scheduleId",
          "type": "bytes32"
        },
        {
          "internalType": "enum MembershipsTypes.UserType",
          "name": "userType",
          "type": "uint8"
        }
      ],
      "name": "getClaimed",
      "outputs": [
        {
          "internalType": "uint256",
          "name": "",
          "type": "uint256"
        }
      ],
      "stateMutability": "view",
      "type": "function"
    },
    {
      "inputs": [
        {
          "internalType": "bytes32",
          "name": "record",
          "type": "bytes32"
        }
      ],
      "name": "getReferral",
      "outputs": [
        {
          "components": [
            {
              "internalType": "address",
              "name": "referral",
              "type": "address"
            },
            {
              "internalType": "uint256",
              "name": "referralFee",
              "type": "uint256"
            }
          ],
          "internalType": "struct MembershipsTypes.ScheduleReferral",
          "name": "",
          "type": "tuple"
        }
      ],
      "stateMutability": "view",
      "type": "function"
    },
    {
      "inputs": [
        {
          "internalType": "bytes32",
          "name": "role",
          "type": "bytes32"
        }
      ],
      "name": "getRoleAdmin",
      "outputs": [
        {
          "internalType": "bytes32",
          "name": "",
          "type": "bytes32"
        }
      ],
      "stateMutability": "view",
      "type": "function"
    },
    {
      "inputs": [
        {
          "internalType": "bytes32",
          "name": "record",
          "type": "bytes32"
        }
      ],
      "name": "getSchedule",
      "outputs": [
        {
          "components": [
            {
              "internalType": "bool",
              "name": "initialized",
              "type": "bool"
            },
            {
              "internalType": "bool",
              "name": "revoked",
              "type": "bool"
            },
            {
              "internalType": "address",
              "name": "owner",
              "type": "address"
            },
            {
              "internalType": "uint256",
              "name": "start",
              "type": "uint256"
            },
            {
              "internalType": "uint256",
              "name": "duration",
              "type": "uint256"
            },
            {
              "internalType": "bytes32",
              "name": "merkleRoot",
              "type": "bytes32"
            },
            {
              "internalType": "uint256",
              "name": "amountTotal",
              "type": "uint256"
            },
            {
              "internalType": "uint256",
              "name": "released",
              "type": "uint256"
            },
            {
              "internalType": "address[]",
              "name": "lotToken",
              "type": "address[]"
            },
            {
              "internalType": "uint256[]",
              "name": "lotSize",
              "type": "uint256[]"
            },
            {
              "components": [
                {
                  "internalType": "address",
                  "name": "token",
                  "type": "address"
                },
                {
                  "internalType": "enum MembershipsTypes.AssetType",
                  "name": "assetType",
                  "type": "uint8"
                }
              ],
              "internalType": "struct MembershipsTypes.Asset",
              "name": "paymentAsset",
              "type": "tuple"
            },
            {
              "internalType": "uint256",
              "name": "pricePerLot",
              "type": "uint256"
            },
            {
              "internalType": "uint256",
              "name": "rollFee",
              "type": "uint256"
            },
            {
              "internalType": "uint256",
              "name": "maxBuyPerWallet",
              "type": "uint256"
            }
          ],
          "internalType": "struct MembershipsTypes.MintingSchedule",
          "name": "",
          "type": "tuple"
        }
      ],
      "stateMutability": "view",
      "type": "function"
    },
    {
      "inputs": [
        {
          "internalType": "bytes32",
          "name": "role",
          "type": "bytes32"
        },
        {
          "internalType": "address",
          "name": "account",
          "type": "address"
        }
      ],
      "name": "grantRole",
      "outputs": [],
      "stateMutability": "nonpayable",
      "type": "function"
    },
    {
      "inputs": [
        {
          "internalType": "bytes32",
          "name": "role",
          "type": "bytes32"
        },
        {
          "internalType": "address",
          "name": "account",
          "type": "address"
        }
      ],
      "name": "hasRole",
      "outputs": [
        {
          "internalType": "bool",
          "name": "",
          "type": "bool"
        }
      ],
      "stateMutability": "view",
      "type": "function"
    },
    {
      "inputs": [
        {
          "internalType": "bytes32",
          "name": "role",
          "type": "bytes32"
        },
        {
          "internalType": "address",
          "name": "account",
          "type": "address"
        }
      ],
      "name": "renounceRole",
      "outputs": [],
      "stateMutability": "nonpayable",
      "type": "function"
    },
    {
      "inputs": [
        {
          "internalType": "bytes32",
          "name": "scheduleId",
          "type": "bytes32"
        }
      ],
      "name": "revoke",
      "outputs": [],
      "stateMutability": "nonpayable",
      "type": "function"
    },
    {
      "inputs": [
        {
          "internalType": "bytes32",
          "name": "role",
          "type": "bytes32"
        },
        {
          "internalType": "address",
          "name": "account",
          "type": "address"
        }
      ],
      "name": "revokeRole",
      "outputs": [],
      "stateMutability": "nonpayable",
      "type": "function"
    },
    {
      "inputs": [
        {
          "internalType": "bytes32",
          "name": "scheduleId",
          "type": "bytes32"
        },
        {
          "internalType": "bytes32",
          "name": "root",
          "type": "bytes32"
        }
      ],
      "name": "setAllowlist",
      "outputs": [],
      "stateMutability": "nonpayable",
      "type": "function"
    },
    {
      "inputs": [
        {
          "internalType": "bytes32",
          "name": "scheduleId",
          "type": "bytes32"
        },
        {
          "internalType": "address",
          "name": "addr",
          "type": "address"
        },
        {
          "internalType": "uint256",
          "name": "value",
          "type": "uint256"
        }
      ],
      "name": "setBuyPerWallet",
      "outputs": [],
      "stateMutability": "nonpayable",
      "type": "function"
    },
    {
      "inputs": [
        {
          "internalType": "bytes32",
          "name": "scheduleId",
          "type": "bytes32"
        },
        {
          "internalType": "enum MembershipsTypes.UserType",
          "name": "userType",
          "type": "uint8"
        },
        {
          "internalType": "uint256",
          "name": "value",
          "type": "uint256"
        }
      ],
      "name": "setClaimed",
      "outputs": [],
      "stateMutability": "nonpayable",
      "type": "function"
    },
    {
      "inputs": [
        {
          "internalType": "bytes32",
          "name": "record",
          "type": "bytes32"
        },
        {
          "components": [
            {
              "internalType": "address",
              "name": "referral",
              "type": "address"
            },
            {
              "internalType": "uint256",
              "name": "referralFee",
              "type": "uint256"
            }
          ],
          "internalType": "struct MembershipsTypes.ScheduleReferral",
          "name": "value",
          "type": "tuple"
        }
      ],
      "name": "setReferral",
      "outputs": [],
      "stateMutability": "nonpayable",
      "type": "function"
    },
    {
      "inputs": [
        {
          "internalType": "bytes32",
          "name": "record",
          "type": "bytes32"
        },
        {
          "components": [
            {
              "internalType": "bool",
              "name": "initialized",
              "type": "bool"
            },
            {
              "internalType": "bool",
              "name": "revoked",
              "type": "bool"
            },
            {
              "internalType": "address",
              "name": "owner",
              "type": "address"
            },
            {
              "internalType": "uint256",
              "name": "start",
              "type": "uint256"
            },
            {
              "internalType": "uint256",
              "name": "duration",
              "type": "uint256"
            },
            {
              "internalType": "bytes32",
              "name": "merkleRoot",
              "type": "bytes32"
            },
            {
              "internalType": "uint256",
              "name": "amountTotal",
              "type": "uint256"
            },
            {
              "internalType": "uint256",
              "name": "released",
              "type": "uint256"
            },
            {
              "internalType": "address[]",
              "name": "lotToken",
              "type": "address[]"
            },
            {
              "internalType": "uint256[]",
              "name": "lotSize",
              "type": "uint256[]"
            },
            {
              "components": [
                {
                  "internalType": "address",
                  "name": "token",
                  "type": "address"
                },
                {
                  "internalType": "enum MembershipsTypes.AssetType",
                  "name": "assetType",
                  "type": "uint8"
                }
              ],
              "internalType": "struct MembershipsTypes.Asset",
              "name": "paymentAsset",
              "type": "tuple"
            },
            {
              "internalType": "uint256",
              "name": "pricePerLot",
              "type": "uint256"
            },
            {
              "internalType": "uint256",
              "name": "rollFee",
              "type": "uint256"
            },
            {
              "internalType": "uint256",
              "name": "maxBuyPerWallet",
              "type": "uint256"
            }
          ],
          "internalType": "struct MembershipsTypes.MintingSchedule",
          "name": "value",
          "type": "tuple"
        }
      ],
      "name": "setSchedule",
      "outputs": [],
      "stateMutability": "nonpayable",
      "type": "function"
    },
    {
      "inputs": [
        {
          "internalType": "bytes4",
          "name": "interfaceId",
          "type": "bytes4"
        }
      ],
      "name": "supportsInterface",
      "outputs": [
        {
          "internalType": "bool",
          "name": "",
          "type": "bool"
        }
      ],
      "stateMutability": "view",
      "type": "function"
    },
    {
      "inputs": [
        {
          "internalType": "bytes32",
          "name": "scheduleId",
          "type": "bytes32"
        },
        {
          "internalType": "address",
          "name": "owner",
          "type": "address"
        }
      ],
      "name": "transferScheduleOwner",
      "outputs": [],
      "stateMutability": "nonpayable",
      "type": "function"
    },
    {
      "inputs": [
        {
          "internalType": "bytes32",
          "name": "scheduleId",
          "type": "bytes32"
        },
        {
          "internalType": "address",
          "name": "referral",
          "type": "address"
        }
      ],
      "name": "updateReferral",
      "outputs": [],
      "stateMutability": "nonpayable",
      "type": "function"
    },
    {
      "inputs": [
        {
          "internalType": "address",
          "name": "caller",
          "type": "address"
        },
        {
          "internalType": "bytes32",
          "name": "scheduleId",
          "type": "bytes32"
        },
        {
          "internalType": "bytes32[]",
          "name": "proof",
          "type": "bytes32[]"
        }
      ],
      "name": "verifyMerkle",
      "outputs": [],
      "stateMutability": "view",
      "type": "function"
    }
  ],
  "bytecode": "0x60806040523480156200001157600080fd5b5060405162005162380380620051628339818101604052810190620000379190620002a8565b600073ffffffffffffffffffffffffffffffffffffffff168173ffffffffffffffffffffffffffffffffffffffff1614156200009f576040517fdae3f98f00000000000000000000000000000000000000000000000000000000815260040160405180910390fd5b620000b46000801b336200012e60201b60201c565b620000e67f41a3fffbda0f1c9e28bd52ae72187b3406590146b6ca8f19961d2250566efd16336200012e60201b60201c565b80600160006101000a81548173ffffffffffffffffffffffffffffffffffffffff021916908373ffffffffffffffffffffffffffffffffffffffff160217905550506200032d565b6200014082826200021f60201b60201c565b6200021b57600160008084815260200190815260200160002060000160008373ffffffffffffffffffffffffffffffffffffffff1673ffffffffffffffffffffffffffffffffffffffff16815260200190815260200160002060006101000a81548160ff021916908315150217905550620001c06200028960201b60201c565b73ffffffffffffffffffffffffffffffffffffffff168173ffffffffffffffffffffffffffffffffffffffff16837f2f8788117e7eff1d82e926ec794901d17c78024a50270940304540a733656f0d60405160405180910390a45b5050565b600080600084815260200190815260200160002060000160008373ffffffffffffffffffffffffffffffffffffffff1673ffffffffffffffffffffffffffffffffffffffff16815260200190815260200160002060009054906101000a900460ff16905092915050565b600033905090565b600081519050620002a28162000313565b92915050565b600060208284031215620002c157620002c06200030e565b5b6000620002d18482850162000291565b91505092915050565b6000620002e782620002ee565b9050919050565b600073ffffffffffffffffffffffffffffffffffffffff82169050919050565b600080fd5b6200031e81620002da565b81146200032a57600080fd5b50565b614e25806200033d6000396000f3fe608060405234801561001057600080fd5b50600436106101da5760003560e01c806391100e0511610104578063b75c7dc6116100a2578063df37bb1911610071578063df37bb1914610545578063ea1bb3d514610563578063efc427b714610593578063fe947f3c146105c3576101da565b8063b75c7dc6146104d5578063c8622c24146104f1578063ca2e8df31461050d578063d547741f14610529576101da565b8063a3479421116100de578063a347942114610451578063a8c2cda41461046d578063af9806cb14610489578063b3b736a3146104a5576101da565b806391100e05146103e757806391d1485414610403578063a217fddf14610433576101da565b806339d0e28f1161017c5780636e7019d11161014b5780636e7019d1146103635780638215b8821461037f57806382e58d511461039b5780638d0ba65c146103cb576101da565b806339d0e28f146102cb5780633adc277a146102e75780633c63927814610317578063433f4c2b14610347576101da565b80631d81019d116101b85780631d81019d14610247578063248a9ca3146102635780632f2ff15d1461029357806336568abe146102af576101da565b806301ffc9a7146101df5780630c9b91a81461020f5780631172d7731461022b575b600080fd5b6101f960048036038101906101f491906136fe565b6105df565b6040516102069190614015565b60405180910390f35b610229600480360381019061022491906134fc565b610659565b005b61024560048036038101906102409190613325565b6106e0565b005b610261600480360381019061025c9190613378565b610896565b005b61027d600480360381019061027891906134cf565b610d40565b60405161028a9190614030565b60405180910390f35b6102ad60048036038101906102a891906134fc565b610d5f565b005b6102c960048036038101906102c491906134fc565b610d88565b005b6102e560048036038101906102e0919061358f565b610e0b565b005b61030160048036038101906102fc91906134cf565b610e64565b60405161030e919061439b565b60405180910390f35b610331600480360381019061032c91906134fc565b610f23565b60405161033e91906143d8565b60405180910390f35b610361600480360381019061035c9190613662565b610fda565b005b61037d600480360381019061037891906133f3565b6110a0565b005b610399600480360381019061039491906134fc565b6112e7565b005b6103b560048036038101906103b091906134cf565b6113b7565b6040516103c291906143bd565b60405180910390f35b6103e560048036038101906103e091906136be565b611470565b005b61040160048036038101906103fc919061360f565b611536565b005b61041d600480360381019061041891906134fc565b6115ff565b60405161042a9190614015565b60405180910390f35b61043b611669565b6040516104489190614030565b60405180910390f35b61046b6004803603810190610466919061372b565b611670565b005b6104876004803603810190610482919061353c565b611733565b005b6104a3600480360381019061049e91906133f3565b6117fc565b005b6104bf60048036038101906104ba91906132f8565b6119c2565b6040516104cc91906143d8565b60405180910390f35b6104ef60048036038101906104ea91906134cf565b611a76565b005b61050b600480360381019061050691906133f3565b611ad5565b005b61052760048036038101906105229190613433565b611cc2565b005b610543600480360381019061053e91906134fc565b611d4f565b005b61054d611d78565b60405161055a9190614030565b60405180910390f35b61057d600480360381019061057891906134cf565b611d9c565b60405161058a91906143d8565b60405180910390f35b6105ad60048036038101906105a891906135cf565b611e0e565b6040516105ba91906143d8565b60405180910390f35b6105dd60048036038101906105d89190613774565b611ec5565b005b60007f7965db0b000000000000000000000000000000000000000000000000000000007bffffffffffffffffffffffffffffffffffffffffffffffffffffffff1916827bffffffffffffffffffffffffffffffffffffffffffffffffffffffff1916148061065257506106518261217c565b5b9050919050565b7f41a3fffbda0f1c9e28bd52ae72187b3406590146b6ca8f19961d2250566efd1661068b816106866121e6565b6121ee565b600061069684610e64565b905082816040019073ffffffffffffffffffffffffffffffffffffffff16908173ffffffffffffffffffffffffffffffffffffffff16815250506106da8482610fda565b50505050565b7f41a3fffbda0f1c9e28bd52ae72187b3406590146b6ca8f19961d2250566efd166107128161070d6121e6565b6121ee565b600061071d83610e64565b905060006107448260e0015183610160015161073991906146fd565b83610180015161228b565b90506000610753856001611e0e565b9050600081148061076357508181105b6107a2576040517f08c379a000000000000000000000000000000000000000000000000000000000815260040161079990614319565b60405180910390fd5b8673ffffffffffffffffffffffffffffffffffffffff1663cbc631c584610140015160200151856101400151600001518a8a86886107e09190614757565b6040518663ffffffff1660e01b8152600401610800959493929190614164565b600060405180830381600087803b15801561081a57600080fd5b505af115801561082e573d6000803e3d6000fd5b5050505061083e85600184611536565b843373ffffffffffffffffffffffffffffffffffffffff167fd58e36ccce0faf4ec8eabd7b3eda9e52a56e922ed16e4d22285ca124b5becbce8460405161088591906143d8565b60405180910390a350505050505050565b7f41a3fffbda0f1c9e28bd52ae72187b3406590146b6ca8f19961d2250566efd166108c8816108c36121e6565b6121ee565b60006108d385610e64565b905060006108e18688610f23565b9050816101a0015181866108f59190614676565b1115610936576040517f08c379a000000000000000000000000000000000000000000000000000000000815260040161092d90614359565b60405180910390fd5b6000600181111561094a576109496149c5565b5b826101400151602001516001811115610966576109656149c5565b5b14156109c3578482610160015161097d91906146fd565b84146109be576040517f08c379a00000000000000000000000000000000000000000000000000000000081526004016109b5906142b9565b60405180910390fd5b610ab7565b600082610140015160000151905060008173ffffffffffffffffffffffffffffffffffffffff166323b872dd8a8c8a886101600151610a0291906146fd565b6040518463ffffffff1660e01b8152600401610a2093929190613fde565b602060405180830381600087803b158015610a3a57600080fd5b505af1158015610a4e573d6000803e3d6000fd5b505050506040513d601f19601f82011682018060405250810190610a7291906134a2565b905080610ab4576040517f08c379a0000000000000000000000000000000000000000000000000000000008152600401610aab90614219565b60405180910390fd5b50505b848260e00151610ac79190614676565b8260e0018181525050610ada8683610fda565b610af086888784610aeb9190614676565b611733565b60005b82610100015151811015610ce65760008361010001518281518110610b1b57610b1a6149f4565b5b6020026020010151905060008173ffffffffffffffffffffffffffffffffffffffff166323b872dd8c8c8b8961012001518881518110610b5e57610b5d6149f4565b5b6020026020010151610b7091906146fd565b6040518463ffffffff1660e01b8152600401610b8e93929190613fde565b602060405180830381600087803b158015610ba857600080fd5b505af1158015610bbc573d6000803e3d6000fd5b505050506040513d601f19601f82011682018060405250810190610be091906134a2565b905080610c22576040517f08c379a0000000000000000000000000000000000000000000000000000000008152600401610c1990614219565b60405180910390fd5b8461010001518381518110610c3a57610c396149f4565b5b602002602001015173ffffffffffffffffffffffffffffffffffffffff16898b73ffffffffffffffffffffffffffffffffffffffff167fdf9b1c1794998ca4f08d12b066f07566231e28d8b7512b8e5703ee518290fca28b8961012001518881518110610caa57610ca96149f4565b5b6020026020010151610cbc91906146fd565b604051610cc991906143d8565b60405180910390a450508080610cde906148f0565b915050610af3565b50858773ffffffffffffffffffffffffffffffffffffffff167f466a2cb28370d90a159ba04b90161ae31f8671f13e9550b9306a8aa0a42756f687604051610d2e91906143d8565b60405180910390a35050505050505050565b6000806000838152602001908152602001600020600101549050919050565b610d6882610d40565b610d7981610d746121e6565b6121ee565b610d8383836122c1565b505050565b610d906121e6565b73ffffffffffffffffffffffffffffffffffffffff168173ffffffffffffffffffffffffffffffffffffffff1614610dfd576040517f08c379a0000000000000000000000000000000000000000000000000000000008152600401610df490614339565b60405180910390fd5b610e0782826123a1565b5050565b7f41a3fffbda0f1c9e28bd52ae72187b3406590146b6ca8f19961d2250566efd16610e3d81610e386121e6565b6121ee565b6000610e4884610e64565b9050828160a0018181525050610e5e8482610fda565b50505050565b610e6c612856565b600160009054906101000a900473ffffffffffffffffffffffffffffffffffffffff1673ffffffffffffffffffffffffffffffffffffffff16633adc277a836040518263ffffffff1660e01b8152600401610ec79190614030565b60006040518083038186803b158015610edf57600080fd5b505afa158015610ef3573d6000803e3d6000fd5b505050506040513d6000823e3d601f19601f82011682018060405250810190610f1c91906137bd565b9050919050565b6000600160009054906101000a900473ffffffffffffffffffffffffffffffffffffffff1673ffffffffffffffffffffffffffffffffffffffff16633c63927884846040518363ffffffff1660e01b8152600401610f8292919061404b565b60206040518083038186803b158015610f9a57600080fd5b505afa158015610fae573d6000803e3d6000fd5b505050506040513d601f19601f82011682018060405250810190610fd29190613833565b905092915050565b7f41a3fffbda0f1c9e28bd52ae72187b3406590146b6ca8f19961d2250566efd1661100c816110076121e6565b6121ee565b600160009054906101000a900473ffffffffffffffffffffffffffffffffffffffff1673ffffffffffffffffffffffffffffffffffffffff1663433f4c2b84846040518363ffffffff1660e01b815260040161106992919061410b565b600060405180830381600087803b15801561108357600080fd5b505af1158015611097573d6000803e3d6000fd5b50505050505050565b7f41a3fffbda0f1c9e28bd52ae72187b3406590146b6ca8f19961d2250566efd166110d2816110cd6121e6565b6121ee565b60006110dd83610e64565b905060006110ec846003611e0e565b905060008260e001518360c001516111049190614757565b148061112357508160e001518260c0015161111f9190614757565b8114155b611162576040517f08c379a000000000000000000000000000000000000000000000000000000000815260040161115990614319565b60405180910390fd5b60005b826101000151518110156112c0576000836101000151828151811061118d5761118c6149f4565b5b6020026020010151905060008173ffffffffffffffffffffffffffffffffffffffff166323b872dd8987604001518860e001518960c001516111cf9190614757565b89610120015188815181106111e7576111e66149f4565b5b60200260200101516111f991906146fd565b6040518463ffffffff1660e01b815260040161121793929190613fde565b602060405180830381600087803b15801561123157600080fd5b505af1158015611245573d6000803e3d6000fd5b505050506040513d601f19601f8201168201806040525081019061126991906134a2565b9050806112ab576040517f08c379a00000000000000000000000000000000000000000000000000000000081526004016112a290614219565b60405180910390fd5b505080806112b8906148f0565b915050611165565b506112e08460038460e001518560c001516112db9190614757565b611536565b5050505050565b7f41a3fffbda0f1c9e28bd52ae72187b3406590146b6ca8f19961d2250566efd16611319816113146121e6565b6121ee565b6000611324846113b7565b905060008160000151905083826000019073ffffffffffffffffffffffffffffffffffffffff16908173ffffffffffffffffffffffffffffffffffffffff16815250506113718583611470565b600073ffffffffffffffffffffffffffffffffffffffff168173ffffffffffffffffffffffffffffffffffffffff16146113b0576113af8582612482565b5b5050505050565b6113bf6128e8565b600160009054906101000a900473ffffffffffffffffffffffffffffffffffffffff1673ffffffffffffffffffffffffffffffffffffffff166382e58d51836040518263ffffffff1660e01b815260040161141a9190614030565b604080518083038186803b15801561143157600080fd5b505afa158015611445573d6000803e3d6000fd5b505050506040513d601f19601f820116820180604052508101906114699190613806565b9050919050565b7f41a3fffbda0f1c9e28bd52ae72187b3406590146b6ca8f19961d2250566efd166114a28161149d6121e6565b6121ee565b600160009054906101000a900473ffffffffffffffffffffffffffffffffffffffff1673ffffffffffffffffffffffffffffffffffffffff16638d0ba65c84846040518363ffffffff1660e01b81526004016114ff92919061413b565b600060405180830381600087803b15801561151957600080fd5b505af115801561152d573d6000803e3d6000fd5b50505050505050565b7f41a3fffbda0f1c9e28bd52ae72187b3406590146b6ca8f19961d2250566efd16611568816115636121e6565b6121ee565b600160009054906101000a900473ffffffffffffffffffffffffffffffffffffffff1673ffffffffffffffffffffffffffffffffffffffff166391100e058585856040518463ffffffff1660e01b81526004016115c7939291906140d4565b600060405180830381600087803b1580156115e157600080fd5b505af11580156115f5573d6000803e3d6000fd5b5050505050505050565b600080600084815260200190815260200160002060000160008373ffffffffffffffffffffffffffffffffffffffff1673ffffffffffffffffffffffffffffffffffffffff16815260200190815260200160002060009054906101000a900460ff16905092915050565b6000801b81565b7f41a3fffbda0f1c9e28bd52ae72187b3406590146b6ca8f19961d2250566efd166116a28161169d6121e6565b6121ee565b600160009054906101000a900473ffffffffffffffffffffffffffffffffffffffff1673ffffffffffffffffffffffffffffffffffffffff1663a3479421836040518263ffffffff1660e01b81526004016116fd9190614379565b600060405180830381600087803b15801561171757600080fd5b505af115801561172b573d6000803e3d6000fd5b505050505050565b7f41a3fffbda0f1c9e28bd52ae72187b3406590146b6ca8f19961d2250566efd16611765816117606121e6565b6121ee565b600160009054906101000a900473ffffffffffffffffffffffffffffffffffffffff1673ffffffffffffffffffffffffffffffffffffffff1663a8c2cda48585856040518463ffffffff1660e01b81526004016117c493929190614074565b600060405180830381600087803b1580156117de57600080fd5b505af11580156117f2573d6000803e3d6000fd5b5050505050505050565b7f41a3fffbda0f1c9e28bd52ae72187b3406590146b6ca8f19961d2250566efd1661182e816118296121e6565b6121ee565b600061183983610e64565b90506000611846846113b7565b9050600061186c8360e0015184610160015161186291906146fd565b836020015161228b565b9050600061187b866002611e0e565b9050600081148061188b57508181105b6118ca576040517f08c379a00000000000000000000000000000000000000000000000000000000081526004016118c190614319565b60405180910390fd5b8673ffffffffffffffffffffffffffffffffffffffff1663cbc631c585610140015160200151866101400151600001518a8760000151868861190c9190614757565b6040518663ffffffff1660e01b815260040161192c959493929190614164565b600060405180830381600087803b15801561194657600080fd5b505af115801561195a573d6000803e3d6000fd5b5050505061196a86600284611536565b853373ffffffffffffffffffffffffffffffffffffffff167fd58e36ccce0faf4ec8eabd7b3eda9e52a56e922ed16e4d22285ca124b5becbce846040516119b191906143d8565b60405180910390a350505050505050565b6000600160009054906101000a900473ffffffffffffffffffffffffffffffffffffffff1673ffffffffffffffffffffffffffffffffffffffff1663b3b736a3836040518263ffffffff1660e01b8152600401611a1f9190613fc3565b60206040518083038186803b158015611a3757600080fd5b505afa158015611a4b573d6000803e3d6000fd5b505050506040513d601f19601f82011682018060405250810190611a6f9190613833565b9050919050565b7f41a3fffbda0f1c9e28bd52ae72187b3406590146b6ca8f19961d2250566efd16611aa881611aa36121e6565b6121ee565b6000611ab383610e64565b90506001816020019015159081151581525050611ad08382610fda565b505050565b7f41a3fffbda0f1c9e28bd52ae72187b3406590146b6ca8f19961d2250566efd16611b0781611b026121e6565b6121ee565b6000611b1283610e64565b905060008160e00151826101600151611b2b91906146fd565b90506000611b3a856000611e0e565b90506000811480611b4a57508181105b611b89576040517f08c379a0000000000000000000000000000000000000000000000000000000008152600401611b8090614319565b60405180910390fd5b6000611b94866113b7565b602001519050611ba4838261228b565b611bb38486610180015161228b565b84611bbe9190614757565b611bc89190614757565b92508673ffffffffffffffffffffffffffffffffffffffff1663cbc631c585610140015160200151866101400151600001518a88604001518789611c0c9190614757565b6040518663ffffffff1660e01b8152600401611c2c959493929190614164565b600060405180830381600087803b158015611c4657600080fd5b505af1158015611c5a573d6000803e3d6000fd5b50505050611c6a86600085611536565b853373ffffffffffffffffffffffffffffffffffffffff167fd58e36ccce0faf4ec8eabd7b3eda9e52a56e922ed16e4d22285ca124b5becbce85604051611cb191906143d8565b60405180910390a350505050505050565b6000611ccd83610e64565b9050600084604051602001611ce29190613f42565b604051602081830303815290604052805190602001209050611d09838360a0015183612548565b611d48576040517f08c379a0000000000000000000000000000000000000000000000000000000008152600401611d3f906142d9565b60405180910390fd5b5050505050565b611d5882610d40565b611d6981611d646121e6565b6121ee565b611d7383836123a1565b505050565b7f41a3fffbda0f1c9e28bd52ae72187b3406590146b6ca8f19961d2250566efd1681565b600080611da883610e64565b90506000611db461255f565b9050816020015115611dcb57600092505050611e09565b81608001518260600151611ddf9190614676565b8110611e02578160e001518260c00151611df99190614757565b92505050611e09565b6000925050505b919050565b6000600160009054906101000a900473ffffffffffffffffffffffffffffffffffffffff1673ffffffffffffffffffffffffffffffffffffffff1663efc427b784846040518363ffffffff1660e01b8152600401611e6d9291906140ab565b60206040518083038186803b158015611e8557600080fd5b505afa158015611e99573d6000803e3d6000fd5b505050506040513d601f19601f82011682018060405250810190611ebd9190613833565b905092915050565b611ecd61255f565b81600001351015611f13576040517f08c379a0000000000000000000000000000000000000000000000000000000008152600401611f0a90614239565b60405180910390fd5b6000816020013511611f5a576040517f08c379a0000000000000000000000000000000000000000000000000000000008152600401611f5190614259565b60405180910390fd5b60008160c0013511611fa1576040517f08c379a0000000000000000000000000000000000000000000000000000000008152600401611f98906142f9565b60405180910390fd5b6000818060800190611fb391906143f3565b9050118015611fd357506000818060a00190611fcf9190614456565b9050115b80156120005750808060a00190611fea9190614456565b9050818060800190611ffc91906143f3565b9050145b61203f576040517f08c379a0000000000000000000000000000000000000000000000000000000008152600401612036906141f9565b60405180910390fd5b600073ffffffffffffffffffffffffffffffffffffffff168161014001602081019061206b91906132f8565b73ffffffffffffffffffffffffffffffffffffffff1614801561209357506000816101600135145b806120f05750600073ffffffffffffffffffffffffffffffffffffffff16816101400160208101906120c591906132f8565b73ffffffffffffffffffffffffffffffffffffffff16141580156120ef5750600081610160013514155b5b61212f576040517f08c379a000000000000000000000000000000000000000000000000000000000815260040161212690614279565b60405180910390fd5b620f424081610160013510612179576040517f08c379a000000000000000000000000000000000000000000000000000000000815260040161217090614299565b60405180910390fd5b50565b60007f01ffc9a7000000000000000000000000000000000000000000000000000000007bffffffffffffffffffffffffffffffffffffffffffffffffffffffff1916827bffffffffffffffffffffffffffffffffffffffffffffffffffffffff1916149050919050565b600033905090565b6121f882826115ff565b6122875761221d8173ffffffffffffffffffffffffffffffffffffffff166014612567565b61222b8360001c6020612567565b60405160200161223c929190613f89565b6040516020818303038152906040526040517f08c379a000000000000000000000000000000000000000000000000000000000815260040161227e91906141b7565b60405180910390fd5b5050565b60008082141561229e57600090506122bb565b620f424082846122ae91906146fd565b6122b891906146cc565b90505b92915050565b6122cb82826115ff565b61239d57600160008084815260200190815260200160002060000160008373ffffffffffffffffffffffffffffffffffffffff1673ffffffffffffffffffffffffffffffffffffffff16815260200190815260200160002060006101000a81548160ff0219169083151502179055506123426121e6565b73ffffffffffffffffffffffffffffffffffffffff168173ffffffffffffffffffffffffffffffffffffffff16837f2f8788117e7eff1d82e926ec794901d17c78024a50270940304540a733656f0d60405160405180910390a45b5050565b6123ab82826115ff565b1561247e57600080600084815260200190815260200160002060000160008373ffffffffffffffffffffffffffffffffffffffff1673ffffffffffffffffffffffffffffffffffffffff16815260200190815260200160002060006101000a81548160ff0219169083151502179055506124236121e6565b73ffffffffffffffffffffffffffffffffffffffff168173ffffffffffffffffffffffffffffffffffffffff16837ff6391f5c32d9c69d2a47ea670b442974b53935d1edc7fd64eb21e047a839171b60405160405180910390a45b5050565b7f41a3fffbda0f1c9e28bd52ae72187b3406590146b6ca8f19961d2250566efd166124b4816124af6121e6565b6121ee565b600160009054906101000a900473ffffffffffffffffffffffffffffffffffffffff1673ffffffffffffffffffffffffffffffffffffffff1663c535012884846040518363ffffffff1660e01b815260040161251192919061404b565b600060405180830381600087803b15801561252b57600080fd5b505af115801561253f573d6000803e3d6000fd5b50505050505050565b60008261255585846127a3565b1490509392505050565b600042905090565b60606000600283600261257a91906146fd565b6125849190614676565b67ffffffffffffffff81111561259d5761259c614a23565b5b6040519080825280601f01601f1916602001820160405280156125cf5781602001600182028036833780820191505090505b5090507f300000000000000000000000000000000000000000000000000000000000000081600081518110612607576126066149f4565b5b60200101907effffffffffffffffffffffffffffffffffffffffffffffffffffffffffffff1916908160001a9053507f78000000000000000000000000000000000000000000000000000000000000008160018151811061266b5761266a6149f4565b5b60200101907effffffffffffffffffffffffffffffffffffffffffffffffffffffffffffff1916908160001a905350600060018460026126ab91906146fd565b6126b59190614676565b90505b6001811115612755577f3031323334353637383961626364656600000000000000000000000000000000600f8616601081106126f7576126f66149f4565b5b1a60f81b82828151811061270e5761270d6149f4565b5b60200101907effffffffffffffffffffffffffffffffffffffffffffffffffffffffffffff1916908160001a905350600485901c94508061274e90614895565b90506126b8565b5060008414612799576040517f08c379a0000000000000000000000000000000000000000000000000000000008152600401612790906141d9565b60405180910390fd5b8091505092915050565b60008082905060005b845181101561284b5760008582815181106127ca576127c96149f4565b5b6020026020010151905080831161280b5782816040516020016127ee929190613f5d565b604051602081830303815290604052805190602001209250612837565b808360405160200161281e929190613f5d565b6040516020818303038152906040528051906020012092505b508080612843906148f0565b9150506127ac565b508091505092915050565b604051806101c00160405280600015158152602001600015158152602001600073ffffffffffffffffffffffffffffffffffffffff168152602001600081526020016000815260200160008019168152602001600081526020016000815260200160608152602001606081526020016128cd612918565b81526020016000815260200160008152602001600081525090565b6040518060400160405280600073ffffffffffffffffffffffffffffffffffffffff168152602001600081525090565b6040518060400160405280600073ffffffffffffffffffffffffffffffffffffffff16815260200160006001811115612954576129536149c5565b5b81525090565b600061296d612968846144de565b6144b9565b905080838252602082019050828560208602820111156129905761298f614a70565b5b60005b858110156129c057816129a68882612bcc565b845260208401935060208301925050600181019050612993565b5050509392505050565b60006129dd6129d8846144de565b6144b9565b90508083825260208201905082856020860282011115612a00576129ff614a70565b5b60005b85811015612a305781612a168882612be1565b845260208401935060208301925050600181019050612a03565b5050509392505050565b6000612a4d612a488461450a565b6144b9565b90508083825260208201905082856020860282011115612a7057612a6f614a70565b5b60005b85811015612aa05781612a868882612d06565b845260208401935060208301925050600181019050612a73565b5050509392505050565b6000612abd612ab884614536565b6144b9565b90508083825260208201905082856020860282011115612ae057612adf614a70565b5b60005b85811015612b105781612af688826132ce565b845260208401935060208301925050600181019050612ae3565b5050509392505050565b6000612b2d612b2884614536565b6144b9565b90508083825260208201905082856020860282011115612b5057612b4f614a70565b5b60005b85811015612b805781612b6688826132e3565b845260208401935060208301925050600181019050612b53565b5050509392505050565b6000612b9d612b9884614562565b6144b9565b905082815260208101848484011115612bb957612bb8614a7a565b5b612bc4848285614853565b509392505050565b600081359050612bdb81614d5c565b92915050565b600081519050612bf081614d5c565b92915050565b600082601f830112612c0b57612c0a614a52565b5b8135612c1b84826020860161295a565b91505092915050565b600082601f830112612c3957612c38614a52565b5b8151612c498482602086016129ca565b91505092915050565b600082601f830112612c6757612c66614a52565b5b8135612c77848260208601612a3a565b91505092915050565b600082601f830112612c9557612c94614a52565b5b8135612ca5848260208601612aaa565b91505092915050565b600082601f830112612cc357612cc2614a52565b5b8151612cd3848260208601612b1a565b91505092915050565b600081359050612ceb81614d73565b92915050565b600081519050612d0081614d73565b92915050565b600081359050612d1581614d8a565b92915050565b600081519050612d2a81614d8a565b92915050565b600081359050612d3f81614da1565b92915050565b600081359050612d5481614db8565b92915050565b600081519050612d6981614db8565b92915050565b600081359050612d7e81614dc8565b92915050565b600082601f830112612d9957612d98614a52565b5b8135612da9848260208601612b8a565b91505092915050565b600060408284031215612dc857612dc7614a61565b5b612dd260406144b9565b90506000612de284828501612bcc565b6000830152506020612df684828501612d45565b60208301525092915050565b600060408284031215612e1857612e17614a61565b5b612e2260406144b9565b90506000612e3284828501612be1565b6000830152506020612e4684828501612d5a565b60208301525092915050565b600060808284031215612e6857612e67614a61565b5b612e7260806144b9565b90506000612e8284828501612d06565b6000830152506020612e96848285016132ce565b602083015250604082013567ffffffffffffffff811115612eba57612eb9614a6b565b5b612ec684828501612c52565b604083015250606082013567ffffffffffffffff811115612eea57612ee9614a6b565b5b612ef684828501612d84565b60608301525092915050565b60006101a08284031215612f1957612f18614a5c565b5b81905092915050565b60006101e08284031215612f3957612f38614a61565b5b612f446101c06144b9565b90506000612f5484828501612cdc565b6000830152506020612f6884828501612cdc565b6020830152506040612f7c84828501612bcc565b6040830152506060612f90848285016132ce565b6060830152506080612fa4848285016132ce565b60808301525060a0612fb884828501612d06565b60a08301525060c0612fcc848285016132ce565b60c08301525060e0612fe0848285016132ce565b60e08301525061010082013567ffffffffffffffff81111561300557613004614a6b565b5b61301184828501612bf6565b6101008301525061012082013567ffffffffffffffff81111561303757613036614a6b565b5b61304384828501612c80565b6101208301525061014061305984828501612db2565b6101408301525061018061306f848285016132ce565b610160830152506101a0613085848285016132ce565b610180830152506101c061309b848285016132ce565b6101a08301525092915050565b60006101e082840312156130bf576130be614a61565b5b6130ca6101c06144b9565b905060006130da84828501612cf1565b60008301525060206130ee84828501612cf1565b602083015250604061310284828501612be1565b6040830152506060613116848285016132e3565b606083015250608061312a848285016132e3565b60808301525060a061313e84828501612d1b565b60a08301525060c0613152848285016132e3565b60c08301525060e0613166848285016132e3565b60e08301525061010082015167ffffffffffffffff81111561318b5761318a614a6b565b5b61319784828501612c24565b6101008301525061012082015167ffffffffffffffff8111156131bd576131bc614a6b565b5b6131c984828501612cae565b610120830152506101406131df84828501612e02565b610140830152506101806131f5848285016132e3565b610160830152506101a061320b848285016132e3565b610180830152506101c0613221848285016132e3565b6101a08301525092915050565b60006040828403121561324457613243614a61565b5b61324e60406144b9565b9050600061325e84828501612bcc565b6000830152506020613272848285016132ce565b60208301525092915050565b60006040828403121561329457613293614a61565b5b61329e60406144b9565b905060006132ae84828501612be1565b60008301525060206132c2848285016132e3565b60208301525092915050565b6000813590506132dd81614dd8565b92915050565b6000815190506132f281614dd8565b92915050565b60006020828403121561330e5761330d614a84565b5b600061331c84828501612bcc565b91505092915050565b60008060006060848603121561333e5761333d614a84565b5b600061334c86828701612bcc565b935050602061335d86828701612bcc565b925050604061336e86828701612d06565b9150509250925092565b600080600080600060a0868803121561339457613393614a84565b5b60006133a288828901612bcc565b95505060206133b388828901612bcc565b94505060406133c488828901612d06565b93505060606133d5888289016132ce565b92505060806133e6888289016132ce565b9150509295509295909350565b6000806040838503121561340a57613409614a84565b5b600061341885828601612bcc565b925050602061342985828601612d06565b9150509250929050565b60008060006060848603121561344c5761344b614a84565b5b600061345a86828701612bcc565b935050602061346b86828701612d06565b925050604084013567ffffffffffffffff81111561348c5761348b614a7f565b5b61349886828701612c52565b9150509250925092565b6000602082840312156134b8576134b7614a84565b5b60006134c684828501612cf1565b91505092915050565b6000602082840312156134e5576134e4614a84565b5b60006134f384828501612d06565b91505092915050565b6000806040838503121561351357613512614a84565b5b600061352185828601612d06565b925050602061353285828601612bcc565b9150509250929050565b60008060006060848603121561355557613554614a84565b5b600061356386828701612d06565b935050602061357486828701612bcc565b9250506040613585868287016132ce565b9150509250925092565b600080604083850312156135a6576135a5614a84565b5b60006135b485828601612d06565b92505060206135c585828601612d06565b9150509250929050565b600080604083850312156135e6576135e5614a84565b5b60006135f485828601612d06565b925050602061360585828601612d6f565b9150509250929050565b60008060006060848603121561362857613627614a84565b5b600061363686828701612d06565b935050602061364786828701612d6f565b9250506040613658868287016132ce565b9150509250925092565b6000806040838503121561367957613678614a84565b5b600061368785828601612d06565b925050602083013567ffffffffffffffff8111156136a8576136a7614a7f565b5b6136b485828601612f22565b9150509250929050565b600080606083850312156136d5576136d4614a84565b5b60006136e385828601612d06565b92505060206136f48582860161322e565b9150509250929050565b60006020828403121561371457613713614a84565b5b600061372284828501612d30565b91505092915050565b60006020828403121561374157613740614a84565b5b600082013567ffffffffffffffff81111561375f5761375e614a7f565b5b61376b84828501612e52565b91505092915050565b60006020828403121561378a57613789614a84565b5b600082013567ffffffffffffffff8111156137a8576137a7614a7f565b5b6137b484828501612f02565b91505092915050565b6000602082840312156137d3576137d2614a84565b5b600082015167ffffffffffffffff8111156137f1576137f0614a7f565b5b6137fd848285016130a8565b91505092915050565b60006040828403121561381c5761381b614a84565b5b600061382a8482850161327e565b91505092915050565b60006020828403121561384957613848614a84565b5b6000613857848285016132e3565b91505092915050565b600061386c83836138a8565b60208301905092915050565b60006138848383613a15565b60208301905092915050565b600061389c8383613f24565b60208301905092915050565b6138b18161478b565b82525050565b6138c08161478b565b82525050565b6138d76138d28261478b565b614939565b82525050565b60006138e8826145c3565b6138f28185614616565b93506138fd83614593565b8060005b8381101561392e5781516139158882613860565b9750613920836145ef565b925050600181019050613901565b5085935050505092915050565b6000613946826145ce565b6139508185614627565b935061395b836145a3565b8060005b8381101561398c5781516139738882613878565b975061397e836145fc565b92505060018101905061395f565b5085935050505092915050565b60006139a4826145d9565b6139ae8185614638565b93506139b9836145b3565b8060005b838110156139ea5781516139d18882613890565b97506139dc83614609565b9250506001810190506139bd565b5085935050505092915050565b613a008161479d565b82525050565b613a0f8161479d565b82525050565b613a1e816147a9565b82525050565b613a2d816147a9565b82525050565b613a44613a3f826147a9565b61494b565b82525050565b613a538161482f565b82525050565b613a628161482f565b82525050565b613a7181614841565b82525050565b6000613a82826145e4565b613a8c8185614649565b9350613a9c818560208601614862565b613aa581614a89565b840191505092915050565b6000613abb826145e4565b613ac5818561465a565b9350613ad5818560208601614862565b613ade81614a89565b840191505092915050565b6000613af4826145e4565b613afe818561466b565b9350613b0e818560208601614862565b80840191505092915050565b6000613b2760208361465a565b9150613b3282614aa7565b602082019050919050565b6000613b4a601a8361465a565b9150613b5582614ad0565b602082019050919050565b6000613b6d60148361465a565b9150613b7882614af9565b602082019050919050565b6000613b9060108361465a565b9150613b9b82614b22565b602082019050919050565b6000613bb360148361465a565b9150613bbe82614b4b565b602082019050919050565b6000613bd660148361465a565b9150613be182614b74565b602082019050919050565b6000613bf960188361465a565b9150613c0482614b9d565b602082019050919050565b6000613c1c60118361465a565b9150613c2782614bc6565b602082019050919050565b6000613c3f60118361465a565b9150613c4a82614bef565b602082019050919050565b6000613c6260178361466b565b9150613c6d82614c18565b601782019050919050565b6000613c8560118361465a565b9150613c9082614c41565b602082019050919050565b6000613ca860118361466b565b9150613cb382614c6a565b601182019050919050565b6000613ccb60118361465a565b9150613cd682614c93565b602082019050919050565b6000613cee602f8361465a565b9150613cf982614cbc565b604082019050919050565b6000613d11601f8361465a565b9150613d1c82614d0b565b602082019050919050565b604082016000820151613d3d60008501826138a8565b506020820151613d506020850182613a4a565b50505050565b6000608083016000830151613d6e6000860182613a15565b506020830151613d816020860182613f24565b5060408301518482036040860152613d99828261393b565b91505060608301518482036060860152613db38282613a77565b9150508091505092915050565b60006101e083016000830151613dd960008601826139f7565b506020830151613dec60208601826139f7565b506040830151613dff60408601826138a8565b506060830151613e126060860182613f24565b506080830151613e256080860182613f24565b5060a0830151613e3860a0860182613a15565b5060c0830151613e4b60c0860182613f24565b5060e0830151613e5e60e0860182613f24565b50610100830151848203610100860152613e7882826138dd565b915050610120830151848203610120860152613e948282613999565b915050610140830151613eab610140860182613d27565b50610160830151613ec0610180860182613f24565b50610180830151613ed56101a0860182613f24565b506101a0830151613eea6101c0860182613f24565b508091505092915050565b604082016000820151613f0b60008501826138a8565b506020820151613f1e6020850182613f24565b50505050565b613f2d81614825565b82525050565b613f3c81614825565b82525050565b6000613f4e82846138c6565b60148201915081905092915050565b6000613f698285613a33565b602082019150613f798284613a33565b6020820191508190509392505050565b6000613f9482613c55565b9150613fa08285613ae9565b9150613fab82613c9b565b9150613fb78284613ae9565b91508190509392505050565b6000602082019050613fd860008301846138b7565b92915050565b6000606082019050613ff360008301866138b7565b61400060208301856138b7565b61400d6040830184613f33565b949350505050565b600060208201905061402a6000830184613a06565b92915050565b60006020820190506140456000830184613a24565b92915050565b60006040820190506140606000830185613a24565b61406d60208301846138b7565b9392505050565b60006060820190506140896000830186613a24565b61409660208301856138b7565b6140a36040830184613f33565b949350505050565b60006040820190506140c06000830185613a24565b6140cd6020830184613a68565b9392505050565b60006060820190506140e96000830186613a24565b6140f66020830185613a68565b6141036040830184613f33565b949350505050565b60006040820190506141206000830185613a24565b81810360208301526141328184613dc0565b90509392505050565b60006060820190506141506000830185613a24565b61415d6020830184613ef5565b9392505050565b600060a0820190506141796000830188613a59565b61418660208301876138b7565b61419360408301866138b7565b6141a060608301856138b7565b6141ad6080830184613f33565b9695505050505050565b600060208201905081810360008301526141d18184613ab0565b905092915050565b600060208201905081810360008301526141f281613b1a565b9050919050565b6000602082019050818103600083015261421281613b3d565b9050919050565b6000602082019050818103600083015261423281613b60565b9050919050565b6000602082019050818103600083015261425281613b83565b9050919050565b6000602082019050818103600083015261427281613ba6565b9050919050565b6000602082019050818103600083015261429281613bc9565b9050919050565b600060208201905081810360008301526142b281613bec565b9050919050565b600060208201905081810360008301526142d281613c0f565b9050919050565b600060208201905081810360008301526142f281613c32565b9050919050565b6000602082019050818103600083015261431281613c78565b9050919050565b6000602082019050818103600083015261433281613cbe565b9050919050565b6000602082019050818103600083015261435281613ce1565b9050919050565b6000602082019050818103600083015261437281613d04565b9050919050565b600060208201905081810360008301526143938184613d56565b905092915050565b600060208201905081810360008301526143b58184613dc0565b905092915050565b60006040820190506143d26000830184613ef5565b92915050565b60006020820190506143ed6000830184613f33565b92915050565b600080833560016020038436030381126144105761440f614a66565b5b80840192508235915067ffffffffffffffff82111561443257614431614a57565b5b60208301925060208202360383131561444e5761444d614a75565b5b509250929050565b6000808335600160200384360303811261447357614472614a66565b5b80840192508235915067ffffffffffffffff82111561449557614494614a57565b5b6020830192506020820236038313156144b1576144b0614a75565b5b509250929050565b60006144c36144d4565b90506144cf82826148bf565b919050565b6000604051905090565b600067ffffffffffffffff8211156144f9576144f8614a23565b5b602082029050602081019050919050565b600067ffffffffffffffff82111561452557614524614a23565b5b602082029050602081019050919050565b600067ffffffffffffffff82111561455157614550614a23565b5b602082029050602081019050919050565b600067ffffffffffffffff82111561457d5761457c614a23565b5b61458682614a89565b9050602081019050919050565b6000819050602082019050919050565b6000819050602082019050919050565b6000819050602082019050919050565b600081519050919050565b600081519050919050565b600081519050919050565b600081519050919050565b6000602082019050919050565b6000602082019050919050565b6000602082019050919050565b600082825260208201905092915050565b600082825260208201905092915050565b600082825260208201905092915050565b600082825260208201905092915050565b600082825260208201905092915050565b600081905092915050565b600061468182614825565b915061468c83614825565b9250827fffffffffffffffffffffffffffffffffffffffffffffffffffffffffffffffff038211156146c1576146c0614967565b5b828201905092915050565b60006146d782614825565b91506146e283614825565b9250826146f2576146f1614996565b5b828204905092915050565b600061470882614825565b915061471383614825565b9250817fffffffffffffffffffffffffffffffffffffffffffffffffffffffffffffffff048311821515161561474c5761474b614967565b5b828202905092915050565b600061476282614825565b915061476d83614825565b9250828210156147805761477f614967565b5b828203905092915050565b600061479682614805565b9050919050565b60008115159050919050565b6000819050919050565b60007fffffffff0000000000000000000000000000000000000000000000000000000082169050919050565b60008190506147ed82614d34565b919050565b600081905061480082614d48565b919050565b600073ffffffffffffffffffffffffffffffffffffffff82169050919050565b6000819050919050565b600061483a826147df565b9050919050565b600061484c826147f2565b9050919050565b82818337600083830152505050565b60005b83811015614880578082015181840152602081019050614865565b8381111561488f576000848401525b50505050565b60006148a082614825565b915060008214156148b4576148b3614967565b5b600182039050919050565b6148c882614a89565b810181811067ffffffffffffffff821117156148e7576148e6614a23565b5b80604052505050565b60006148fb82614825565b91507fffffffffffffffffffffffffffffffffffffffffffffffffffffffffffffffff82141561492e5761492d614967565b5b600182019050919050565b600061494482614955565b9050919050565b6000819050919050565b600061496082614a9a565b9050919050565b7f4e487b7100000000000000000000000000000000000000000000000000000000600052601160045260246000fd5b7f4e487b7100000000000000000000000000000000000000000000000000000000600052601260045260246000fd5b7f4e487b7100000000000000000000000000000000000000000000000000000000600052602160045260246000fd5b7f4e487b7100000000000000000000000000000000000000000000000000000000600052603260045260246000fd5b7f4e487b7100000000000000000000000000000000000000000000000000000000600052604160045260246000fd5b600080fd5b600080fd5b600080fd5b600080fd5b600080fd5b600080fd5b600080fd5b600080fd5b600080fd5b600080fd5b600080fd5b6000601f19601f8301169050919050565b60008160601b9050919050565b7f537472696e67733a20686578206c656e67746820696e73756666696369656e74600082015250565b7f4c4d3a20617272617973206c656e677468206d69736d61746368000000000000600082015250565b7f4c4d3a206e6f20656e6f75676820746f6b656e73000000000000000000000000600082015250565b7f4c4d3a20696e76616c6964206461746500000000000000000000000000000000600082015250565b7f4c4d3a20696e76616c6964206475726174696f6e000000000000000000000000600082015250565b7f4c4d3a20696e76616c696420726566657272616c000000000000000000000000600082015250565b7f4c4d3a20696e76616c696420726566657272616c206665650000000000000000600082015250565b7f4c4d3a206e6f20656e6f75676820455448000000000000000000000000000000600082015250565b7f4c4d3a20496e76616c69642070726f6f66000000000000000000000000000000600082015250565b7f416363657373436f6e74726f6c3a206163636f756e7420000000000000000000600082015250565b7f4c4d3a20696e76616c6964207072696365000000000000000000000000000000600082015250565b7f206973206d697373696e6720726f6c6520000000000000000000000000000000600082015250565b7f4c4d3a20546f74616c20636c61696d6564000000000000000000000000000000600082015250565b7f416363657373436f6e74726f6c3a2063616e206f6e6c792072656e6f756e636560008201527f20726f6c657320666f722073656c660000000000000000000000000000000000602082015250565b7f4c4d3a206d617820627579207065722077616c6c657420657863656564656400600082015250565b60028110614d4557614d446149c5565b5b50565b60048110614d5957614d586149c5565b5b50565b614d658161478b565b8114614d7057600080fd5b50565b614d7c8161479d565b8114614d8757600080fd5b50565b614d93816147a9565b8114614d9e57600080fd5b50565b614daa816147b3565b8114614db557600080fd5b50565b60028110614dc557600080fd5b50565b60048110614dd557600080fd5b50565b614de181614825565b8114614dec57600080fd5b5056fea26469706673582212200f1e551953ab28207702e737044fa2c23e60d946153bacb2a702867c54461d0a64736f6c63430008070033",
  "linkReferences": {},
  "deployedLinkReferences": {}
}