{
  "_format": "hh-sol-artifact-1",
  "contractName": "MembershipsView",
  "sourceName": "contracts/MembershipsView.sol",
  "abi": [
    {
      "inputs": [
        {
          "internalType": "address",
          "name": "eternalStorage",
          "type": "address"
        }
      ],
      "stateMutability": "nonpayable",
      "type": "constructor"
    },
    {
      "inputs": [
        {
          "internalType": "bytes32",
          "name": "scheduleId",
          "type": "bytes32"
        },
        {
          "internalType": "address",
          "name": "addr",
          "type": "address"
        }
      ],
      "name": "getBuyPerWallet",
      "outputs": [
        {
          "internalType": "uint256",
          "name": "",
          "type": "uint256"
        }
      ],
      "stateMutability": "view",
      "type": "function"
    },
    {
      "inputs": [
        {
          "internalType": "bytes32",
          "name": "record",
          "type": "bytes32"
        }
      ],
      "name": "getBuyWalletCount",
      "outputs": [
        {
          "internalType": "uint256",
          "name": "",
          "type": "uint256"
        }
      ],
      "stateMutability": "view",
      "type": "function"
    },
    {
      "inputs": [
        {
          "internalType": "uint256",
          "name": "index",
          "type": "uint256"
        }
      ],
      "name": "getCampaign",
      "outputs": [
        {
          "components": [
            {
              "internalType": "bytes32",
              "name": "campaignId",
              "type": "bytes32"
            },
            {
              "internalType": "bytes32[]",
              "name": "phases",
              "type": "bytes32[]"
            },
            {
              "internalType": "string",
              "name": "metadata",
              "type": "string"
            }
          ],
          "internalType": "struct MembershipsTypes.Campaign",
          "name": "",
          "type": "tuple"
        }
      ],
      "stateMutability": "view",
      "type": "function"
    },
    {
      "inputs": [
        {
          "internalType": "address",
          "name": "owner",
          "type": "address"
        }
      ],
      "name": "getCampaignByOwner",
      "outputs": [
        {
          "internalType": "uint256",
          "name": "",
          "type": "uint256"
        },
        {
          "components": [
            {
              "internalType": "bytes32",
              "name": "campaignId",
              "type": "bytes32"
            },
            {
              "internalType": "bytes32[]",
              "name": "phases",
              "type": "bytes32[]"
            },
            {
              "internalType": "string",
              "name": "metadata",
              "type": "string"
            }
          ],
          "internalType": "struct MembershipsTypes.Campaign[]",
          "name": "",
          "type": "tuple[]"
        }
      ],
      "stateMutability": "view",
      "type": "function"
    },
    {
      "inputs": [
        {
          "internalType": "address",
          "name": "referral",
          "type": "address"
        }
      ],
      "name": "getCampaignByReferral",
      "outputs": [
        {
          "internalType": "uint256",
          "name": "",
          "type": "uint256"
        },
        {
          "components": [
            {
              "internalType": "bytes32",
              "name": "campaignId",
              "type": "bytes32"
            },
            {
              "internalType": "bytes32[]",
              "name": "phases",
              "type": "bytes32[]"
            },
            {
              "internalType": "string",
              "name": "metadata",
              "type": "string"
            }
          ],
          "internalType": "struct MembershipsTypes.Campaign[]",
          "name": "",
          "type": "tuple[]"
        }
      ],
      "stateMutability": "view",
      "type": "function"
    },
    {
      "inputs": [
        {
          "internalType": "bytes32",
          "name": "schedule",
          "type": "bytes32"
        }
      ],
      "name": "getCampaignBySchedule",
      "outputs": [
        {
          "components": [
            {
              "internalType": "bytes32",
              "name": "campaignId",
              "type": "bytes32"
            },
            {
              "internalType": "uint256",
              "name": "campaignIndex",
              "type": "uint256"
            },
            {
              "internalType": "uint256",
              "name": "scheduleIndex",
              "type": "uint256"
            }
          ],
          "internalType": "struct MembershipsTypes.ScheduleCampaign",
          "name": "",
          "type": "tuple"
        }
      ],
      "stateMutability": "view",
      "type": "function"
    },
    {
      "inputs": [],
      "name": "getCampaignsLength",
      "outputs": [
        {
          "internalType": "uint256",
          "name": "",
          "type": "uint256"
        }
      ],
      "stateMutability": "view",
      "type": "function"
    },
    {
      "inputs": [
        {
          "internalType": "bytes32",
          "name": "scheduleID",
          "type": "bytes32"
        },
        {
          "internalType": "enum MembershipsTypes.UserType",
          "name": "userType",
          "type": "uint8"
        }
      ],
      "name": "getClaimed",
      "outputs": [
        {
          "internalType": "uint256",
          "name": "",
          "type": "uint256"
        }
      ],
      "stateMutability": "view",
      "type": "function"
    },
    {
      "inputs": [
        {
          "internalType": "bytes32",
          "name": "record",
          "type": "bytes32"
        }
      ],
      "name": "getReferral",
      "outputs": [
        {
          "components": [
            {
              "internalType": "address",
              "name": "referral",
              "type": "address"
            },
            {
              "internalType": "uint256",
              "name": "referralFee",
              "type": "uint256"
            }
          ],
          "internalType": "struct MembershipsTypes.ScheduleReferral",
          "name": "",
          "type": "tuple"
        }
      ],
      "stateMutability": "view",
      "type": "function"
    },
    {
      "inputs": [
        {
          "internalType": "bytes32",
          "name": "scheduleId",
          "type": "bytes32"
        }
      ],
      "name": "getSchedule",
      "outputs": [
        {
          "components": [
            {
              "internalType": "bool",
              "name": "initialized",
              "type": "bool"
            },
            {
              "internalType": "bool",
              "name": "revoked",
              "type": "bool"
            },
            {
              "internalType": "address",
              "name": "owner",
              "type": "address"
            },
            {
              "internalType": "uint256",
              "name": "start",
              "type": "uint256"
            },
            {
              "internalType": "uint256",
              "name": "duration",
              "type": "uint256"
            },
            {
              "internalType": "bytes32",
              "name": "merkleRoot",
              "type": "bytes32"
            },
            {
              "internalType": "uint256",
              "name": "amountTotal",
              "type": "uint256"
            },
            {
              "internalType": "uint256",
              "name": "released",
              "type": "uint256"
            },
            {
              "internalType": "address[]",
              "name": "lotToken",
              "type": "address[]"
            },
            {
              "internalType": "uint256[]",
              "name": "lotSize",
              "type": "uint256[]"
            },
            {
              "components": [
                {
                  "internalType": "address",
                  "name": "token",
                  "type": "address"
                },
                {
                  "internalType": "enum MembershipsTypes.AssetType",
                  "name": "assetType",
                  "type": "uint8"
                }
              ],
              "internalType": "struct MembershipsTypes.Asset",
              "name": "paymentAsset",
              "type": "tuple"
            },
            {
              "internalType": "uint256",
              "name": "pricePerLot",
              "type": "uint256"
            },
            {
              "internalType": "uint256",
              "name": "rollFee",
              "type": "uint256"
            },
            {
              "internalType": "uint256",
              "name": "maxBuyPerWallet",
              "type": "uint256"
            }
          ],
          "internalType": "struct MembershipsTypes.MintingSchedule",
          "name": "",
          "type": "tuple"
        }
      ],
      "stateMutability": "view",
      "type": "function"
    }
  ],
  "bytecode": "0x60806040523480156200001157600080fd5b50604051620024a6380380620024a6833981810160405281019062000037919062000095565b806000806101000a81548173ffffffffffffffffffffffffffffffffffffffff021916908373ffffffffffffffffffffffffffffffffffffffff160217905550506200011a565b6000815190506200008f8162000100565b92915050565b600060208284031215620000ae57620000ad620000fb565b5b6000620000be848285016200007e565b91505092915050565b6000620000d482620000db565b9050919050565b600073ffffffffffffffffffffffffffffffffffffffff82169050919050565b600080fd5b6200010b81620000c7565b81146200011757600080fd5b50565b61237c806200012a6000396000f3fe608060405234801561001057600080fd5b506004361061009e5760003560e01c8063ac886f2611610066578063ac886f2614610193578063e3ba797a146101c3578063efc427b7146101f4578063f3e2ec1614610224578063fb5474ae146102555761009e565b80633adc277a146100a35780633c639278146100d35780635598f8cc14610103578063786dd9dd1461013357806382e58d5114610163575b600080fd5b6100bd60048036038101906100b89190611592565b610273565b6040516100ca9190611dec565b60405180910390f35b6100ed60048036038101906100e891906115bf565b610330565b6040516100fa9190611e44565b60405180910390f35b61011d60048036038101906101189190611751565b6103e6565b60405161012a9190611dca565b60405180910390f35b61014d60048036038101906101489190611592565b6104a3565b60405161015a9190611e0e565b60405180910390f35b61017d60048036038101906101789190611592565b610585565b60405161018a9190611e29565b60405180910390f35b6101ad60048036038101906101a89190611592565b61063c565b6040516101ba9190611e44565b60405180910390f35b6101dd60048036038101906101d89190611565565b6106ef565b6040516101eb929190611e5f565b60405180910390f35b61020e600480360381019061020991906115ff565b6109e7565b60405161021b9190611e44565b60405180910390f35b61023e60048036038101906102399190611565565b610a9d565b60405161024c929190611e5f565b60405180910390f35b61025d610d95565b60405161026a9190611e44565b60405180910390f35b61027b610e3b565b60008054906101000a900473ffffffffffffffffffffffffffffffffffffffff1673ffffffffffffffffffffffffffffffffffffffff16633adc277a836040518263ffffffff1660e01b81526004016102d49190611d5d565b60006040518083038186803b1580156102ec57600080fd5b505afa158015610300573d6000803e3d6000fd5b505050506040513d6000823e3d601f19601f8201168201806040525081019061032991906116db565b9050919050565b60008060009054906101000a900473ffffffffffffffffffffffffffffffffffffffff1673ffffffffffffffffffffffffffffffffffffffff16633c63927884846040518363ffffffff1660e01b815260040161038e929190611d78565b60206040518083038186803b1580156103a657600080fd5b505afa1580156103ba573d6000803e3d6000fd5b505050506040513d601f19601f820116820180604052508101906103de919061177e565b905092915050565b6103ee610ecd565b60008054906101000a900473ffffffffffffffffffffffffffffffffffffffff1673ffffffffffffffffffffffffffffffffffffffff16635598f8cc836040518263ffffffff1660e01b81526004016104479190611e44565b60006040518083038186803b15801561045f57600080fd5b505afa158015610473573d6000803e3d6000fd5b505050506040513d6000823e3d601f19601f8201168201806040525081019061049c9190611692565b9050919050565b6104ab610ef1565b60008060008060009054906101000a900473ffffffffffffffffffffffffffffffffffffffff1673ffffffffffffffffffffffffffffffffffffffff1663e4e4f803866040518263ffffffff1660e01b815260040161050a9190611d5d565b60606040518083038186803b15801561052257600080fd5b505afa158015610536573d6000803e3d6000fd5b505050506040513d601f19601f8201168201806040525081019061055a919061163f565b9250925092506040518060600160405280848152602001838152602001828152509350505050919050565b61058d610f15565b60008054906101000a900473ffffffffffffffffffffffffffffffffffffffff1673ffffffffffffffffffffffffffffffffffffffff166382e58d51836040518263ffffffff1660e01b81526004016105e69190611d5d565b604080518083038186803b1580156105fd57600080fd5b505afa158015610611573d6000803e3d6000fd5b505050506040513d601f19601f820116820180604052508101906106359190611724565b9050919050565b60008060009054906101000a900473ffffffffffffffffffffffffffffffffffffffff1673ffffffffffffffffffffffffffffffffffffffff1663ac886f26836040518263ffffffff1660e01b81526004016106989190611d5d565b60206040518083038186803b1580156106b057600080fd5b505afa1580156106c4573d6000803e3d6000fd5b505050506040513d601f19601f820116820180604052508101906106e8919061177e565b9050919050565b6000606060008060009054906101000a900473ffffffffffffffffffffffffffffffffffffffff1673ffffffffffffffffffffffffffffffffffffffff1663b3b736a3856040518263ffffffff1660e01b815260040161074f9190611d19565b60206040518083038186803b15801561076757600080fd5b505afa15801561077b573d6000803e3d6000fd5b505050506040513d601f19601f8201168201806040525081019061079f919061177e565b905060008167ffffffffffffffff8111156107bd576107bc61223f565b5b6040519080825280602002602001820160405280156107f657816020015b6107e3610ecd565b8152602001906001900390816107db5790505b5090506000805b838110156109d85760008060008054906101000a900473ffffffffffffffffffffffffffffffffffffffff1673ffffffffffffffffffffffffffffffffffffffff166338ff4d578a856040518363ffffffff1660e01b8152600401610863929190611d34565b604080518083038186803b15801561087a57600080fd5b505afa15801561088e573d6000803e3d6000fd5b505050506040513d601f19601f820116820180604052508101906108b291906117ab565b91509150600260038111156108ca576108c96121e1565b5b8160038111156108dd576108dc6121e1565b5b14156109c35760008060009054906101000a900473ffffffffffffffffffffffffffffffffffffffff1673ffffffffffffffffffffffffffffffffffffffff16635598f8cc846040518263ffffffff1660e01b815260040161093f9190611e44565b60006040518083038186803b15801561095757600080fd5b505afa15801561096b573d6000803e3d6000fd5b505050506040513d6000823e3d601f19601f820116820180604052508101906109949190611692565b9050808686806109a390612169565b9750815181106109b6576109b5612210565b5b6020026020010181905250505b505080806109d090612169565b9150506107fd565b50808294509450505050915091565b60008060009054906101000a900473ffffffffffffffffffffffffffffffffffffffff1673ffffffffffffffffffffffffffffffffffffffff1663efc427b784846040518363ffffffff1660e01b8152600401610a45929190611da1565b60206040518083038186803b158015610a5d57600080fd5b505afa158015610a71573d6000803e3d6000fd5b505050506040513d601f19601f82011682018060405250810190610a95919061177e565b905092915050565b6000606060008060009054906101000a900473ffffffffffffffffffffffffffffffffffffffff1673ffffffffffffffffffffffffffffffffffffffff1663b3b736a3856040518263ffffffff1660e01b8152600401610afd9190611d19565b60206040518083038186803b158015610b1557600080fd5b505afa158015610b29573d6000803e3d6000fd5b505050506040513d601f19601f82011682018060405250810190610b4d919061177e565b905060008167ffffffffffffffff811115610b6b57610b6a61223f565b5b604051908082528060200260200182016040528015610ba457816020015b610b91610ecd565b815260200190600190039081610b895790505b5090506000805b83811015610d865760008060008054906101000a900473ffffffffffffffffffffffffffffffffffffffff1673ffffffffffffffffffffffffffffffffffffffff166338ff4d578a856040518363ffffffff1660e01b8152600401610c11929190611d34565b604080518083038186803b158015610c2857600080fd5b505afa158015610c3c573d6000803e3d6000fd5b505050506040513d601f19601f82011682018060405250810190610c6091906117ab565b9150915060006003811115610c7857610c776121e1565b5b816003811115610c8b57610c8a6121e1565b5b1415610d715760008060009054906101000a900473ffffffffffffffffffffffffffffffffffffffff1673ffffffffffffffffffffffffffffffffffffffff16635598f8cc846040518263ffffffff1660e01b8152600401610ced9190611e44565b60006040518083038186803b158015610d0557600080fd5b505afa158015610d19573d6000803e3d6000fd5b505050506040513d6000823e3d601f19601f82011682018060405250810190610d429190611692565b905080868680610d5190612169565b975081518110610d6457610d63612210565b5b6020026020010181905250505b50508080610d7e90612169565b915050610bab565b50808294509450505050915091565b60008060009054906101000a900473ffffffffffffffffffffffffffffffffffffffff1673ffffffffffffffffffffffffffffffffffffffff1663fb5474ae6040518163ffffffff1660e01b815260040160206040518083038186803b158015610dfe57600080fd5b505afa158015610e12573d6000803e3d6000fd5b505050506040513d601f19601f82011682018060405250810190610e36919061177e565b905090565b604051806101c00160405280600015158152602001600015158152602001600073ffffffffffffffffffffffffffffffffffffffff16815260200160008152602001600081526020016000801916815260200160008152602001600081526020016060815260200160608152602001610eb2610f45565b81526020016000815260200160008152602001600081525090565b60405180606001604052806000801916815260200160608152602001606081525090565b60405180606001604052806000801916815260200160008152602001600081525090565b6040518060400160405280600073ffffffffffffffffffffffffffffffffffffffff168152602001600081525090565b6040518060400160405280600073ffffffffffffffffffffffffffffffffffffffff16815260200160006001811115610f8157610f806121e1565b5b81525090565b6000610f9a610f9584611eb4565b611e8f565b90508083825260208201905082856020860282011115610fbd57610fbc61227d565b5b60005b85811015610fed5781610fd3888261112e565b845260208401935060208301925050600181019050610fc0565b5050509392505050565b600061100a61100584611ee0565b611e8f565b9050808382526020820190508285602086028201111561102d5761102c61227d565b5b60005b8581101561105d578161104388826111f7565b845260208401935060208301925050600181019050611030565b5050509392505050565b600061107a61107584611f0c565b611e8f565b9050808382526020820190508285602086028201111561109d5761109c61227d565b5b60005b858110156110cd57816110b38882611550565b8452602084019350602083019250506001810190506110a0565b5050509392505050565b60006110ea6110e584611f38565b611e8f565b90508281526020810184848401111561110657611105612282565b5b611111848285612105565b509392505050565b600081359050611128816122ca565b92915050565b60008151905061113d816122ca565b92915050565b600082601f8301126111585761115761226e565b5b8151611168848260208601610f87565b91505092915050565b600082601f8301126111865761118561226e565b5b8151611196848260208601610ff7565b91505092915050565b600082601f8301126111b4576111b361226e565b5b81516111c4848260208601611067565b91505092915050565b6000815190506111dc816122e1565b92915050565b6000813590506111f1816122f8565b92915050565b600081519050611206816122f8565b92915050565b60008151905061121b8161230f565b92915050565b6000813590506112308161231f565b92915050565b6000815190506112458161231f565b92915050565b600082601f8301126112605761125f61226e565b5b81516112708482602086016110d7565b91505092915050565b60006040828403121561128f5761128e612273565b5b6112996040611e8f565b905060006112a98482850161112e565b60008301525060206112bd8482850161120c565b60208301525092915050565b6000606082840312156112df576112de612273565b5b6112e96060611e8f565b905060006112f9848285016111f7565b600083015250602082015167ffffffffffffffff81111561131d5761131c612278565b5b61132984828501611171565b602083015250604082015167ffffffffffffffff81111561134d5761134c612278565b5b6113598482850161124b565b60408301525092915050565b60006101e0828403121561137c5761137b612273565b5b6113876101c0611e8f565b90506000611397848285016111cd565b60008301525060206113ab848285016111cd565b60208301525060406113bf8482850161112e565b60408301525060606113d384828501611550565b60608301525060806113e784828501611550565b60808301525060a06113fb848285016111f7565b60a08301525060c061140f84828501611550565b60c08301525060e061142384828501611550565b60e08301525061010082015167ffffffffffffffff81111561144857611447612278565b5b61145484828501611143565b6101008301525061012082015167ffffffffffffffff81111561147a57611479612278565b5b6114868482850161119f565b6101208301525061014061149c84828501611279565b610140830152506101806114b284828501611550565b610160830152506101a06114c884828501611550565b610180830152506101c06114de84828501611550565b6101a08301525092915050565b60006040828403121561150157611500612273565b5b61150b6040611e8f565b9050600061151b8482850161112e565b600083015250602061152f84828501611550565b60208301525092915050565b60008135905061154a8161232f565b92915050565b60008151905061155f8161232f565b92915050565b60006020828403121561157b5761157a61228c565b5b600061158984828501611119565b91505092915050565b6000602082840312156115a8576115a761228c565b5b60006115b6848285016111e2565b91505092915050565b600080604083850312156115d6576115d561228c565b5b60006115e4858286016111e2565b92505060206115f585828601611119565b9150509250929050565b600080604083850312156116165761161561228c565b5b6000611624858286016111e2565b925050602061163585828601611221565b9150509250929050565b6000806000606084860312156116585761165761228c565b5b6000611666868287016111f7565b935050602061167786828701611550565b925050604061168886828701611550565b9150509250925092565b6000602082840312156116a8576116a761228c565b5b600082015167ffffffffffffffff8111156116c6576116c5612287565b5b6116d2848285016112c9565b91505092915050565b6000602082840312156116f1576116f061228c565b5b600082015167ffffffffffffffff81111561170f5761170e612287565b5b61171b84828501611365565b91505092915050565b60006040828403121561173a5761173961228c565b5b6000611748848285016114eb565b91505092915050565b6000602082840312156117675761176661228c565b5b60006117758482850161153b565b91505092915050565b6000602082840312156117945761179361228c565b5b60006117a284828501611550565b91505092915050565b600080604083850312156117c2576117c161228c565b5b60006117d085828601611550565b92505060206117e185828601611236565b9150509250929050565b60006117f78383611847565b60208301905092915050565b600061180f8383611a03565b60208301905092915050565b60006118278383611aa7565b905092915050565b600061183b8383611cfb565b60208301905092915050565b61185081612069565b82525050565b61185f81612069565b82525050565b600061187082611fa9565b61187a8185612014565b935061188583611f69565b8060005b838110156118b657815161189d88826117eb565b97506118a883611fe0565b925050600181019050611889565b5085935050505092915050565b60006118ce82611fb4565b6118d88185612025565b93506118e383611f79565b8060005b838110156119145781516118fb8882611803565b975061190683611fed565b9250506001810190506118e7565b5085935050505092915050565b600061192c82611fbf565b6119368185612036565b93508360208202850161194885611f89565b8060005b858110156119845784840389528151611965858261181b565b945061197083611ffa565b925060208a0199505060018101905061194c565b50829750879550505050505092915050565b60006119a182611fca565b6119ab8185612047565b93506119b683611f99565b8060005b838110156119e75781516119ce888261182f565b97506119d983612007565b9250506001810190506119ba565b5085935050505092915050565b6119fd8161207b565b82525050565b611a0c81612087565b82525050565b611a1b81612087565b82525050565b611a2a816120e1565b82525050565b611a39816120f3565b82525050565b6000611a4a82611fd5565b611a548185612058565b9350611a64818560208601612105565b611a6d81612291565b840191505092915050565b604082016000820151611a8e6000850182611847565b506020820151611aa16020850182611a21565b50505050565b6000606083016000830151611abf6000860182611a03565b5060208301518482036020860152611ad782826118c3565b91505060408301518482036040860152611af18282611a3f565b9150508091505092915050565b6000606083016000830151611b166000860182611a03565b5060208301518482036020860152611b2e82826118c3565b91505060408301518482036040860152611b488282611a3f565b9150508091505092915050565b60006101e083016000830151611b6e60008601826119f4565b506020830151611b8160208601826119f4565b506040830151611b946040860182611847565b506060830151611ba76060860182611cfb565b506080830151611bba6080860182611cfb565b5060a0830151611bcd60a0860182611a03565b5060c0830151611be060c0860182611cfb565b5060e0830151611bf360e0860182611cfb565b50610100830151848203610100860152611c0d8282611865565b915050610120830151848203610120860152611c298282611996565b915050610140830151611c40610140860182611a78565b50610160830151611c55610180860182611cfb565b50610180830151611c6a6101a0860182611cfb565b506101a0830151611c7f6101c0860182611cfb565b508091505092915050565b606082016000820151611ca06000850182611a03565b506020820151611cb36020850182611cfb565b506040820151611cc66040850182611cfb565b50505050565b604082016000820151611ce26000850182611847565b506020820151611cf56020850182611cfb565b50505050565b611d04816120d7565b82525050565b611d13816120d7565b82525050565b6000602082019050611d2e6000830184611856565b92915050565b6000604082019050611d496000830185611856565b611d566020830184611d0a565b9392505050565b6000602082019050611d726000830184611a12565b92915050565b6000604082019050611d8d6000830185611a12565b611d9a6020830184611856565b9392505050565b6000604082019050611db66000830185611a12565b611dc36020830184611a30565b9392505050565b60006020820190508181036000830152611de48184611afe565b905092915050565b60006020820190508181036000830152611e068184611b55565b905092915050565b6000606082019050611e236000830184611c8a565b92915050565b6000604082019050611e3e6000830184611ccc565b92915050565b6000602082019050611e596000830184611d0a565b92915050565b6000604082019050611e746000830185611d0a565b8181036020830152611e868184611921565b90509392505050565b6000611e99611eaa565b9050611ea58282612138565b919050565b6000604051905090565b600067ffffffffffffffff821115611ecf57611ece61223f565b5b602082029050602081019050919050565b600067ffffffffffffffff821115611efb57611efa61223f565b5b602082029050602081019050919050565b600067ffffffffffffffff821115611f2757611f2661223f565b5b602082029050602081019050919050565b600067ffffffffffffffff821115611f5357611f5261223f565b5b611f5c82612291565b9050602081019050919050565b6000819050602082019050919050565b6000819050602082019050919050565b6000819050602082019050919050565b6000819050602082019050919050565b600081519050919050565b600081519050919050565b600081519050919050565b600081519050919050565b600081519050919050565b6000602082019050919050565b6000602082019050919050565b6000602082019050919050565b6000602082019050919050565b600082825260208201905092915050565b600082825260208201905092915050565b600082825260208201905092915050565b600082825260208201905092915050565b600082825260208201905092915050565b6000612074826120b7565b9050919050565b60008115159050919050565b6000819050919050565b600081905061209f826122a2565b919050565b60008190506120b2826122b6565b919050565b600073ffffffffffffffffffffffffffffffffffffffff82169050919050565b6000819050919050565b60006120ec82612091565b9050919050565b60006120fe826120a4565b9050919050565b60005b83811015612123578082015181840152602081019050612108565b83811115612132576000848401525b50505050565b61214182612291565b810181811067ffffffffffffffff821117156121605761215f61223f565b5b80604052505050565b6000612174826120d7565b91507fffffffffffffffffffffffffffffffffffffffffffffffffffffffffffffffff8214156121a7576121a66121b2565b5b600182019050919050565b7f4e487b7100000000000000000000000000000000000000000000000000000000600052601160045260246000fd5b7f4e487b7100000000000000000000000000000000000000000000000000000000600052602160045260246000fd5b7f4e487b7100000000000000000000000000000000000000000000000000000000600052603260045260246000fd5b7f4e487b7100000000000000000000000000000000000000000000000000000000600052604160045260246000fd5b600080fd5b600080fd5b600080fd5b600080fd5b600080fd5b600080fd5b600080fd5b6000601f19601f8301169050919050565b600281106122b3576122b26121e1565b5b50565b600481106122c7576122c66121e1565b5b50565b6122d381612069565b81146122de57600080fd5b50565b6122ea8161207b565b81146122f557600080fd5b50565b61230181612087565b811461230c57600080fd5b50565b6002811061231c57600080fd5b50565b6004811061232c57600080fd5b50565b612338816120d7565b811461234357600080fd5b5056fea26469706673582212204ce47a61dea6bdf7bb5543c471fc33ed0219de1d4f9d686fa68e7decb6e251ad64736f6c63430008070033",
  "linkReferences": {},
  "deployedLinkReferences": {}
}