{
  "_format": "hh-sol-artifact-1",
  "contractName": "Memberships",
  "sourceName": "contracts/Memberships.sol",
  "abi": [
    {
      "inputs": [
        {
          "internalType": "address",
          "name": "_eternalStorage",
          "type": "address"
        },
        {
          "internalType": "address",
          "name": "_membershipsImpl",
          "type": "address"
        }
      ],
      "stateMutability": "nonpayable",
      "type": "constructor"
    },
    {
      "inputs": [
        {
          "internalType": "uint256",
          "name": "minRollFee",
          "type": "uint256"
        },
        {
          "internalType": "uint256",
          "name": "maxFee",
          "type": "uint256"
        }
      ],
      "name": "ErrorME01InvalidFee",
      "type": "error"
    },
    {
      "inputs": [],
      "name": "ErrorME02TokenNotAllowed",
      "type": "error"
    },
    {
      "inputs": [],
      "name": "ErrorME03NotEnoughTokens",
      "type": "error"
    },
    {
      "inputs": [],
      "name": "ErrorME04NotEnoughPhases",
      "type": "error"
    },
    {
      "inputs": [],
      "name": "ErrorME05OnlyOwnerAllowed",
      "type": "error"
    },
    {
      "inputs": [],
      "name": "ErrorME06ScheduleDoesNotExists",
      "type": "error"
    },
    {
      "inputs": [],
      "name": "ErrorME07ScheduleRevoked",
      "type": "error"
    },
    {
      "inputs": [],
      "name": "ErrorME08ScheduleNotActive",
      "type": "error"
    },
    {
      "inputs": [],
      "name": "ErrorME09ScheduleNotFinished",
      "type": "error"
    },
    {
      "inputs": [],
      "name": "ErrorME10ActionAllowlisted",
      "type": "error"
    },
    {
      "inputs": [],
      "name": "ErrorME11TransferError",
      "type": "error"
    },
    {
      "inputs": [],
      "name": "ErrorME12IndexOutOfBounds",
      "type": "error"
    },
    {
      "inputs": [],
      "name": "ErrorME13InvalidAddress",
      "type": "error"
    },
    {
      "inputs": [],
      "name": "ErrorME14BetaPeriodAlreadyFinish",
      "type": "error"
    },
    {
      "anonymous": false,
      "inputs": [
        {
          "indexed": true,
          "internalType": "address",
          "name": "from",
          "type": "address"
        },
        {
          "indexed": false,
          "internalType": "address",
          "name": "addr",
          "type": "address"
        }
      ],
      "name": "EventEternalStorageUpdated",
      "type": "event"
    },
    {
      "anonymous": false,
      "inputs": [
        {
          "indexed": true,
          "internalType": "address",
          "name": "from",
          "type": "address"
        },
        {
          "indexed": false,
          "internalType": "address",
          "name": "addr",
          "type": "address"
        }
      ],
      "name": "EventMembershipsImplUpdated",
      "type": "event"
    },
    {
      "anonymous": false,
      "inputs": [
        {
          "indexed": true,
          "internalType": "address",
          "name": "from",
          "type": "address"
        },
        {
          "indexed": true,
          "internalType": "bytes32",
          "name": "scheduleId",
          "type": "bytes32"
        },
        {
          "indexed": false,
          "internalType": "address",
          "name": "newReferral",
          "type": "address"
        }
      ],
      "name": "EventReferralUpdated",
      "type": "event"
    },
    {
      "anonymous": false,
      "inputs": [
        {
          "indexed": true,
          "internalType": "address",
          "name": "from",
          "type": "address"
        },
        {
          "indexed": false,
          "internalType": "address",
          "name": "addr",
          "type": "address"
        }
      ],
      "name": "EventRollWalletUpdated",
      "type": "event"
    },
    {
      "anonymous": false,
      "inputs": [
        {
          "indexed": true,
          "internalType": "address",
          "name": "from",
          "type": "address"
        },
        {
          "indexed": true,
          "internalType": "bytes32",
          "name": "scheduleId",
          "type": "bytes32"
        }
      ],
      "name": "EventScheduleCreated",
      "type": "event"
    },
    {
      "anonymous": false,
      "inputs": [
        {
          "indexed": true,
          "internalType": "address",
          "name": "from",
          "type": "address"
        },
        {
          "indexed": true,
          "internalType": "bytes32",
          "name": "scheduleId",
          "type": "bytes32"
        },
        {
          "indexed": true,
          "internalType": "address",
          "name": "token",
          "type": "address"
        }
      ],
      "name": "EventScheduleCreatedWithToken",
      "type": "event"
    },
    {
      "anonymous": false,
      "inputs": [
        {
          "indexed": true,
          "internalType": "address",
          "name": "from",
          "type": "address"
        },
        {
          "indexed": false,
          "internalType": "address",
          "name": "token",
          "type": "address"
        },
        {
          "indexed": false,
          "internalType": "bool",
          "name": "value",
          "type": "bool"
        }
      ],
      "name": "EventTokenAllowedUpdated",
      "type": "event"
    },
    {
      "anonymous": false,
      "inputs": [
        {
          "indexed": true,
          "internalType": "address",
          "name": "previousOwner",
          "type": "address"
        },
        {
          "indexed": true,
          "internalType": "address",
          "name": "newOwner",
          "type": "address"
        }
      ],
      "name": "OwnershipTransferred",
      "type": "event"
    },
    {
      "anonymous": false,
      "inputs": [
        {
          "indexed": false,
          "internalType": "address",
          "name": "account",
          "type": "address"
        }
      ],
      "name": "Paused",
      "type": "event"
    },
    {
      "anonymous": false,
      "inputs": [
        {
          "indexed": true,
          "internalType": "bytes32",
          "name": "scheduleId",
          "type": "bytes32"
        }
      ],
      "name": "Revoked",
      "type": "event"
    },
    {
      "anonymous": false,
      "inputs": [
        {
          "indexed": false,
          "internalType": "address",
          "name": "account",
          "type": "address"
        }
      ],
      "name": "Unpaused",
      "type": "event"
    },
    {
      "stateMutability": "payable",
      "type": "fallback"
    },
    {
      "inputs": [
        {
          "internalType": "bytes32",
          "name": "scheduleId",
          "type": "bytes32"
        },
        {
          "internalType": "uint256",
          "name": "amount",
          "type": "uint256"
        }
      ],
      "name": "buy",
      "outputs": [],
      "stateMutability": "payable",
      "type": "function"
    },
    {
      "inputs": [
        {
          "internalType": "bytes32",
          "name": "scheduleId",
          "type": "bytes32"
        },
        {
          "internalType": "uint256",
          "name": "amount",
          "type": "uint256"
        },
        {
          "internalType": "bytes32[]",
          "name": "proof",
          "type": "bytes32[]"
        }
      ],
      "name": "buyWithAllowlist",
      "outputs": [],
      "stateMutability": "payable",
      "type": "function"
    },
    {
      "inputs": [
        {
          "internalType": "bytes32",
          "name": "scheduleId",
          "type": "bytes32"
        }
      ],
      "name": "claim",
      "outputs": [],
      "stateMutability": "nonpayable",
      "type": "function"
    },
    {
      "inputs": [
        {
          "internalType": "bytes32",
          "name": "scheduleId",
          "type": "bytes32"
        }
      ],
      "name": "claimReferral",
      "outputs": [],
      "stateMutability": "nonpayable",
      "type": "function"
    },
    {
      "inputs": [
        {
          "internalType": "bytes32",
          "name": "scheduleId",
          "type": "bytes32"
        }
      ],
      "name": "claimRoll",
      "outputs": [],
      "stateMutability": "nonpayable",
      "type": "function"
    },
    {
      "inputs": [
        {
          "internalType": "bytes32",
          "name": "scheduleId",
          "type": "bytes32"
        }
      ],
      "name": "claimUnsoldTokens",
      "outputs": [],
      "stateMutability": "nonpayable",
      "type": "function"
    },
    {
      "inputs": [
        {
          "internalType": "bytes32",
          "name": "scheduleId",
          "type": "bytes32"
        }
      ],
      "name": "computeReleasableAmount",
      "outputs": [
        {
          "internalType": "uint256",
          "name": "",
          "type": "uint256"
        }
      ],
      "stateMutability": "view",
      "type": "function"
    },
    {
      "inputs": [
        {
          "internalType": "address",
          "name": "holder",
          "type": "address"
        },
        {
          "internalType": "uint256",
          "name": "index",
          "type": "uint256"
        },
        {
          "internalType": "uint256",
          "name": "length",
          "type": "uint256"
        }
      ],
      "name": "computeScheduleIdForAddressAndIndex",
      "outputs": [
        {
          "internalType": "bytes32",
          "name": "",
          "type": "bytes32"
        }
      ],
      "stateMutability": "pure",
      "type": "function"
    },
    {
      "inputs": [
        {
          "components": [
            {
              "internalType": "uint256",
              "name": "start",
              "type": "uint256"
            },
            {
              "internalType": "uint256",
              "name": "duration",
              "type": "uint256"
            },
            {
              "internalType": "bytes32",
              "name": "merkleRoot",
              "type": "bytes32"
            },
            {
              "internalType": "uint256",
              "name": "amountTotal",
              "type": "uint256"
            },
            {
              "internalType": "address[]",
              "name": "lotToken",
              "type": "address[]"
            },
            {
              "internalType": "uint256[]",
              "name": "lotSize",
              "type": "uint256[]"
            },
            {
              "internalType": "uint256",
              "name": "pricePerLot",
              "type": "uint256"
            },
            {
              "components": [
                {
                  "internalType": "address",
                  "name": "token",
                  "type": "address"
                },
                {
                  "internalType": "enum MembershipsTypes.AssetType",
                  "name": "assetType",
                  "type": "uint8"
                }
              ],
              "internalType": "struct MembershipsTypes.Asset",
              "name": "paymentAsset",
              "type": "tuple"
            },
            {
              "internalType": "uint256",
              "name": "rollFee",
              "type": "uint256"
            },
            {
              "internalType": "address",
              "name": "referral",
              "type": "address"
            },
            {
              "internalType": "uint256",
              "name": "referralFee",
              "type": "uint256"
            },
            {
              "internalType": "uint256",
              "name": "maxBuyPerWallet",
              "type": "uint256"
            }
          ],
          "internalType": "struct MembershipsTypes.CreateMintingScheduleParams[]",
          "name": "params",
          "type": "tuple[]"
        },
        {
          "internalType": "string",
          "name": "metadata",
          "type": "string"
        }
      ],
      "name": "createCampaign",
      "outputs": [],
      "stateMutability": "nonpayable",
      "type": "function"
    },
    {
      "inputs": [
        {
          "internalType": "enum MembershipsTypes.AssetType",
          "name": "assetType",
          "type": "uint8"
        },
        {
          "internalType": "address",
          "name": "token",
          "type": "address"
        },
        {
          "internalType": "address",
          "name": "from",
          "type": "address"
        },
        {
          "internalType": "address",
          "name": "to",
          "type": "address"
        },
        {
          "internalType": "uint256",
          "name": "value",
          "type": "uint256"
        }
      ],
      "name": "doTransfer",
      "outputs": [],
      "stateMutability": "nonpayable",
      "type": "function"
    },
    {
      "inputs": [],
      "name": "owner",
      "outputs": [
        {
          "internalType": "address",
          "name": "",
          "type": "address"
        }
      ],
      "stateMutability": "view",
      "type": "function"
    },
    {
      "inputs": [],
      "name": "pause",
      "outputs": [],
      "stateMutability": "nonpayable",
      "type": "function"
    },
    {
      "inputs": [],
      "name": "paused",
      "outputs": [
        {
          "internalType": "bool",
          "name": "",
          "type": "bool"
        }
      ],
      "stateMutability": "view",
      "type": "function"
    },
    {
      "inputs": [],
      "name": "renounceOwnership",
      "outputs": [],
      "stateMutability": "nonpayable",
      "type": "function"
    },
    {
      "inputs": [
        {
          "internalType": "bytes32",
          "name": "scheduleId",
          "type": "bytes32"
        }
      ],
      "name": "revoke",
      "outputs": [],
      "stateMutability": "nonpayable",
      "type": "function"
    },
    {
      "inputs": [
        {
          "internalType": "bytes32",
          "name": "scheduleId",
          "type": "bytes32"
        },
        {
          "internalType": "bytes32",
          "name": "root",
          "type": "bytes32"
        }
      ],
      "name": "setAllowlist",
      "outputs": [],
      "stateMutability": "nonpayable",
      "type": "function"
    },
    {
      "inputs": [
        {
          "internalType": "address",
          "name": "addr",
          "type": "address"
        }
      ],
      "name": "setEternalStorageAddress",
      "outputs": [],
      "stateMutability": "nonpayable",
      "type": "function"
    },
    {
      "inputs": [
        {
          "internalType": "address",
          "name": "addr",
          "type": "address"
        }
      ],
      "name": "setMembershipsImplAddress",
      "outputs": [],
      "stateMutability": "nonpayable",
      "type": "function"
    },
    {
      "inputs": [
        {
          "internalType": "uint256",
          "name": "newMinRollFee",
          "type": "uint256"
        }
      ],
      "name": "setMinRollFee",
      "outputs": [],
      "stateMutability": "nonpayable",
      "type": "function"
    },
    {
      "inputs": [
        {
          "internalType": "address",
          "name": "newRollWallet",
          "type": "address"
        }
      ],
      "name": "setRollWallet",
      "outputs": [],
      "stateMutability": "nonpayable",
      "type": "function"
    },
    {
      "inputs": [
        {
          "internalType": "address",
          "name": "token",
          "type": "address"
        },
        {
          "internalType": "bool",
          "name": "value",
          "type": "bool"
        }
      ],
      "name": "setTokenAllow",
      "outputs": [],
      "stateMutability": "nonpayable",
      "type": "function"
    },
    {
      "inputs": [
        {
          "internalType": "address",
          "name": "newOwner",
          "type": "address"
        }
      ],
      "name": "transferOwnership",
      "outputs": [],
      "stateMutability": "nonpayable",
      "type": "function"
    },
    {
      "inputs": [
        {
          "internalType": "bytes32",
          "name": "scheduleId",
          "type": "bytes32"
        },
        {
          "internalType": "address",
          "name": "owner",
          "type": "address"
        }
      ],
      "name": "transferScheduleOwner",
      "outputs": [],
      "stateMutability": "nonpayable",
      "type": "function"
    },
    {
      "inputs": [
        {
          "internalType": "bytes32",
          "name": "scheduleId",
          "type": "bytes32"
        },
        {
          "internalType": "address",
          "name": "referral",
          "type": "address"
        }
      ],
      "name": "updateReferral",
      "outputs": [],
      "stateMutability": "nonpayable",
      "type": "function"
    },
    {
      "stateMutability": "payable",
      "type": "receive"
    }
  ],
  "bytecode": "0x60a06040523480156200001157600080fd5b5060405162005a0238038062005a028339818101604052810190620000379190620002c2565b620000576200004b620001d760201b60201c565b620001df60201b60201c565b60008060146101000a81548160ff02191690831515021790555060018081905550600073ffffffffffffffffffffffffffffffffffffffff168273ffffffffffffffffffffffffffffffffffffffff161480620000e05750600073ffffffffffffffffffffffffffffffffffffffff168173ffffffffffffffffffffffffffffffffffffffff16145b1562000118576040517fdae3f98f00000000000000000000000000000000000000000000000000000000815260040160405180910390fd5b81600260006101000a81548173ffffffffffffffffffffffffffffffffffffffff021916908373ffffffffffffffffffffffffffffffffffffffff16021790555080600360006101000a81548173ffffffffffffffffffffffffffffffffffffffff021916908373ffffffffffffffffffffffffffffffffffffffff1602179055506201518060b4620001ac919062000366565b620001bc620002a360201b60201c565b620001c8919062000309565b60808181525050505062000453565b600033905090565b60008060009054906101000a900473ffffffffffffffffffffffffffffffffffffffff169050816000806101000a81548173ffffffffffffffffffffffffffffffffffffffff021916908373ffffffffffffffffffffffffffffffffffffffff1602179055508173ffffffffffffffffffffffffffffffffffffffff168173ffffffffffffffffffffffffffffffffffffffff167f8be0079c531659141344cd1fd0a4f28419497f9722a3daafe3b4186f6b6457e060405160405180910390a35050565b600042905090565b600081519050620002bc8162000439565b92915050565b60008060408385031215620002dc57620002db62000434565b5b6000620002ec85828601620002ab565b9250506020620002ff85828601620002ab565b9150509250929050565b60006200031682620003fb565b91506200032383620003fb565b9250827fffffffffffffffffffffffffffffffffffffffffffffffffffffffffffffffff038211156200035b576200035a62000405565b5b828201905092915050565b60006200037382620003fb565b91506200038083620003fb565b9250817fffffffffffffffffffffffffffffffffffffffffffffffffffffffffffffffff0483118215151615620003bc57620003bb62000405565b5b828202905092915050565b6000620003d482620003db565b9050919050565b600073ffffffffffffffffffffffffffffffffffffffff82169050919050565b6000819050919050565b7f4e487b7100000000000000000000000000000000000000000000000000000000600052601160045260246000fd5b600080fd5b6200044481620003c7565b81146200045057600080fd5b50565b6080516155936200046f60003960006118d701526155936000f3fe60806040526004361061014f5760003560e01c80638456cb59116100b6578063d1a81d9f1161006f578063d1a81d9f14610414578063d3bcccbd1461043d578063dca9e48d14610466578063e8d3e8c41461048f578063ea1bb3d5146104b8578063f2fde38b146104f557610156565b80638456cb591461032e5780638da5cb5b14610345578063b042657a14610370578063b75c7dc614610399578063bd66528a146103c2578063cbc631c5146103eb57610156565b806339d0e28f1161010857806339d0e28f146102485780635c975abb14610271578063715018a61461029c5780638215b882146102b3578063827430e9146102dc57806383b8473c1461030557610156565b806304e4cb34146101585780630c9b91a8146101745780630ddeb6321461019d57806319e8dc9b146101b957806330ea5903146101f657806335d35ad01461021f57610156565b3661015657005b005b610172600480360381019061016d919061431d565b61051e565b005b34801561018057600080fd5b5061019b6004803603810190610196919061425d565b61081e565b005b6101b760048036038101906101b291906142dd565b6109d1565b005b3480156101c557600080fd5b506101e060048036038101906101db9190614138565b610d37565b6040516101ed9190614d3a565b60405180910390f35b34801561020257600080fd5b5061021d60048036038101906102189190614230565b610d6d565b005b34801561022b57600080fd5b5061024660048036038101906102419190614450565b610fca565b005b34801561025457600080fd5b5061026f600480360381019061026a919061429d565b611050565b005b34801561027d57600080fd5b50610286611203565b6040516102939190614d1f565b60405180910390f35b3480156102a857600080fd5b506102b1611219565b005b3480156102bf57600080fd5b506102da60048036038101906102d5919061425d565b6112a1565b005b3480156102e857600080fd5b5061030360048036038101906102fe9190614230565b6114a3565b005b34801561031157600080fd5b5061032c600480360381019061032791906140cb565b6116dc565b005b34801561033a57600080fd5b50610343611851565b005b34801561035157600080fd5b5061035a611938565b6040516103679190614b61565b60405180910390f35b34801561037c57600080fd5b5061039760048036038101906103929190614230565b611961565b005b3480156103a557600080fd5b506103c060048036038101906103bb9190614230565b611b9a565b005b3480156103ce57600080fd5b506103e960048036038101906103e49190614230565b611e92565b005b3480156103f757600080fd5b50610412600480360381019061040d919061438c565b6120cb565b005b34801561042057600080fd5b5061043b600480360381019061043691906140cb565b6122e1565b005b34801561044957600080fd5b50610464600480360381019061045f91906140cb565b612456565b005b34801561047257600080fd5b5061048d600480360381019061048891906140f8565b6125cb565b005b34801561049b57600080fd5b506104b660048036038101906104b1919061418b565b612759565b005b3480156104c457600080fd5b506104df60048036038101906104da9190614230565b6129c6565b6040516104ec9190614ec4565b60405180910390f35b34801561050157600080fd5b5061051c600480360381019061051791906140cb565b612b7a565b005b610526611203565b15610566576040517f08c379a000000000000000000000000000000000000000000000000000000000815260040161055d90614e20565b60405180910390fd5b600260015414156105ac576040517f08c379a00000000000000000000000000000000000000000000000000000000081526004016105a390614e60565b60405180910390fd5b6002600181905550826000600360009054906101000a900473ffffffffffffffffffffffffffffffffffffffff1673ffffffffffffffffffffffffffffffffffffffff16633adc277a836040518263ffffffff1660e01b81526004016106129190614d3a565b60006040518083038186803b15801561062a57600080fd5b505afa15801561063e573d6000803e3d6000fd5b505050506040513d6000823e3d601f19601f820116820180604052508101906106679190614407565b90508060000151158061067b575080602001515b806106905750610689612c72565b8160600151115b806106b5575061069e612c72565b816080015182606001516106b29190615102565b11155b156106ec576040517f729f015700000000000000000000000000000000000000000000000000000000815260040160405180910390fd5b600360009054906101000a900473ffffffffffffffffffffffffffffffffffffffff1673ffffffffffffffffffffffffffffffffffffffff1663ca2e8df33387866040518463ffffffff1660e01b815260040161074b93929190614cb8565b60006040518083038186803b15801561076357600080fd5b505afa158015610777573d6000803e3d6000fd5b50505050600360009054906101000a900473ffffffffffffffffffffffffffffffffffffffff1673ffffffffffffffffffffffffffffffffffffffff16631d81019d30338888346040518663ffffffff1660e01b81526004016107de959493929190614bdc565b600060405180830381600087803b1580156107f857600080fd5b505af115801561080c573d6000803e3d6000fd5b50505050505060018081905550505050565b816000600360009054906101000a900473ffffffffffffffffffffffffffffffffffffffff1673ffffffffffffffffffffffffffffffffffffffff16633adc277a836040518263ffffffff1660e01b815260040161087c9190614d3a565b60006040518083038186803b15801561089457600080fd5b505afa1580156108a8573d6000803e3d6000fd5b505050506040513d6000823e3d601f19601f820116820180604052508101906108d19190614407565b9050806040015173ffffffffffffffffffffffffffffffffffffffff163373ffffffffffffffffffffffffffffffffffffffff161461093c576040517f3811ecb400000000000000000000000000000000000000000000000000000000815260040160405180910390fd5b600360009054906101000a900473ffffffffffffffffffffffffffffffffffffffff1673ffffffffffffffffffffffffffffffffffffffff16630c9b91a885856040518363ffffffff1660e01b8152600401610999929190614d55565b600060405180830381600087803b1580156109b357600080fd5b505af11580156109c7573d6000803e3d6000fd5b5050505050505050565b6109d9611203565b15610a19576040517f08c379a0000000000000000000000000000000000000000000000000000000008152600401610a1090614e20565b60405180910390fd5b60026001541415610a5f576040517f08c379a0000000000000000000000000000000000000000000000000000000008152600401610a5690614e60565b60405180910390fd5b6002600181905550816000600360009054906101000a900473ffffffffffffffffffffffffffffffffffffffff1673ffffffffffffffffffffffffffffffffffffffff16633adc277a836040518263ffffffff1660e01b8152600401610ac59190614d3a565b60006040518083038186803b158015610add57600080fd5b505afa158015610af1573d6000803e3d6000fd5b505050506040513d6000823e3d601f19601f82011682018060405250810190610b1a9190614407565b905080600001511580610b2e575080602001515b80610b435750610b3c612c72565b8160600151115b80610b685750610b51612c72565b81608001518260600151610b659190615102565b11155b15610b9f576040517f729f015700000000000000000000000000000000000000000000000000000000815260040160405180910390fd5b6000600360009054906101000a900473ffffffffffffffffffffffffffffffffffffffff1673ffffffffffffffffffffffffffffffffffffffff16633adc277a866040518263ffffffff1660e01b8152600401610bfc9190614d3a565b60006040518083038186803b158015610c1457600080fd5b505afa158015610c28573d6000803e3d6000fd5b505050506040513d6000823e3d601f19601f82011682018060405250810190610c519190614407565b905060008019168160a0015114610c94576040517f4568b11c00000000000000000000000000000000000000000000000000000000815260040160405180910390fd5b600360009054906101000a900473ffffffffffffffffffffffffffffffffffffffff1673ffffffffffffffffffffffffffffffffffffffff16631d81019d30338888346040518663ffffffff1660e01b8152600401610cf7959493929190614bdc565b600060405180830381600087803b158015610d1157600080fd5b505af1158015610d25573d6000803e3d6000fd5b50505050505050600180819055505050565b6000838383604051602001610d4e93929190614b0f565b6040516020818303038152906040528051906020012090509392505050565b610d75611203565b15610db5576040517f08c379a0000000000000000000000000000000000000000000000000000000008152600401610dac90614e20565b60405180910390fd5b60026001541415610dfb576040517f08c379a0000000000000000000000000000000000000000000000000000000008152600401610df290614e60565b60405180910390fd5b6002600181905550806000600360009054906101000a900473ffffffffffffffffffffffffffffffffffffffff1673ffffffffffffffffffffffffffffffffffffffff16633adc277a836040518263ffffffff1660e01b8152600401610e619190614d3a565b60006040518083038186803b158015610e7957600080fd5b505afa158015610e8d573d6000803e3d6000fd5b505050506040513d6000823e3d601f19601f82011682018060405250810190610eb69190614407565b9050610ec0612c72565b81608001518260600151610ed49190615102565b10610f0b576040517f7a41948400000000000000000000000000000000000000000000000000000000815260040160405180910390fd5b600360009054906101000a900473ffffffffffffffffffffffffffffffffffffffff1673ffffffffffffffffffffffffffffffffffffffff16631172d77330600460009054906101000a900473ffffffffffffffffffffffffffffffffffffffff16866040518463ffffffff1660e01b8152600401610f8c93929190614ba5565b600060405180830381600087803b158015610fa657600080fd5b505af1158015610fba573d6000803e3d6000fd5b5050505050506001808190555050565b610fd2612c7a565b73ffffffffffffffffffffffffffffffffffffffff16610ff0611938565b73ffffffffffffffffffffffffffffffffffffffff1614611046576040517f08c379a000000000000000000000000000000000000000000000000000000000815260040161103d90614e40565b60405180910390fd5b8060058190555050565b816000600360009054906101000a900473ffffffffffffffffffffffffffffffffffffffff1673ffffffffffffffffffffffffffffffffffffffff16633adc277a836040518263ffffffff1660e01b81526004016110ae9190614d3a565b60006040518083038186803b1580156110c657600080fd5b505afa1580156110da573d6000803e3d6000fd5b505050506040513d6000823e3d601f19601f820116820180604052508101906111039190614407565b9050806040015173ffffffffffffffffffffffffffffffffffffffff163373ffffffffffffffffffffffffffffffffffffffff161461116e576040517f3811ecb400000000000000000000000000000000000000000000000000000000815260040160405180910390fd5b600360009054906101000a900473ffffffffffffffffffffffffffffffffffffffff1673ffffffffffffffffffffffffffffffffffffffff166339d0e28f85856040518363ffffffff1660e01b81526004016111cb929190614d7e565b600060405180830381600087803b1580156111e557600080fd5b505af11580156111f9573d6000803e3d6000fd5b5050505050505050565b60008060149054906101000a900460ff16905090565b611221612c7a565b73ffffffffffffffffffffffffffffffffffffffff1661123f611938565b73ffffffffffffffffffffffffffffffffffffffff1614611295576040517f08c379a000000000000000000000000000000000000000000000000000000000815260040161128c90614e40565b60405180910390fd5b61129f6000612c82565b565b816000600360009054906101000a900473ffffffffffffffffffffffffffffffffffffffff1673ffffffffffffffffffffffffffffffffffffffff16633adc277a836040518263ffffffff1660e01b81526004016112ff9190614d3a565b60006040518083038186803b15801561131757600080fd5b505afa15801561132b573d6000803e3d6000fd5b505050506040513d6000823e3d601f19601f820116820180604052508101906113549190614407565b9050806040015173ffffffffffffffffffffffffffffffffffffffff163373ffffffffffffffffffffffffffffffffffffffff16146113bf576040517f3811ecb400000000000000000000000000000000000000000000000000000000815260040160405180910390fd5b600360009054906101000a900473ffffffffffffffffffffffffffffffffffffffff1673ffffffffffffffffffffffffffffffffffffffff16638215b88285856040518363ffffffff1660e01b815260040161141c929190614d55565b600060405180830381600087803b15801561143657600080fd5b505af115801561144a573d6000803e3d6000fd5b50505050833373ffffffffffffffffffffffffffffffffffffffff167f1a3a8da1b8fd95dfec524d0586226a4e2c0bfc1b451eec177e17feb66ea1ce4d856040516114959190614b61565b60405180910390a350505050565b6114ab611203565b156114eb576040517f08c379a00000000000000000000000000000000000000000000000000000000081526004016114e290614e20565b60405180910390fd5b60026001541415611531576040517f08c379a000000000000000000000000000000000000000000000000000000000815260040161152890614e60565b60405180910390fd5b6002600181905550806000600360009054906101000a900473ffffffffffffffffffffffffffffffffffffffff1673ffffffffffffffffffffffffffffffffffffffff16633adc277a836040518263ffffffff1660e01b81526004016115979190614d3a565b60006040518083038186803b1580156115af57600080fd5b505afa1580156115c3573d6000803e3d6000fd5b505050506040513d6000823e3d601f19601f820116820180604052508101906115ec9190614407565b90506115f6612c72565b8160800151826060015161160a9190615102565b10611641576040517f7a41948400000000000000000000000000000000000000000000000000000000815260040160405180910390fd5b600360009054906101000a900473ffffffffffffffffffffffffffffffffffffffff1673ffffffffffffffffffffffffffffffffffffffff16636e7019d130856040518363ffffffff1660e01b815260040161169e929190614c8f565b600060405180830381600087803b1580156116b857600080fd5b505af11580156116cc573d6000803e3d6000fd5b5050505050506001808190555050565b6116e4612c7a565b73ffffffffffffffffffffffffffffffffffffffff16611702611938565b73ffffffffffffffffffffffffffffffffffffffff1614611758576040517f08c379a000000000000000000000000000000000000000000000000000000000815260040161174f90614e40565b60405180910390fd5b600073ffffffffffffffffffffffffffffffffffffffff168173ffffffffffffffffffffffffffffffffffffffff1614156117bf576040517fdae3f98f00000000000000000000000000000000000000000000000000000000815260040160405180910390fd5b80600260006101000a81548173ffffffffffffffffffffffffffffffffffffffff021916908373ffffffffffffffffffffffffffffffffffffffff1602179055503373ffffffffffffffffffffffffffffffffffffffff167f498ca7b9e8f8e4c2f37dbb4a8dea2129800564d80cc820794a93f1aa214354d3826040516118469190614b61565b60405180910390a250565b611859612c7a565b73ffffffffffffffffffffffffffffffffffffffff16611877611938565b73ffffffffffffffffffffffffffffffffffffffff16146118cd576040517f08c379a00000000000000000000000000000000000000000000000000000000081526004016118c490614e40565b60405180910390fd5b6118d5612c72565b7f0000000000000000000000000000000000000000000000000000000000000000101561192e576040517f6396554f00000000000000000000000000000000000000000000000000000000815260040160405180910390fd5b611936612d46565b565b60008060009054906101000a900473ffffffffffffffffffffffffffffffffffffffff16905090565b611969611203565b156119a9576040517f08c379a00000000000000000000000000000000000000000000000000000000081526004016119a090614e20565b60405180910390fd5b600260015414156119ef576040517f08c379a00000000000000000000000000000000000000000000000000000000081526004016119e690614e60565b60405180910390fd5b6002600181905550806000600360009054906101000a900473ffffffffffffffffffffffffffffffffffffffff1673ffffffffffffffffffffffffffffffffffffffff16633adc277a836040518263ffffffff1660e01b8152600401611a559190614d3a565b60006040518083038186803b158015611a6d57600080fd5b505afa158015611a81573d6000803e3d6000fd5b505050506040513d6000823e3d601f19601f82011682018060405250810190611aaa9190614407565b9050611ab4612c72565b81608001518260600151611ac89190615102565b10611aff576040517f7a41948400000000000000000000000000000000000000000000000000000000815260040160405180910390fd5b600360009054906101000a900473ffffffffffffffffffffffffffffffffffffffff1673ffffffffffffffffffffffffffffffffffffffff1663af9806cb30856040518363ffffffff1660e01b8152600401611b5c929190614c8f565b600060405180830381600087803b158015611b7657600080fd5b505af1158015611b8a573d6000803e3d6000fd5b5050505050506001808190555050565b806000600360009054906101000a900473ffffffffffffffffffffffffffffffffffffffff1673ffffffffffffffffffffffffffffffffffffffff16633adc277a836040518263ffffffff1660e01b8152600401611bf89190614d3a565b60006040518083038186803b158015611c1057600080fd5b505afa158015611c24573d6000803e3d6000fd5b505050506040513d6000823e3d601f19601f82011682018060405250810190611c4d9190614407565b9050806040015173ffffffffffffffffffffffffffffffffffffffff163373ffffffffffffffffffffffffffffffffffffffff1614611cb8576040517f3811ecb400000000000000000000000000000000000000000000000000000000815260040160405180910390fd5b826000600360009054906101000a900473ffffffffffffffffffffffffffffffffffffffff1673ffffffffffffffffffffffffffffffffffffffff16633adc277a836040518263ffffffff1660e01b8152600401611d169190614d3a565b60006040518083038186803b158015611d2e57600080fd5b505afa158015611d42573d6000803e3d6000fd5b505050506040513d6000823e3d601f19601f82011682018060405250810190611d6b9190614407565b905080600001511580611d7f575080602001515b15611db6576040517fc9693df700000000000000000000000000000000000000000000000000000000815260040160405180910390fd5b611dbe611203565b15611dfe576040517f08c379a0000000000000000000000000000000000000000000000000000000008152600401611df590614e20565b60405180910390fd5b600360009054906101000a900473ffffffffffffffffffffffffffffffffffffffff1673ffffffffffffffffffffffffffffffffffffffff1663b75c7dc6866040518263ffffffff1660e01b8152600401611e599190614d3a565b600060405180830381600087803b158015611e7357600080fd5b505af1158015611e87573d6000803e3d6000fd5b505050505050505050565b611e9a611203565b15611eda576040517f08c379a0000000000000000000000000000000000000000000000000000000008152600401611ed190614e20565b60405180910390fd5b60026001541415611f20576040517f08c379a0000000000000000000000000000000000000000000000000000000008152600401611f1790614e60565b60405180910390fd5b6002600181905550806000600360009054906101000a900473ffffffffffffffffffffffffffffffffffffffff1673ffffffffffffffffffffffffffffffffffffffff16633adc277a836040518263ffffffff1660e01b8152600401611f869190614d3a565b60006040518083038186803b158015611f9e57600080fd5b505afa158015611fb2573d6000803e3d6000fd5b505050506040513d6000823e3d601f19601f82011682018060405250810190611fdb9190614407565b9050611fe5612c72565b81608001518260600151611ff99190615102565b10612030576040517f7a41948400000000000000000000000000000000000000000000000000000000815260040160405180910390fd5b600360009054906101000a900473ffffffffffffffffffffffffffffffffffffffff1673ffffffffffffffffffffffffffffffffffffffff1663c8622c2430856040518363ffffffff1660e01b815260040161208d929190614c8f565b600060405180830381600087803b1580156120a757600080fd5b505af11580156120bb573d6000803e3d6000fd5b5050505050506001808190555050565b600073ffffffffffffffffffffffffffffffffffffffff168273ffffffffffffffffffffffffffffffffffffffff161415612132576040517fdae3f98f00000000000000000000000000000000000000000000000000000000815260040160405180910390fd5b6000600181111561214657612145615342565b5b85600181111561215957612158615342565b5b14156122085760008273ffffffffffffffffffffffffffffffffffffffff168260405161218590614b4c565b60006040518083038185875af1925050503d80600081146121c2576040519150601f19603f3d011682016040523d82523d6000602084013e6121c7565b606091505b5050905080612202576040517f4fed01d600000000000000000000000000000000000000000000000000000000815260040160405180910390fd5b506122da565b600084905060008173ffffffffffffffffffffffffffffffffffffffff166323b872dd8686866040518463ffffffff1660e01b815260040161224c93929190614c2f565b602060405180830381600087803b15801561226657600080fd5b505af115801561227a573d6000803e3d6000fd5b505050506040513d601f19601f8201168201806040525081019061229e9190614203565b9050806122d7576040517f900396bd00000000000000000000000000000000000000000000000000000000815260040160405180910390fd5b50505b5050505050565b6122e9612c7a565b73ffffffffffffffffffffffffffffffffffffffff16612307611938565b73ffffffffffffffffffffffffffffffffffffffff161461235d576040517f08c379a000000000000000000000000000000000000000000000000000000000815260040161235490614e40565b60405180910390fd5b600073ffffffffffffffffffffffffffffffffffffffff168173ffffffffffffffffffffffffffffffffffffffff1614156123c4576040517fdae3f98f00000000000000000000000000000000000000000000000000000000815260040160405180910390fd5b80600460006101000a81548173ffffffffffffffffffffffffffffffffffffffff021916908373ffffffffffffffffffffffffffffffffffffffff1602179055503373ffffffffffffffffffffffffffffffffffffffff167f92baa2c8b1b2bb52209462231f74c5b73540ece9f023368c56272d877351ceeb8260405161244b9190614b61565b60405180910390a250565b61245e612c7a565b73ffffffffffffffffffffffffffffffffffffffff1661247c611938565b73ffffffffffffffffffffffffffffffffffffffff16146124d2576040517f08c379a00000000000000000000000000000000000000000000000000000000081526004016124c990614e40565b60405180910390fd5b600073ffffffffffffffffffffffffffffffffffffffff168173ffffffffffffffffffffffffffffffffffffffff161415612539576040517fdae3f98f00000000000000000000000000000000000000000000000000000000815260040160405180910390fd5b80600360006101000a81548173ffffffffffffffffffffffffffffffffffffffff021916908373ffffffffffffffffffffffffffffffffffffffff1602179055503373ffffffffffffffffffffffffffffffffffffffff167f158c38d986c668cc9bc5ddbd3cfe5168008bdf4a8ab2f813855f8edae60ee646826040516125c09190614b61565b60405180910390a250565b6125d3612c7a565b73ffffffffffffffffffffffffffffffffffffffff166125f1611938565b73ffffffffffffffffffffffffffffffffffffffff1614612647576040517f08c379a000000000000000000000000000000000000000000000000000000000815260040161263e90614e40565b60405180910390fd5b600073ffffffffffffffffffffffffffffffffffffffff168273ffffffffffffffffffffffffffffffffffffffff1614156126ae576040517fdae3f98f00000000000000000000000000000000000000000000000000000000815260040160405180910390fd5b80600660008473ffffffffffffffffffffffffffffffffffffffff1673ffffffffffffffffffffffffffffffffffffffff16815260200190815260200160002060006101000a81548160ff0219169083151502179055503373ffffffffffffffffffffffffffffffffffffffff167fb1e1107fa60e4c971a024ca8254246a18e31afa3f950e360da5f608e145c36b1838360405161274d929190614c66565b60405180910390a25050565b6002600154141561279f576040517f08c379a000000000000000000000000000000000000000000000000000000000815260040161279690614e60565b60405180910390fd5b60026001819055506127af611203565b156127ef576040517f08c379a00000000000000000000000000000000000000000000000000000000081526004016127e690614e20565b60405180910390fd5b6000825190506001811015612830576040517fba1d8ef700000000000000000000000000000000000000000000000000000000815260040160405180910390fd5b6000604051806080016040528060008019168152602001600081526020018367ffffffffffffffff811115612868576128676153a0565b5b6040519080825280602002602001820160405280156128965781602001602082028036833780820191505090505b50815260200184815250905060005b828110156129215760006128d38683815181106128c5576128c4615371565b5b602002602001015183612de9565b905060008214156128e957808360000181815250505b808360400151838151811061290157612900615371565b5b6020026020010181815250505080806129199061529c565b9150506128a5565b5081816020018181525050600360009054906101000a900473ffffffffffffffffffffffffffffffffffffffff1673ffffffffffffffffffffffffffffffffffffffff1663a3479421826040518263ffffffff1660e01b81526004016129879190614e80565b600060405180830381600087803b1580156129a157600080fd5b505af11580156129b5573d6000803e3d6000fd5b505050505050600180819055505050565b6000816000600360009054906101000a900473ffffffffffffffffffffffffffffffffffffffff1673ffffffffffffffffffffffffffffffffffffffff16633adc277a836040518263ffffffff1660e01b8152600401612a269190614d3a565b60006040518083038186803b158015612a3e57600080fd5b505afa158015612a52573d6000803e3d6000fd5b505050506040513d6000823e3d601f19601f82011682018060405250810190612a7b9190614407565b905080600001511580612a8f575080602001515b15612ac6576040517fc9693df700000000000000000000000000000000000000000000000000000000815260040160405180910390fd5b600360009054906101000a900473ffffffffffffffffffffffffffffffffffffffff1673ffffffffffffffffffffffffffffffffffffffff166312701897856040518263ffffffff1660e01b8152600401612b219190614d3a565b60206040518083038186803b158015612b3957600080fd5b505afa158015612b4d573d6000803e3d6000fd5b505050506040513d601f19601f82011682018060405250810190612b71919061447d565b92505050919050565b612b82612c7a565b73ffffffffffffffffffffffffffffffffffffffff16612ba0611938565b73ffffffffffffffffffffffffffffffffffffffff1614612bf6576040517f08c379a0000000000000000000000000000000000000000000000000000000008152600401612bed90614e40565b60405180910390fd5b600073ffffffffffffffffffffffffffffffffffffffff168173ffffffffffffffffffffffffffffffffffffffff161415612c66576040517f08c379a0000000000000000000000000000000000000000000000000000000008152600401612c5d90614e00565b60405180910390fd5b612c6f81612c82565b50565b600042905090565b600033905090565b60008060009054906101000a900473ffffffffffffffffffffffffffffffffffffffff169050816000806101000a81548173ffffffffffffffffffffffffffffffffffffffff021916908373ffffffffffffffffffffffffffffffffffffffff1602179055508173ffffffffffffffffffffffffffffffffffffffff168173ffffffffffffffffffffffffffffffffffffffff167f8be0079c531659141344cd1fd0a4f28419497f9722a3daafe3b4186f6b6457e060405160405180910390a35050565b612d4e611203565b15612d8e576040517f08c379a0000000000000000000000000000000000000000000000000000000008152600401612d8590614e20565b60405180910390fd5b6001600060146101000a81548160ff0219169083151502179055507f62e78cea01bee320cd4e420270b5ea74000d11b0c9f74754ebdbfc544b05a258612dd2612c7a565b604051612ddf9190614b61565b60405180910390a1565b6000600360009054906101000a900473ffffffffffffffffffffffffffffffffffffffff1673ffffffffffffffffffffffffffffffffffffffff1663fe947f3c846040518263ffffffff1660e01b8152600401612e469190614ea2565b60006040518083038186803b158015612e5e57600080fd5b505afa158015612e72573d6000803e3d6000fd5b505050506005548361010001511080612e925750620f4240836101000151115b15612edb57600554620f42406040517fc4ce6439000000000000000000000000000000000000000000000000000000008152600401612ed2929190614edf565b60405180910390fd5b600180811115612eee57612eed615342565b5b8360e00151602001516001811115612f0957612f08615342565b5b148015612f685750600660008460e001516000015173ffffffffffffffffffffffffffffffffffffffff1673ffffffffffffffffffffffffffffffffffffffff16815260200190815260200160002060009054906101000a900460ff16155b15612f9f576040517f1f313be500000000000000000000000000000000000000000000000000000000815260040160405180910390fd5b60005b83608001515181101561328e57600084608001518281518110612fc857612fc7615371565b5b6020026020010151905060008173ffffffffffffffffffffffffffffffffffffffff1663dd62ed3e30306040518363ffffffff1660e01b815260040161300f929190614b7c565b60206040518083038186803b15801561302757600080fd5b505afa15801561303b573d6000803e3d6000fd5b505050506040513d601f19601f8201168201806040525081019061305f919061447d565b905060008273ffffffffffffffffffffffffffffffffffffffff1663095ea7b3600360009054906101000a900473ffffffffffffffffffffffffffffffffffffffff16848a606001518b60a0015189815181106130bf576130be615371565b5b60200260200101516130d19190615158565b6130db9190615102565b6040518363ffffffff1660e01b81526004016130f8929190614cf6565b602060405180830381600087803b15801561311257600080fd5b505af1158015613126573d6000803e3d6000fd5b505050506040513d601f19601f8201168201806040525081019061314a9190614203565b905080613183576040517f900396bd00000000000000000000000000000000000000000000000000000000815260040160405180910390fd5b8273ffffffffffffffffffffffffffffffffffffffff166323b872dd33308a606001518b60a0015189815181106131bd576131bc615371565b5b60200260200101516131cf9190615158565b6040518463ffffffff1660e01b81526004016131ed93929190614c2f565b602060405180830381600087803b15801561320757600080fd5b505af115801561321b573d6000803e3d6000fd5b505050506040513d601f19601f8201168201806040525081019061323f9190614203565b905080613278576040517f900396bd00000000000000000000000000000000000000000000000000000000815260040160405180910390fd5b50505080806132869061529c565b915050612fa2565b506001808111156132a2576132a1615342565b5b8360e001516020015160018111156132bd576132bc615342565b5b14156134495760008360e0015160000151905060008173ffffffffffffffffffffffffffffffffffffffff1663dd62ed3e30306040518363ffffffff1660e01b815260040161330d929190614b7c565b60206040518083038186803b15801561332557600080fd5b505afa158015613339573d6000803e3d6000fd5b505050506040513d601f19601f8201168201806040525081019061335d919061447d565b905060008273ffffffffffffffffffffffffffffffffffffffff1663095ea7b3308489606001518a60c001516133939190615158565b61339d9190615102565b6040518363ffffffff1660e01b81526004016133ba929190614cf6565b602060405180830381600087803b1580156133d457600080fd5b505af11580156133e8573d6000803e3d6000fd5b505050506040513d601f19601f8201168201806040525081019061340c9190614203565b905080613445576040517f900396bd00000000000000000000000000000000000000000000000000000000815260040160405180910390fd5b5050505b6000604051806101c001604052806001151581526020016000151581526020013373ffffffffffffffffffffffffffffffffffffffff1681526020018560000151815260200185602001518152602001856040015181526020018560600151815260200160008152602001856080015181526020018560a0015181526020018560e0015181526020018560c0015181526020018561010001518152602001856101600151815250905060006134fe3385613778565b9050600360009054906101000a900473ffffffffffffffffffffffffffffffffffffffff1673ffffffffffffffffffffffffffffffffffffffff1663433f4c2b82846040518363ffffffff1660e01b815260040161355d929190614da7565b600060405180830381600087803b15801561357757600080fd5b505af115801561358b573d6000803e3d6000fd5b50505050600073ffffffffffffffffffffffffffffffffffffffff1685610120015173ffffffffffffffffffffffffffffffffffffffff161461368c57600360009054906101000a900473ffffffffffffffffffffffffffffffffffffffff1673ffffffffffffffffffffffffffffffffffffffff16638d0ba65c82604051806040016040528089610120015173ffffffffffffffffffffffffffffffffffffffff1681526020018961014001518152506040518363ffffffff1660e01b8152600401613659929190614dd7565b600060405180830381600087803b15801561367357600080fd5b505af1158015613687573d6000803e3d6000fd5b505050505b803373ffffffffffffffffffffffffffffffffffffffff167f078433ece835af411dea2934e9a4a3478be367902b1a036902693b0a0e9ce01860405160405180910390a360005b85608001515181101561376c57856080015181815181106136f7576136f6615371565b5b602002602001015173ffffffffffffffffffffffffffffffffffffffff16823373ffffffffffffffffffffffffffffffffffffffff167fa6a45dd8f88187786a5d483f7f2a4b4a6f3a2623c142e29b04ad351fe7fa159060405160405180910390a480806137649061529c565b9150506136d3565b50809250505092915050565b600061382f8383600360009054906101000a900473ffffffffffffffffffffffffffffffffffffffff1673ffffffffffffffffffffffffffffffffffffffff1663b3b736a3876040518263ffffffff1660e01b81526004016137da9190614b61565b60206040518083038186803b1580156137f257600080fd5b505afa158015613806573d6000803e3d6000fd5b505050506040513d601f19601f8201168201806040525081019061382a919061447d565b610d37565b905092915050565b600061384a61384584614f2d565b614f08565b9050808382526020820190508285602086028201111561386d5761386c6153de565b5b60005b8581101561389d57816138838882613b37565b845260208401935060208301925050600181019050613870565b5050509392505050565b60006138ba6138b584614f2d565b614f08565b905080838252602082019050828560208602820111156138dd576138dc6153de565b5b60005b8581101561390d57816138f38882613b4c565b8452602084019350602083019250506001810190506138e0565b5050509392505050565b600061392a61392584614f59565b614f08565b9050808382526020820190508285602086028201111561394d5761394c6153de565b5b60005b8581101561397d57816139638882613c9f565b845260208401935060208301925050600181019050613950565b5050509392505050565b600061399a61399584614f85565b614f08565b905080838252602082019050828560208602820111156139bd576139bc6153de565b5b60005b85811015613a0b57813567ffffffffffffffff8111156139e3576139e26153cf565b5b8086016139f08982613dc1565b855260208501945060208401935050506001810190506139c0565b5050509392505050565b6000613a28613a2384614fb1565b614f08565b90508083825260208201905082856020860282011115613a4b57613a4a6153de565b5b60005b85811015613a7b5781613a6188826140a1565b845260208401935060208301925050600181019050613a4e565b5050509392505050565b6000613a98613a9384614fb1565b614f08565b90508083825260208201905082856020860282011115613abb57613aba6153de565b5b60005b85811015613aeb5781613ad188826140b6565b845260208401935060208301925050600181019050613abe565b5050509392505050565b6000613b08613b0384614fdd565b614f08565b905082815260208101848484011115613b2457613b236153e3565b5b613b2f848285615229565b509392505050565b600081359050613b46816154f1565b92915050565b600081519050613b5b816154f1565b92915050565b600082601f830112613b7657613b756153cf565b5b8135613b86848260208601613837565b91505092915050565b600082601f830112613ba457613ba36153cf565b5b8151613bb48482602086016138a7565b91505092915050565b600082601f830112613bd257613bd16153cf565b5b8135613be2848260208601613917565b91505092915050565b600082601f830112613c0057613bff6153cf565b5b8135613c10848260208601613987565b91505092915050565b600082601f830112613c2e57613c2d6153cf565b5b8135613c3e848260208601613a15565b91505092915050565b600082601f830112613c5c57613c5b6153cf565b5b8151613c6c848260208601613a85565b91505092915050565b600081359050613c8481615508565b92915050565b600081519050613c9981615508565b92915050565b600081359050613cae8161551f565b92915050565b600081519050613cc38161551f565b92915050565b600081359050613cd881615536565b92915050565b600081519050613ced81615536565b92915050565b600082601f830112613d0857613d076153cf565b5b8135613d18848260208601613af5565b91505092915050565b600060408284031215613d3757613d366153d4565b5b613d416040614f08565b90506000613d5184828501613b37565b6000830152506020613d6584828501613cc9565b60208301525092915050565b600060408284031215613d8757613d866153d4565b5b613d916040614f08565b90506000613da184828501613b4c565b6000830152506020613db584828501613cde565b60208301525092915050565b60006101a08284031215613dd857613dd76153d4565b5b613de3610180614f08565b90506000613df3848285016140a1565b6000830152506020613e07848285016140a1565b6020830152506040613e1b84828501613c9f565b6040830152506060613e2f848285016140a1565b606083015250608082013567ffffffffffffffff811115613e5357613e526153d9565b5b613e5f84828501613b61565b60808301525060a082013567ffffffffffffffff811115613e8357613e826153d9565b5b613e8f84828501613c19565b60a08301525060c0613ea3848285016140a1565b60c08301525060e0613eb784828501613d21565b60e083015250610120613ecc848285016140a1565b61010083015250610140613ee284828501613b37565b61012083015250610160613ef8848285016140a1565b61014083015250610180613f0e848285016140a1565b6101608301525092915050565b60006101e08284031215613f3257613f316153d4565b5b613f3d6101c0614f08565b90506000613f4d84828501613c8a565b6000830152506020613f6184828501613c8a565b6020830152506040613f7584828501613b4c565b6040830152506060613f89848285016140b6565b6060830152506080613f9d848285016140b6565b60808301525060a0613fb184828501613cb4565b60a08301525060c0613fc5848285016140b6565b60c08301525060e0613fd9848285016140b6565b60e08301525061010082015167ffffffffffffffff811115613ffe57613ffd6153d9565b5b61400a84828501613b8f565b6101008301525061012082015167ffffffffffffffff8111156140305761402f6153d9565b5b61403c84828501613c47565b6101208301525061014061405284828501613d71565b61014083015250610180614068848285016140b6565b610160830152506101a061407e848285016140b6565b610180830152506101c0614094848285016140b6565b6101a08301525092915050565b6000813590506140b081615546565b92915050565b6000815190506140c581615546565b92915050565b6000602082840312156140e1576140e06153ed565b5b60006140ef84828501613b37565b91505092915050565b6000806040838503121561410f5761410e6153ed565b5b600061411d85828601613b37565b925050602061412e85828601613c75565b9150509250929050565b600080600060608486031215614151576141506153ed565b5b600061415f86828701613b37565b9350506020614170868287016140a1565b9250506040614181868287016140a1565b9150509250925092565b600080604083850312156141a2576141a16153ed565b5b600083013567ffffffffffffffff8111156141c0576141bf6153e8565b5b6141cc85828601613beb565b925050602083013567ffffffffffffffff8111156141ed576141ec6153e8565b5b6141f985828601613cf3565b9150509250929050565b600060208284031215614219576142186153ed565b5b600061422784828501613c8a565b91505092915050565b600060208284031215614246576142456153ed565b5b600061425484828501613c9f565b91505092915050565b60008060408385031215614274576142736153ed565b5b600061428285828601613c9f565b925050602061429385828601613b37565b9150509250929050565b600080604083850312156142b4576142b36153ed565b5b60006142c285828601613c9f565b92505060206142d385828601613c9f565b9150509250929050565b600080604083850312156142f4576142f36153ed565b5b600061430285828601613c9f565b9250506020614313858286016140a1565b9150509250929050565b600080600060608486031215614336576143356153ed565b5b600061434486828701613c9f565b9350506020614355868287016140a1565b925050604084013567ffffffffffffffff811115614376576143756153e8565b5b61438286828701613bbd565b9150509250925092565b600080600080600060a086880312156143a8576143a76153ed565b5b60006143b688828901613cc9565b95505060206143c788828901613b37565b94505060406143d888828901613b37565b93505060606143e988828901613b37565b92505060806143fa888289016140a1565b9150509295509295909350565b60006020828403121561441d5761441c6153ed565b5b600082015167ffffffffffffffff81111561443b5761443a6153e8565b5b61444784828501613f1b565b91505092915050565b600060208284031215614466576144656153ed565b5b6000614474848285016140a1565b91505092915050565b600060208284031215614493576144926153ed565b5b60006144a1848285016140b6565b91505092915050565b60006144b683836144f2565b60208301905092915050565b60006144ce83836146bd565b60208301905092915050565b60006144e68383614ada565b60208301905092915050565b6144fb816151b2565b82525050565b61450a816151b2565b82525050565b61452161451c826151b2565b6152e5565b82525050565b60006145328261503e565b61453c8185615091565b93506145478361500e565b8060005b8381101561457857815161455f88826144aa565b975061456a8361506a565b92505060018101905061454b565b5085935050505092915050565b600061459082615049565b61459a81856150a2565b93506145a58361501e565b8060005b838110156145d65781516145bd88826144c2565b97506145c883615077565b9250506001810190506145a9565b5085935050505092915050565b60006145ee82615049565b6145f881856150b3565b93506146038361501e565b8060005b8381101561463457815161461b88826144c2565b975061462683615077565b925050600181019050614607565b5085935050505092915050565b600061464c82615054565b61465681856150c4565b93506146618361502e565b8060005b8381101561469257815161467988826144da565b975061468483615084565b925050600181019050614665565b5085935050505092915050565b6146a8816151c4565b82525050565b6146b7816151c4565b82525050565b6146c6816151d0565b82525050565b6146d5816151d0565b82525050565b6146e481615217565b82525050565b60006146f58261505f565b6146ff81856150e0565b935061470f818560208601615238565b614718816153f2565b840191505092915050565b60006147306026836150f1565b915061473b82615410565b604082019050919050565b60006147536010836150f1565b915061475e8261545f565b602082019050919050565b60006147766020836150f1565b915061478182615488565b602082019050919050565b60006147996000836150d5565b91506147a4826154b1565b600082019050919050565b60006147bc601f836150f1565b91506147c7826154b4565b602082019050919050565b6040820160008201516147e860008501826144f2565b5060208201516147fb60208501826146db565b50505050565b600060808301600083015161481960008601826146bd565b50602083015161482c6020860182614ada565b50604083015184820360408601526148448282614585565b9150506060830151848203606086015261485e82826146ea565b9150508091505092915050565b60006101a0830160008301516148846000860182614ada565b5060208301516148976020860182614ada565b5060408301516148aa60408601826146bd565b5060608301516148bd6060860182614ada565b50608083015184820360808601526148d58282614527565b91505060a083015184820360a08601526148ef8282614641565b91505060c083015161490460c0860182614ada565b5060e083015161491760e08601826147d2565b5061010083015161492c610120860182614ada565b506101208301516149416101408601826144f2565b50610140830151614956610160860182614ada565b5061016083015161496b610180860182614ada565b508091505092915050565b60006101e08301600083015161498f600086018261469f565b5060208301516149a2602086018261469f565b5060408301516149b560408601826144f2565b5060608301516149c86060860182614ada565b5060808301516149db6080860182614ada565b5060a08301516149ee60a08601826146bd565b5060c0830151614a0160c0860182614ada565b5060e0830151614a1460e0860182614ada565b50610100830151848203610100860152614a2e8282614527565b915050610120830151848203610120860152614a4a8282614641565b915050610140830151614a616101408601826147d2565b50610160830151614a76610180860182614ada565b50610180830151614a8b6101a0860182614ada565b506101a0830151614aa06101c0860182614ada565b508091505092915050565b604082016000820151614ac160008501826144f2565b506020820151614ad46020850182614ada565b50505050565b614ae38161520d565b82525050565b614af28161520d565b82525050565b614b09614b048261520d565b615309565b82525050565b6000614b1b8286614510565b601482019150614b2b8285614af8565b602082019150614b3b8284614af8565b602082019150819050949350505050565b6000614b578261478c565b9150819050919050565b6000602082019050614b766000830184614501565b92915050565b6000604082019050614b916000830185614501565b614b9e6020830184614501565b9392505050565b6000606082019050614bba6000830186614501565b614bc76020830185614501565b614bd460408301846146cc565b949350505050565b600060a082019050614bf16000830188614501565b614bfe6020830187614501565b614c0b60408301866146cc565b614c186060830185614ae9565b614c256080830184614ae9565b9695505050505050565b6000606082019050614c446000830186614501565b614c516020830185614501565b614c5e6040830184614ae9565b949350505050565b6000604082019050614c7b6000830185614501565b614c8860208301846146ae565b9392505050565b6000604082019050614ca46000830185614501565b614cb160208301846146cc565b9392505050565b6000606082019050614ccd6000830186614501565b614cda60208301856146cc565b8181036040830152614cec81846145e3565b9050949350505050565b6000604082019050614d0b6000830185614501565b614d186020830184614ae9565b9392505050565b6000602082019050614d3460008301846146ae565b92915050565b6000602082019050614d4f60008301846146cc565b92915050565b6000604082019050614d6a60008301856146cc565b614d776020830184614501565b9392505050565b6000604082019050614d9360008301856146cc565b614da060208301846146cc565b9392505050565b6000604082019050614dbc60008301856146cc565b8181036020830152614dce8184614976565b90509392505050565b6000606082019050614dec60008301856146cc565b614df96020830184614aab565b9392505050565b60006020820190508181036000830152614e1981614723565b9050919050565b60006020820190508181036000830152614e3981614746565b9050919050565b60006020820190508181036000830152614e5981614769565b9050919050565b60006020820190508181036000830152614e79816147af565b9050919050565b60006020820190508181036000830152614e9a8184614801565b905092915050565b60006020820190508181036000830152614ebc818461486b565b905092915050565b6000602082019050614ed96000830184614ae9565b92915050565b6000604082019050614ef46000830185614ae9565b614f016020830184614ae9565b9392505050565b6000614f12614f23565b9050614f1e828261526b565b919050565b6000604051905090565b600067ffffffffffffffff821115614f4857614f476153a0565b5b602082029050602081019050919050565b600067ffffffffffffffff821115614f7457614f736153a0565b5b602082029050602081019050919050565b600067ffffffffffffffff821115614fa057614f9f6153a0565b5b602082029050602081019050919050565b600067ffffffffffffffff821115614fcc57614fcb6153a0565b5b602082029050602081019050919050565b600067ffffffffffffffff821115614ff857614ff76153a0565b5b615001826153f2565b9050602081019050919050565b6000819050602082019050919050565b6000819050602082019050919050565b6000819050602082019050919050565b600081519050919050565b600081519050919050565b600081519050919050565b600081519050919050565b6000602082019050919050565b6000602082019050919050565b6000602082019050919050565b600082825260208201905092915050565b600082825260208201905092915050565b600082825260208201905092915050565b600082825260208201905092915050565b600081905092915050565b600082825260208201905092915050565b600082825260208201905092915050565b600061510d8261520d565b91506151188361520d565b9250827fffffffffffffffffffffffffffffffffffffffffffffffffffffffffffffffff0382111561514d5761514c615313565b5b828201905092915050565b60006151638261520d565b915061516e8361520d565b9250817fffffffffffffffffffffffffffffffffffffffffffffffffffffffffffffffff04831182151516156151a7576151a6615313565b5b828202905092915050565b60006151bd826151ed565b9050919050565b60008115159050919050565b6000819050919050565b60008190506151e8826154dd565b919050565b600073ffffffffffffffffffffffffffffffffffffffff82169050919050565b6000819050919050565b6000615222826151da565b9050919050565b82818337600083830152505050565b60005b8381101561525657808201518184015260208101905061523b565b83811115615265576000848401525b50505050565b615274826153f2565b810181811067ffffffffffffffff82111715615293576152926153a0565b5b80604052505050565b60006152a78261520d565b91507fffffffffffffffffffffffffffffffffffffffffffffffffffffffffffffffff8214156152da576152d9615313565b5b600182019050919050565b60006152f0826152f7565b9050919050565b600061530282615403565b9050919050565b6000819050919050565b7f4e487b7100000000000000000000000000000000000000000000000000000000600052601160045260246000fd5b7f4e487b7100000000000000000000000000000000000000000000000000000000600052602160045260246000fd5b7f4e487b7100000000000000000000000000000000000000000000000000000000600052603260045260246000fd5b7f4e487b7100000000000000000000000000000000000000000000000000000000600052604160045260246000fd5b600080fd5b600080fd5b600080fd5b600080fd5b600080fd5b600080fd5b600080fd5b6000601f19601f8301169050919050565b60008160601b9050919050565b7f4f776e61626c653a206e6577206f776e657220697320746865207a65726f206160008201527f6464726573730000000000000000000000000000000000000000000000000000602082015250565b7f5061757361626c653a2070617573656400000000000000000000000000000000600082015250565b7f4f776e61626c653a2063616c6c6572206973206e6f7420746865206f776e6572600082015250565b50565b7f5265656e7472616e637947756172643a207265656e7472616e742063616c6c00600082015250565b600281106154ee576154ed615342565b5b50565b6154fa816151b2565b811461550557600080fd5b50565b615511816151c4565b811461551c57600080fd5b50565b615528816151d0565b811461553357600080fd5b50565b6002811061554357600080fd5b50565b61554f8161520d565b811461555a57600080fd5b5056fea2646970667358221220d9a867f40d4c05392cfbc0074c5bf943c33fd7af7597743aa1f4c8237ed6de2f64736f6c63430008070033",
  "linkReferences": {},
  "deployedLinkReferences": {}
}