{
  "_format": "hh-sol-artifact-1",
  "contractName": "MembershipsView",
  "sourceName": "contracts/MembershipsView.sol",
  "abi": [
    {
      "inputs": [
        {
          "internalType": "address",
          "name": "eternalStorage",
          "type": "address"
        }
      ],
      "stateMutability": "nonpayable",
      "type": "constructor"
    },
    {
      "inputs": [
        {
          "internalType": "bytes32",
          "name": "scheduleId",
          "type": "bytes32"
        },
        {
          "internalType": "address",
          "name": "addr",
          "type": "address"
        }
      ],
      "name": "getBuyPerWallet",
      "outputs": [
        {
          "internalType": "uint256",
          "name": "",
          "type": "uint256"
        }
      ],
      "stateMutability": "view",
      "type": "function"
    },
    {
      "inputs": [
        {
          "internalType": "bytes32",
          "name": "record",
          "type": "bytes32"
        }
      ],
      "name": "getBuyWalletCount",
      "outputs": [
        {
          "internalType": "uint256",
          "name": "",
          "type": "uint256"
        }
      ],
      "stateMutability": "view",
      "type": "function"
    },
    {
      "inputs": [
        {
          "internalType": "uint256",
          "name": "index",
          "type": "uint256"
        }
      ],
      "name": "getCampaign",
      "outputs": [
        {
          "components": [
            {
              "internalType": "bytes32",
              "name": "campaignId",
              "type": "bytes32"
            },
            {
              "internalType": "bytes32[]",
              "name": "phases",
              "type": "bytes32[]"
            },
            {
              "internalType": "string",
              "name": "metadata",
              "type": "string"
            }
          ],
          "internalType": "struct MembershipsTypes.Campaign",
          "name": "",
          "type": "tuple"
        }
      ],
      "stateMutability": "view",
      "type": "function"
    },
    {
      "inputs": [
        {
          "internalType": "address",
          "name": "owner",
          "type": "address"
        }
      ],
      "name": "getCampaignByOwner",
      "outputs": [
        {
          "internalType": "uint256",
          "name": "",
          "type": "uint256"
        },
        {
          "components": [
            {
              "internalType": "bytes32",
              "name": "campaignId",
              "type": "bytes32"
            },
            {
              "internalType": "bytes32[]",
              "name": "phases",
              "type": "bytes32[]"
            },
            {
              "internalType": "string",
              "name": "metadata",
              "type": "string"
            }
          ],
          "internalType": "struct MembershipsTypes.Campaign[]",
          "name": "",
          "type": "tuple[]"
        }
      ],
      "stateMutability": "view",
      "type": "function"
    },
    {
      "inputs": [
        {
          "internalType": "address",
          "name": "referral",
          "type": "address"
        }
      ],
      "name": "getCampaignByReferral",
      "outputs": [
        {
          "internalType": "uint256",
          "name": "",
          "type": "uint256"
        },
        {
          "components": [
            {
              "internalType": "bytes32",
              "name": "campaignId",
              "type": "bytes32"
            },
            {
              "internalType": "bytes32[]",
              "name": "phases",
              "type": "bytes32[]"
            },
            {
              "internalType": "string",
              "name": "metadata",
              "type": "string"
            }
          ],
          "internalType": "struct MembershipsTypes.Campaign[]",
          "name": "",
          "type": "tuple[]"
        }
      ],
      "stateMutability": "view",
      "type": "function"
    },
    {
      "inputs": [
        {
          "internalType": "bytes32",
          "name": "schedule",
          "type": "bytes32"
        }
      ],
      "name": "getCampaignBySchedule",
      "outputs": [
        {
          "components": [
            {
              "internalType": "bytes32",
              "name": "campaignId",
              "type": "bytes32"
            },
            {
              "internalType": "uint256",
              "name": "campaignIndex",
              "type": "uint256"
            },
            {
              "internalType": "uint256",
              "name": "scheduleIndex",
              "type": "uint256"
            }
          ],
          "internalType": "struct MembershipsTypes.ScheduleCampaign",
          "name": "",
          "type": "tuple"
        }
      ],
      "stateMutability": "view",
      "type": "function"
    },
    {
      "inputs": [],
      "name": "getCampaignsLength",
      "outputs": [
        {
          "internalType": "uint256",
          "name": "",
          "type": "uint256"
        }
      ],
      "stateMutability": "view",
      "type": "function"
    },
    {
      "inputs": [
        {
          "internalType": "bytes32",
          "name": "scheduleID",
          "type": "bytes32"
        },
        {
          "internalType": "enum MembershipsTypes.UserType",
          "name": "userType",
          "type": "uint8"
        }
      ],
      "name": "getClaimed",
      "outputs": [
        {
          "internalType": "uint256",
          "name": "",
          "type": "uint256"
        }
      ],
      "stateMutability": "view",
      "type": "function"
    },
    {
      "inputs": [
        {
          "internalType": "bytes32",
          "name": "record",
          "type": "bytes32"
        }
      ],
      "name": "getReferral",
      "outputs": [
        {
          "components": [
            {
              "internalType": "address",
              "name": "referral",
              "type": "address"
            },
            {
              "internalType": "uint256",
              "name": "referralFee",
              "type": "uint256"
            }
          ],
          "internalType": "struct MembershipsTypes.ScheduleReferral",
          "name": "",
          "type": "tuple"
        }
      ],
      "stateMutability": "view",
      "type": "function"
    },
    {
      "inputs": [
        {
          "internalType": "bytes32",
          "name": "scheduleId",
          "type": "bytes32"
        }
      ],
      "name": "getSchedule",
      "outputs": [
        {
          "components": [
            {
              "internalType": "bool",
              "name": "initialized",
              "type": "bool"
            },
            {
              "internalType": "bool",
              "name": "revoked",
              "type": "bool"
            },
            {
              "internalType": "address",
              "name": "owner",
              "type": "address"
            },
            {
              "internalType": "uint256",
              "name": "start",
              "type": "uint256"
            },
            {
              "internalType": "uint256",
              "name": "duration",
              "type": "uint256"
            },
            {
              "internalType": "bytes32",
              "name": "merkleRoot",
              "type": "bytes32"
            },
            {
              "internalType": "uint256",
              "name": "amountTotal",
              "type": "uint256"
            },
            {
              "internalType": "uint256",
              "name": "released",
              "type": "uint256"
            },
            {
              "internalType": "address[]",
              "name": "lotToken",
              "type": "address[]"
            },
            {
              "internalType": "uint256[]",
              "name": "lotSize",
              "type": "uint256[]"
            },
            {
              "components": [
                {
                  "internalType": "address",
                  "name": "token",
                  "type": "address"
                },
                {
                  "internalType": "enum MembershipsTypes.AssetType",
                  "name": "assetType",
                  "type": "uint8"
                }
              ],
              "internalType": "struct MembershipsTypes.Asset",
              "name": "paymentAsset",
              "type": "tuple"
            },
            {
              "internalType": "uint256",
              "name": "pricePerLot",
              "type": "uint256"
            },
            {
              "internalType": "uint256",
              "name": "rollFee",
              "type": "uint256"
            },
            {
              "internalType": "uint256",
              "name": "maxBuyPerWallet",
              "type": "uint256"
            }
          ],
          "internalType": "struct MembershipsTypes.MintingSchedule",
          "name": "",
          "type": "tuple"
        }
      ],
      "stateMutability": "view",
      "type": "function"
    },
    {
      "inputs": [],
      "name": "getTokensAllowed",
      "outputs": [
        {
          "internalType": "address[]",
          "name": "",
          "type": "address[]"
        }
      ],
      "stateMutability": "view",
      "type": "function"
    }
  ],
  "bytecode": "0x60806040523480156200001157600080fd5b506040516200265338038062002653833981810160405281019062000037919062000095565b806000806101000a81548173ffffffffffffffffffffffffffffffffffffffff021916908373ffffffffffffffffffffffffffffffffffffffff160217905550506200011a565b6000815190506200008f8162000100565b92915050565b600060208284031215620000ae57620000ad620000fb565b5b6000620000be848285016200007e565b91505092915050565b6000620000d482620000db565b9050919050565b600073ffffffffffffffffffffffffffffffffffffffff82169050919050565b600080fd5b6200010b81620000c7565b81146200011757600080fd5b50565b612529806200012a6000396000f3fe608060405234801561001057600080fd5b50600436106100a95760003560e01c8063ac886f2611610071578063ac886f261461019e578063c2f1ee9d146101ce578063e3ba797a146101ec578063efc427b71461021d578063f3e2ec161461024d578063fb5474ae1461027e576100a9565b80633adc277a146100ae5780633c639278146100de5780635598f8cc1461010e578063786dd9dd1461013e57806382e58d511461016e575b600080fd5b6100c860048036038101906100c391906116ae565b61029c565b6040516100d59190611f88565b60405180910390f35b6100f860048036038101906100f391906116db565b610359565b6040516101059190611fe0565b60405180910390f35b6101286004803603810190610123919061186d565b61040f565b6040516101359190611f66565b60405180910390f35b610158600480360381019061015391906116ae565b6104cc565b6040516101659190611faa565b60405180910390f35b610188600480360381019061018391906116ae565b6105ae565b6040516101959190611fc5565b60405180910390f35b6101b860048036038101906101b391906116ae565b610665565b6040516101c59190611fe0565b60405180910390f35b6101d6610718565b6040516101e39190611ed7565b60405180910390f35b61020660048036038101906102019190611638565b6107c2565b604051610214929190611ffb565b60405180910390f35b6102376004803603810190610232919061171b565b610aba565b6040516102449190611fe0565b60405180910390f35b61026760048036038101906102629190611638565b610b70565b604051610275929190611ffb565b60405180910390f35b610286610e68565b6040516102939190611fe0565b60405180910390f35b6102a4610f0e565b60008054906101000a900473ffffffffffffffffffffffffffffffffffffffff1673ffffffffffffffffffffffffffffffffffffffff16633adc277a836040518263ffffffff1660e01b81526004016102fd9190611ef9565b60006040518083038186803b15801561031557600080fd5b505afa158015610329573d6000803e3d6000fd5b505050506040513d6000823e3d601f19601f8201168201806040525081019061035291906117f7565b9050919050565b60008060009054906101000a900473ffffffffffffffffffffffffffffffffffffffff1673ffffffffffffffffffffffffffffffffffffffff16633c63927884846040518363ffffffff1660e01b81526004016103b7929190611f14565b60206040518083038186803b1580156103cf57600080fd5b505afa1580156103e3573d6000803e3d6000fd5b505050506040513d601f19601f82011682018060405250810190610407919061189a565b905092915050565b610417610fa0565b60008054906101000a900473ffffffffffffffffffffffffffffffffffffffff1673ffffffffffffffffffffffffffffffffffffffff16635598f8cc836040518263ffffffff1660e01b81526004016104709190611fe0565b60006040518083038186803b15801561048857600080fd5b505afa15801561049c573d6000803e3d6000fd5b505050506040513d6000823e3d601f19601f820116820180604052508101906104c591906117ae565b9050919050565b6104d4610fc4565b60008060008060009054906101000a900473ffffffffffffffffffffffffffffffffffffffff1673ffffffffffffffffffffffffffffffffffffffff1663e4e4f803866040518263ffffffff1660e01b81526004016105339190611ef9565b60606040518083038186803b15801561054b57600080fd5b505afa15801561055f573d6000803e3d6000fd5b505050506040513d601f19601f82011682018060405250810190610583919061175b565b9250925092506040518060600160405280848152602001838152602001828152509350505050919050565b6105b6610fe8565b60008054906101000a900473ffffffffffffffffffffffffffffffffffffffff1673ffffffffffffffffffffffffffffffffffffffff166382e58d51836040518263ffffffff1660e01b815260040161060f9190611ef9565b604080518083038186803b15801561062657600080fd5b505afa15801561063a573d6000803e3d6000fd5b505050506040513d601f19601f8201168201806040525081019061065e9190611840565b9050919050565b60008060009054906101000a900473ffffffffffffffffffffffffffffffffffffffff1673ffffffffffffffffffffffffffffffffffffffff1663ac886f26836040518263ffffffff1660e01b81526004016106c19190611ef9565b60206040518083038186803b1580156106d957600080fd5b505afa1580156106ed573d6000803e3d6000fd5b505050506040513d601f19601f82011682018060405250810190610711919061189a565b9050919050565b606060008054906101000a900473ffffffffffffffffffffffffffffffffffffffff1673ffffffffffffffffffffffffffffffffffffffff1663c2f1ee9d6040518163ffffffff1660e01b815260040160006040518083038186803b15801561078057600080fd5b505afa158015610794573d6000803e3d6000fd5b505050506040513d6000823e3d601f19601f820116820180604052508101906107bd9190611665565b905090565b6000606060008060009054906101000a900473ffffffffffffffffffffffffffffffffffffffff1673ffffffffffffffffffffffffffffffffffffffff1663b3b736a3856040518263ffffffff1660e01b81526004016108229190611e93565b60206040518083038186803b15801561083a57600080fd5b505afa15801561084e573d6000803e3d6000fd5b505050506040513d601f19601f82011682018060405250810190610872919061189a565b905060008167ffffffffffffffff8111156108905761088f6123ec565b5b6040519080825280602002602001820160405280156108c957816020015b6108b6610fa0565b8152602001906001900390816108ae5790505b5090506000805b83811015610aab5760008060008054906101000a900473ffffffffffffffffffffffffffffffffffffffff1673ffffffffffffffffffffffffffffffffffffffff166338ff4d578a856040518363ffffffff1660e01b8152600401610936929190611eae565b604080518083038186803b15801561094d57600080fd5b505afa158015610961573d6000803e3d6000fd5b505050506040513d601f19601f8201168201806040525081019061098591906118c7565b915091506002600381111561099d5761099c61238e565b5b8160038111156109b0576109af61238e565b5b1415610a965760008060009054906101000a900473ffffffffffffffffffffffffffffffffffffffff1673ffffffffffffffffffffffffffffffffffffffff16635598f8cc846040518263ffffffff1660e01b8152600401610a129190611fe0565b60006040518083038186803b158015610a2a57600080fd5b505afa158015610a3e573d6000803e3d6000fd5b505050506040513d6000823e3d601f19601f82011682018060405250810190610a6791906117ae565b905080868680610a7690612316565b975081518110610a8957610a886123bd565b5b6020026020010181905250505b50508080610aa390612316565b9150506108d0565b50808294509450505050915091565b60008060009054906101000a900473ffffffffffffffffffffffffffffffffffffffff1673ffffffffffffffffffffffffffffffffffffffff1663efc427b784846040518363ffffffff1660e01b8152600401610b18929190611f3d565b60206040518083038186803b158015610b3057600080fd5b505afa158015610b44573d6000803e3d6000fd5b505050506040513d601f19601f82011682018060405250810190610b68919061189a565b905092915050565b6000606060008060009054906101000a900473ffffffffffffffffffffffffffffffffffffffff1673ffffffffffffffffffffffffffffffffffffffff1663b3b736a3856040518263ffffffff1660e01b8152600401610bd09190611e93565b60206040518083038186803b158015610be857600080fd5b505afa158015610bfc573d6000803e3d6000fd5b505050506040513d601f19601f82011682018060405250810190610c20919061189a565b905060008167ffffffffffffffff811115610c3e57610c3d6123ec565b5b604051908082528060200260200182016040528015610c7757816020015b610c64610fa0565b815260200190600190039081610c5c5790505b5090506000805b83811015610e595760008060008054906101000a900473ffffffffffffffffffffffffffffffffffffffff1673ffffffffffffffffffffffffffffffffffffffff166338ff4d578a856040518363ffffffff1660e01b8152600401610ce4929190611eae565b604080518083038186803b158015610cfb57600080fd5b505afa158015610d0f573d6000803e3d6000fd5b505050506040513d601f19601f82011682018060405250810190610d3391906118c7565b9150915060006003811115610d4b57610d4a61238e565b5b816003811115610d5e57610d5d61238e565b5b1415610e445760008060009054906101000a900473ffffffffffffffffffffffffffffffffffffffff1673ffffffffffffffffffffffffffffffffffffffff16635598f8cc846040518263ffffffff1660e01b8152600401610dc09190611fe0565b60006040518083038186803b158015610dd857600080fd5b505afa158015610dec573d6000803e3d6000fd5b505050506040513d6000823e3d601f19601f82011682018060405250810190610e1591906117ae565b905080868680610e2490612316565b975081518110610e3757610e366123bd565b5b6020026020010181905250505b50508080610e5190612316565b915050610c7e565b50808294509450505050915091565b60008060009054906101000a900473ffffffffffffffffffffffffffffffffffffffff1673ffffffffffffffffffffffffffffffffffffffff1663fb5474ae6040518163ffffffff1660e01b815260040160206040518083038186803b158015610ed157600080fd5b505afa158015610ee5573d6000803e3d6000fd5b505050506040513d601f19601f82011682018060405250810190610f09919061189a565b905090565b604051806101c00160405280600015158152602001600015158152602001600073ffffffffffffffffffffffffffffffffffffffff16815260200160008152602001600081526020016000801916815260200160008152602001600081526020016060815260200160608152602001610f85611018565b81526020016000815260200160008152602001600081525090565b60405180606001604052806000801916815260200160608152602001606081525090565b60405180606001604052806000801916815260200160008152602001600081525090565b6040518060400160405280600073ffffffffffffffffffffffffffffffffffffffff168152602001600081525090565b6040518060400160405280600073ffffffffffffffffffffffffffffffffffffffff168152602001600060018111156110545761105361238e565b5b81525090565b600061106d61106884612050565b61202b565b905080838252602082019050828560208602820111156110905761108f61242a565b5b60005b858110156110c057816110a68882611201565b845260208401935060208301925050600181019050611093565b5050509392505050565b60006110dd6110d88461207c565b61202b565b90508083825260208201905082856020860282011115611100576110ff61242a565b5b60005b85811015611130578161111688826112ca565b845260208401935060208301925050600181019050611103565b5050509392505050565b600061114d611148846120a8565b61202b565b905080838252602082019050828560208602820111156111705761116f61242a565b5b60005b858110156111a057816111868882611623565b845260208401935060208301925050600181019050611173565b5050509392505050565b60006111bd6111b8846120d4565b61202b565b9050828152602081018484840111156111d9576111d861242f565b5b6111e48482856122b2565b509392505050565b6000813590506111fb81612477565b92915050565b60008151905061121081612477565b92915050565b600082601f83011261122b5761122a61241b565b5b815161123b84826020860161105a565b91505092915050565b600082601f8301126112595761125861241b565b5b81516112698482602086016110ca565b91505092915050565b600082601f8301126112875761128661241b565b5b815161129784826020860161113a565b91505092915050565b6000815190506112af8161248e565b92915050565b6000813590506112c4816124a5565b92915050565b6000815190506112d9816124a5565b92915050565b6000815190506112ee816124bc565b92915050565b600081359050611303816124cc565b92915050565b600081519050611318816124cc565b92915050565b600082601f8301126113335761133261241b565b5b81516113438482602086016111aa565b91505092915050565b60006040828403121561136257611361612420565b5b61136c604061202b565b9050600061137c84828501611201565b6000830152506020611390848285016112df565b60208301525092915050565b6000606082840312156113b2576113b1612420565b5b6113bc606061202b565b905060006113cc848285016112ca565b600083015250602082015167ffffffffffffffff8111156113f0576113ef612425565b5b6113fc84828501611244565b602083015250604082015167ffffffffffffffff8111156114205761141f612425565b5b61142c8482850161131e565b60408301525092915050565b60006101e0828403121561144f5761144e612420565b5b61145a6101c061202b565b9050600061146a848285016112a0565b600083015250602061147e848285016112a0565b602083015250604061149284828501611201565b60408301525060606114a684828501611623565b60608301525060806114ba84828501611623565b60808301525060a06114ce848285016112ca565b60a08301525060c06114e284828501611623565b60c08301525060e06114f684828501611623565b60e08301525061010082015167ffffffffffffffff81111561151b5761151a612425565b5b61152784828501611216565b6101008301525061012082015167ffffffffffffffff81111561154d5761154c612425565b5b61155984828501611272565b6101208301525061014061156f8482850161134c565b6101408301525061018061158584828501611623565b610160830152506101a061159b84828501611623565b610180830152506101c06115b184828501611623565b6101a08301525092915050565b6000604082840312156115d4576115d3612420565b5b6115de604061202b565b905060006115ee84828501611201565b600083015250602061160284828501611623565b60208301525092915050565b60008135905061161d816124dc565b92915050565b600081519050611632816124dc565b92915050565b60006020828403121561164e5761164d612439565b5b600061165c848285016111ec565b91505092915050565b60006020828403121561167b5761167a612439565b5b600082015167ffffffffffffffff81111561169957611698612434565b5b6116a584828501611216565b91505092915050565b6000602082840312156116c4576116c3612439565b5b60006116d2848285016112b5565b91505092915050565b600080604083850312156116f2576116f1612439565b5b6000611700858286016112b5565b9250506020611711858286016111ec565b9150509250929050565b6000806040838503121561173257611731612439565b5b6000611740858286016112b5565b9250506020611751858286016112f4565b9150509250929050565b60008060006060848603121561177457611773612439565b5b6000611782868287016112ca565b935050602061179386828701611623565b92505060406117a486828701611623565b9150509250925092565b6000602082840312156117c4576117c3612439565b5b600082015167ffffffffffffffff8111156117e2576117e1612434565b5b6117ee8482850161139c565b91505092915050565b60006020828403121561180d5761180c612439565b5b600082015167ffffffffffffffff81111561182b5761182a612434565b5b61183784828501611438565b91505092915050565b60006040828403121561185657611855612439565b5b6000611864848285016115be565b91505092915050565b60006020828403121561188357611882612439565b5b60006118918482850161160e565b91505092915050565b6000602082840312156118b0576118af612439565b5b60006118be84828501611623565b91505092915050565b600080604083850312156118de576118dd612439565b5b60006118ec85828601611623565b92505060206118fd85828601611309565b9150509250929050565b60006119138383611963565b60208301905092915050565b600061192b8383611b7d565b60208301905092915050565b60006119438383611c21565b905092915050565b60006119578383611e75565b60208301905092915050565b61196c81612216565b82525050565b61197b81612216565b82525050565b600061198c82612145565b61199681856121b0565b93506119a183612105565b8060005b838110156119d25781516119b98882611907565b97506119c48361217c565b9250506001810190506119a5565b5085935050505092915050565b60006119ea82612145565b6119f481856121c1565b93506119ff83612105565b8060005b83811015611a30578151611a178882611907565b9750611a228361217c565b925050600181019050611a03565b5085935050505092915050565b6000611a4882612150565b611a5281856121d2565b9350611a5d83612115565b8060005b83811015611a8e578151611a75888261191f565b9750611a8083612189565b925050600181019050611a61565b5085935050505092915050565b6000611aa68261215b565b611ab081856121e3565b935083602082028501611ac285612125565b8060005b85811015611afe5784840389528151611adf8582611937565b9450611aea83612196565b925060208a01995050600181019050611ac6565b50829750879550505050505092915050565b6000611b1b82612166565b611b2581856121f4565b9350611b3083612135565b8060005b83811015611b61578151611b48888261194b565b9750611b53836121a3565b925050600181019050611b34565b5085935050505092915050565b611b7781612228565b82525050565b611b8681612234565b82525050565b611b9581612234565b82525050565b611ba48161228e565b82525050565b611bb3816122a0565b82525050565b6000611bc482612171565b611bce8185612205565b9350611bde8185602086016122b2565b611be78161243e565b840191505092915050565b604082016000820151611c086000850182611963565b506020820151611c1b6020850182611b9b565b50505050565b6000606083016000830151611c396000860182611b7d565b5060208301518482036020860152611c518282611a3d565b91505060408301518482036040860152611c6b8282611bb9565b9150508091505092915050565b6000606083016000830151611c906000860182611b7d565b5060208301518482036020860152611ca88282611a3d565b91505060408301518482036040860152611cc28282611bb9565b9150508091505092915050565b60006101e083016000830151611ce86000860182611b6e565b506020830151611cfb6020860182611b6e565b506040830151611d0e6040860182611963565b506060830151611d216060860182611e75565b506080830151611d346080860182611e75565b5060a0830151611d4760a0860182611b7d565b5060c0830151611d5a60c0860182611e75565b5060e0830151611d6d60e0860182611e75565b50610100830151848203610100860152611d878282611981565b915050610120830151848203610120860152611da38282611b10565b915050610140830151611dba610140860182611bf2565b50610160830151611dcf610180860182611e75565b50610180830151611de46101a0860182611e75565b506101a0830151611df96101c0860182611e75565b508091505092915050565b606082016000820151611e1a6000850182611b7d565b506020820151611e2d6020850182611e75565b506040820151611e406040850182611e75565b50505050565b604082016000820151611e5c6000850182611963565b506020820151611e6f6020850182611e75565b50505050565b611e7e81612284565b82525050565b611e8d81612284565b82525050565b6000602082019050611ea86000830184611972565b92915050565b6000604082019050611ec36000830185611972565b611ed06020830184611e84565b9392505050565b60006020820190508181036000830152611ef181846119df565b905092915050565b6000602082019050611f0e6000830184611b8c565b92915050565b6000604082019050611f296000830185611b8c565b611f366020830184611972565b9392505050565b6000604082019050611f526000830185611b8c565b611f5f6020830184611baa565b9392505050565b60006020820190508181036000830152611f808184611c78565b905092915050565b60006020820190508181036000830152611fa28184611ccf565b905092915050565b6000606082019050611fbf6000830184611e04565b92915050565b6000604082019050611fda6000830184611e46565b92915050565b6000602082019050611ff56000830184611e84565b92915050565b60006040820190506120106000830185611e84565b81810360208301526120228184611a9b565b90509392505050565b6000612035612046565b905061204182826122e5565b919050565b6000604051905090565b600067ffffffffffffffff82111561206b5761206a6123ec565b5b602082029050602081019050919050565b600067ffffffffffffffff821115612097576120966123ec565b5b602082029050602081019050919050565b600067ffffffffffffffff8211156120c3576120c26123ec565b5b602082029050602081019050919050565b600067ffffffffffffffff8211156120ef576120ee6123ec565b5b6120f88261243e565b9050602081019050919050565b6000819050602082019050919050565b6000819050602082019050919050565b6000819050602082019050919050565b6000819050602082019050919050565b600081519050919050565b600081519050919050565b600081519050919050565b600081519050919050565b600081519050919050565b6000602082019050919050565b6000602082019050919050565b6000602082019050919050565b6000602082019050919050565b600082825260208201905092915050565b600082825260208201905092915050565b600082825260208201905092915050565b600082825260208201905092915050565b600082825260208201905092915050565b600082825260208201905092915050565b600061222182612264565b9050919050565b60008115159050919050565b6000819050919050565b600081905061224c8261244f565b919050565b600081905061225f82612463565b919050565b600073ffffffffffffffffffffffffffffffffffffffff82169050919050565b6000819050919050565b60006122998261223e565b9050919050565b60006122ab82612251565b9050919050565b60005b838110156122d05780820151818401526020810190506122b5565b838111156122df576000848401525b50505050565b6122ee8261243e565b810181811067ffffffffffffffff8211171561230d5761230c6123ec565b5b80604052505050565b600061232182612284565b91507fffffffffffffffffffffffffffffffffffffffffffffffffffffffffffffffff8214156123545761235361235f565b5b600182019050919050565b7f4e487b7100000000000000000000000000000000000000000000000000000000600052601160045260246000fd5b7f4e487b7100000000000000000000000000000000000000000000000000000000600052602160045260246000fd5b7f4e487b7100000000000000000000000000000000000000000000000000000000600052603260045260246000fd5b7f4e487b7100000000000000000000000000000000000000000000000000000000600052604160045260246000fd5b600080fd5b600080fd5b600080fd5b600080fd5b600080fd5b600080fd5b600080fd5b6000601f19601f8301169050919050565b600281106124605761245f61238e565b5b50565b600481106124745761247361238e565b5b50565b61248081612216565b811461248b57600080fd5b50565b61249781612228565b81146124a257600080fd5b50565b6124ae81612234565b81146124b957600080fd5b50565b600281106124c957600080fd5b50565b600481106124d957600080fd5b50565b6124e581612284565b81146124f057600080fd5b5056fea264697066735822122093d06004cc5417d69d01f37af61d7e84e055616091df901c392168f22251775d64736f6c63430008070033",
  "linkReferences": {},
  "deployedLinkReferences": {}
}