{
  "_format": "hh-sol-artifact-1",
  "contractName": "Memberships",
  "sourceName": "contracts/Memberships.sol",
  "abi": [
    {
      "inputs": [
        {
          "internalType": "address",
          "name": "_eternalStorage",
          "type": "address"
        },
        {
          "internalType": "address",
          "name": "_membershipsImpl",
          "type": "address"
        }
      ],
      "stateMutability": "nonpayable",
      "type": "constructor"
    },
    {
      "anonymous": false,
      "inputs": [
        {
          "indexed": true,
          "internalType": "address",
          "name": "from",
          "type": "address"
        },
        {
          "indexed": true,
          "internalType": "bytes32",
          "name": "scheduleId",
          "type": "bytes32"
        },
        {
          "indexed": true,
          "internalType": "address",
          "name": "token",
          "type": "address"
        },
        {
          "indexed": false,
          "internalType": "uint256",
          "name": "lots",
          "type": "uint256"
        },
        {
          "indexed": false,
          "internalType": "uint256",
          "name": "tokens",
          "type": "uint256"
        }
      ],
      "name": "EventBuy",
      "type": "event"
    },
    {
      "anonymous": false,
      "inputs": [
        {
          "indexed": true,
          "internalType": "address",
          "name": "from",
          "type": "address"
        },
        {
          "indexed": true,
          "internalType": "bytes32",
          "name": "scheduleId",
          "type": "bytes32"
        },
        {
          "indexed": false,
          "internalType": "address",
          "name": "newReferral",
          "type": "address"
        }
      ],
      "name": "EventReferralUpdated",
      "type": "event"
    },
    {
      "anonymous": false,
      "inputs": [
        {
          "indexed": true,
          "internalType": "address",
          "name": "from",
          "type": "address"
        },
        {
          "indexed": true,
          "internalType": "bytes32",
          "name": "scheduleId",
          "type": "bytes32"
        }
      ],
      "name": "EventScheduleCreated",
      "type": "event"
    },
    {
      "anonymous": false,
      "inputs": [
        {
          "indexed": true,
          "internalType": "address",
          "name": "from",
          "type": "address"
        },
        {
          "indexed": true,
          "internalType": "bytes32",
          "name": "scheduleId",
          "type": "bytes32"
        },
        {
          "indexed": true,
          "internalType": "address",
          "name": "token",
          "type": "address"
        }
      ],
      "name": "EventScheduleCreatedWithToken",
      "type": "event"
    },
    {
      "anonymous": false,
      "inputs": [
        {
          "indexed": true,
          "internalType": "address",
          "name": "from",
          "type": "address"
        },
        {
          "indexed": false,
          "internalType": "address",
          "name": "token",
          "type": "address"
        },
        {
          "indexed": false,
          "internalType": "bool",
          "name": "value",
          "type": "bool"
        }
      ],
      "name": "EventTokenAllowedUpdated",
      "type": "event"
    },
    {
      "anonymous": false,
      "inputs": [
        {
          "indexed": true,
          "internalType": "bytes32",
          "name": "scheduleId",
          "type": "bytes32"
        }
      ],
      "name": "Revoked",
      "type": "event"
    },
    {
      "anonymous": false,
      "inputs": [
        {
          "indexed": true,
          "internalType": "bytes32",
          "name": "role",
          "type": "bytes32"
        },
        {
          "indexed": true,
          "internalType": "bytes32",
          "name": "previousAdminRole",
          "type": "bytes32"
        },
        {
          "indexed": true,
          "internalType": "bytes32",
          "name": "newAdminRole",
          "type": "bytes32"
        }
      ],
      "name": "RoleAdminChanged",
      "type": "event"
    },
    {
      "anonymous": false,
      "inputs": [
        {
          "indexed": true,
          "internalType": "bytes32",
          "name": "role",
          "type": "bytes32"
        },
        {
          "indexed": true,
          "internalType": "address",
          "name": "account",
          "type": "address"
        },
        {
          "indexed": true,
          "internalType": "address",
          "name": "sender",
          "type": "address"
        }
      ],
      "name": "RoleGranted",
      "type": "event"
    },
    {
      "anonymous": false,
      "inputs": [
        {
          "indexed": true,
          "internalType": "bytes32",
          "name": "role",
          "type": "bytes32"
        },
        {
          "indexed": true,
          "internalType": "address",
          "name": "account",
          "type": "address"
        },
        {
          "indexed": true,
          "internalType": "address",
          "name": "sender",
          "type": "address"
        }
      ],
      "name": "RoleRevoked",
      "type": "event"
    },
    {
      "stateMutability": "payable",
      "type": "fallback"
    },
    {
      "inputs": [],
      "name": "ADMIN_ROLE",
      "outputs": [
        {
          "internalType": "bytes32",
          "name": "",
          "type": "bytes32"
        }
      ],
      "stateMutability": "view",
      "type": "function"
    },
    {
      "inputs": [],
      "name": "DEFAULT_ADMIN_ROLE",
      "outputs": [
        {
          "internalType": "bytes32",
          "name": "",
          "type": "bytes32"
        }
      ],
      "stateMutability": "view",
      "type": "function"
    },
    {
      "inputs": [
        {
          "internalType": "bytes32",
          "name": "scheduleId",
          "type": "bytes32"
        },
        {
          "internalType": "uint256",
          "name": "amount",
          "type": "uint256"
        }
      ],
      "name": "buy",
      "outputs": [],
      "stateMutability": "payable",
      "type": "function"
    },
    {
      "inputs": [
        {
          "internalType": "bytes32",
          "name": "scheduleId",
          "type": "bytes32"
        },
        {
          "internalType": "uint256",
          "name": "amount",
          "type": "uint256"
        },
        {
          "internalType": "bytes32[]",
          "name": "proof",
          "type": "bytes32[]"
        }
      ],
      "name": "buyWithAllowlist",
      "outputs": [],
      "stateMutability": "payable",
      "type": "function"
    },
    {
      "inputs": [
        {
          "internalType": "bytes32",
          "name": "scheduleId",
          "type": "bytes32"
        }
      ],
      "name": "claim",
      "outputs": [],
      "stateMutability": "nonpayable",
      "type": "function"
    },
    {
      "inputs": [
        {
          "internalType": "bytes32",
          "name": "scheduleId",
          "type": "bytes32"
        }
      ],
      "name": "claimReferral",
      "outputs": [],
      "stateMutability": "nonpayable",
      "type": "function"
    },
    {
      "inputs": [
        {
          "internalType": "bytes32",
          "name": "scheduleId",
          "type": "bytes32"
        }
      ],
      "name": "claimRoll",
      "outputs": [],
      "stateMutability": "nonpayable",
      "type": "function"
    },
    {
      "inputs": [
        {
          "internalType": "bytes32",
          "name": "scheduleId",
          "type": "bytes32"
        }
      ],
      "name": "claimUnsoldTokens",
      "outputs": [],
      "stateMutability": "nonpayable",
      "type": "function"
    },
    {
      "inputs": [
        {
          "internalType": "address",
          "name": "holder",
          "type": "address"
        }
      ],
      "name": "computeNextScheduleIdForHolder",
      "outputs": [
        {
          "internalType": "bytes32",
          "name": "",
          "type": "bytes32"
        }
      ],
      "stateMutability": "view",
      "type": "function"
    },
    {
      "inputs": [
        {
          "internalType": "bytes32",
          "name": "scheduleId",
          "type": "bytes32"
        }
      ],
      "name": "computeReleasableAmount",
      "outputs": [
        {
          "internalType": "uint256",
          "name": "",
          "type": "uint256"
        }
      ],
      "stateMutability": "view",
      "type": "function"
    },
    {
      "inputs": [
        {
          "internalType": "address",
          "name": "holder",
          "type": "address"
        },
        {
          "internalType": "uint256",
          "name": "index",
          "type": "uint256"
        }
      ],
      "name": "computeScheduleIdForAddressAndIndex",
      "outputs": [
        {
          "internalType": "bytes32",
          "name": "",
          "type": "bytes32"
        }
      ],
      "stateMutability": "pure",
      "type": "function"
    },
    {
      "inputs": [
        {
          "components": [
            {
              "internalType": "uint256",
              "name": "start",
              "type": "uint256"
            },
            {
              "internalType": "uint256",
              "name": "duration",
              "type": "uint256"
            },
            {
              "internalType": "bytes32",
              "name": "merkleRoot",
              "type": "bytes32"
            },
            {
              "internalType": "uint256",
              "name": "amountTotal",
              "type": "uint256"
            },
            {
              "internalType": "address[]",
              "name": "lotToken",
              "type": "address[]"
            },
            {
              "internalType": "uint256[]",
              "name": "lotSize",
              "type": "uint256[]"
            },
            {
              "internalType": "uint256",
              "name": "pricePerLot",
              "type": "uint256"
            },
            {
              "components": [
                {
                  "internalType": "address",
                  "name": "token",
                  "type": "address"
                },
                {
                  "internalType": "enum MembershipsTypes.AssetType",
                  "name": "assetType",
                  "type": "uint8"
                }
              ],
              "internalType": "struct MembershipsTypes.Asset",
              "name": "paymentAsset",
              "type": "tuple"
            },
            {
              "internalType": "uint256",
              "name": "rollFee",
              "type": "uint256"
            },
            {
              "internalType": "address",
              "name": "referral",
              "type": "address"
            },
            {
              "internalType": "uint256",
              "name": "referralFee",
              "type": "uint256"
            }
          ],
          "internalType": "struct MembershipsTypes.CreateMintingScheduleParams",
          "name": "params",
          "type": "tuple"
        }
      ],
      "name": "createMintingSchedule",
      "outputs": [],
      "stateMutability": "nonpayable",
      "type": "function"
    },
    {
      "inputs": [
        {
          "internalType": "uint256",
          "name": "index",
          "type": "uint256"
        }
      ],
      "name": "getIdAtIndex",
      "outputs": [
        {
          "internalType": "bytes32",
          "name": "",
          "type": "bytes32"
        }
      ],
      "stateMutability": "view",
      "type": "function"
    },
    {
      "inputs": [
        {
          "internalType": "bytes32",
          "name": "role",
          "type": "bytes32"
        }
      ],
      "name": "getRoleAdmin",
      "outputs": [
        {
          "internalType": "bytes32",
          "name": "",
          "type": "bytes32"
        }
      ],
      "stateMutability": "view",
      "type": "function"
    },
    {
      "inputs": [
        {
          "internalType": "bytes32",
          "name": "scheduleId",
          "type": "bytes32"
        }
      ],
      "name": "getSchedule",
      "outputs": [
        {
          "components": [
            {
              "internalType": "bool",
              "name": "initialized",
              "type": "bool"
            },
            {
              "internalType": "bool",
              "name": "revoked",
              "type": "bool"
            },
            {
              "internalType": "address",
              "name": "owner",
              "type": "address"
            },
            {
              "internalType": "uint256",
              "name": "start",
              "type": "uint256"
            },
            {
              "internalType": "uint256",
              "name": "duration",
              "type": "uint256"
            },
            {
              "internalType": "bytes32",
              "name": "merkleRoot",
              "type": "bytes32"
            },
            {
              "internalType": "uint256",
              "name": "amountTotal",
              "type": "uint256"
            },
            {
              "internalType": "uint256",
              "name": "released",
              "type": "uint256"
            },
            {
              "internalType": "address[]",
              "name": "lotToken",
              "type": "address[]"
            },
            {
              "internalType": "uint256[]",
              "name": "lotSize",
              "type": "uint256[]"
            },
            {
              "components": [
                {
                  "internalType": "address",
                  "name": "token",
                  "type": "address"
                },
                {
                  "internalType": "enum MembershipsTypes.AssetType",
                  "name": "assetType",
                  "type": "uint8"
                }
              ],
              "internalType": "struct MembershipsTypes.Asset",
              "name": "paymentAsset",
              "type": "tuple"
            },
            {
              "internalType": "uint256",
              "name": "pricePerLot",
              "type": "uint256"
            },
            {
              "internalType": "uint256",
              "name": "rollFee",
              "type": "uint256"
            }
          ],
          "internalType": "struct MembershipsTypes.MintingSchedule",
          "name": "",
          "type": "tuple"
        }
      ],
      "stateMutability": "view",
      "type": "function"
    },
    {
      "inputs": [
        {
          "internalType": "address",
          "name": "holder",
          "type": "address"
        },
        {
          "internalType": "uint256",
          "name": "index",
          "type": "uint256"
        }
      ],
      "name": "getScheduleByAddressAndIndex",
      "outputs": [
        {
          "components": [
            {
              "internalType": "bool",
              "name": "initialized",
              "type": "bool"
            },
            {
              "internalType": "bool",
              "name": "revoked",
              "type": "bool"
            },
            {
              "internalType": "address",
              "name": "owner",
              "type": "address"
            },
            {
              "internalType": "uint256",
              "name": "start",
              "type": "uint256"
            },
            {
              "internalType": "uint256",
              "name": "duration",
              "type": "uint256"
            },
            {
              "internalType": "bytes32",
              "name": "merkleRoot",
              "type": "bytes32"
            },
            {
              "internalType": "uint256",
              "name": "amountTotal",
              "type": "uint256"
            },
            {
              "internalType": "uint256",
              "name": "released",
              "type": "uint256"
            },
            {
              "internalType": "address[]",
              "name": "lotToken",
              "type": "address[]"
            },
            {
              "internalType": "uint256[]",
              "name": "lotSize",
              "type": "uint256[]"
            },
            {
              "components": [
                {
                  "internalType": "address",
                  "name": "token",
                  "type": "address"
                },
                {
                  "internalType": "enum MembershipsTypes.AssetType",
                  "name": "assetType",
                  "type": "uint8"
                }
              ],
              "internalType": "struct MembershipsTypes.Asset",
              "name": "paymentAsset",
              "type": "tuple"
            },
            {
              "internalType": "uint256",
              "name": "pricePerLot",
              "type": "uint256"
            },
            {
              "internalType": "uint256",
              "name": "rollFee",
              "type": "uint256"
            }
          ],
          "internalType": "struct MembershipsTypes.MintingSchedule",
          "name": "",
          "type": "tuple"
        }
      ],
      "stateMutability": "view",
      "type": "function"
    },
    {
      "inputs": [],
      "name": "getSchedulesCount",
      "outputs": [
        {
          "internalType": "uint256",
          "name": "",
          "type": "uint256"
        }
      ],
      "stateMutability": "view",
      "type": "function"
    },
    {
      "inputs": [
        {
          "internalType": "address",
          "name": "_beneficiary",
          "type": "address"
        }
      ],
      "name": "getSchedulesCountByBeneficiary",
      "outputs": [
        {
          "internalType": "uint256",
          "name": "",
          "type": "uint256"
        }
      ],
      "stateMutability": "view",
      "type": "function"
    },
    {
      "inputs": [
        {
          "internalType": "bytes32",
          "name": "role",
          "type": "bytes32"
        },
        {
          "internalType": "address",
          "name": "account",
          "type": "address"
        }
      ],
      "name": "grantRole",
      "outputs": [],
      "stateMutability": "nonpayable",
      "type": "function"
    },
    {
      "inputs": [
        {
          "internalType": "bytes32",
          "name": "role",
          "type": "bytes32"
        },
        {
          "internalType": "address",
          "name": "account",
          "type": "address"
        }
      ],
      "name": "hasRole",
      "outputs": [
        {
          "internalType": "bool",
          "name": "",
          "type": "bool"
        }
      ],
      "stateMutability": "view",
      "type": "function"
    },
    {
      "inputs": [
        {
          "internalType": "bytes32",
          "name": "role",
          "type": "bytes32"
        },
        {
          "internalType": "address",
          "name": "account",
          "type": "address"
        }
      ],
      "name": "renounceRole",
      "outputs": [],
      "stateMutability": "nonpayable",
      "type": "function"
    },
    {
      "inputs": [
        {
          "internalType": "bytes32",
          "name": "scheduleId",
          "type": "bytes32"
        }
      ],
      "name": "revoke",
      "outputs": [],
      "stateMutability": "nonpayable",
      "type": "function"
    },
    {
      "inputs": [
        {
          "internalType": "bytes32",
          "name": "role",
          "type": "bytes32"
        },
        {
          "internalType": "address",
          "name": "account",
          "type": "address"
        }
      ],
      "name": "revokeRole",
      "outputs": [],
      "stateMutability": "nonpayable",
      "type": "function"
    },
    {
      "inputs": [
        {
          "internalType": "bytes32",
          "name": "scheduleId",
          "type": "bytes32"
        },
        {
          "internalType": "bytes32",
          "name": "root",
          "type": "bytes32"
        }
      ],
      "name": "setAllowlist",
      "outputs": [],
      "stateMutability": "nonpayable",
      "type": "function"
    },
    {
      "inputs": [
        {
          "internalType": "uint256",
          "name": "_minRollFee",
          "type": "uint256"
        }
      ],
      "name": "setMinRollFee",
      "outputs": [],
      "stateMutability": "nonpayable",
      "type": "function"
    },
    {
      "inputs": [
        {
          "internalType": "address",
          "name": "_rollWallet",
          "type": "address"
        }
      ],
      "name": "setRollWallet",
      "outputs": [],
      "stateMutability": "nonpayable",
      "type": "function"
    },
    {
      "inputs": [
        {
          "internalType": "address",
          "name": "_token",
          "type": "address"
        },
        {
          "internalType": "bool",
          "name": "_value",
          "type": "bool"
        }
      ],
      "name": "setTokenAllow",
      "outputs": [],
      "stateMutability": "nonpayable",
      "type": "function"
    },
    {
      "inputs": [
        {
          "internalType": "bytes4",
          "name": "interfaceId",
          "type": "bytes4"
        }
      ],
      "name": "supportsInterface",
      "outputs": [
        {
          "internalType": "bool",
          "name": "",
          "type": "bool"
        }
      ],
      "stateMutability": "view",
      "type": "function"
    },
    {
      "inputs": [
        {
          "internalType": "bytes32",
          "name": "scheduleId",
          "type": "bytes32"
        },
        {
          "internalType": "address",
          "name": "owner",
          "type": "address"
        }
      ],
      "name": "transferScheduleOwner",
      "outputs": [],
      "stateMutability": "nonpayable",
      "type": "function"
    },
    {
      "inputs": [
        {
          "internalType": "bytes32",
          "name": "_scheduleId",
          "type": "bytes32"
        },
        {
          "internalType": "address",
          "name": "_referral",
          "type": "address"
        }
      ],
      "name": "updateReferral",
      "outputs": [],
      "stateMutability": "nonpayable",
      "type": "function"
    },
    {
      "stateMutability": "payable",
      "type": "receive"
    }
  ],
  "bytecode": "0x60806040523480156200001157600080fd5b50604051620058493803806200584983398181016040528101906200003791906200031a565b6001808190555081600260006101000a81548173ffffffffffffffffffffffffffffffffffffffff021916908373ffffffffffffffffffffffffffffffffffffffff16021790555080600360006101000a81548173ffffffffffffffffffffffffffffffffffffffff021916908373ffffffffffffffffffffffffffffffffffffffff160217905550600360009054906101000a900473ffffffffffffffffffffffffffffffffffffffff1673ffffffffffffffffffffffffffffffffffffffff1663b5bb5619836040518263ffffffff1660e01b81526004016200011d91906200036c565b600060405180830381600087803b1580156200013857600080fd5b505af11580156200014d573d6000803e3d6000fd5b50505050620001666000801b33620001a060201b60201c565b620001987fa49807205ce4d355092ef5a8a18f56e8913cf4a201fbe287825b095693c2177533620001a060201b60201c565b5050620003d7565b620001b282826200029160201b60201c565b6200028d57600160008084815260200190815260200160002060000160008373ffffffffffffffffffffffffffffffffffffffff1673ffffffffffffffffffffffffffffffffffffffff16815260200190815260200160002060006101000a81548160ff02191690831515021790555062000232620002fb60201b60201c565b73ffffffffffffffffffffffffffffffffffffffff168173ffffffffffffffffffffffffffffffffffffffff16837f2f8788117e7eff1d82e926ec794901d17c78024a50270940304540a733656f0d60405160405180910390a45b5050565b600080600084815260200190815260200160002060000160008373ffffffffffffffffffffffffffffffffffffffff1673ffffffffffffffffffffffffffffffffffffffff16815260200190815260200160002060009054906101000a900460ff16905092915050565b600033905090565b6000815190506200031481620003bd565b92915050565b600080604083850312156200032e57600080fd5b60006200033e8582860162000303565b9250506020620003518582860162000303565b9150509250929050565b620003668162000389565b82525050565b60006020820190506200038360008301846200035b565b92915050565b600062000396826200039d565b9050919050565b600073ffffffffffffffffffffffffffffffffffffffff82169050919050565b620003c88162000389565b8114620003d457600080fd5b50565b61546280620003e76000396000f3fe6080604052600436106101d15760003560e01c806375b238fc116100f7578063b395e01111610095578063d547741f11610064578063d547741f14610690578063dca9e48d146106b9578063ea1bb3d5146106e2578063f141391b1461071f576101d8565b8063b395e011146105d8578063b75c7dc614610615578063bd66528a1461063e578063d1a81d9f14610667576101d8565b80638a46e943116100d15780638a46e9431461050a57806391d1485414610547578063a217fddf14610584578063b042657a146105af576101d8565b806375b238fc1461048d5780638215b882146104b8578063827430e9146104e1576101d8565b8063248a9ca31161016f57806335d35ad01161013e57806335d35ad0146103d557806336568abe146103fe57806339d0e28f146104275780633adc277a14610450576101d8565b8063248a9ca31461031b5780632f2ff15d1461035857806330ea590314610381578063353696a8146103aa576101d8565b80630c9b91a8116101ab5780630c9b91a8146102705780630ddeb632146102995780630e69a433146102b5578063209e24b4146102de576101d8565b806301ffc9a7146101da57806303886f141461021757806304e4cb3414610254576101d8565b366101d857005b005b3480156101e657600080fd5b5061020160048036038101906101fc9190613f76565b61075c565b60405161020e9190614962565b60405180910390f35b34801561022357600080fd5b5061023e60048036038101906102399190613da4565b61076e565b60405161024b919061497d565b60405180910390f35b61026e60048036038101906102699190613f0f565b6107a1565b005b34801561027c57600080fd5b5061029760048036038101906102929190613e5b565b610a62565b005b6102b360048036038101906102ae9190613ed3565b610c1e565b005b3480156102c157600080fd5b506102dc60048036038101906102d79190613f9f565b610f4e565b005b3480156102ea57600080fd5b5061030560048036038101906103009190614021565b611a18565b604051610312919061497d565b60405180910390f35b34801561032757600080fd5b50610342600480360381019061033d9190613e09565b611aaf565b60405161034f919061497d565b60405180910390f35b34801561036457600080fd5b5061037f600480360381019061037a9190613e5b565b611ace565b005b34801561038d57600080fd5b506103a860048036038101906103a39190613e09565b611af7565b005b3480156103b657600080fd5b506103bf611d15565b6040516103cc9190614c49565b60405180910390f35b3480156103e157600080fd5b506103fc60048036038101906103f79190614021565b611d22565b005b34801561040a57600080fd5b5061042560048036038101906104209190613e5b565b611d78565b005b34801561043357600080fd5b5061044e60048036038101906104499190613e97565b611dfb565b005b34801561045c57600080fd5b5061047760048036038101906104729190613e09565b611fb7565b6040516104849190614c27565b60405180910390f35b34801561049957600080fd5b506104a2612076565b6040516104af919061497d565b60405180910390f35b3480156104c457600080fd5b506104df60048036038101906104da9190613e5b565b61209a565b005b3480156104ed57600080fd5b5061050860048036038101906105039190613e09565b6122a5565b005b34801561051657600080fd5b50610531600480360381019061052c9190613da4565b61238c565b60405161053e9190614c27565b60405180910390f35b34801561055357600080fd5b5061056e60048036038101906105699190613e5b565b6123ae565b60405161057b9190614962565b60405180910390f35b34801561059057600080fd5b50610599612418565b6040516105a6919061497d565b60405180910390f35b3480156105bb57600080fd5b506105d660048036038101906105d19190613e09565b61241f565b005b3480156105e457600080fd5b506105ff60048036038101906105fa9190613d3f565b612619565b60405161060c919061497d565b60405180910390f35b34801561062157600080fd5b5061063c60048036038101906106379190613e09565b61266b565b005b34801561064a57600080fd5b5061066560048036038101906106609190613e09565b61293a565b005b34801561067357600080fd5b5061068e60048036038101906106899190613d3f565b612b34565b005b34801561069c57600080fd5b506106b760048036038101906106b29190613e5b565b612bc4565b005b3480156106c557600080fd5b506106e060048036038101906106db9190613d68565b612bed565b005b3480156106ee57600080fd5b5061070960048036038101906107049190613e09565b612ce4565b6040516107169190614c49565b60405180910390f35b34801561072b57600080fd5b5061074660048036038101906107419190613d3f565b612eae565b6040516107539190614c49565b60405180910390f35b600061076782612ef7565b9050919050565b60008282604051602001610783929190614775565b60405160208183030381529060405280519060200120905092915050565b600260015414156107e7576040517f08c379a00000000000000000000000000000000000000000000000000000000081526004016107de90614ba5565b60405180910390fd5b6002600181905550826000600360009054906101000a900473ffffffffffffffffffffffffffffffffffffffff1673ffffffffffffffffffffffffffffffffffffffff16633adc277a836040518263ffffffff1660e01b815260040161084d919061497d565b60006040518083038186803b15801561086557600080fd5b505afa158015610879573d6000803e3d6000fd5b505050506040513d6000823e3d601f19601f820116820180604052508101906108a29190613fe0565b905060011515816000015115151480156108c457506000151581602001511515145b80156108d4575042816060015111155b80156108f2575042816080015182606001516108f09190614ddf565b115b610931576040517f08c379a000000000000000000000000000000000000000000000000000000000815260040161092890614b65565b60405180910390fd5b600360009054906101000a900473ffffffffffffffffffffffffffffffffffffffff1673ffffffffffffffffffffffffffffffffffffffff1663ca2e8df33387866040518463ffffffff1660e01b8152600401610990939291906148fb565b60006040518083038186803b1580156109a857600080fd5b505afa1580156109bc573d6000803e3d6000fd5b50505050600360009054906101000a900473ffffffffffffffffffffffffffffffffffffffff1673ffffffffffffffffffffffffffffffffffffffff166343a5d44534303389896040518663ffffffff1660e01b8152600401610a22949392919061482d565b6000604051808303818588803b158015610a3b57600080fd5b505af1158015610a4f573d6000803e3d6000fd5b5050505050505060018081905550505050565b816000600360009054906101000a900473ffffffffffffffffffffffffffffffffffffffff1673ffffffffffffffffffffffffffffffffffffffff16633adc277a836040518263ffffffff1660e01b8152600401610ac0919061497d565b60006040518083038186803b158015610ad857600080fd5b505afa158015610aec573d6000803e3d6000fd5b505050506040513d6000823e3d601f19601f82011682018060405250810190610b159190613fe0565b90503373ffffffffffffffffffffffffffffffffffffffff16816040015173ffffffffffffffffffffffffffffffffffffffff1614610b89576040517f08c379a0000000000000000000000000000000000000000000000000000000008152600401610b8090614b45565b60405180910390fd5b600360009054906101000a900473ffffffffffffffffffffffffffffffffffffffff1673ffffffffffffffffffffffffffffffffffffffff16630c9b91a885856040518363ffffffff1660e01b8152600401610be6929190614998565b600060405180830381600087803b158015610c0057600080fd5b505af1158015610c14573d6000803e3d6000fd5b5050505050505050565b60026001541415610c64576040517f08c379a0000000000000000000000000000000000000000000000000000000008152600401610c5b90614ba5565b60405180910390fd5b6002600181905550816000600360009054906101000a900473ffffffffffffffffffffffffffffffffffffffff1673ffffffffffffffffffffffffffffffffffffffff16633adc277a836040518263ffffffff1660e01b8152600401610cca919061497d565b60006040518083038186803b158015610ce257600080fd5b505afa158015610cf6573d6000803e3d6000fd5b505050506040513d6000823e3d601f19601f82011682018060405250810190610d1f9190613fe0565b90506001151581600001511515148015610d4157506000151581602001511515145b8015610d51575042816060015111155b8015610d6f57504281608001518260600151610d6d9190614ddf565b115b610dae576040517f08c379a0000000000000000000000000000000000000000000000000000000008152600401610da590614b65565b60405180910390fd5b6000600360009054906101000a900473ffffffffffffffffffffffffffffffffffffffff1673ffffffffffffffffffffffffffffffffffffffff16633adc277a866040518263ffffffff1660e01b8152600401610e0b919061497d565b60006040518083038186803b158015610e2357600080fd5b505afa158015610e37573d6000803e3d6000fd5b505050506040513d6000823e3d601f19601f82011682018060405250810190610e609190613fe0565b905060008019168160a0015114610eac576040517f08c379a0000000000000000000000000000000000000000000000000000000008152600401610ea390614b25565b60405180910390fd5b600360009054906101000a900473ffffffffffffffffffffffffffffffffffffffff1673ffffffffffffffffffffffffffffffffffffffff166343a5d44534303389896040518663ffffffff1660e01b8152600401610f0e949392919061482d565b6000604051808303818588803b158015610f2757600080fd5b505af1158015610f3b573d6000803e3d6000fd5b5050505050505050600180819055505050565b60026001541415610f94576040517f08c379a0000000000000000000000000000000000000000000000000000000008152600401610f8b90614ba5565b60405180910390fd5b6002600181905550600360009054906101000a900473ffffffffffffffffffffffffffffffffffffffff1673ffffffffffffffffffffffffffffffffffffffff1663d7e4b495826040518263ffffffff1660e01b8152600401610ff79190614c05565b60006040518083038186803b15801561100f57600080fd5b505afa158015611023573d6000803e3d6000fd5b50505050600554816101000151101580156110455750620f4240816101000151105b611084576040517f08c379a000000000000000000000000000000000000000000000000000000000815260040161107b90614a65565b60405180910390fd5b600060018111156110be577f4e487b7100000000000000000000000000000000000000000000000000000000600052602160045260246000fd5b8160e001516020015160018111156110ff577f4e487b7100000000000000000000000000000000000000000000000000000000600052602160045260246000fd5b148061115c5750600660008260e001516000015173ffffffffffffffffffffffffffffffffffffffff1673ffffffffffffffffffffffffffffffffffffffff16815260200190815260200160002060009054906101000a900460ff165b61119b576040517f08c379a000000000000000000000000000000000000000000000000000000000815260040161119290614ac5565b60405180910390fd5b60005b816080015151811015611595576000826080015182815181106111ea577f4e487b7100000000000000000000000000000000000000000000000000000000600052603260045260246000fd5b6020026020010151905060008173ffffffffffffffffffffffffffffffffffffffff1663095ea7b33086606001518760a001518781518110611255577f4e487b7100000000000000000000000000000000000000000000000000000000600052603260045260246000fd5b60200260200101516112679190614e35565b6040518363ffffffff1660e01b8152600401611284929190614939565b602060405180830381600087803b15801561129e57600080fd5b505af11580156112b2573d6000803e3d6000fd5b505050506040513d601f19601f820116820180604052508101906112d69190613de0565b905080611318576040517f08c379a000000000000000000000000000000000000000000000000000000000815260040161130f90614b05565b60405180910390fd5b8173ffffffffffffffffffffffffffffffffffffffff1663095ea7b3600360009054906101000a900473ffffffffffffffffffffffffffffffffffffffff1686606001518760a001518781518110611399577f4e487b7100000000000000000000000000000000000000000000000000000000600052603260045260246000fd5b60200260200101516113ab9190614e35565b6040518363ffffffff1660e01b81526004016113c8929190614939565b602060405180830381600087803b1580156113e257600080fd5b505af11580156113f6573d6000803e3d6000fd5b505050506040513d601f19601f8201168201806040525081019061141a9190613de0565b90508061145c576040517f08c379a000000000000000000000000000000000000000000000000000000000815260040161145390614b05565b60405180910390fd5b8173ffffffffffffffffffffffffffffffffffffffff166323b872dd333087606001518860a0015188815181106114bc577f4e487b7100000000000000000000000000000000000000000000000000000000600052603260045260246000fd5b60200260200101516114ce9190614e35565b6040518463ffffffff1660e01b81526004016114ec93929190614872565b602060405180830381600087803b15801561150657600080fd5b505af115801561151a573d6000803e3d6000fd5b505050506040513d601f19601f8201168201806040525081019061153e9190613de0565b905080611580576040517f08c379a000000000000000000000000000000000000000000000000000000000815260040161157790614b05565b60405180910390fd5b5050808061158d90614fc0565b91505061119e565b506000604051806101a001604052806001151581526020016000151581526020013373ffffffffffffffffffffffffffffffffffffffff1681526020018360000151815260200183602001518152602001836040015181526020018360600151815260200160008152602001836080015181526020018360a0015181526020018360e0015181526020018360c001518152602001836101000151815250905060003073ffffffffffffffffffffffffffffffffffffffff1663b395e011336040518263ffffffff1660e01b815260040161166f91906147db565b60206040518083038186803b15801561168757600080fd5b505afa15801561169b573d6000803e3d6000fd5b505050506040513d601f19601f820116820180604052508101906116bf9190613e32565b9050600360009054906101000a900473ffffffffffffffffffffffffffffffffffffffff1673ffffffffffffffffffffffffffffffffffffffff16631b2a58c282846040518363ffffffff1660e01b815260040161171e9291906149ea565b600060405180830381600087803b15801561173857600080fd5b505af115801561174c573d6000803e3d6000fd5b5050505060078190806001815401808255809150506001900390600052602060002001600090919091909150556001600860003373ffffffffffffffffffffffffffffffffffffffff1673ffffffffffffffffffffffffffffffffffffffff168152602001908152602001600020546117c59190614ddf565b600860003373ffffffffffffffffffffffffffffffffffffffff1673ffffffffffffffffffffffffffffffffffffffff16815260200190815260200160002081905550600073ffffffffffffffffffffffffffffffffffffffff1683610120015173ffffffffffffffffffffffffffffffffffffffff161461190557600360009054906101000a900473ffffffffffffffffffffffffffffffffffffffff1673ffffffffffffffffffffffffffffffffffffffff16638d0ba65c82604051806040016040528087610120015173ffffffffffffffffffffffffffffffffffffffff1681526020018761014001518152506040518363ffffffff1660e01b81526004016118d2929190614a1a565b600060405180830381600087803b1580156118ec57600080fd5b505af1158015611900573d6000803e3d6000fd5b505050505b803373ffffffffffffffffffffffffffffffffffffffff167f078433ece835af411dea2934e9a4a3478be367902b1a036902693b0a0e9ce01860405160405180910390a360005b836080015151811015611a0b5783608001518181518110611996577f4e487b7100000000000000000000000000000000000000000000000000000000600052603260045260246000fd5b602002602001015173ffffffffffffffffffffffffffffffffffffffff16823373ffffffffffffffffffffffffffffffffffffffff167fa6a45dd8f88187786a5d483f7f2a4b4a6f3a2623c142e29b04ad351fe7fa159060405160405180910390a48080611a0390614fc0565b91505061194c565b5050506001808190555050565b6000611a22611d15565b8210611a63576040517f08c379a0000000000000000000000000000000000000000000000000000000008152600401611a5a90614aa5565b60405180910390fd5b60078281548110611a9d577f4e487b7100000000000000000000000000000000000000000000000000000000600052603260045260246000fd5b90600052602060002001549050919050565b6000806000838152602001908152602001600020600101549050919050565b611ad782611aaf565b611ae881611ae3612f71565b612f79565b611af28383613016565b505050565b60026001541415611b3d576040517f08c379a0000000000000000000000000000000000000000000000000000000008152600401611b3490614ba5565b60405180910390fd5b6002600181905550806000600360009054906101000a900473ffffffffffffffffffffffffffffffffffffffff1673ffffffffffffffffffffffffffffffffffffffff16633adc277a836040518263ffffffff1660e01b8152600401611ba3919061497d565b60006040518083038186803b158015611bbb57600080fd5b505afa158015611bcf573d6000803e3d6000fd5b505050506040513d6000823e3d601f19601f82011682018060405250810190611bf89190613fe0565b9050611c026130f6565b81608001518260600151611c169190614ddf565b10611c56576040517f08c379a0000000000000000000000000000000000000000000000000000000008152600401611c4d90614b85565b60405180910390fd5b600360009054906101000a900473ffffffffffffffffffffffffffffffffffffffff1673ffffffffffffffffffffffffffffffffffffffff16631172d77330600460009054906101000a900473ffffffffffffffffffffffffffffffffffffffff16866040518463ffffffff1660e01b8152600401611cd7939291906147f6565b600060405180830381600087803b158015611cf157600080fd5b505af1158015611d05573d6000803e3d6000fd5b5050505050506001808190555050565b6000600780549050905090565b611d2f6000801b336123ae565b611d6e576040517f08c379a0000000000000000000000000000000000000000000000000000000008152600401611d6590614ae5565b60405180910390fd5b8060058190555050565b611d80612f71565b73ffffffffffffffffffffffffffffffffffffffff168173ffffffffffffffffffffffffffffffffffffffff1614611ded576040517f08c379a0000000000000000000000000000000000000000000000000000000008152600401611de490614be5565b60405180910390fd5b611df782826130fe565b5050565b816000600360009054906101000a900473ffffffffffffffffffffffffffffffffffffffff1673ffffffffffffffffffffffffffffffffffffffff16633adc277a836040518263ffffffff1660e01b8152600401611e59919061497d565b60006040518083038186803b158015611e7157600080fd5b505afa158015611e85573d6000803e3d6000fd5b505050506040513d6000823e3d601f19601f82011682018060405250810190611eae9190613fe0565b90503373ffffffffffffffffffffffffffffffffffffffff16816040015173ffffffffffffffffffffffffffffffffffffffff1614611f22576040517f08c379a0000000000000000000000000000000000000000000000000000000008152600401611f1990614b45565b60405180910390fd5b600360009054906101000a900473ffffffffffffffffffffffffffffffffffffffff1673ffffffffffffffffffffffffffffffffffffffff166339d0e28f85856040518363ffffffff1660e01b8152600401611f7f9291906149c1565b600060405180830381600087803b158015611f9957600080fd5b505af1158015611fad573d6000803e3d6000fd5b5050505050505050565b611fbf613543565b600360009054906101000a900473ffffffffffffffffffffffffffffffffffffffff1673ffffffffffffffffffffffffffffffffffffffff16633adc277a836040518263ffffffff1660e01b815260040161201a919061497d565b60006040518083038186803b15801561203257600080fd5b505afa158015612046573d6000803e3d6000fd5b505050506040513d6000823e3d601f19601f8201168201806040525081019061206f9190613fe0565b9050919050565b7fa49807205ce4d355092ef5a8a18f56e8913cf4a201fbe287825b095693c2177581565b816000600360009054906101000a900473ffffffffffffffffffffffffffffffffffffffff1673ffffffffffffffffffffffffffffffffffffffff16633adc277a836040518263ffffffff1660e01b81526004016120f8919061497d565b60006040518083038186803b15801561211057600080fd5b505afa158015612124573d6000803e3d6000fd5b505050506040513d6000823e3d601f19601f8201168201806040525081019061214d9190613fe0565b90503373ffffffffffffffffffffffffffffffffffffffff16816040015173ffffffffffffffffffffffffffffffffffffffff16146121c1576040517f08c379a00000000000000000000000000000000000000000000000000000000081526004016121b890614b45565b60405180910390fd5b600360009054906101000a900473ffffffffffffffffffffffffffffffffffffffff1673ffffffffffffffffffffffffffffffffffffffff16638215b88285856040518363ffffffff1660e01b815260040161221e929190614998565b600060405180830381600087803b15801561223857600080fd5b505af115801561224c573d6000803e3d6000fd5b50505050833373ffffffffffffffffffffffffffffffffffffffff167f1a3a8da1b8fd95dfec524d0586226a4e2c0bfc1b451eec177e17feb66ea1ce4d8560405161229791906147db565b60405180910390a350505050565b600260015414156122eb576040517f08c379a00000000000000000000000000000000000000000000000000000000081526004016122e290614ba5565b60405180910390fd5b6002600181905550600360009054906101000a900473ffffffffffffffffffffffffffffffffffffffff1673ffffffffffffffffffffffffffffffffffffffff16636e7019d130836040518363ffffffff1660e01b81526004016123509291906148d2565b600060405180830381600087803b15801561236a57600080fd5b505af115801561237e573d6000803e3d6000fd5b505050506001808190555050565b612394613543565b6123a66123a1848461076e565b611fb7565b905092915050565b600080600084815260200190815260200160002060000160008373ffffffffffffffffffffffffffffffffffffffff1673ffffffffffffffffffffffffffffffffffffffff16815260200190815260200160002060009054906101000a900460ff16905092915050565b6000801b81565b60026001541415612465576040517f08c379a000000000000000000000000000000000000000000000000000000000815260040161245c90614ba5565b60405180910390fd5b6002600181905550806000600360009054906101000a900473ffffffffffffffffffffffffffffffffffffffff1673ffffffffffffffffffffffffffffffffffffffff16633adc277a836040518263ffffffff1660e01b81526004016124cb919061497d565b60006040518083038186803b1580156124e357600080fd5b505afa1580156124f7573d6000803e3d6000fd5b505050506040513d6000823e3d601f19601f820116820180604052508101906125209190613fe0565b905061252a6130f6565b8160800151826060015161253e9190614ddf565b1061257e576040517f08c379a000000000000000000000000000000000000000000000000000000000815260040161257590614b85565b60405180910390fd5b600360009054906101000a900473ffffffffffffffffffffffffffffffffffffffff1673ffffffffffffffffffffffffffffffffffffffff1663af9806cb30856040518363ffffffff1660e01b81526004016125db9291906148d2565b600060405180830381600087803b1580156125f557600080fd5b505af1158015612609573d6000803e3d6000fd5b5050505050506001808190555050565b600061266482600860008573ffffffffffffffffffffffffffffffffffffffff1673ffffffffffffffffffffffffffffffffffffffff1681526020019081526020016000205461076e565b9050919050565b806000600360009054906101000a900473ffffffffffffffffffffffffffffffffffffffff1673ffffffffffffffffffffffffffffffffffffffff16633adc277a836040518263ffffffff1660e01b81526004016126c9919061497d565b60006040518083038186803b1580156126e157600080fd5b505afa1580156126f5573d6000803e3d6000fd5b505050506040513d6000823e3d601f19601f8201168201806040525081019061271e9190613fe0565b90503373ffffffffffffffffffffffffffffffffffffffff16816040015173ffffffffffffffffffffffffffffffffffffffff1614612792576040517f08c379a000000000000000000000000000000000000000000000000000000000815260040161278990614b45565b60405180910390fd5b826000600360009054906101000a900473ffffffffffffffffffffffffffffffffffffffff1673ffffffffffffffffffffffffffffffffffffffff16633adc277a836040518263ffffffff1660e01b81526004016127f0919061497d565b60006040518083038186803b15801561280857600080fd5b505afa15801561281c573d6000803e3d6000fd5b505050506040513d6000823e3d601f19601f820116820180604052508101906128459190613fe0565b9050600115158160000151151514801561286757506000151581602001511515145b6128a6576040517f08c379a000000000000000000000000000000000000000000000000000000000815260040161289d90614bc5565b60405180910390fd5b600360009054906101000a900473ffffffffffffffffffffffffffffffffffffffff1673ffffffffffffffffffffffffffffffffffffffff1663b75c7dc6866040518263ffffffff1660e01b8152600401612901919061497d565b600060405180830381600087803b15801561291b57600080fd5b505af115801561292f573d6000803e3d6000fd5b505050505050505050565b60026001541415612980576040517f08c379a000000000000000000000000000000000000000000000000000000000815260040161297790614ba5565b60405180910390fd5b6002600181905550806000600360009054906101000a900473ffffffffffffffffffffffffffffffffffffffff1673ffffffffffffffffffffffffffffffffffffffff16633adc277a836040518263ffffffff1660e01b81526004016129e6919061497d565b60006040518083038186803b1580156129fe57600080fd5b505afa158015612a12573d6000803e3d6000fd5b505050506040513d6000823e3d601f19601f82011682018060405250810190612a3b9190613fe0565b9050612a456130f6565b81608001518260600151612a599190614ddf565b10612a99576040517f08c379a0000000000000000000000000000000000000000000000000000000008152600401612a9090614b85565b60405180910390fd5b600360009054906101000a900473ffffffffffffffffffffffffffffffffffffffff1673ffffffffffffffffffffffffffffffffffffffff1663c8622c2430856040518363ffffffff1660e01b8152600401612af69291906148d2565b600060405180830381600087803b158015612b1057600080fd5b505af1158015612b24573d6000803e3d6000fd5b5050505050506001808190555050565b612b416000801b336123ae565b612b80576040517f08c379a0000000000000000000000000000000000000000000000000000000008152600401612b7790614ae5565b60405180910390fd5b80600460006101000a81548173ffffffffffffffffffffffffffffffffffffffff021916908373ffffffffffffffffffffffffffffffffffffffff16021790555050565b612bcd82611aaf565b612bde81612bd9612f71565b612f79565b612be883836130fe565b505050565b612bfa6000801b336123ae565b612c39576040517f08c379a0000000000000000000000000000000000000000000000000000000008152600401612c3090614ae5565b60405180910390fd5b80600660008473ffffffffffffffffffffffffffffffffffffffff1673ffffffffffffffffffffffffffffffffffffffff16815260200190815260200160002060006101000a81548160ff0219169083151502179055503373ffffffffffffffffffffffffffffffffffffffff167fb1e1107fa60e4c971a024ca8254246a18e31afa3f950e360da5f608e145c36b18383604051612cd89291906148a9565b60405180910390a25050565b6000816000600360009054906101000a900473ffffffffffffffffffffffffffffffffffffffff1673ffffffffffffffffffffffffffffffffffffffff16633adc277a836040518263ffffffff1660e01b8152600401612d44919061497d565b60006040518083038186803b158015612d5c57600080fd5b505afa158015612d70573d6000803e3d6000fd5b505050506040513d6000823e3d601f19601f82011682018060405250810190612d999190613fe0565b90506001151581600001511515148015612dbb57506000151581602001511515145b612dfa576040517f08c379a0000000000000000000000000000000000000000000000000000000008152600401612df190614bc5565b60405180910390fd5b600360009054906101000a900473ffffffffffffffffffffffffffffffffffffffff1673ffffffffffffffffffffffffffffffffffffffff166312701897856040518263ffffffff1660e01b8152600401612e55919061497d565b60206040518083038186803b158015612e6d57600080fd5b505afa158015612e81573d6000803e3d6000fd5b505050506040513d601f19601f82011682018060405250810190612ea5919061404a565b92505050919050565b6000600860008373ffffffffffffffffffffffffffffffffffffffff1673ffffffffffffffffffffffffffffffffffffffff168152602001908152602001600020549050919050565b60007f7965db0b000000000000000000000000000000000000000000000000000000007bffffffffffffffffffffffffffffffffffffffffffffffffffffffff1916827bffffffffffffffffffffffffffffffffffffffffffffffffffffffff19161480612f6a5750612f69826131df565b5b9050919050565b600033905090565b612f8382826123ae565b61301257612fa88173ffffffffffffffffffffffffffffffffffffffff166014613249565b612fb68360001c6020613249565b604051602001612fc79291906147a1565b6040516020818303038152906040526040517f08c379a00000000000000000000000000000000000000000000000000000000081526004016130099190614a43565b60405180910390fd5b5050565b61302082826123ae565b6130f257600160008084815260200190815260200160002060000160008373ffffffffffffffffffffffffffffffffffffffff1673ffffffffffffffffffffffffffffffffffffffff16815260200190815260200160002060006101000a81548160ff021916908315150217905550613097612f71565b73ffffffffffffffffffffffffffffffffffffffff168173ffffffffffffffffffffffffffffffffffffffff16837f2f8788117e7eff1d82e926ec794901d17c78024a50270940304540a733656f0d60405160405180910390a45b5050565b600042905090565b61310882826123ae565b156131db57600080600084815260200190815260200160002060000160008373ffffffffffffffffffffffffffffffffffffffff1673ffffffffffffffffffffffffffffffffffffffff16815260200190815260200160002060006101000a81548160ff021916908315150217905550613180612f71565b73ffffffffffffffffffffffffffffffffffffffff168173ffffffffffffffffffffffffffffffffffffffff16837ff6391f5c32d9c69d2a47ea670b442974b53935d1edc7fd64eb21e047a839171b60405160405180910390a45b5050565b60007f01ffc9a7000000000000000000000000000000000000000000000000000000007bffffffffffffffffffffffffffffffffffffffffffffffffffffffff1916827bffffffffffffffffffffffffffffffffffffffffffffffffffffffff1916149050919050565b60606000600283600261325c9190614e35565b6132669190614ddf565b67ffffffffffffffff8111156132a5577f4e487b7100000000000000000000000000000000000000000000000000000000600052604160045260246000fd5b6040519080825280601f01601f1916602001820160405280156132d75781602001600182028036833780820191505090505b5090507f300000000000000000000000000000000000000000000000000000000000000081600081518110613335577f4e487b7100000000000000000000000000000000000000000000000000000000600052603260045260246000fd5b60200101907effffffffffffffffffffffffffffffffffffffffffffffffffffffffffffff1916908160001a9053507f7800000000000000000000000000000000000000000000000000000000000000816001815181106133bf577f4e487b7100000000000000000000000000000000000000000000000000000000600052603260045260246000fd5b60200101907effffffffffffffffffffffffffffffffffffffffffffffffffffffffffffff1916908160001a905350600060018460026133ff9190614e35565b6134099190614ddf565b90505b60018111156134f5577f3031323334353637383961626364656600000000000000000000000000000000600f861660108110613471577f4e487b7100000000000000000000000000000000000000000000000000000000600052603260045260246000fd5b1a60f81b8282815181106134ae577f4e487b7100000000000000000000000000000000000000000000000000000000600052603260045260246000fd5b60200101907effffffffffffffffffffffffffffffffffffffffffffffffffffffffffffff1916908160001a905350600485901c9450806134ee90614f65565b905061340c565b5060008414613539576040517f08c379a000000000000000000000000000000000000000000000000000000000815260040161353090614a85565b60405180910390fd5b8091505092915050565b604051806101a00160405280600015158152602001600015158152602001600073ffffffffffffffffffffffffffffffffffffffff168152602001600081526020016000815260200160008019168152602001600081526020016000815260200160608152602001606081526020016135ba6135ce565b815260200160008152602001600081525090565b6040518060400160405280600073ffffffffffffffffffffffffffffffffffffffff16815260200160006001811115613630577f4e487b7100000000000000000000000000000000000000000000000000000000600052602160045260246000fd5b81525090565b600061364961364484614c89565b614c64565b9050808382526020820190508285602086028201111561366857600080fd5b60005b85811015613698578161367e8882613852565b84526020840193506020830192505060018101905061366b565b5050509392505050565b60006136b56136b084614c89565b614c64565b905080838252602082019050828560208602820111156136d457600080fd5b60005b8581101561370457816136ea8882613867565b8452602084019350602083019250506001810190506136d7565b5050509392505050565b600061372161371c84614cb5565b614c64565b9050808382526020820190508285602086028201111561374057600080fd5b60005b8581101561377057816137568882613978565b845260208401935060208301925050600181019050613743565b5050509392505050565b600061378d61378884614ce1565b614c64565b905080838252602082019050828560208602820111156137ac57600080fd5b60005b858110156137dc57816137c28882613d15565b8452602084019350602083019250506001810190506137af565b5050509392505050565b60006137f96137f484614ce1565b614c64565b9050808382526020820190508285602086028201111561381857600080fd5b60005b85811015613848578161382e8882613d2a565b84526020840193506020830192505060018101905061381b565b5050509392505050565b600081359050613861816153a9565b92915050565b600081519050613876816153a9565b92915050565b600082601f83011261388d57600080fd5b813561389d848260208601613636565b91505092915050565b600082601f8301126138b757600080fd5b81516138c78482602086016136a2565b91505092915050565b600082601f8301126138e157600080fd5b81356138f184826020860161370e565b91505092915050565b600082601f83011261390b57600080fd5b813561391b84826020860161377a565b91505092915050565b600082601f83011261393557600080fd5b81516139458482602086016137e6565b91505092915050565b60008135905061395d816153c0565b92915050565b600081519050613972816153c0565b92915050565b600081359050613987816153d7565b92915050565b60008151905061399c816153d7565b92915050565b6000813590506139b1816153ee565b92915050565b6000813590506139c681615405565b92915050565b6000815190506139db81615405565b92915050565b6000604082840312156139f357600080fd5b6139fd6040614c64565b90506000613a0d84828501613852565b6000830152506020613a21848285016139b7565b60208301525092915050565b600060408284031215613a3f57600080fd5b613a496040614c64565b90506000613a5984828501613867565b6000830152506020613a6d848285016139cc565b60208301525092915050565b60006101808284031215613a8c57600080fd5b613a97610160614c64565b90506000613aa784828501613d15565b6000830152506020613abb84828501613d15565b6020830152506040613acf84828501613978565b6040830152506060613ae384828501613d15565b606083015250608082013567ffffffffffffffff811115613b0357600080fd5b613b0f8482850161387c565b60808301525060a082013567ffffffffffffffff811115613b2f57600080fd5b613b3b848285016138fa565b60a08301525060c0613b4f84828501613d15565b60c08301525060e0613b63848285016139e1565b60e083015250610120613b7884828501613d15565b61010083015250610140613b8e84828501613852565b61012083015250610160613ba484828501613d15565b6101408301525092915050565b60006101c08284031215613bc457600080fd5b613bcf6101a0614c64565b90506000613bdf84828501613963565b6000830152506020613bf384828501613963565b6020830152506040613c0784828501613867565b6040830152506060613c1b84828501613d2a565b6060830152506080613c2f84828501613d2a565b60808301525060a0613c438482850161398d565b60a08301525060c0613c5784828501613d2a565b60c08301525060e0613c6b84828501613d2a565b60e08301525061010082015167ffffffffffffffff811115613c8c57600080fd5b613c98848285016138a6565b6101008301525061012082015167ffffffffffffffff811115613cba57600080fd5b613cc684828501613924565b61012083015250610140613cdc84828501613a2d565b61014083015250610180613cf284828501613d2a565b610160830152506101a0613d0884828501613d2a565b6101808301525092915050565b600081359050613d2481615415565b92915050565b600081519050613d3981615415565b92915050565b600060208284031215613d5157600080fd5b6000613d5f84828501613852565b91505092915050565b60008060408385031215613d7b57600080fd5b6000613d8985828601613852565b9250506020613d9a8582860161394e565b9150509250929050565b60008060408385031215613db757600080fd5b6000613dc585828601613852565b9250506020613dd685828601613d15565b9150509250929050565b600060208284031215613df257600080fd5b6000613e0084828501613963565b91505092915050565b600060208284031215613e1b57600080fd5b6000613e2984828501613978565b91505092915050565b600060208284031215613e4457600080fd5b6000613e528482850161398d565b91505092915050565b60008060408385031215613e6e57600080fd5b6000613e7c85828601613978565b9250506020613e8d85828601613852565b9150509250929050565b60008060408385031215613eaa57600080fd5b6000613eb885828601613978565b9250506020613ec985828601613978565b9150509250929050565b60008060408385031215613ee657600080fd5b6000613ef485828601613978565b9250506020613f0585828601613d15565b9150509250929050565b600080600060608486031215613f2457600080fd5b6000613f3286828701613978565b9350506020613f4386828701613d15565b925050604084013567ffffffffffffffff811115613f6057600080fd5b613f6c868287016138d0565b9150509250925092565b600060208284031215613f8857600080fd5b6000613f96848285016139a2565b91505092915050565b600060208284031215613fb157600080fd5b600082013567ffffffffffffffff811115613fcb57600080fd5b613fd784828501613a79565b91505092915050565b600060208284031215613ff257600080fd5b600082015167ffffffffffffffff81111561400c57600080fd5b61401884828501613bb1565b91505092915050565b60006020828403121561403357600080fd5b600061404184828501613d15565b91505092915050565b60006020828403121561405c57600080fd5b600061406a84828501613d2a565b91505092915050565b600061407f83836140bb565b60208301905092915050565b60006140978383614228565b60208301905092915050565b60006140af8383614740565b60208301905092915050565b6140c481614e8f565b82525050565b6140d381614e8f565b82525050565b6140ea6140e582614e8f565b615009565b82525050565b60006140fb82614d3d565b6141058185614d90565b935061411083614d0d565b8060005b838110156141415781516141288882614073565b975061413383614d69565b925050600181019050614114565b5085935050505092915050565b600061415982614d48565b6141638185614da1565b935061416e83614d1d565b8060005b8381101561419f578151614186888261408b565b975061419183614d76565b925050600181019050614172565b5085935050505092915050565b60006141b782614d53565b6141c18185614db2565b93506141cc83614d2d565b8060005b838110156141fd5781516141e488826140a3565b97506141ef83614d83565b9250506001810190506141d0565b5085935050505092915050565b61421381614ea1565b82525050565b61422281614ea1565b82525050565b61423181614ead565b82525050565b61424081614ead565b82525050565b61424f81614f20565b82525050565b600061426082614d5e565b61426a8185614dc3565b935061427a818560208601614f32565b614283816150c4565b840191505092915050565b600061429982614d5e565b6142a38185614dd4565b93506142b3818560208601614f32565b80840191505092915050565b60006142cc601483614dc3565b91506142d7826150e2565b602082019050919050565b60006142ef602083614dc3565b91506142fa8261510b565b602082019050919050565b6000614312601783614dc3565b915061431d82615134565b602082019050919050565b6000614335601183614dc3565b91506143408261515d565b602082019050919050565b6000614358602083614dc3565b915061436382615186565b602082019050919050565b600061437b601483614dc3565b9150614386826151af565b602082019050919050565b600061439e601e83614dc3565b91506143a9826151d8565b602082019050919050565b60006143c1600e83614dc3565b91506143cc82615201565b602082019050919050565b60006143e4600e83614dc3565b91506143ef8261522a565b602082019050919050565b6000614407602483614dc3565b915061441282615253565b604082019050919050565b600061442a601783614dd4565b9150614435826152a2565b601782019050919050565b600061444d601f83614dc3565b9150614458826152cb565b602082019050919050565b6000614470601383614dc3565b915061447b826152f4565b602082019050919050565b6000614493601183614dd4565b915061449e8261531d565b601182019050919050565b60006144b6602f83614dc3565b91506144c182615346565b604082019050919050565b6040820160008201516144e260008501826140bb565b5060208201516144f56020850182614246565b50505050565b6000610180830160008301516145146000860182614740565b5060208301516145276020860182614740565b50604083015161453a6040860182614228565b50606083015161454d6060860182614740565b506080830151848203608086015261456582826140f0565b91505060a083015184820360a086015261457f82826141ac565b91505060c083015161459460c0860182614740565b5060e08301516145a760e08601826144cc565b506101008301516145bc610120860182614740565b506101208301516145d16101408601826140bb565b506101408301516145e6610160860182614740565b508091505092915050565b60006101c08301600083015161460a600086018261420a565b50602083015161461d602086018261420a565b50604083015161463060408601826140bb565b5060608301516146436060860182614740565b5060808301516146566080860182614740565b5060a083015161466960a0860182614228565b5060c083015161467c60c0860182614740565b5060e083015161468f60e0860182614740565b506101008301518482036101008601526146a982826140f0565b9150506101208301518482036101208601526146c582826141ac565b9150506101408301516146dc6101408601826144cc565b506101608301516146f1610180860182614740565b506101808301516147066101a0860182614740565b508091505092915050565b60408201600082015161472760008501826140bb565b50602082015161473a6020850182614740565b50505050565b61474981614f16565b82525050565b61475881614f16565b82525050565b61476f61476a82614f16565b61502d565b82525050565b600061478182856140d9565b601482019150614791828461475e565b6020820191508190509392505050565b60006147ac8261441d565b91506147b8828561428e565b91506147c382614486565b91506147cf828461428e565b91508190509392505050565b60006020820190506147f060008301846140ca565b92915050565b600060608201905061480b60008301866140ca565b61481860208301856140ca565b6148256040830184614237565b949350505050565b600060808201905061484260008301876140ca565b61484f60208301866140ca565b61485c6040830185614237565b614869606083018461474f565b95945050505050565b600060608201905061488760008301866140ca565b61489460208301856140ca565b6148a1604083018461474f565b949350505050565b60006040820190506148be60008301856140ca565b6148cb6020830184614219565b9392505050565b60006040820190506148e760008301856140ca565b6148f46020830184614237565b9392505050565b600060608201905061491060008301866140ca565b61491d6020830185614237565b818103604083015261492f818461414e565b9050949350505050565b600060408201905061494e60008301856140ca565b61495b602083018461474f565b9392505050565b60006020820190506149776000830184614219565b92915050565b60006020820190506149926000830184614237565b92915050565b60006040820190506149ad6000830185614237565b6149ba60208301846140ca565b9392505050565b60006040820190506149d66000830185614237565b6149e36020830184614237565b9392505050565b60006040820190506149ff6000830185614237565b8181036020830152614a1181846145f1565b90509392505050565b6000606082019050614a2f6000830185614237565b614a3c6020830184614711565b9392505050565b60006020820190508181036000830152614a5d8184614255565b905092915050565b60006020820190508181036000830152614a7e816142bf565b9050919050565b60006020820190508181036000830152614a9e816142e2565b9050919050565b60006020820190508181036000830152614abe81614305565b9050919050565b60006020820190508181036000830152614ade81614328565b9050919050565b60006020820190508181036000830152614afe8161434b565b9050919050565b60006020820190508181036000830152614b1e8161436e565b9050919050565b60006020820190508181036000830152614b3e81614391565b9050919050565b60006020820190508181036000830152614b5e816143b4565b9050919050565b60006020820190508181036000830152614b7e816143d7565b9050919050565b60006020820190508181036000830152614b9e816143fa565b9050919050565b60006020820190508181036000830152614bbe81614440565b9050919050565b60006020820190508181036000830152614bde81614463565b9050919050565b60006020820190508181036000830152614bfe816144a9565b9050919050565b60006020820190508181036000830152614c1f81846144fb565b905092915050565b60006020820190508181036000830152614c4181846145f1565b905092915050565b6000602082019050614c5e600083018461474f565b92915050565b6000614c6e614c7f565b9050614c7a8282614f8f565b919050565b6000604051905090565b600067ffffffffffffffff821115614ca457614ca3615095565b5b602082029050602081019050919050565b600067ffffffffffffffff821115614cd057614ccf615095565b5b602082029050602081019050919050565b600067ffffffffffffffff821115614cfc57614cfb615095565b5b602082029050602081019050919050565b6000819050602082019050919050565b6000819050602082019050919050565b6000819050602082019050919050565b600081519050919050565b600081519050919050565b600081519050919050565b600081519050919050565b6000602082019050919050565b6000602082019050919050565b6000602082019050919050565b600082825260208201905092915050565b600082825260208201905092915050565b600082825260208201905092915050565b600082825260208201905092915050565b600081905092915050565b6000614dea82614f16565b9150614df583614f16565b9250827fffffffffffffffffffffffffffffffffffffffffffffffffffffffffffffffff03821115614e2a57614e29615037565b5b828201905092915050565b6000614e4082614f16565b9150614e4b83614f16565b9250817fffffffffffffffffffffffffffffffffffffffffffffffffffffffffffffffff0483118215151615614e8457614e83615037565b5b828202905092915050565b6000614e9a82614ef6565b9050919050565b60008115159050919050565b6000819050919050565b60007fffffffff0000000000000000000000000000000000000000000000000000000082169050919050565b6000819050614ef182615395565b919050565b600073ffffffffffffffffffffffffffffffffffffffff82169050919050565b6000819050919050565b6000614f2b82614ee3565b9050919050565b60005b83811015614f50578082015181840152602081019050614f35565b83811115614f5f576000848401525b50505050565b6000614f7082614f16565b91506000821415614f8457614f83615037565b5b600182039050919050565b614f98826150c4565b810181811067ffffffffffffffff82111715614fb757614fb6615095565b5b80604052505050565b6000614fcb82614f16565b91507fffffffffffffffffffffffffffffffffffffffffffffffffffffffffffffffff821415614ffe57614ffd615037565b5b600182019050919050565b60006150148261501b565b9050919050565b6000615026826150d5565b9050919050565b6000819050919050565b7f4e487b7100000000000000000000000000000000000000000000000000000000600052601160045260246000fd5b7f4e487b7100000000000000000000000000000000000000000000000000000000600052602160045260246000fd5b7f4e487b7100000000000000000000000000000000000000000000000000000000600052604160045260246000fd5b6000601f19601f8301169050919050565b60008160601b9050919050565b7f4c4d3a20696e76616c696420726f6c6c20666565000000000000000000000000600082015250565b7f537472696e67733a20686578206c656e67746820696e73756666696369656e74600082015250565b7f4c4d3a20696e646578206f7574206f6620626f756e6473000000000000000000600082015250565b7f4c4d3a20696e76616c696420746f6b656e000000000000000000000000000000600082015250565b7f4f776e61626c653a2063616c6c6572206973206e6f74207468652061646d696e600082015250565b7f4c4d3a206e6f20656e6f75676820746f6b656e73000000000000000000000000600082015250565b7f4c4d3a207468697320616374696f6e20697320616c6c6f776c69737465640000600082015250565b7f4c4d3a204f6e6c79206f776e6572000000000000000000000000000000000000600082015250565b7f4c4d3a204e6f7420616374697665000000000000000000000000000000000000600082015250565b7f4c4d3a2043616e277420646f2074686520616374696f6e20756e74696c20666960008201527f6e69736800000000000000000000000000000000000000000000000000000000602082015250565b7f416363657373436f6e74726f6c3a206163636f756e7420000000000000000000600082015250565b7f5265656e7472616e637947756172643a207265656e7472616e742063616c6c00600082015250565b7f4c4d3a20416c7265616479207265766f6b656400000000000000000000000000600082015250565b7f206973206d697373696e6720726f6c6520000000000000000000000000000000600082015250565b7f416363657373436f6e74726f6c3a2063616e206f6e6c792072656e6f756e636560008201527f20726f6c657320666f722073656c660000000000000000000000000000000000602082015250565b600281106153a6576153a5615066565b5b50565b6153b281614e8f565b81146153bd57600080fd5b50565b6153c981614ea1565b81146153d457600080fd5b50565b6153e081614ead565b81146153eb57600080fd5b50565b6153f781614eb7565b811461540257600080fd5b50565b6002811061541257600080fd5b50565b61541e81614f16565b811461542957600080fd5b5056fea26469706673582212205d221356348461835b2e169c68e4272278ae75ea1814a0f94e2438e09e13535764736f6c63430008040033",
  "linkReferences": {},
  "deployedLinkReferences": {}
}