{
  "_format": "hh-sol-artifact-1",
  "contractName": "MembershipsImpl",
  "sourceName": "contracts/MembershipsImpl.sol",
  "abi": [
    {
      "inputs": [
        {
          "internalType": "address",
          "name": "eternalStorage",
          "type": "address"
        }
      ],
      "stateMutability": "nonpayable",
      "type": "constructor"
    },
    {
      "inputs": [
        {
          "internalType": "uint256",
          "name": "minRollFee",
          "type": "uint256"
        },
        {
          "internalType": "uint256",
          "name": "maxFee",
          "type": "uint256"
        }
      ],
      "name": "ErrorME01InvalidFee",
      "type": "error"
    },
    {
      "inputs": [],
      "name": "ErrorME02TokenNotAllowed",
      "type": "error"
    },
    {
      "inputs": [],
      "name": "ErrorME03NotEnoughTokens",
      "type": "error"
    },
    {
      "inputs": [],
      "name": "ErrorME04NotEnoughPhases",
      "type": "error"
    },
    {
      "inputs": [],
      "name": "ErrorME05OnlyOwnerAllowed",
      "type": "error"
    },
    {
      "inputs": [],
      "name": "ErrorME06ScheduleDoesNotExists",
      "type": "error"
    },
    {
      "inputs": [],
      "name": "ErrorME07ScheduleRevoked",
      "type": "error"
    },
    {
      "inputs": [],
      "name": "ErrorME08ScheduleNotActive",
      "type": "error"
    },
    {
      "inputs": [],
      "name": "ErrorME09ScheduleNotFinished",
      "type": "error"
    },
    {
      "inputs": [],
      "name": "ErrorME10ActionAllowlisted",
      "type": "error"
    },
    {
      "inputs": [],
      "name": "ErrorME11TransferError",
      "type": "error"
    },
    {
      "inputs": [],
      "name": "ErrorME12IndexOutOfBounds",
      "type": "error"
    },
    {
      "inputs": [],
      "name": "ErrorME13InvalidAddress",
      "type": "error"
    },
    {
      "inputs": [],
      "name": "ErrorME14BetaPeriodAlreadyFinish",
      "type": "error"
    },
    {
      "inputs": [],
      "name": "ErrorME15InvalidDate",
      "type": "error"
    },
    {
      "inputs": [],
      "name": "ErrorME16InvalidDuration",
      "type": "error"
    },
    {
      "inputs": [],
      "name": "ErrorME17InvalidPrice",
      "type": "error"
    },
    {
      "inputs": [],
      "name": "ErrorME18LotArrayLengthMismatch",
      "type": "error"
    },
    {
      "inputs": [],
      "name": "ErrorME19NotEnoughEth",
      "type": "error"
    },
    {
      "inputs": [],
      "name": "ErrorME20InvalidReferral",
      "type": "error"
    },
    {
      "inputs": [],
      "name": "ErrorME21InvalidReferralFee",
      "type": "error"
    },
    {
      "inputs": [],
      "name": "ErrorME22MaxBuyPerWalletExceeded",
      "type": "error"
    },
    {
      "inputs": [],
      "name": "ErrorME23TotalClaimedError",
      "type": "error"
    },
    {
      "inputs": [],
      "name": "ErrorME24InvalidProof",
      "type": "error"
    },
    {
      "inputs": [],
      "name": "ErrorME25ScheduleNotFinishedOrSoldOut",
      "type": "error"
    },
    {
      "inputs": [],
      "name": "ErrorME26OnlyMembershipsImpl",
      "type": "error"
    },
    {
      "inputs": [],
      "name": "ErrorME27TotalAmountExceeded",
      "type": "error"
    },
    {
      "inputs": [],
      "name": "ErrorME28InvalidAmount",
      "type": "error"
    },
    {
      "inputs": [],
      "name": "ErrorME29InvalidMaxBuyPerWallet",
      "type": "error"
    },
    {
      "anonymous": false,
      "inputs": [
        {
          "indexed": true,
          "internalType": "bytes32",
          "name": "scheduleId",
          "type": "bytes32"
        },
        {
          "indexed": true,
          "internalType": "bytes32",
          "name": "newRoot",
          "type": "bytes32"
        }
      ],
      "name": "EventAllowlistUpdated",
      "type": "event"
    },
    {
      "anonymous": false,
      "inputs": [
        {
          "indexed": true,
          "internalType": "address",
          "name": "from",
          "type": "address"
        },
        {
          "indexed": true,
          "internalType": "bytes32",
          "name": "scheduleId",
          "type": "bytes32"
        },
        {
          "indexed": false,
          "internalType": "uint256",
          "name": "lots",
          "type": "uint256"
        }
      ],
      "name": "EventBuyLot",
      "type": "event"
    },
    {
      "anonymous": false,
      "inputs": [
        {
          "indexed": true,
          "internalType": "address",
          "name": "from",
          "type": "address"
        },
        {
          "indexed": true,
          "internalType": "bytes32",
          "name": "scheduleId",
          "type": "bytes32"
        },
        {
          "indexed": true,
          "internalType": "address",
          "name": "token",
          "type": "address"
        },
        {
          "indexed": false,
          "internalType": "uint256",
          "name": "tokens",
          "type": "uint256"
        }
      ],
      "name": "EventBuyToken",
      "type": "event"
    },
    {
      "anonymous": false,
      "inputs": [
        {
          "indexed": true,
          "internalType": "address",
          "name": "from",
          "type": "address"
        },
        {
          "indexed": true,
          "internalType": "bytes32",
          "name": "scheduleId",
          "type": "bytes32"
        },
        {
          "indexed": false,
          "internalType": "uint256",
          "name": "value",
          "type": "uint256"
        }
      ],
      "name": "EventClaim",
      "type": "event"
    },
    {
      "anonymous": false,
      "inputs": [
        {
          "indexed": true,
          "internalType": "bytes32",
          "name": "scheduleId",
          "type": "bytes32"
        },
        {
          "indexed": true,
          "internalType": "address",
          "name": "oldOwner",
          "type": "address"
        },
        {
          "indexed": true,
          "internalType": "address",
          "name": "newOwner",
          "type": "address"
        }
      ],
      "name": "EventScheduleOwnerTransferred",
      "type": "event"
    },
    {
      "anonymous": false,
      "inputs": [
        {
          "indexed": true,
          "internalType": "bytes32",
          "name": "scheduleId",
          "type": "bytes32"
        }
      ],
      "name": "EventScheduleRevoked",
      "type": "event"
    },
    {
      "anonymous": false,
      "inputs": [
        {
          "indexed": true,
          "internalType": "address",
          "name": "memberships",
          "type": "address"
        },
        {
          "indexed": true,
          "internalType": "bytes32",
          "name": "scheduleId",
          "type": "bytes32"
        },
        {
          "indexed": false,
          "internalType": "uint256",
          "name": "amount",
          "type": "uint256"
        }
      ],
      "name": "EventUnsoldTokensClaimed",
      "type": "event"
    },
    {
      "anonymous": false,
      "inputs": [
        {
          "indexed": true,
          "internalType": "bytes32",
          "name": "role",
          "type": "bytes32"
        },
        {
          "indexed": true,
          "internalType": "bytes32",
          "name": "previousAdminRole",
          "type": "bytes32"
        },
        {
          "indexed": true,
          "internalType": "bytes32",
          "name": "newAdminRole",
          "type": "bytes32"
        }
      ],
      "name": "RoleAdminChanged",
      "type": "event"
    },
    {
      "anonymous": false,
      "inputs": [
        {
          "indexed": true,
          "internalType": "bytes32",
          "name": "role",
          "type": "bytes32"
        },
        {
          "indexed": true,
          "internalType": "address",
          "name": "account",
          "type": "address"
        },
        {
          "indexed": true,
          "internalType": "address",
          "name": "sender",
          "type": "address"
        }
      ],
      "name": "RoleGranted",
      "type": "event"
    },
    {
      "anonymous": false,
      "inputs": [
        {
          "indexed": true,
          "internalType": "bytes32",
          "name": "role",
          "type": "bytes32"
        },
        {
          "indexed": true,
          "internalType": "address",
          "name": "account",
          "type": "address"
        },
        {
          "indexed": true,
          "internalType": "address",
          "name": "sender",
          "type": "address"
        }
      ],
      "name": "RoleRevoked",
      "type": "event"
    },
    {
      "inputs": [],
      "name": "DEFAULT_ADMIN_ROLE",
      "outputs": [
        {
          "internalType": "bytes32",
          "name": "",
          "type": "bytes32"
        }
      ],
      "stateMutability": "view",
      "type": "function"
    },
    {
      "inputs": [],
      "name": "MEMBERSHIP_ROLE",
      "outputs": [
        {
          "internalType": "bytes32",
          "name": "",
          "type": "bytes32"
        }
      ],
      "stateMutability": "view",
      "type": "function"
    },
    {
      "inputs": [
        {
          "components": [
            {
              "internalType": "bytes32",
              "name": "campaignId",
              "type": "bytes32"
            },
            {
              "internalType": "bytes32[]",
              "name": "phases",
              "type": "bytes32[]"
            },
            {
              "internalType": "string",
              "name": "metadata",
              "type": "string"
            }
          ],
          "internalType": "struct MembershipsTypes.Campaign",
          "name": "value",
          "type": "tuple"
        }
      ],
      "name": "addCampaign",
      "outputs": [],
      "stateMutability": "nonpayable",
      "type": "function"
    },
    {
      "inputs": [
        {
          "internalType": "address",
          "name": "memberships",
          "type": "address"
        },
        {
          "internalType": "address",
          "name": "caller",
          "type": "address"
        },
        {
          "internalType": "bytes32",
          "name": "scheduleId",
          "type": "bytes32"
        },
        {
          "internalType": "uint256",
          "name": "amount",
          "type": "uint256"
        },
        {
          "internalType": "uint256",
          "name": "msgValue",
          "type": "uint256"
        }
      ],
      "name": "buy",
      "outputs": [],
      "stateMutability": "nonpayable",
      "type": "function"
    },
    {
      "inputs": [
        {
          "internalType": "address",
          "name": "memberships",
          "type": "address"
        },
        {
          "internalType": "bytes32",
          "name": "scheduleId",
          "type": "bytes32"
        }
      ],
      "name": "claim",
      "outputs": [],
      "stateMutability": "nonpayable",
      "type": "function"
    },
    {
      "inputs": [
        {
          "internalType": "address",
          "name": "memberships",
          "type": "address"
        },
        {
          "internalType": "bytes32",
          "name": "scheduleId",
          "type": "bytes32"
        }
      ],
      "name": "claimReferral",
      "outputs": [],
      "stateMutability": "nonpayable",
      "type": "function"
    },
    {
      "inputs": [
        {
          "internalType": "address",
          "name": "memberships",
          "type": "address"
        },
        {
          "internalType": "address",
          "name": "wallet",
          "type": "address"
        },
        {
          "internalType": "bytes32",
          "name": "scheduleId",
          "type": "bytes32"
        }
      ],
      "name": "claimRoll",
      "outputs": [],
      "stateMutability": "nonpayable",
      "type": "function"
    },
    {
      "inputs": [
        {
          "internalType": "address",
          "name": "memberships",
          "type": "address"
        },
        {
          "internalType": "bytes32",
          "name": "scheduleId",
          "type": "bytes32"
        }
      ],
      "name": "claimUnsoldTokens",
      "outputs": [],
      "stateMutability": "nonpayable",
      "type": "function"
    },
    {
      "inputs": [
        {
          "internalType": "bytes32",
          "name": "scheduleId",
          "type": "bytes32"
        }
      ],
      "name": "computeUnsoldLots",
      "outputs": [
        {
          "internalType": "uint256",
          "name": "",
          "type": "uint256"
        }
      ],
      "stateMutability": "view",
      "type": "function"
    },
    {
      "inputs": [
        {
          "components": [
            {
              "internalType": "uint256",
              "name": "start",
              "type": "uint256"
            },
            {
              "internalType": "uint256",
              "name": "duration",
              "type": "uint256"
            },
            {
              "internalType": "bytes32",
              "name": "merkleRoot",
              "type": "bytes32"
            },
            {
              "internalType": "uint256",
              "name": "amountTotal",
              "type": "uint256"
            },
            {
              "internalType": "address[]",
              "name": "lotToken",
              "type": "address[]"
            },
            {
              "internalType": "uint256[]",
              "name": "lotSize",
              "type": "uint256[]"
            },
            {
              "internalType": "uint256",
              "name": "pricePerLot",
              "type": "uint256"
            },
            {
              "components": [
                {
                  "internalType": "address",
                  "name": "token",
                  "type": "address"
                },
                {
                  "internalType": "enum MembershipsTypes.AssetType",
                  "name": "assetType",
                  "type": "uint8"
                }
              ],
              "internalType": "struct MembershipsTypes.Asset",
              "name": "paymentAsset",
              "type": "tuple"
            },
            {
              "internalType": "uint256",
              "name": "rollFee",
              "type": "uint256"
            },
            {
              "internalType": "address",
              "name": "referral",
              "type": "address"
            },
            {
              "internalType": "uint256",
              "name": "referralFee",
              "type": "uint256"
            },
            {
              "internalType": "uint256",
              "name": "maxBuyPerWallet",
              "type": "uint256"
            }
          ],
          "internalType": "struct MembershipsTypes.CreateMintingScheduleParams",
          "name": "params",
          "type": "tuple"
        }
      ],
      "name": "createMintingScheduleValidation",
      "outputs": [],
      "stateMutability": "view",
      "type": "function"
    },
    {
      "inputs": [
        {
          "internalType": "address",
          "name": "addr",
          "type": "address"
        }
      ],
      "name": "getCampaignCreatedByAddress",
      "outputs": [
        {
          "internalType": "uint256",
          "name": "",
          "type": "uint256"
        }
      ],
      "stateMutability": "view",
      "type": "function"
    },
    {
      "inputs": [
        {
          "internalType": "bytes32",
          "name": "scheduleId",
          "type": "bytes32"
        },
        {
          "internalType": "enum MembershipsTypes.UserType",
          "name": "userType",
          "type": "uint8"
        }
      ],
      "name": "getClaimed",
      "outputs": [
        {
          "internalType": "uint256",
          "name": "",
          "type": "uint256"
        }
      ],
      "stateMutability": "view",
      "type": "function"
    },
    {
      "inputs": [
        {
          "internalType": "bytes32",
          "name": "record",
          "type": "bytes32"
        }
      ],
      "name": "getReferral",
      "outputs": [
        {
          "components": [
            {
              "internalType": "address",
              "name": "referral",
              "type": "address"
            },
            {
              "internalType": "uint256",
              "name": "referralFee",
              "type": "uint256"
            }
          ],
          "internalType": "struct MembershipsTypes.ScheduleReferral",
          "name": "",
          "type": "tuple"
        }
      ],
      "stateMutability": "view",
      "type": "function"
    },
    {
      "inputs": [
        {
          "internalType": "bytes32",
          "name": "role",
          "type": "bytes32"
        }
      ],
      "name": "getRoleAdmin",
      "outputs": [
        {
          "internalType": "bytes32",
          "name": "",
          "type": "bytes32"
        }
      ],
      "stateMutability": "view",
      "type": "function"
    },
    {
      "inputs": [
        {
          "internalType": "bytes32",
          "name": "record",
          "type": "bytes32"
        }
      ],
      "name": "getSchedule",
      "outputs": [
        {
          "components": [
            {
              "internalType": "bool",
              "name": "initialized",
              "type": "bool"
            },
            {
              "internalType": "bool",
              "name": "revoked",
              "type": "bool"
            },
            {
              "internalType": "address",
              "name": "owner",
              "type": "address"
            },
            {
              "internalType": "uint256",
              "name": "start",
              "type": "uint256"
            },
            {
              "internalType": "uint256",
              "name": "duration",
              "type": "uint256"
            },
            {
              "internalType": "bytes32",
              "name": "merkleRoot",
              "type": "bytes32"
            },
            {
              "internalType": "uint256",
              "name": "amountTotal",
              "type": "uint256"
            },
            {
              "internalType": "uint256",
              "name": "released",
              "type": "uint256"
            },
            {
              "internalType": "address[]",
              "name": "lotToken",
              "type": "address[]"
            },
            {
              "internalType": "uint256[]",
              "name": "lotSize",
              "type": "uint256[]"
            },
            {
              "components": [
                {
                  "internalType": "address",
                  "name": "token",
                  "type": "address"
                },
                {
                  "internalType": "enum MembershipsTypes.AssetType",
                  "name": "assetType",
                  "type": "uint8"
                }
              ],
              "internalType": "struct MembershipsTypes.Asset",
              "name": "paymentAsset",
              "type": "tuple"
            },
            {
              "internalType": "uint256",
              "name": "pricePerLot",
              "type": "uint256"
            },
            {
              "internalType": "uint256",
              "name": "rollFee",
              "type": "uint256"
            },
            {
              "internalType": "uint256",
              "name": "maxBuyPerWallet",
              "type": "uint256"
            }
          ],
          "internalType": "struct MembershipsTypes.MintingSchedule",
          "name": "",
          "type": "tuple"
        }
      ],
      "stateMutability": "view",
      "type": "function"
    },
    {
      "inputs": [
        {
          "internalType": "bytes32",
          "name": "role",
          "type": "bytes32"
        },
        {
          "internalType": "address",
          "name": "account",
          "type": "address"
        }
      ],
      "name": "grantRole",
      "outputs": [],
      "stateMutability": "nonpayable",
      "type": "function"
    },
    {
      "inputs": [
        {
          "internalType": "bytes32",
          "name": "role",
          "type": "bytes32"
        },
        {
          "internalType": "address",
          "name": "account",
          "type": "address"
        }
      ],
      "name": "hasRole",
      "outputs": [
        {
          "internalType": "bool",
          "name": "",
          "type": "bool"
        }
      ],
      "stateMutability": "view",
      "type": "function"
    },
    {
      "inputs": [
        {
          "internalType": "address",
          "name": "addr",
          "type": "address"
        }
      ],
      "name": "isTokenAllowed",
      "outputs": [
        {
          "internalType": "bool",
          "name": "",
          "type": "bool"
        }
      ],
      "stateMutability": "view",
      "type": "function"
    },
    {
      "inputs": [
        {
          "internalType": "bytes32",
          "name": "role",
          "type": "bytes32"
        },
        {
          "internalType": "address",
          "name": "account",
          "type": "address"
        }
      ],
      "name": "renounceRole",
      "outputs": [],
      "stateMutability": "nonpayable",
      "type": "function"
    },
    {
      "inputs": [
        {
          "internalType": "bytes32",
          "name": "scheduleId",
          "type": "bytes32"
        }
      ],
      "name": "revoke",
      "outputs": [],
      "stateMutability": "nonpayable",
      "type": "function"
    },
    {
      "inputs": [
        {
          "internalType": "bytes32",
          "name": "role",
          "type": "bytes32"
        },
        {
          "internalType": "address",
          "name": "account",
          "type": "address"
        }
      ],
      "name": "revokeRole",
      "outputs": [],
      "stateMutability": "nonpayable",
      "type": "function"
    },
    {
      "inputs": [
        {
          "internalType": "bytes32",
          "name": "scheduleId",
          "type": "bytes32"
        },
        {
          "internalType": "bytes32",
          "name": "root",
          "type": "bytes32"
        }
      ],
      "name": "setAllowlist",
      "outputs": [],
      "stateMutability": "nonpayable",
      "type": "function"
    },
    {
      "inputs": [
        {
          "internalType": "bytes32",
          "name": "scheduleId",
          "type": "bytes32"
        },
        {
          "internalType": "address",
          "name": "addr",
          "type": "address"
        },
        {
          "internalType": "uint256",
          "name": "value",
          "type": "uint256"
        }
      ],
      "name": "setBuyPerWallet",
      "outputs": [],
      "stateMutability": "nonpayable",
      "type": "function"
    },
    {
      "inputs": [
        {
          "internalType": "bytes32",
          "name": "scheduleId",
          "type": "bytes32"
        },
        {
          "internalType": "enum MembershipsTypes.UserType",
          "name": "userType",
          "type": "uint8"
        },
        {
          "internalType": "uint256",
          "name": "value",
          "type": "uint256"
        }
      ],
      "name": "setClaimed",
      "outputs": [],
      "stateMutability": "nonpayable",
      "type": "function"
    },
    {
      "inputs": [
        {
          "internalType": "bytes32",
          "name": "record",
          "type": "bytes32"
        },
        {
          "components": [
            {
              "internalType": "address",
              "name": "referral",
              "type": "address"
            },
            {
              "internalType": "uint256",
              "name": "referralFee",
              "type": "uint256"
            }
          ],
          "internalType": "struct MembershipsTypes.ScheduleReferral",
          "name": "value",
          "type": "tuple"
        }
      ],
      "name": "setReferral",
      "outputs": [],
      "stateMutability": "nonpayable",
      "type": "function"
    },
    {
      "inputs": [
        {
          "internalType": "bytes32",
          "name": "record",
          "type": "bytes32"
        },
        {
          "components": [
            {
              "internalType": "bool",
              "name": "initialized",
              "type": "bool"
            },
            {
              "internalType": "bool",
              "name": "revoked",
              "type": "bool"
            },
            {
              "internalType": "address",
              "name": "owner",
              "type": "address"
            },
            {
              "internalType": "uint256",
              "name": "start",
              "type": "uint256"
            },
            {
              "internalType": "uint256",
              "name": "duration",
              "type": "uint256"
            },
            {
              "internalType": "bytes32",
              "name": "merkleRoot",
              "type": "bytes32"
            },
            {
              "internalType": "uint256",
              "name": "amountTotal",
              "type": "uint256"
            },
            {
              "internalType": "uint256",
              "name": "released",
              "type": "uint256"
            },
            {
              "internalType": "address[]",
              "name": "lotToken",
              "type": "address[]"
            },
            {
              "internalType": "uint256[]",
              "name": "lotSize",
              "type": "uint256[]"
            },
            {
              "components": [
                {
                  "internalType": "address",
                  "name": "token",
                  "type": "address"
                },
                {
                  "internalType": "enum MembershipsTypes.AssetType",
                  "name": "assetType",
                  "type": "uint8"
                }
              ],
              "internalType": "struct MembershipsTypes.Asset",
              "name": "paymentAsset",
              "type": "tuple"
            },
            {
              "internalType": "uint256",
              "name": "pricePerLot",
              "type": "uint256"
            },
            {
              "internalType": "uint256",
              "name": "rollFee",
              "type": "uint256"
            },
            {
              "internalType": "uint256",
              "name": "maxBuyPerWallet",
              "type": "uint256"
            }
          ],
          "internalType": "struct MembershipsTypes.MintingSchedule",
          "name": "value",
          "type": "tuple"
        }
      ],
      "name": "setSchedule",
      "outputs": [],
      "stateMutability": "nonpayable",
      "type": "function"
    },
    {
      "inputs": [
        {
          "internalType": "address",
          "name": "token",
          "type": "address"
        },
        {
          "internalType": "bool",
          "name": "value",
          "type": "bool"
        }
      ],
      "name": "setTokensAllowed",
      "outputs": [],
      "stateMutability": "nonpayable",
      "type": "function"
    },
    {
      "inputs": [
        {
          "internalType": "bytes4",
          "name": "interfaceId",
          "type": "bytes4"
        }
      ],
      "name": "supportsInterface",
      "outputs": [
        {
          "internalType": "bool",
          "name": "",
          "type": "bool"
        }
      ],
      "stateMutability": "view",
      "type": "function"
    },
    {
      "inputs": [
        {
          "internalType": "bytes32",
          "name": "scheduleId",
          "type": "bytes32"
        },
        {
          "internalType": "address",
          "name": "owner_",
          "type": "address"
        }
      ],
      "name": "transferScheduleOwner",
      "outputs": [],
      "stateMutability": "nonpayable",
      "type": "function"
    },
    {
      "inputs": [
        {
          "internalType": "bytes32",
          "name": "campaignId",
          "type": "bytes32"
        },
        {
          "internalType": "string",
          "name": "metadata",
          "type": "string"
        }
      ],
      "name": "updateCampaignMetadata",
      "outputs": [],
      "stateMutability": "nonpayable",
      "type": "function"
    },
    {
      "inputs": [
        {
          "internalType": "bytes32",
          "name": "scheduleId",
          "type": "bytes32"
        },
        {
          "internalType": "address",
          "name": "referral",
          "type": "address"
        }
      ],
      "name": "updateReferral",
      "outputs": [],
      "stateMutability": "nonpayable",
      "type": "function"
    },
    {
      "inputs": [
        {
          "internalType": "address",
          "name": "caller",
          "type": "address"
        },
        {
          "internalType": "bytes32",
          "name": "scheduleId",
          "type": "bytes32"
        },
        {
          "internalType": "bytes32[]",
          "name": "proof",
          "type": "bytes32[]"
        }
      ],
      "name": "verifyMerkle",
      "outputs": [],
      "stateMutability": "view",
      "type": "function"
    }
  ],
  "bytecode": "0x60806040523480156200001157600080fd5b50604051620056f2380380620056f2833981810160405281019062000037919062000276565b600073ffffffffffffffffffffffffffffffffffffffff168173ffffffffffffffffffffffffffffffffffffffff1614156200009f576040517fdae3f98f00000000000000000000000000000000000000000000000000000000815260040160405180910390fd5b620000b46000801b33620000fc60201b60201c565b80600160006101000a81548173ffffffffffffffffffffffffffffffffffffffff021916908373ffffffffffffffffffffffffffffffffffffffff16021790555050620002fb565b6200010e8282620001ed60201b60201c565b620001e957600160008084815260200190815260200160002060000160008373ffffffffffffffffffffffffffffffffffffffff1673ffffffffffffffffffffffffffffffffffffffff16815260200190815260200160002060006101000a81548160ff0219169083151502179055506200018e6200025760201b60201c565b73ffffffffffffffffffffffffffffffffffffffff168173ffffffffffffffffffffffffffffffffffffffff16837f2f8788117e7eff1d82e926ec794901d17c78024a50270940304540a733656f0d60405160405180910390a45b5050565b600080600084815260200190815260200160002060000160008373ffffffffffffffffffffffffffffffffffffffff1673ffffffffffffffffffffffffffffffffffffffff16815260200190815260200160002060009054906101000a900460ff16905092915050565b600033905090565b6000815190506200027081620002e1565b92915050565b6000602082840312156200028f576200028e620002dc565b5b60006200029f848285016200025f565b91505092915050565b6000620002b582620002bc565b9050919050565b600073ffffffffffffffffffffffffffffffffffffffff82169050919050565b600080fd5b620002ec81620002a8565b8114620002f857600080fd5b50565b6153e7806200030b6000396000f3fe608060405234801561001057600080fd5b50600436106101f05760003560e01c80638d0ba65c1161010f578063c8622c24116100a2578063e040994311610071578063e040994314610581578063efc427b7146105b1578063f9eaee0d146105e1578063fe947f3c14610611576101f0565b8063c8622c241461050f578063ca2e8df31461052b578063d547741f14610547578063df37bb1914610563576101f0565b8063a217fddf116100de578063a217fddf1461049d578063a8c2cda4146104bb578063af9806cb146104d7578063b75c7dc6146104f3576101f0565b80638d0ba65c1461041957806391100e051461043557806391d14854146104515780639579b5f714610481576101f0565b806336568abe11610187578063433f4c2b11610156578063433f4c2b146103955780636e7019d1146103b15780638215b882146103cd57806382e58d51146103e9576101f0565b806336568abe146102fd5780633923c75a1461031957806339d0e28f146103495780633adc277a14610365576101f0565b80631d81019d116101c35780631d81019d1461027957806322366f5014610295578063248a9ca3146102b15780632f2ff15d146102e1576101f0565b806301ffc9a7146101f55780630c9b91a8146102255780631172d773146102415780631c9784f91461025d575b600080fd5b61020f600480360381019061020a9190613ed3565b61062d565b60405161021c9190614786565b60405180910390f35b61023f600480360381019061023a9190613c1e565b6106a7565b005b61025b60048036038101906102569190613a07565b6107cb565b005b61027760048036038101906102729190613f00565b61097c565b005b610293600480360381019061028e9190613a5a565b610a3f565b005b6102af60048036038101906102aa9190613ad5565b610dd6565b005b6102cb60048036038101906102c69190613bf1565b610e9c565b6040516102d891906147a1565b60405180910390f35b6102fb60048036038101906102f69190613c1e565b610ebb565b005b61031760048036038101906103129190613c1e565b610ee4565b005b610333600480360381019061032e91906139da565b610f67565b6040516103409190614a7b565b60405180910390f35b610363600480360381019061035e9190613cb1565b61101b565b005b61037f600480360381019061037a9190613bf1565b6110ae565b60405161038c9190614a3e565b60405180910390f35b6103af60048036038101906103aa9190613de4565b61116d565b005b6103cb60048036038101906103c69190613b15565b611233565b005b6103e760048036038101906103e29190613c1e565b61142e565b005b61040360048036038101906103fe9190613bf1565b61163f565b6040516104109190614a60565b60405180910390f35b610433600480360381019061042e9190613e40565b6116f8565b005b61044f600480360381019061044a9190613d31565b6117be565b005b61046b60048036038101906104669190613c1e565b611887565b6040516104789190614786565b60405180910390f35b61049b60048036038101906104969190613d84565b6118f1565b005b6104a56119ba565b6040516104b291906147a1565b60405180910390f35b6104d560048036038101906104d09190613c5e565b6119c1565b005b6104f160048036038101906104ec9190613b15565b611a8a565b005b61050d60048036038101906105089190613bf1565b611c4b565b005b61052960048036038101906105249190613b15565b611cd7565b005b61054560048036038101906105409190613b55565b611ebf565b005b610561600480360381019061055c9190613c1e565b611f43565b005b61056b611f6c565b60405161057891906147a1565b60405180910390f35b61059b60048036038101906105969190613bf1565b611f90565b6040516105a89190614a7b565b60405180910390f35b6105cb60048036038101906105c69190613cf1565b612002565b6040516105d89190614a7b565b60405180910390f35b6105fb60048036038101906105f691906139da565b6120b9565b6040516106089190614786565b60405180910390f35b61062b60048036038101906106269190613f49565b61216d565b005b60007f7965db0b000000000000000000000000000000000000000000000000000000007bffffffffffffffffffffffffffffffffffffffffffffffffffffffff1916827bffffffffffffffffffffffffffffffffffffffffffffffffffffffff191614806106a0575061069f8261246f565b5b9050919050565b7f41a3fffbda0f1c9e28bd52ae72187b3406590146b6ca8f19961d2250566efd166106d9816106d46124d9565b6124e1565b60006106e4846110ae565b90508273ffffffffffffffffffffffffffffffffffffffff16816040015173ffffffffffffffffffffffffffffffffffffffff16146107c55760008160400151905083826040019073ffffffffffffffffffffffffffffffffffffffff16908173ffffffffffffffffffffffffffffffffffffffff1681525050610768858361116d565b8373ffffffffffffffffffffffffffffffffffffffff168173ffffffffffffffffffffffffffffffffffffffff16867fa89a1fa6ba59919b077afb88862e64c388ae9903afd348b09c3c59a2f8810c1e60405160405180910390a4505b50505050565b7f41a3fffbda0f1c9e28bd52ae72187b3406590146b6ca8f19961d2250566efd166107fd816107f86124d9565b6124e1565b6000610808836110ae565b9050600061082f8260e001518361016001516108249190614db6565b83610180015161257e565b9050600061083e856001612002565b9050600081141580156108515750818110155b15610888576040517f259125a100000000000000000000000000000000000000000000000000000000815260040160405180910390fd5b8673ffffffffffffffffffffffffffffffffffffffff1663cbc631c584610140015160200151856101400151600001518a8a86886108c69190614e10565b6040518663ffffffff1660e01b81526004016108e6959493929190614907565b600060405180830381600087803b15801561090057600080fd5b505af1158015610914573d6000803e3d6000fd5b50505050610924856001846117be565b843373ffffffffffffffffffffffffffffffffffffffff167fd58e36ccce0faf4ec8eabd7b3eda9e52a56e922ed16e4d22285ca124b5becbce8460405161096b9190614a7b565b60405180910390a350505050505050565b7f41a3fffbda0f1c9e28bd52ae72187b3406590146b6ca8f19961d2250566efd166109ae816109a96124d9565b6124e1565b600160009054906101000a900473ffffffffffffffffffffffffffffffffffffffff1673ffffffffffffffffffffffffffffffffffffffff16631c9784f9836040518263ffffffff1660e01b8152600401610a099190614a1c565b600060405180830381600087803b158015610a2357600080fd5b505af1158015610a37573d6000803e3d6000fd5b505050505050565b7f41a3fffbda0f1c9e28bd52ae72187b3406590146b6ca8f19961d2250566efd16610a7181610a6c6124d9565b6124e1565b6000610a7c856110ae565b90506000610a8a86886125b4565b90508160c001518260e0015186610aa19190614d2f565b1115610ad9576040517f73abf1fd00000000000000000000000000000000000000000000000000000000815260040160405180910390fd5b816101a001518186610aeb9190614d2f565b1115610b23576040517f2c029b2000000000000000000000000000000000000000000000000000000000815260040160405180910390fd5b60006001811115610b3757610b3661507e565b5b826101400151602001516001811115610b5357610b5261507e565b5b1415610ba75784826101600151610b6a9190614db6565b8414610ba2576040517f4c8bb95500000000000000000000000000000000000000000000000000000000815260040160405180910390fd5b610bf4565b6000826101400151600001519050610bf2888a88866101600151610bcb9190614db6565b8473ffffffffffffffffffffffffffffffffffffffff1661266b909392919063ffffffff16565b505b848260e00151610c049190614d2f565b8260e0018181525050610c17868361116d565b610c2d86888784610c289190614d2f565b6119c1565b60005b82610100015151811015610d7c5760008361010001518281518110610c5857610c576150ad565b5b60200260200101519050610cb98a8a898761012001518681518110610c8057610c7f6150ad565b5b6020026020010151610c929190614db6565b8473ffffffffffffffffffffffffffffffffffffffff1661266b909392919063ffffffff16565b8361010001518281518110610cd157610cd06150ad565b5b602002602001015173ffffffffffffffffffffffffffffffffffffffff16888a73ffffffffffffffffffffffffffffffffffffffff167fdf9b1c1794998ca4f08d12b066f07566231e28d8b7512b8e5703ee518290fca28a8861012001518781518110610d4157610d406150ad565b5b6020026020010151610d539190614db6565b604051610d609190614a7b565b60405180910390a4508080610d7490614fa9565b915050610c30565b50858773ffffffffffffffffffffffffffffffffffffffff167f466a2cb28370d90a159ba04b90161ae31f8671f13e9550b9306a8aa0a42756f687604051610dc49190614a7b565b60405180910390a35050505050505050565b7f41a3fffbda0f1c9e28bd52ae72187b3406590146b6ca8f19961d2250566efd16610e0881610e036124d9565b6124e1565b600160009054906101000a900473ffffffffffffffffffffffffffffffffffffffff1673ffffffffffffffffffffffffffffffffffffffff166322366f5084846040518363ffffffff1660e01b8152600401610e65929190614734565b600060405180830381600087803b158015610e7f57600080fd5b505af1158015610e93573d6000803e3d6000fd5b50505050505050565b6000806000838152602001908152602001600020600101549050919050565b610ec482610e9c565b610ed581610ed06124d9565b6124e1565b610edf83836126f4565b505050565b610eec6124d9565b73ffffffffffffffffffffffffffffffffffffffff168173ffffffffffffffffffffffffffffffffffffffff1614610f59576040517f08c379a0000000000000000000000000000000000000000000000000000000008152600401610f50906149fc565b60405180910390fd5b610f6382826127d4565b5050565b6000600160009054906101000a900473ffffffffffffffffffffffffffffffffffffffff1673ffffffffffffffffffffffffffffffffffffffff16633923c75a836040518263ffffffff1660e01b8152600401610fc491906146e2565b60206040518083038186803b158015610fdc57600080fd5b505afa158015610ff0573d6000803e3d6000fd5b505050506040513d601f19601f820116820180604052508101906110149190614008565b9050919050565b7f41a3fffbda0f1c9e28bd52ae72187b3406590146b6ca8f19961d2250566efd1661104d816110486124d9565b6124e1565b6000611058846110ae565b9050828160a00151146110a857828160a0018181525050611079848261116d565b82847f5894112fcf809e4422086a6f172e117944305b6c236b1d21b2fb5f967ed7b3c960405160405180910390a35b50505050565b6110b6612ef6565b600160009054906101000a900473ffffffffffffffffffffffffffffffffffffffff1673ffffffffffffffffffffffffffffffffffffffff16633adc277a836040518263ffffffff1660e01b815260040161111191906147a1565b60006040518083038186803b15801561112957600080fd5b505afa15801561113d573d6000803e3d6000fd5b505050506040513d6000823e3d601f19601f820116820180604052508101906111669190613f92565b9050919050565b7f41a3fffbda0f1c9e28bd52ae72187b3406590146b6ca8f19961d2250566efd1661119f8161119a6124d9565b6124e1565b600160009054906101000a900473ffffffffffffffffffffffffffffffffffffffff1673ffffffffffffffffffffffffffffffffffffffff1663433f4c2b84846040518363ffffffff1660e01b81526004016111fc9291906148ae565b600060405180830381600087803b15801561121657600080fd5b505af115801561122a573d6000803e3d6000fd5b50505050505050565b7f41a3fffbda0f1c9e28bd52ae72187b3406590146b6ca8f19961d2250566efd16611265816112606124d9565b6124e1565b6000611270836110ae565b9050600061127f846003612002565b905060008260e001518360c001516112979190614e10565b141580156112b757508160e001518260c001516112b49190614e10565b81145b156112ee576040517f259125a100000000000000000000000000000000000000000000000000000000815260040160405180910390fd5b60005b826101000151518110156113a55760008361010001518281518110611319576113186150ad565b5b602002602001015190506113918785604001518660e001518760c001516113409190614e10565b8761012001518681518110611358576113576150ad565b5b602002602001015161136a9190614db6565b8473ffffffffffffffffffffffffffffffffffffffff1661266b909392919063ffffffff16565b50808061139d90614fa9565b9150506112f1565b506113c58460038460e001518560c001516113c09190614e10565b6117be565b838573ffffffffffffffffffffffffffffffffffffffff167ff3165a579ec2dc717bb023a16d84cc1a94358b9c24a4e3526fb6dfe29c0d7e238460e001518560c001516114129190614e10565b60405161141f9190614a7b565b60405180910390a35050505050565b7f41a3fffbda0f1c9e28bd52ae72187b3406590146b6ca8f19961d2250566efd166114608161145b6124d9565b6124e1565b600061146b8461163f565b905060008160000151905083826000019073ffffffffffffffffffffffffffffffffffffffff16908173ffffffffffffffffffffffffffffffffffffffff16815250506000600160009054906101000a900473ffffffffffffffffffffffffffffffffffffffff1673ffffffffffffffffffffffffffffffffffffffff1663e4e4f803876040518263ffffffff1660e01b815260040161150b91906147a1565b60606040518083038186803b15801561152357600080fd5b505afa158015611537573d6000803e3d6000fd5b505050506040513d601f19601f8201168201806040525081019061155b9190613e80565b5091505061156986846116f8565b600160009054906101000a900473ffffffffffffffffffffffffffffffffffffffff1673ffffffffffffffffffffffffffffffffffffffff1663f730f45986836040518363ffffffff1660e01b81526004016115c692919061475d565b600060405180830381600087803b1580156115e057600080fd5b505af11580156115f4573d6000803e3d6000fd5b50505050600073ffffffffffffffffffffffffffffffffffffffff168273ffffffffffffffffffffffffffffffffffffffff16146116375761163686836128b5565b5b505050505050565b611647612f88565b600160009054906101000a900473ffffffffffffffffffffffffffffffffffffffff1673ffffffffffffffffffffffffffffffffffffffff166382e58d51836040518263ffffffff1660e01b81526004016116a291906147a1565b604080518083038186803b1580156116b957600080fd5b505afa1580156116cd573d6000803e3d6000fd5b505050506040513d601f19601f820116820180604052508101906116f19190613fdb565b9050919050565b7f41a3fffbda0f1c9e28bd52ae72187b3406590146b6ca8f19961d2250566efd1661172a816117256124d9565b6124e1565b600160009054906101000a900473ffffffffffffffffffffffffffffffffffffffff1673ffffffffffffffffffffffffffffffffffffffff16638d0ba65c84846040518363ffffffff1660e01b81526004016117879291906148de565b600060405180830381600087803b1580156117a157600080fd5b505af11580156117b5573d6000803e3d6000fd5b50505050505050565b7f41a3fffbda0f1c9e28bd52ae72187b3406590146b6ca8f19961d2250566efd166117f0816117eb6124d9565b6124e1565b600160009054906101000a900473ffffffffffffffffffffffffffffffffffffffff1673ffffffffffffffffffffffffffffffffffffffff166391100e058585856040518463ffffffff1660e01b815260040161184f93929190614845565b600060405180830381600087803b15801561186957600080fd5b505af115801561187d573d6000803e3d6000fd5b5050505050505050565b600080600084815260200190815260200160002060000160008373ffffffffffffffffffffffffffffffffffffffff1673ffffffffffffffffffffffffffffffffffffffff16815260200190815260200160002060009054906101000a900460ff16905092915050565b7f41a3fffbda0f1c9e28bd52ae72187b3406590146b6ca8f19961d2250566efd166119238161191e6124d9565b6124e1565b600160009054906101000a900473ffffffffffffffffffffffffffffffffffffffff1673ffffffffffffffffffffffffffffffffffffffff16639579b5f78585856040518463ffffffff1660e01b81526004016119829392919061487c565b600060405180830381600087803b15801561199c57600080fd5b505af11580156119b0573d6000803e3d6000fd5b5050505050505050565b6000801b81565b7f41a3fffbda0f1c9e28bd52ae72187b3406590146b6ca8f19961d2250566efd166119f3816119ee6124d9565b6124e1565b600160009054906101000a900473ffffffffffffffffffffffffffffffffffffffff1673ffffffffffffffffffffffffffffffffffffffff1663a8c2cda48585856040518463ffffffff1660e01b8152600401611a52939291906147e5565b600060405180830381600087803b158015611a6c57600080fd5b505af1158015611a80573d6000803e3d6000fd5b5050505050505050565b7f41a3fffbda0f1c9e28bd52ae72187b3406590146b6ca8f19961d2250566efd16611abc81611ab76124d9565b6124e1565b6000611ac7836110ae565b90506000611ad48461163f565b90506000611afa8360e00151846101600151611af09190614db6565b836020015161257e565b90506000611b09866002612002565b905060008114158015611b1c5750818110155b15611b53576040517f259125a100000000000000000000000000000000000000000000000000000000815260040160405180910390fd5b8673ffffffffffffffffffffffffffffffffffffffff1663cbc631c585610140015160200151866101400151600001518a87600001518688611b959190614e10565b6040518663ffffffff1660e01b8152600401611bb5959493929190614907565b600060405180830381600087803b158015611bcf57600080fd5b505af1158015611be3573d6000803e3d6000fd5b50505050611bf3866002846117be565b853373ffffffffffffffffffffffffffffffffffffffff167fd58e36ccce0faf4ec8eabd7b3eda9e52a56e922ed16e4d22285ca124b5becbce84604051611c3a9190614a7b565b60405180910390a350505050505050565b7f41a3fffbda0f1c9e28bd52ae72187b3406590146b6ca8f19961d2250566efd16611c7d81611c786124d9565b6124e1565b6000611c88836110ae565b90506001816020019015159081151581525050611ca5838261116d565b827f3626cc1e192acc0abcfef43b9f61ccf4e385716e2df2cf014a2ae6e23dfeb3af60405160405180910390a2505050565b7f41a3fffbda0f1c9e28bd52ae72187b3406590146b6ca8f19961d2250566efd16611d0981611d046124d9565b6124e1565b6000611d14836110ae565b905060008160e00151826101600151611d2d9190614db6565b90506000611d3c856000612002565b905060008114158015611d4f5750818110155b15611d86576040517f259125a100000000000000000000000000000000000000000000000000000000815260040160405180910390fd5b6000611d918661163f565b602001519050611da1838261257e565b611db08486610180015161257e565b84611dbb9190614e10565b611dc59190614e10565b92508673ffffffffffffffffffffffffffffffffffffffff1663cbc631c585610140015160200151866101400151600001518a88604001518789611e099190614e10565b6040518663ffffffff1660e01b8152600401611e29959493929190614907565b600060405180830381600087803b158015611e4357600080fd5b505af1158015611e57573d6000803e3d6000fd5b50505050611e67866000856117be565b853373ffffffffffffffffffffffffffffffffffffffff167fd58e36ccce0faf4ec8eabd7b3eda9e52a56e922ed16e4d22285ca124b5becbce85604051611eae9190614a7b565b60405180910390a350505050505050565b6000611eca836110ae565b9050600084604051602001611edf919061464a565b604051602081830303815290604052805190602001209050611f06838360a001518361297b565b611f3c576040517f017cc76a00000000000000000000000000000000000000000000000000000000815260040160405180910390fd5b5050505050565b611f4c82610e9c565b611f5d81611f586124d9565b6124e1565b611f6783836127d4565b505050565b7f41a3fffbda0f1c9e28bd52ae72187b3406590146b6ca8f19961d2250566efd1681565b600080611f9c836110ae565b90506000611fa8612992565b9050816020015115611fbf57600092505050611ffd565b81608001518260600151611fd39190614d2f565b8110611ff6578160e001518260c00151611fed9190614e10565b92505050611ffd565b6000925050505b919050565b6000600160009054906101000a900473ffffffffffffffffffffffffffffffffffffffff1673ffffffffffffffffffffffffffffffffffffffff1663efc427b784846040518363ffffffff1660e01b815260040161206192919061481c565b60206040518083038186803b15801561207957600080fd5b505afa15801561208d573d6000803e3d6000fd5b505050506040513d601f19601f820116820180604052508101906120b19190614008565b905092915050565b6000600160009054906101000a900473ffffffffffffffffffffffffffffffffffffffff1673ffffffffffffffffffffffffffffffffffffffff1663f9eaee0d836040518263ffffffff1660e01b815260040161211691906146e2565b60206040518083038186803b15801561212e57600080fd5b505afa158015612142573d6000803e3d6000fd5b505050506040513d601f19601f820116820180604052508101906121669190613bc4565b9050919050565b612175612992565b816000013510156121b2576040517f91b84bf300000000000000000000000000000000000000000000000000000000815260040160405180910390fd5b6000816020013514156121f1576040517ff14a76df00000000000000000000000000000000000000000000000000000000815260040160405180910390fd5b60008160c001351415612230576040517fe367fb1f00000000000000000000000000000000000000000000000000000000815260040160405180910390fd5b60008180608001906122429190614a96565b9050148061226157506000818060a0019061225d9190614af9565b9050145b8061228e5750808060a001906122779190614af9565b90508180608001906122899190614a96565b905014155b156122c5576040517f382cac8400000000000000000000000000000000000000000000000000000000815260040160405180910390fd5b600073ffffffffffffffffffffffffffffffffffffffff16816101400160208101906122f191906139da565b73ffffffffffffffffffffffffffffffffffffffff1614158061231a5750600081610160013514155b80156123755750600073ffffffffffffffffffffffffffffffffffffffff168161014001602081019061234d91906139da565b73ffffffffffffffffffffffffffffffffffffffff16148061237457506000816101600135145b5b156123ac576040517f2eb4329500000000000000000000000000000000000000000000000000000000815260040160405180910390fd5b620f4240816101600135106123ed576040517f76c6dc5a00000000000000000000000000000000000000000000000000000000815260040160405180910390fd5b60008160600135141561242c576040517fa635d43500000000000000000000000000000000000000000000000000000000815260040160405180910390fd5b6000816101800135141561246c576040517fccbb80fc00000000000000000000000000000000000000000000000000000000815260040160405180910390fd5b50565b60007f01ffc9a7000000000000000000000000000000000000000000000000000000007bffffffffffffffffffffffffffffffffffffffffffffffffffffffff1916827bffffffffffffffffffffffffffffffffffffffffffffffffffffffff1916149050919050565b600033905090565b6124eb8282611887565b61257a576125108173ffffffffffffffffffffffffffffffffffffffff16601461299a565b61251e8360001c602061299a565b60405160200161252f9291906146a8565b6040516020818303038152906040526040517f08c379a0000000000000000000000000000000000000000000000000000000008152600401612571919061495a565b60405180910390fd5b5050565b60008082141561259157600090506125ae565b620f424082846125a19190614db6565b6125ab9190614d85565b90505b92915050565b6000600160009054906101000a900473ffffffffffffffffffffffffffffffffffffffff1673ffffffffffffffffffffffffffffffffffffffff16633c63927884846040518363ffffffff1660e01b81526004016126139291906147bc565b60206040518083038186803b15801561262b57600080fd5b505afa15801561263f573d6000803e3d6000fd5b505050506040513d601f19601f820116820180604052508101906126639190614008565b905092915050565b6126ee846323b872dd60e01b85858560405160240161268c939291906146fd565b604051602081830303815290604052907bffffffffffffffffffffffffffffffffffffffffffffffffffffffff19166020820180517bffffffffffffffffffffffffffffffffffffffffffffffffffffffff8381831617835250505050612bd6565b50505050565b6126fe8282611887565b6127d057600160008084815260200190815260200160002060000160008373ffffffffffffffffffffffffffffffffffffffff1673ffffffffffffffffffffffffffffffffffffffff16815260200190815260200160002060006101000a81548160ff0219169083151502179055506127756124d9565b73ffffffffffffffffffffffffffffffffffffffff168173ffffffffffffffffffffffffffffffffffffffff16837f2f8788117e7eff1d82e926ec794901d17c78024a50270940304540a733656f0d60405160405180910390a45b5050565b6127de8282611887565b156128b157600080600084815260200190815260200160002060000160008373ffffffffffffffffffffffffffffffffffffffff1673ffffffffffffffffffffffffffffffffffffffff16815260200190815260200160002060006101000a81548160ff0219169083151502179055506128566124d9565b73ffffffffffffffffffffffffffffffffffffffff168173ffffffffffffffffffffffffffffffffffffffff16837ff6391f5c32d9c69d2a47ea670b442974b53935d1edc7fd64eb21e047a839171b60405160405180910390a45b5050565b7f41a3fffbda0f1c9e28bd52ae72187b3406590146b6ca8f19961d2250566efd166128e7816128e26124d9565b6124e1565b600160009054906101000a900473ffffffffffffffffffffffffffffffffffffffff1673ffffffffffffffffffffffffffffffffffffffff1663c535012884846040518363ffffffff1660e01b81526004016129449291906147bc565b600060405180830381600087803b15801561295e57600080fd5b505af1158015612972573d6000803e3d6000fd5b50505050505050565b6000826129888584612c9d565b1490509392505050565b600042905090565b6060600060028360026129ad9190614db6565b6129b79190614d2f565b67ffffffffffffffff8111156129d0576129cf6150dc565b5b6040519080825280601f01601f191660200182016040528015612a025781602001600182028036833780820191505090505b5090507f300000000000000000000000000000000000000000000000000000000000000081600081518110612a3a57612a396150ad565b5b60200101907effffffffffffffffffffffffffffffffffffffffffffffffffffffffffffff1916908160001a9053507f780000000000000000000000000000000000000000000000000000000000000081600181518110612a9e57612a9d6150ad565b5b60200101907effffffffffffffffffffffffffffffffffffffffffffffffffffffffffffff1916908160001a90535060006001846002612ade9190614db6565b612ae89190614d2f565b90505b6001811115612b88577f3031323334353637383961626364656600000000000000000000000000000000600f861660108110612b2a57612b296150ad565b5b1a60f81b828281518110612b4157612b406150ad565b5b60200101907effffffffffffffffffffffffffffffffffffffffffffffffffffffffffffff1916908160001a905350600485901c945080612b8190614f4e565b9050612aeb565b5060008414612bcc576040517f08c379a0000000000000000000000000000000000000000000000000000000008152600401612bc39061497c565b60405180910390fd5b8091505092915050565b6000612c38826040518060400160405280602081526020017f5361666545524332303a206c6f772d6c6576656c2063616c6c206661696c65648152508573ffffffffffffffffffffffffffffffffffffffff16612d509092919063ffffffff16565b9050600081511115612c985780806020019051810190612c589190613bc4565b612c97576040517f08c379a0000000000000000000000000000000000000000000000000000000008152600401612c8e906149dc565b60405180910390fd5b5b505050565b60008082905060005b8451811015612d45576000858281518110612cc457612cc36150ad565b5b60200260200101519050808311612d05578281604051602001612ce8929190614665565b604051602081830303815290604052805190602001209250612d31565b8083604051602001612d18929190614665565b6040516020818303038152906040528051906020012092505b508080612d3d90614fa9565b915050612ca6565b508091505092915050565b6060612d5f8484600085612d68565b90509392505050565b606082471015612dad576040517f08c379a0000000000000000000000000000000000000000000000000000000008152600401612da49061499c565b60405180910390fd5b612db685612e7c565b612df5576040517f08c379a0000000000000000000000000000000000000000000000000000000008152600401612dec906149bc565b60405180910390fd5b6000808673ffffffffffffffffffffffffffffffffffffffff168587604051612e1e9190614691565b60006040518083038185875af1925050503d8060008114612e5b576040519150601f19603f3d011682016040523d82523d6000602084013e612e60565b606091505b5091509150612e70828286612e8f565b92505050949350505050565b600080823b905060008111915050919050565b60608315612e9f57829050612eef565b600083511115612eb25782518084602001fd5b816040517f08c379a0000000000000000000000000000000000000000000000000000000008152600401612ee6919061495a565b60405180910390fd5b9392505050565b604051806101c00160405280600015158152602001600015158152602001600073ffffffffffffffffffffffffffffffffffffffff16815260200160008152602001600081526020016000801916815260200160008152602001600081526020016060815260200160608152602001612f6d612fb8565b81526020016000815260200160008152602001600081525090565b6040518060400160405280600073ffffffffffffffffffffffffffffffffffffffff168152602001600081525090565b6040518060400160405280600073ffffffffffffffffffffffffffffffffffffffff16815260200160006001811115612ff457612ff361507e565b5b81525090565b600061300d61300884614b81565b614b5c565b905080838252602082019050828560208602820111156130305761302f61512e565b5b60005b858110156130605781613046888261326c565b845260208401935060208301925050600181019050613033565b5050509392505050565b600061307d61307884614b81565b614b5c565b905080838252602082019050828560208602820111156130a05761309f61512e565b5b60005b858110156130d057816130b68882613281565b8452602084019350602083019250506001810190506130a3565b5050509392505050565b60006130ed6130e884614bad565b614b5c565b905080838252602082019050828560208602820111156131105761310f61512e565b5b60005b85811015613140578161312688826133a6565b845260208401935060208301925050600181019050613113565b5050509392505050565b600061315d61315884614bd9565b614b5c565b905080838252602082019050828560208602820111156131805761317f61512e565b5b60005b858110156131b0578161319688826139b0565b845260208401935060208301925050600181019050613183565b5050509392505050565b60006131cd6131c884614bd9565b614b5c565b905080838252602082019050828560208602820111156131f0576131ef61512e565b5b60005b85811015613220578161320688826139c5565b8452602084019350602083019250506001810190506131f3565b5050509392505050565b600061323d61323884614c05565b614b5c565b90508281526020810184848401111561325957613258615138565b5b613264848285614f0c565b509392505050565b60008135905061327b8161531e565b92915050565b6000815190506132908161531e565b92915050565b600082601f8301126132ab576132aa615110565b5b81356132bb848260208601612ffa565b91505092915050565b600082601f8301126132d9576132d8615110565b5b81516132e984826020860161306a565b91505092915050565b600082601f83011261330757613306615110565b5b81356133178482602086016130da565b91505092915050565b600082601f83011261333557613334615110565b5b813561334584826020860161314a565b91505092915050565b600082601f83011261336357613362615110565b5b81516133738482602086016131ba565b91505092915050565b60008135905061338b81615335565b92915050565b6000815190506133a081615335565b92915050565b6000813590506133b58161534c565b92915050565b6000815190506133ca8161534c565b92915050565b6000813590506133df81615363565b92915050565b6000813590506133f48161537a565b92915050565b6000815190506134098161537a565b92915050565b60008135905061341e8161538a565b92915050565b60008083601f84011261343a57613439615110565b5b8235905067ffffffffffffffff8111156134575761345661510b565b5b6020830191508360018202830111156134735761347261512e565b5b9250929050565b600082601f83011261348f5761348e615110565b5b813561349f84826020860161322a565b91505092915050565b6000604082840312156134be576134bd61511f565b5b6134c86040614b5c565b905060006134d88482850161326c565b60008301525060206134ec848285016133e5565b60208301525092915050565b60006040828403121561350e5761350d61511f565b5b6135186040614b5c565b9050600061352884828501613281565b600083015250602061353c848285016133fa565b60208301525092915050565b60006060828403121561355e5761355d61511f565b5b6135686060614b5c565b90506000613578848285016133a6565b600083015250602082013567ffffffffffffffff81111561359c5761359b615129565b5b6135a8848285016132f2565b602083015250604082013567ffffffffffffffff8111156135cc576135cb615129565b5b6135d88482850161347a565b60408301525092915050565b60006101a082840312156135fb576135fa61511a565b5b81905092915050565b60006101e0828403121561361b5761361a61511f565b5b6136266101c0614b5c565b905060006136368482850161337c565b600083015250602061364a8482850161337c565b602083015250604061365e8482850161326c565b6040830152506060613672848285016139b0565b6060830152506080613686848285016139b0565b60808301525060a061369a848285016133a6565b60a08301525060c06136ae848285016139b0565b60c08301525060e06136c2848285016139b0565b60e08301525061010082013567ffffffffffffffff8111156136e7576136e6615129565b5b6136f384828501613296565b6101008301525061012082013567ffffffffffffffff81111561371957613718615129565b5b61372584828501613320565b6101208301525061014061373b848285016134a8565b61014083015250610180613751848285016139b0565b610160830152506101a0613767848285016139b0565b610180830152506101c061377d848285016139b0565b6101a08301525092915050565b60006101e082840312156137a1576137a061511f565b5b6137ac6101c0614b5c565b905060006137bc84828501613391565b60008301525060206137d084828501613391565b60208301525060406137e484828501613281565b60408301525060606137f8848285016139c5565b606083015250608061380c848285016139c5565b60808301525060a0613820848285016133bb565b60a08301525060c0613834848285016139c5565b60c08301525060e0613848848285016139c5565b60e08301525061010082015167ffffffffffffffff81111561386d5761386c615129565b5b613879848285016132c4565b6101008301525061012082015167ffffffffffffffff81111561389f5761389e615129565b5b6138ab8482850161334e565b610120830152506101406138c1848285016134f8565b610140830152506101806138d7848285016139c5565b610160830152506101a06138ed848285016139c5565b610180830152506101c0613903848285016139c5565b6101a08301525092915050565b6000604082840312156139265761392561511f565b5b6139306040614b5c565b905060006139408482850161326c565b6000830152506020613954848285016139b0565b60208301525092915050565b6000604082840312156139765761397561511f565b5b6139806040614b5c565b9050600061399084828501613281565b60008301525060206139a4848285016139c5565b60208301525092915050565b6000813590506139bf8161539a565b92915050565b6000815190506139d48161539a565b92915050565b6000602082840312156139f0576139ef615142565b5b60006139fe8482850161326c565b91505092915050565b600080600060608486031215613a2057613a1f615142565b5b6000613a2e8682870161326c565b9350506020613a3f8682870161326c565b9250506040613a50868287016133a6565b9150509250925092565b600080600080600060a08688031215613a7657613a75615142565b5b6000613a848882890161326c565b9550506020613a958882890161326c565b9450506040613aa6888289016133a6565b9350506060613ab7888289016139b0565b9250506080613ac8888289016139b0565b9150509295509295909350565b60008060408385031215613aec57613aeb615142565b5b6000613afa8582860161326c565b9250506020613b0b8582860161337c565b9150509250929050565b60008060408385031215613b2c57613b2b615142565b5b6000613b3a8582860161326c565b9250506020613b4b858286016133a6565b9150509250929050565b600080600060608486031215613b6e57613b6d615142565b5b6000613b7c8682870161326c565b9350506020613b8d868287016133a6565b925050604084013567ffffffffffffffff811115613bae57613bad61513d565b5b613bba868287016132f2565b9150509250925092565b600060208284031215613bda57613bd9615142565b5b6000613be884828501613391565b91505092915050565b600060208284031215613c0757613c06615142565b5b6000613c15848285016133a6565b91505092915050565b60008060408385031215613c3557613c34615142565b5b6000613c43858286016133a6565b9250506020613c548582860161326c565b9150509250929050565b600080600060608486031215613c7757613c76615142565b5b6000613c85868287016133a6565b9350506020613c968682870161326c565b9250506040613ca7868287016139b0565b9150509250925092565b60008060408385031215613cc857613cc7615142565b5b6000613cd6858286016133a6565b9250506020613ce7858286016133a6565b9150509250929050565b60008060408385031215613d0857613d07615142565b5b6000613d16858286016133a6565b9250506020613d278582860161340f565b9150509250929050565b600080600060608486031215613d4a57613d49615142565b5b6000613d58868287016133a6565b9350506020613d698682870161340f565b9250506040613d7a868287016139b0565b9150509250925092565b600080600060408486031215613d9d57613d9c615142565b5b6000613dab868287016133a6565b935050602084013567ffffffffffffffff811115613dcc57613dcb61513d565b5b613dd886828701613424565b92509250509250925092565b60008060408385031215613dfb57613dfa615142565b5b6000613e09858286016133a6565b925050602083013567ffffffffffffffff811115613e2a57613e2961513d565b5b613e3685828601613604565b9150509250929050565b60008060608385031215613e5757613e56615142565b5b6000613e65858286016133a6565b9250506020613e7685828601613910565b9150509250929050565b600080600060608486031215613e9957613e98615142565b5b6000613ea7868287016133bb565b9350506020613eb8868287016139c5565b9250506040613ec9868287016139c5565b9150509250925092565b600060208284031215613ee957613ee8615142565b5b6000613ef7848285016133d0565b91505092915050565b600060208284031215613f1657613f15615142565b5b600082013567ffffffffffffffff811115613f3457613f3361513d565b5b613f4084828501613548565b91505092915050565b600060208284031215613f5f57613f5e615142565b5b600082013567ffffffffffffffff811115613f7d57613f7c61513d565b5b613f89848285016135e4565b91505092915050565b600060208284031215613fa857613fa7615142565b5b600082015167ffffffffffffffff811115613fc657613fc561513d565b5b613fd28482850161378a565b91505092915050565b600060408284031215613ff157613ff0615142565b5b6000613fff84828501613960565b91505092915050565b60006020828403121561401e5761401d615142565b5b600061402c848285016139c5565b91505092915050565b6000614041838361407d565b60208301905092915050565b600061405983836141ea565b60208301905092915050565b6000614071838361462c565b60208301905092915050565b61408681614e44565b82525050565b61409581614e44565b82525050565b6140ac6140a782614e44565b614ff2565b82525050565b60006140bd82614c66565b6140c78185614cc4565b93506140d283614c36565b8060005b838110156141035781516140ea8882614035565b97506140f583614c9d565b9250506001810190506140d6565b5085935050505092915050565b600061411b82614c71565b6141258185614cd5565b935061413083614c46565b8060005b83811015614161578151614148888261404d565b975061415383614caa565b925050600181019050614134565b5085935050505092915050565b600061417982614c7c565b6141838185614ce6565b935061418e83614c56565b8060005b838110156141bf5781516141a68882614065565b97506141b183614cb7565b925050600181019050614192565b5085935050505092915050565b6141d581614e56565b82525050565b6141e481614e56565b82525050565b6141f381614e62565b82525050565b61420281614e62565b82525050565b61421961421482614e62565b615004565b82525050565b600061422a82614c87565b6142348185614cf7565b9350614244818560208601614f1b565b80840191505092915050565b61425981614ee8565b82525050565b61426881614ee8565b82525050565b61427781614efa565b82525050565b60006142898385614d13565b9350614296838584614f0c565b61429f83615147565b840190509392505050565b60006142b582614c92565b6142bf8185614d02565b93506142cf818560208601614f1b565b6142d881615147565b840191505092915050565b60006142ee82614c92565b6142f88185614d13565b9350614308818560208601614f1b565b61431181615147565b840191505092915050565b600061432782614c92565b6143318185614d24565b9350614341818560208601614f1b565b80840191505092915050565b600061435a602083614d13565b915061436582615165565b602082019050919050565b600061437d602683614d13565b91506143888261518e565b604082019050919050565b60006143a0601d83614d13565b91506143ab826151dd565b602082019050919050565b60006143c3601783614d24565b91506143ce82615206565b601782019050919050565b60006143e6602a83614d13565b91506143f18261522f565b604082019050919050565b6000614409601183614d24565b91506144148261527e565b601182019050919050565b600061442c602f83614d13565b9150614437826152a7565b604082019050919050565b604082016000820151614458600085018261407d565b50602082015161446b6020850182614250565b50505050565b600060608301600083015161448960008601826141ea565b50602083015184820360208601526144a18282614110565b915050604083015184820360408601526144bb82826142aa565b9150508091505092915050565b60006101e0830160008301516144e160008601826141cc565b5060208301516144f460208601826141cc565b506040830151614507604086018261407d565b50606083015161451a606086018261462c565b50608083015161452d608086018261462c565b5060a083015161454060a08601826141ea565b5060c083015161455360c086018261462c565b5060e083015161456660e086018261462c565b5061010083015184820361010086015261458082826140b2565b91505061012083015184820361012086015261459c828261416e565b9150506101408301516145b3610140860182614442565b506101608301516145c861018086018261462c565b506101808301516145dd6101a086018261462c565b506101a08301516145f26101c086018261462c565b508091505092915050565b604082016000820151614613600085018261407d565b506020820151614626602085018261462c565b50505050565b61463581614ede565b82525050565b61464481614ede565b82525050565b6000614656828461409b565b60148201915081905092915050565b60006146718285614208565b6020820191506146818284614208565b6020820191508190509392505050565b600061469d828461421f565b915081905092915050565b60006146b3826143b6565b91506146bf828561431c565b91506146ca826143fc565b91506146d6828461431c565b91508190509392505050565b60006020820190506146f7600083018461408c565b92915050565b6000606082019050614712600083018661408c565b61471f602083018561408c565b61472c604083018461463b565b949350505050565b6000604082019050614749600083018561408c565b61475660208301846141db565b9392505050565b6000604082019050614772600083018561408c565b61477f602083018461463b565b9392505050565b600060208201905061479b60008301846141db565b92915050565b60006020820190506147b660008301846141f9565b92915050565b60006040820190506147d160008301856141f9565b6147de602083018461408c565b9392505050565b60006060820190506147fa60008301866141f9565b614807602083018561408c565b614814604083018461463b565b949350505050565b600060408201905061483160008301856141f9565b61483e602083018461426e565b9392505050565b600060608201905061485a60008301866141f9565b614867602083018561426e565b614874604083018461463b565b949350505050565b600060408201905061489160008301866141f9565b81810360208301526148a481848661427d565b9050949350505050565b60006040820190506148c360008301856141f9565b81810360208301526148d581846144c8565b90509392505050565b60006060820190506148f360008301856141f9565b61490060208301846145fd565b9392505050565b600060a08201905061491c600083018861425f565b614929602083018761408c565b614936604083018661408c565b614943606083018561408c565b614950608083018461463b565b9695505050505050565b6000602082019050818103600083015261497481846142e3565b905092915050565b600060208201905081810360008301526149958161434d565b9050919050565b600060208201905081810360008301526149b581614370565b9050919050565b600060208201905081810360008301526149d581614393565b9050919050565b600060208201905081810360008301526149f5816143d9565b9050919050565b60006020820190508181036000830152614a158161441f565b9050919050565b60006020820190508181036000830152614a368184614471565b905092915050565b60006020820190508181036000830152614a5881846144c8565b905092915050565b6000604082019050614a7560008301846145fd565b92915050565b6000602082019050614a90600083018461463b565b92915050565b60008083356001602003843603038112614ab357614ab2615124565b5b80840192508235915067ffffffffffffffff821115614ad557614ad4615115565b5b602083019250602082023603831315614af157614af0615133565b5b509250929050565b60008083356001602003843603038112614b1657614b15615124565b5b80840192508235915067ffffffffffffffff821115614b3857614b37615115565b5b602083019250602082023603831315614b5457614b53615133565b5b509250929050565b6000614b66614b77565b9050614b728282614f78565b919050565b6000604051905090565b600067ffffffffffffffff821115614b9c57614b9b6150dc565b5b602082029050602081019050919050565b600067ffffffffffffffff821115614bc857614bc76150dc565b5b602082029050602081019050919050565b600067ffffffffffffffff821115614bf457614bf36150dc565b5b602082029050602081019050919050565b600067ffffffffffffffff821115614c2057614c1f6150dc565b5b614c2982615147565b9050602081019050919050565b6000819050602082019050919050565b6000819050602082019050919050565b6000819050602082019050919050565b600081519050919050565b600081519050919050565b600081519050919050565b600081519050919050565b600081519050919050565b6000602082019050919050565b6000602082019050919050565b6000602082019050919050565b600082825260208201905092915050565b600082825260208201905092915050565b600082825260208201905092915050565b600081905092915050565b600082825260208201905092915050565b600082825260208201905092915050565b600081905092915050565b6000614d3a82614ede565b9150614d4583614ede565b9250827fffffffffffffffffffffffffffffffffffffffffffffffffffffffffffffffff03821115614d7a57614d79615020565b5b828201905092915050565b6000614d9082614ede565b9150614d9b83614ede565b925082614dab57614daa61504f565b5b828204905092915050565b6000614dc182614ede565b9150614dcc83614ede565b9250817fffffffffffffffffffffffffffffffffffffffffffffffffffffffffffffffff0483118215151615614e0557614e04615020565b5b828202905092915050565b6000614e1b82614ede565b9150614e2683614ede565b925082821015614e3957614e38615020565b5b828203905092915050565b6000614e4f82614ebe565b9050919050565b60008115159050919050565b6000819050919050565b60007fffffffff0000000000000000000000000000000000000000000000000000000082169050919050565b6000819050614ea6826152f6565b919050565b6000819050614eb98261530a565b919050565b600073ffffffffffffffffffffffffffffffffffffffff82169050919050565b6000819050919050565b6000614ef382614e98565b9050919050565b6000614f0582614eab565b9050919050565b82818337600083830152505050565b60005b83811015614f39578082015181840152602081019050614f1e565b83811115614f48576000848401525b50505050565b6000614f5982614ede565b91506000821415614f6d57614f6c615020565b5b600182039050919050565b614f8182615147565b810181811067ffffffffffffffff82111715614fa057614f9f6150dc565b5b80604052505050565b6000614fb482614ede565b91507fffffffffffffffffffffffffffffffffffffffffffffffffffffffffffffffff821415614fe757614fe6615020565b5b600182019050919050565b6000614ffd8261500e565b9050919050565b6000819050919050565b600061501982615158565b9050919050565b7f4e487b7100000000000000000000000000000000000000000000000000000000600052601160045260246000fd5b7f4e487b7100000000000000000000000000000000000000000000000000000000600052601260045260246000fd5b7f4e487b7100000000000000000000000000000000000000000000000000000000600052602160045260246000fd5b7f4e487b7100000000000000000000000000000000000000000000000000000000600052603260045260246000fd5b7f4e487b7100000000000000000000000000000000000000000000000000000000600052604160045260246000fd5b600080fd5b600080fd5b600080fd5b600080fd5b600080fd5b600080fd5b600080fd5b600080fd5b600080fd5b600080fd5b600080fd5b600080fd5b6000601f19601f8301169050919050565b60008160601b9050919050565b7f537472696e67733a20686578206c656e67746820696e73756666696369656e74600082015250565b7f416464726573733a20696e73756666696369656e742062616c616e636520666f60008201527f722063616c6c0000000000000000000000000000000000000000000000000000602082015250565b7f416464726573733a2063616c6c20746f206e6f6e2d636f6e7472616374000000600082015250565b7f416363657373436f6e74726f6c3a206163636f756e7420000000000000000000600082015250565b7f5361666545524332303a204552433230206f7065726174696f6e20646964206e60008201527f6f74207375636365656400000000000000000000000000000000000000000000602082015250565b7f206973206d697373696e6720726f6c6520000000000000000000000000000000600082015250565b7f416363657373436f6e74726f6c3a2063616e206f6e6c792072656e6f756e636560008201527f20726f6c657320666f722073656c660000000000000000000000000000000000602082015250565b600281106153075761530661507e565b5b50565b6004811061531b5761531a61507e565b5b50565b61532781614e44565b811461533257600080fd5b50565b61533e81614e56565b811461534957600080fd5b50565b61535581614e62565b811461536057600080fd5b50565b61536c81614e6c565b811461537757600080fd5b50565b6002811061538757600080fd5b50565b6004811061539757600080fd5b50565b6153a381614ede565b81146153ae57600080fd5b5056fea2646970667358221220686bda3082cc83be83d3c6a62cbde46a215a14d18c724c7d4e633488647b79df64736f6c63430008070033",
  "linkReferences": {},
  "deployedLinkReferences": {}
}