{
  "_format": "hh-sol-artifact-1",
  "contractName": "MembershipsImpl",
  "sourceName": "contracts/MembershipsImpl.sol",
  "abi": [
    {
      "inputs": [
        {
          "internalType": "address",
          "name": "eternalStorage",
          "type": "address"
        }
      ],
      "stateMutability": "nonpayable",
      "type": "constructor"
    },
    {
      "inputs": [
        {
          "internalType": "uint256",
          "name": "minRollFee",
          "type": "uint256"
        },
        {
          "internalType": "uint256",
          "name": "maxFee",
          "type": "uint256"
        }
      ],
      "name": "ErrorME01InvalidFee",
      "type": "error"
    },
    {
      "inputs": [],
      "name": "ErrorME02TokenNotAllowed",
      "type": "error"
    },
    {
      "inputs": [],
      "name": "ErrorME03NotEnoughTokens",
      "type": "error"
    },
    {
      "inputs": [],
      "name": "ErrorME04NotEnoughPhases",
      "type": "error"
    },
    {
      "inputs": [],
      "name": "ErrorME05OnlyOwnerAllowed",
      "type": "error"
    },
    {
      "inputs": [],
      "name": "ErrorME06ScheduleDoesNotExists",
      "type": "error"
    },
    {
      "inputs": [],
      "name": "ErrorME07ScheduleRevoked",
      "type": "error"
    },
    {
      "inputs": [],
      "name": "ErrorME08ScheduleNotActive",
      "type": "error"
    },
    {
      "inputs": [],
      "name": "ErrorME09ScheduleNotFinished",
      "type": "error"
    },
    {
      "inputs": [],
      "name": "ErrorME10ActionAllowlisted",
      "type": "error"
    },
    {
      "inputs": [],
      "name": "ErrorME11TransferError",
      "type": "error"
    },
    {
      "inputs": [],
      "name": "ErrorME12IndexOutOfBounds",
      "type": "error"
    },
    {
      "inputs": [],
      "name": "ErrorME13InvalidAddress",
      "type": "error"
    },
    {
      "inputs": [],
      "name": "ErrorME14BetaPeriodAlreadyFinish",
      "type": "error"
    },
    {
      "inputs": [],
      "name": "ErrorME15InvalidDate",
      "type": "error"
    },
    {
      "inputs": [],
      "name": "ErrorME16InvalidDuration",
      "type": "error"
    },
    {
      "inputs": [],
      "name": "ErrorME17InvalidPrice",
      "type": "error"
    },
    {
      "inputs": [],
      "name": "ErrorME18LotArrayLengthMismatch",
      "type": "error"
    },
    {
      "inputs": [],
      "name": "ErrorME19NotEnoughEth",
      "type": "error"
    },
    {
      "inputs": [],
      "name": "ErrorME20InvalidReferral",
      "type": "error"
    },
    {
      "inputs": [],
      "name": "ErrorME21InvalidReferralFee",
      "type": "error"
    },
    {
      "inputs": [],
      "name": "ErrorME22MaxBuyPerWalletExceeded",
      "type": "error"
    },
    {
      "inputs": [],
      "name": "ErrorME23TotalClaimedError",
      "type": "error"
    },
    {
      "inputs": [],
      "name": "ErrorME24InvalidProof",
      "type": "error"
    },
    {
      "inputs": [],
      "name": "ErrorME25ScheduleNotFinishedOrSoldOut",
      "type": "error"
    },
    {
      "inputs": [],
      "name": "ErrorME26OnlyMembershipsImpl",
      "type": "error"
    },
    {
      "anonymous": false,
      "inputs": [
        {
          "indexed": true,
          "internalType": "address",
          "name": "from",
          "type": "address"
        },
        {
          "indexed": true,
          "internalType": "bytes32",
          "name": "scheduleId",
          "type": "bytes32"
        },
        {
          "indexed": false,
          "internalType": "uint256",
          "name": "lots",
          "type": "uint256"
        }
      ],
      "name": "EventBuyLot",
      "type": "event"
    },
    {
      "anonymous": false,
      "inputs": [
        {
          "indexed": true,
          "internalType": "address",
          "name": "from",
          "type": "address"
        },
        {
          "indexed": true,
          "internalType": "bytes32",
          "name": "scheduleId",
          "type": "bytes32"
        },
        {
          "indexed": true,
          "internalType": "address",
          "name": "token",
          "type": "address"
        },
        {
          "indexed": false,
          "internalType": "uint256",
          "name": "tokens",
          "type": "uint256"
        }
      ],
      "name": "EventBuyToken",
      "type": "event"
    },
    {
      "anonymous": false,
      "inputs": [
        {
          "indexed": true,
          "internalType": "address",
          "name": "from",
          "type": "address"
        },
        {
          "indexed": true,
          "internalType": "bytes32",
          "name": "scheduleId",
          "type": "bytes32"
        },
        {
          "indexed": false,
          "internalType": "uint256",
          "name": "value",
          "type": "uint256"
        }
      ],
      "name": "EventClaim",
      "type": "event"
    },
    {
      "anonymous": false,
      "inputs": [
        {
          "indexed": true,
          "internalType": "bytes32",
          "name": "role",
          "type": "bytes32"
        },
        {
          "indexed": true,
          "internalType": "bytes32",
          "name": "previousAdminRole",
          "type": "bytes32"
        },
        {
          "indexed": true,
          "internalType": "bytes32",
          "name": "newAdminRole",
          "type": "bytes32"
        }
      ],
      "name": "RoleAdminChanged",
      "type": "event"
    },
    {
      "anonymous": false,
      "inputs": [
        {
          "indexed": true,
          "internalType": "bytes32",
          "name": "role",
          "type": "bytes32"
        },
        {
          "indexed": true,
          "internalType": "address",
          "name": "account",
          "type": "address"
        },
        {
          "indexed": true,
          "internalType": "address",
          "name": "sender",
          "type": "address"
        }
      ],
      "name": "RoleGranted",
      "type": "event"
    },
    {
      "anonymous": false,
      "inputs": [
        {
          "indexed": true,
          "internalType": "bytes32",
          "name": "role",
          "type": "bytes32"
        },
        {
          "indexed": true,
          "internalType": "address",
          "name": "account",
          "type": "address"
        },
        {
          "indexed": true,
          "internalType": "address",
          "name": "sender",
          "type": "address"
        }
      ],
      "name": "RoleRevoked",
      "type": "event"
    },
    {
      "inputs": [],
      "name": "DEFAULT_ADMIN_ROLE",
      "outputs": [
        {
          "internalType": "bytes32",
          "name": "",
          "type": "bytes32"
        }
      ],
      "stateMutability": "view",
      "type": "function"
    },
    {
      "inputs": [],
      "name": "MEMBERSHIP_ROLE",
      "outputs": [
        {
          "internalType": "bytes32",
          "name": "",
          "type": "bytes32"
        }
      ],
      "stateMutability": "view",
      "type": "function"
    },
    {
      "inputs": [
        {
          "components": [
            {
              "internalType": "bytes32",
              "name": "campaignId",
              "type": "bytes32"
            },
            {
              "internalType": "uint256",
              "name": "phasesLength",
              "type": "uint256"
            },
            {
              "internalType": "bytes32[]",
              "name": "phases",
              "type": "bytes32[]"
            },
            {
              "internalType": "string",
              "name": "metadata",
              "type": "string"
            }
          ],
          "internalType": "struct MembershipsTypes.Campaign",
          "name": "value",
          "type": "tuple"
        }
      ],
      "name": "addCampaign",
      "outputs": [],
      "stateMutability": "nonpayable",
      "type": "function"
    },
    {
      "inputs": [
        {
          "internalType": "address",
          "name": "memberships",
          "type": "address"
        },
        {
          "internalType": "address",
          "name": "caller",
          "type": "address"
        },
        {
          "internalType": "bytes32",
          "name": "scheduleId",
          "type": "bytes32"
        },
        {
          "internalType": "uint256",
          "name": "amount",
          "type": "uint256"
        },
        {
          "internalType": "uint256",
          "name": "msgValue",
          "type": "uint256"
        }
      ],
      "name": "buy",
      "outputs": [],
      "stateMutability": "nonpayable",
      "type": "function"
    },
    {
      "inputs": [
        {
          "internalType": "address",
          "name": "memberships",
          "type": "address"
        },
        {
          "internalType": "bytes32",
          "name": "scheduleId",
          "type": "bytes32"
        }
      ],
      "name": "claim",
      "outputs": [],
      "stateMutability": "nonpayable",
      "type": "function"
    },
    {
      "inputs": [
        {
          "internalType": "address",
          "name": "memberships",
          "type": "address"
        },
        {
          "internalType": "bytes32",
          "name": "scheduleId",
          "type": "bytes32"
        }
      ],
      "name": "claimReferral",
      "outputs": [],
      "stateMutability": "nonpayable",
      "type": "function"
    },
    {
      "inputs": [
        {
          "internalType": "address",
          "name": "memberships",
          "type": "address"
        },
        {
          "internalType": "address",
          "name": "wallet",
          "type": "address"
        },
        {
          "internalType": "bytes32",
          "name": "scheduleId",
          "type": "bytes32"
        }
      ],
      "name": "claimRoll",
      "outputs": [],
      "stateMutability": "nonpayable",
      "type": "function"
    },
    {
      "inputs": [
        {
          "internalType": "address",
          "name": "memberships",
          "type": "address"
        },
        {
          "internalType": "bytes32",
          "name": "scheduleId",
          "type": "bytes32"
        }
      ],
      "name": "claimUnsoldTokens",
      "outputs": [],
      "stateMutability": "nonpayable",
      "type": "function"
    },
    {
      "inputs": [
        {
          "internalType": "bytes32",
          "name": "scheduleId",
          "type": "bytes32"
        }
      ],
      "name": "computeReleasableAmount",
      "outputs": [
        {
          "internalType": "uint256",
          "name": "",
          "type": "uint256"
        }
      ],
      "stateMutability": "view",
      "type": "function"
    },
    {
      "inputs": [
        {
          "components": [
            {
              "internalType": "uint256",
              "name": "start",
              "type": "uint256"
            },
            {
              "internalType": "uint256",
              "name": "duration",
              "type": "uint256"
            },
            {
              "internalType": "bytes32",
              "name": "merkleRoot",
              "type": "bytes32"
            },
            {
              "internalType": "uint256",
              "name": "amountTotal",
              "type": "uint256"
            },
            {
              "internalType": "address[]",
              "name": "lotToken",
              "type": "address[]"
            },
            {
              "internalType": "uint256[]",
              "name": "lotSize",
              "type": "uint256[]"
            },
            {
              "internalType": "uint256",
              "name": "pricePerLot",
              "type": "uint256"
            },
            {
              "components": [
                {
                  "internalType": "address",
                  "name": "token",
                  "type": "address"
                },
                {
                  "internalType": "enum MembershipsTypes.AssetType",
                  "name": "assetType",
                  "type": "uint8"
                }
              ],
              "internalType": "struct MembershipsTypes.Asset",
              "name": "paymentAsset",
              "type": "tuple"
            },
            {
              "internalType": "uint256",
              "name": "rollFee",
              "type": "uint256"
            },
            {
              "internalType": "address",
              "name": "referral",
              "type": "address"
            },
            {
              "internalType": "uint256",
              "name": "referralFee",
              "type": "uint256"
            },
            {
              "internalType": "uint256",
              "name": "maxBuyPerWallet",
              "type": "uint256"
            }
          ],
          "internalType": "struct MembershipsTypes.CreateMintingScheduleParams",
          "name": "params",
          "type": "tuple"
        }
      ],
      "name": "createMintingScheduleValidation",
      "outputs": [],
      "stateMutability": "view",
      "type": "function"
    },
    {
      "inputs": [
        {
          "internalType": "bytes32",
          "name": "scheduleId",
          "type": "bytes32"
        },
        {
          "internalType": "address",
          "name": "addr",
          "type": "address"
        }
      ],
      "name": "getBuyPerWallet",
      "outputs": [
        {
          "internalType": "uint256",
          "name": "",
          "type": "uint256"
        }
      ],
      "stateMutability": "view",
      "type": "function"
    },
    {
      "inputs": [
        {
          "internalType": "address",
          "name": "addr",
          "type": "address"
        }
      ],
      "name": "getCampaignByAddressLength",
      "outputs": [
        {
          "internalType": "uint256",
          "name": "",
          "type": "uint256"
        }
      ],
      "stateMutability": "view",
      "type": "function"
    },
    {
      "inputs": [
        {
          "internalType": "bytes32",
          "name": "scheduleId",
          "type": "bytes32"
        },
        {
          "internalType": "enum MembershipsTypes.UserType",
          "name": "userType",
          "type": "uint8"
        }
      ],
      "name": "getClaimed",
      "outputs": [
        {
          "internalType": "uint256",
          "name": "",
          "type": "uint256"
        }
      ],
      "stateMutability": "view",
      "type": "function"
    },
    {
      "inputs": [
        {
          "internalType": "bytes32",
          "name": "record",
          "type": "bytes32"
        }
      ],
      "name": "getReferral",
      "outputs": [
        {
          "components": [
            {
              "internalType": "address",
              "name": "referral",
              "type": "address"
            },
            {
              "internalType": "uint256",
              "name": "referralFee",
              "type": "uint256"
            }
          ],
          "internalType": "struct MembershipsTypes.ScheduleReferral",
          "name": "",
          "type": "tuple"
        }
      ],
      "stateMutability": "view",
      "type": "function"
    },
    {
      "inputs": [
        {
          "internalType": "bytes32",
          "name": "role",
          "type": "bytes32"
        }
      ],
      "name": "getRoleAdmin",
      "outputs": [
        {
          "internalType": "bytes32",
          "name": "",
          "type": "bytes32"
        }
      ],
      "stateMutability": "view",
      "type": "function"
    },
    {
      "inputs": [
        {
          "internalType": "bytes32",
          "name": "record",
          "type": "bytes32"
        }
      ],
      "name": "getSchedule",
      "outputs": [
        {
          "components": [
            {
              "internalType": "bool",
              "name": "initialized",
              "type": "bool"
            },
            {
              "internalType": "bool",
              "name": "revoked",
              "type": "bool"
            },
            {
              "internalType": "address",
              "name": "owner",
              "type": "address"
            },
            {
              "internalType": "uint256",
              "name": "start",
              "type": "uint256"
            },
            {
              "internalType": "uint256",
              "name": "duration",
              "type": "uint256"
            },
            {
              "internalType": "bytes32",
              "name": "merkleRoot",
              "type": "bytes32"
            },
            {
              "internalType": "uint256",
              "name": "amountTotal",
              "type": "uint256"
            },
            {
              "internalType": "uint256",
              "name": "released",
              "type": "uint256"
            },
            {
              "internalType": "address[]",
              "name": "lotToken",
              "type": "address[]"
            },
            {
              "internalType": "uint256[]",
              "name": "lotSize",
              "type": "uint256[]"
            },
            {
              "components": [
                {
                  "internalType": "address",
                  "name": "token",
                  "type": "address"
                },
                {
                  "internalType": "enum MembershipsTypes.AssetType",
                  "name": "assetType",
                  "type": "uint8"
                }
              ],
              "internalType": "struct MembershipsTypes.Asset",
              "name": "paymentAsset",
              "type": "tuple"
            },
            {
              "internalType": "uint256",
              "name": "pricePerLot",
              "type": "uint256"
            },
            {
              "internalType": "uint256",
              "name": "rollFee",
              "type": "uint256"
            },
            {
              "internalType": "uint256",
              "name": "maxBuyPerWallet",
              "type": "uint256"
            }
          ],
          "internalType": "struct MembershipsTypes.MintingSchedule",
          "name": "",
          "type": "tuple"
        }
      ],
      "stateMutability": "view",
      "type": "function"
    },
    {
      "inputs": [
        {
          "internalType": "bytes32",
          "name": "role",
          "type": "bytes32"
        },
        {
          "internalType": "address",
          "name": "account",
          "type": "address"
        }
      ],
      "name": "grantRole",
      "outputs": [],
      "stateMutability": "nonpayable",
      "type": "function"
    },
    {
      "inputs": [
        {
          "internalType": "bytes32",
          "name": "role",
          "type": "bytes32"
        },
        {
          "internalType": "address",
          "name": "account",
          "type": "address"
        }
      ],
      "name": "hasRole",
      "outputs": [
        {
          "internalType": "bool",
          "name": "",
          "type": "bool"
        }
      ],
      "stateMutability": "view",
      "type": "function"
    },
    {
      "inputs": [
        {
          "internalType": "bytes32",
          "name": "role",
          "type": "bytes32"
        },
        {
          "internalType": "address",
          "name": "account",
          "type": "address"
        }
      ],
      "name": "renounceRole",
      "outputs": [],
      "stateMutability": "nonpayable",
      "type": "function"
    },
    {
      "inputs": [
        {
          "internalType": "bytes32",
          "name": "scheduleId",
          "type": "bytes32"
        }
      ],
      "name": "revoke",
      "outputs": [],
      "stateMutability": "nonpayable",
      "type": "function"
    },
    {
      "inputs": [
        {
          "internalType": "bytes32",
          "name": "role",
          "type": "bytes32"
        },
        {
          "internalType": "address",
          "name": "account",
          "type": "address"
        }
      ],
      "name": "revokeRole",
      "outputs": [],
      "stateMutability": "nonpayable",
      "type": "function"
    },
    {
      "inputs": [
        {
          "internalType": "bytes32",
          "name": "scheduleId",
          "type": "bytes32"
        },
        {
          "internalType": "bytes32",
          "name": "root",
          "type": "bytes32"
        }
      ],
      "name": "setAllowlist",
      "outputs": [],
      "stateMutability": "nonpayable",
      "type": "function"
    },
    {
      "inputs": [
        {
          "internalType": "bytes32",
          "name": "scheduleId",
          "type": "bytes32"
        },
        {
          "internalType": "address",
          "name": "addr",
          "type": "address"
        },
        {
          "internalType": "uint256",
          "name": "value",
          "type": "uint256"
        }
      ],
      "name": "setBuyPerWallet",
      "outputs": [],
      "stateMutability": "nonpayable",
      "type": "function"
    },
    {
      "inputs": [
        {
          "internalType": "bytes32",
          "name": "scheduleId",
          "type": "bytes32"
        },
        {
          "internalType": "enum MembershipsTypes.UserType",
          "name": "userType",
          "type": "uint8"
        },
        {
          "internalType": "uint256",
          "name": "value",
          "type": "uint256"
        }
      ],
      "name": "setClaimed",
      "outputs": [],
      "stateMutability": "nonpayable",
      "type": "function"
    },
    {
      "inputs": [
        {
          "internalType": "bytes32",
          "name": "record",
          "type": "bytes32"
        },
        {
          "components": [
            {
              "internalType": "address",
              "name": "referral",
              "type": "address"
            },
            {
              "internalType": "uint256",
              "name": "referralFee",
              "type": "uint256"
            }
          ],
          "internalType": "struct MembershipsTypes.ScheduleReferral",
          "name": "value",
          "type": "tuple"
        }
      ],
      "name": "setReferral",
      "outputs": [],
      "stateMutability": "nonpayable",
      "type": "function"
    },
    {
      "inputs": [
        {
          "internalType": "bytes32",
          "name": "record",
          "type": "bytes32"
        },
        {
          "components": [
            {
              "internalType": "bool",
              "name": "initialized",
              "type": "bool"
            },
            {
              "internalType": "bool",
              "name": "revoked",
              "type": "bool"
            },
            {
              "internalType": "address",
              "name": "owner",
              "type": "address"
            },
            {
              "internalType": "uint256",
              "name": "start",
              "type": "uint256"
            },
            {
              "internalType": "uint256",
              "name": "duration",
              "type": "uint256"
            },
            {
              "internalType": "bytes32",
              "name": "merkleRoot",
              "type": "bytes32"
            },
            {
              "internalType": "uint256",
              "name": "amountTotal",
              "type": "uint256"
            },
            {
              "internalType": "uint256",
              "name": "released",
              "type": "uint256"
            },
            {
              "internalType": "address[]",
              "name": "lotToken",
              "type": "address[]"
            },
            {
              "internalType": "uint256[]",
              "name": "lotSize",
              "type": "uint256[]"
            },
            {
              "components": [
                {
                  "internalType": "address",
                  "name": "token",
                  "type": "address"
                },
                {
                  "internalType": "enum MembershipsTypes.AssetType",
                  "name": "assetType",
                  "type": "uint8"
                }
              ],
              "internalType": "struct MembershipsTypes.Asset",
              "name": "paymentAsset",
              "type": "tuple"
            },
            {
              "internalType": "uint256",
              "name": "pricePerLot",
              "type": "uint256"
            },
            {
              "internalType": "uint256",
              "name": "rollFee",
              "type": "uint256"
            },
            {
              "internalType": "uint256",
              "name": "maxBuyPerWallet",
              "type": "uint256"
            }
          ],
          "internalType": "struct MembershipsTypes.MintingSchedule",
          "name": "value",
          "type": "tuple"
        }
      ],
      "name": "setSchedule",
      "outputs": [],
      "stateMutability": "nonpayable",
      "type": "function"
    },
    {
      "inputs": [
        {
          "internalType": "bytes4",
          "name": "interfaceId",
          "type": "bytes4"
        }
      ],
      "name": "supportsInterface",
      "outputs": [
        {
          "internalType": "bool",
          "name": "",
          "type": "bool"
        }
      ],
      "stateMutability": "view",
      "type": "function"
    },
    {
      "inputs": [
        {
          "internalType": "bytes32",
          "name": "scheduleId",
          "type": "bytes32"
        },
        {
          "internalType": "address",
          "name": "owner",
          "type": "address"
        }
      ],
      "name": "transferScheduleOwner",
      "outputs": [],
      "stateMutability": "nonpayable",
      "type": "function"
    },
    {
      "inputs": [
        {
          "internalType": "bytes32",
          "name": "scheduleId",
          "type": "bytes32"
        },
        {
          "internalType": "address",
          "name": "referral",
          "type": "address"
        }
      ],
      "name": "updateReferral",
      "outputs": [],
      "stateMutability": "nonpayable",
      "type": "function"
    },
    {
      "inputs": [
        {
          "internalType": "address",
          "name": "caller",
          "type": "address"
        },
        {
          "internalType": "bytes32",
          "name": "scheduleId",
          "type": "bytes32"
        },
        {
          "internalType": "bytes32[]",
          "name": "proof",
          "type": "bytes32[]"
        }
      ],
      "name": "verifyMerkle",
      "outputs": [],
      "stateMutability": "view",
      "type": "function"
    }
  ],
  "bytecode": "0x60806040523480156200001157600080fd5b5060405162004f4838038062004f488339818101604052810190620000379190620002a8565b600073ffffffffffffffffffffffffffffffffffffffff168173ffffffffffffffffffffffffffffffffffffffff1614156200009f576040517fdae3f98f00000000000000000000000000000000000000000000000000000000815260040160405180910390fd5b620000b46000801b336200012e60201b60201c565b620000e67f41a3fffbda0f1c9e28bd52ae72187b3406590146b6ca8f19961d2250566efd16336200012e60201b60201c565b80600160006101000a81548173ffffffffffffffffffffffffffffffffffffffff021916908373ffffffffffffffffffffffffffffffffffffffff160217905550506200032d565b6200014082826200021f60201b60201c565b6200021b57600160008084815260200190815260200160002060000160008373ffffffffffffffffffffffffffffffffffffffff1673ffffffffffffffffffffffffffffffffffffffff16815260200190815260200160002060006101000a81548160ff021916908315150217905550620001c06200028960201b60201c565b73ffffffffffffffffffffffffffffffffffffffff168173ffffffffffffffffffffffffffffffffffffffff16837f2f8788117e7eff1d82e926ec794901d17c78024a50270940304540a733656f0d60405160405180910390a45b5050565b600080600084815260200190815260200160002060000160008373ffffffffffffffffffffffffffffffffffffffff1673ffffffffffffffffffffffffffffffffffffffff16815260200190815260200160002060009054906101000a900460ff16905092915050565b600033905090565b600081519050620002a28162000313565b92915050565b600060208284031215620002c157620002c06200030e565b5b6000620002d18482850162000291565b91505092915050565b6000620002e782620002ee565b9050919050565b600073ffffffffffffffffffffffffffffffffffffffff82169050919050565b600080fd5b6200031e81620002da565b81146200032a57600080fd5b50565b614c0b806200033d6000396000f3fe608060405234801561001057600080fd5b50600436106101da5760003560e01c806391100e0511610104578063b75c7dc6116100a2578063df37bb1911610071578063df37bb1914610545578063ea1bb3d514610563578063efc427b714610593578063fe947f3c146105c3576101da565b8063b75c7dc6146104d5578063c8622c24146104f1578063ca2e8df31461050d578063d547741f14610529576101da565b8063a3479421116100de578063a347942114610451578063a8c2cda41461046d578063af9806cb14610489578063b3b736a3146104a5576101da565b806391100e05146103e757806391d1485414610403578063a217fddf14610433576101da565b806339d0e28f1161017c5780636e7019d11161014b5780636e7019d1146103635780638215b8821461037f57806382e58d511461039b5780638d0ba65c146103cb576101da565b806339d0e28f146102cb5780633adc277a146102e75780633c63927814610317578063433f4c2b14610347576101da565b80631d81019d116101b85780631d81019d14610247578063248a9ca3146102635780632f2ff15d1461029357806336568abe146102af576101da565b806301ffc9a7146101df5780630c9b91a81461020f5780631172d7731461022b575b600080fd5b6101f960048036038101906101f4919061379a565b6105df565b6040516102069190613fe1565b60405180910390f35b61022960048036038101906102249190613598565b610659565b005b610245600480360381019061024091906133c1565b6106e0565b005b610261600480360381019061025c9190613414565b610891565b005b61027d6004803603810190610278919061356b565b610bdb565b60405161028a9190613ffc565b60405180910390f35b6102ad60048036038101906102a89190613598565b610bfa565b005b6102c960048036038101906102c49190613598565b610c23565b005b6102e560048036038101906102e0919061362b565b610ca6565b005b61030160048036038101906102fc919061356b565b610cff565b60405161030e9190614267565b60405180910390f35b610331600480360381019061032c9190613598565b610dbe565b60405161033e91906142a4565b60405180910390f35b610361600480360381019061035c91906136fe565b610e75565b005b61037d6004803603810190610378919061348f565b610f3b565b005b61039960048036038101906103949190613598565b6110d4565b005b6103b560048036038101906103b0919061356b565b6111a4565b6040516103c29190614289565b60405180910390f35b6103e560048036038101906103e0919061375a565b61125d565b005b61040160048036038101906103fc91906136ab565b611323565b005b61041d60048036038101906104189190613598565b6113ec565b60405161042a9190613fe1565b60405180910390f35b61043b611456565b6040516104489190613ffc565b60405180910390f35b61046b600480360381019061046691906137c7565b61145d565b005b610487600480360381019061048291906135d8565b611520565b005b6104a3600480360381019061049e919061348f565b6115e9565b005b6104bf60048036038101906104ba9190613394565b6117aa565b6040516104cc91906142a4565b60405180910390f35b6104ef60048036038101906104ea919061356b565b61185e565b005b61050b6004803603810190610506919061348f565b6118bd565b005b610527600480360381019061052291906134cf565b611aa5565b005b610543600480360381019061053e9190613598565b611b29565b005b61054d611b52565b60405161055a9190613ffc565b60405180910390f35b61057d6004803603810190610578919061356b565b611b76565b60405161058a91906142a4565b60405180910390f35b6105ad60048036038101906105a8919061366b565b611be8565b6040516105ba91906142a4565b60405180910390f35b6105dd60048036038101906105d89190613810565b611c9f565b005b60007f7965db0b000000000000000000000000000000000000000000000000000000007bffffffffffffffffffffffffffffffffffffffffffffffffffffffff1916827bffffffffffffffffffffffffffffffffffffffffffffffffffffffff19161480610652575061065182611f22565b5b9050919050565b7f41a3fffbda0f1c9e28bd52ae72187b3406590146b6ca8f19961d2250566efd1661068b81610686611f8c565b611f94565b600061069684610cff565b905082816040019073ffffffffffffffffffffffffffffffffffffffff16908173ffffffffffffffffffffffffffffffffffffffff16815250506106da8482610e75565b50505050565b7f41a3fffbda0f1c9e28bd52ae72187b3406590146b6ca8f19961d2250566efd166107128161070d611f8c565b611f94565b600061071d83610cff565b905060006107448260e0015183610160015161073991906145df565b836101800151612031565b90506000610753856001611be8565b9050600081141580156107665750818110155b1561079d576040517f259125a100000000000000000000000000000000000000000000000000000000815260040160405180910390fd5b8673ffffffffffffffffffffffffffffffffffffffff1663cbc631c584610140015160200151856101400151600001518a8a86886107db9190614639565b6040518663ffffffff1660e01b81526004016107fb959493929190614130565b600060405180830381600087803b15801561081557600080fd5b505af1158015610829573d6000803e3d6000fd5b5050505061083985600184611323565b843373ffffffffffffffffffffffffffffffffffffffff167fd58e36ccce0faf4ec8eabd7b3eda9e52a56e922ed16e4d22285ca124b5becbce8460405161088091906142a4565b60405180910390a350505050505050565b7f41a3fffbda0f1c9e28bd52ae72187b3406590146b6ca8f19961d2250566efd166108c3816108be611f8c565b611f94565b60006108ce85610cff565b905060006108dc8688610dbe565b9050816101a0015181866108f09190614558565b1115610928576040517f2c029b2000000000000000000000000000000000000000000000000000000000815260040160405180910390fd5b6000600181111561093c5761093b6148a7565b5b826101400151602001516001811115610958576109576148a7565b5b14156109ac578482610160015161096f91906145df565b84146109a7576040517f4c8bb95500000000000000000000000000000000000000000000000000000000815260040160405180910390fd5b6109f9565b60008261014001516000015190506109f7888a888661016001516109d091906145df565b8473ffffffffffffffffffffffffffffffffffffffff16612067909392919063ffffffff16565b505b848260e00151610a099190614558565b8260e0018181525050610a1c8683610e75565b610a3286888784610a2d9190614558565b611520565b60005b82610100015151811015610b815760008361010001518281518110610a5d57610a5c6148d6565b5b60200260200101519050610abe8a8a898761012001518681518110610a8557610a846148d6565b5b6020026020010151610a9791906145df565b8473ffffffffffffffffffffffffffffffffffffffff16612067909392919063ffffffff16565b8361010001518281518110610ad657610ad56148d6565b5b602002602001015173ffffffffffffffffffffffffffffffffffffffff16888a73ffffffffffffffffffffffffffffffffffffffff167fdf9b1c1794998ca4f08d12b066f07566231e28d8b7512b8e5703ee518290fca28a8861012001518781518110610b4657610b456148d6565b5b6020026020010151610b5891906145df565b604051610b6591906142a4565b60405180910390a4508080610b79906147d2565b915050610a35565b50858773ffffffffffffffffffffffffffffffffffffffff167f466a2cb28370d90a159ba04b90161ae31f8671f13e9550b9306a8aa0a42756f687604051610bc991906142a4565b60405180910390a35050505050505050565b6000806000838152602001908152602001600020600101549050919050565b610c0382610bdb565b610c1481610c0f611f8c565b611f94565b610c1e83836120f0565b505050565b610c2b611f8c565b73ffffffffffffffffffffffffffffffffffffffff168173ffffffffffffffffffffffffffffffffffffffff1614610c98576040517f08c379a0000000000000000000000000000000000000000000000000000000008152600401610c8f90614225565b60405180910390fd5b610ca282826121d0565b5050565b7f41a3fffbda0f1c9e28bd52ae72187b3406590146b6ca8f19961d2250566efd16610cd881610cd3611f8c565b611f94565b6000610ce384610cff565b9050828160a0018181525050610cf98482610e75565b50505050565b610d076128f2565b600160009054906101000a900473ffffffffffffffffffffffffffffffffffffffff1673ffffffffffffffffffffffffffffffffffffffff16633adc277a836040518263ffffffff1660e01b8152600401610d629190613ffc565b60006040518083038186803b158015610d7a57600080fd5b505afa158015610d8e573d6000803e3d6000fd5b505050506040513d6000823e3d601f19601f82011682018060405250810190610db79190613859565b9050919050565b6000600160009054906101000a900473ffffffffffffffffffffffffffffffffffffffff1673ffffffffffffffffffffffffffffffffffffffff16633c63927884846040518363ffffffff1660e01b8152600401610e1d929190614017565b60206040518083038186803b158015610e3557600080fd5b505afa158015610e49573d6000803e3d6000fd5b505050506040513d601f19601f82011682018060405250810190610e6d91906138cf565b905092915050565b7f41a3fffbda0f1c9e28bd52ae72187b3406590146b6ca8f19961d2250566efd16610ea781610ea2611f8c565b611f94565b600160009054906101000a900473ffffffffffffffffffffffffffffffffffffffff1673ffffffffffffffffffffffffffffffffffffffff1663433f4c2b84846040518363ffffffff1660e01b8152600401610f049291906140d7565b600060405180830381600087803b158015610f1e57600080fd5b505af1158015610f32573d6000803e3d6000fd5b50505050505050565b7f41a3fffbda0f1c9e28bd52ae72187b3406590146b6ca8f19961d2250566efd16610f6d81610f68611f8c565b611f94565b6000610f7883610cff565b90506000610f87846003611be8565b905060008260e001518360c00151610f9f9190614639565b14158015610fbf57508160e001518260c00151610fbc9190614639565b81145b15610ff6576040517f259125a100000000000000000000000000000000000000000000000000000000815260040160405180910390fd5b60005b826101000151518110156110ad5760008361010001518281518110611021576110206148d6565b5b602002602001015190506110998785604001518660e001518760c001516110489190614639565b87610120015186815181106110605761105f6148d6565b5b602002602001015161107291906145df565b8473ffffffffffffffffffffffffffffffffffffffff16612067909392919063ffffffff16565b5080806110a5906147d2565b915050610ff9565b506110cd8460038460e001518560c001516110c89190614639565b611323565b5050505050565b7f41a3fffbda0f1c9e28bd52ae72187b3406590146b6ca8f19961d2250566efd1661110681611101611f8c565b611f94565b6000611111846111a4565b905060008160000151905083826000019073ffffffffffffffffffffffffffffffffffffffff16908173ffffffffffffffffffffffffffffffffffffffff168152505061115e858361125d565b600073ffffffffffffffffffffffffffffffffffffffff168173ffffffffffffffffffffffffffffffffffffffff161461119d5761119c85826122b1565b5b5050505050565b6111ac612984565b600160009054906101000a900473ffffffffffffffffffffffffffffffffffffffff1673ffffffffffffffffffffffffffffffffffffffff166382e58d51836040518263ffffffff1660e01b81526004016112079190613ffc565b604080518083038186803b15801561121e57600080fd5b505afa158015611232573d6000803e3d6000fd5b505050506040513d601f19601f8201168201806040525081019061125691906138a2565b9050919050565b7f41a3fffbda0f1c9e28bd52ae72187b3406590146b6ca8f19961d2250566efd1661128f8161128a611f8c565b611f94565b600160009054906101000a900473ffffffffffffffffffffffffffffffffffffffff1673ffffffffffffffffffffffffffffffffffffffff16638d0ba65c84846040518363ffffffff1660e01b81526004016112ec929190614107565b600060405180830381600087803b15801561130657600080fd5b505af115801561131a573d6000803e3d6000fd5b50505050505050565b7f41a3fffbda0f1c9e28bd52ae72187b3406590146b6ca8f19961d2250566efd1661135581611350611f8c565b611f94565b600160009054906101000a900473ffffffffffffffffffffffffffffffffffffffff1673ffffffffffffffffffffffffffffffffffffffff166391100e058585856040518463ffffffff1660e01b81526004016113b4939291906140a0565b600060405180830381600087803b1580156113ce57600080fd5b505af11580156113e2573d6000803e3d6000fd5b5050505050505050565b600080600084815260200190815260200160002060000160008373ffffffffffffffffffffffffffffffffffffffff1673ffffffffffffffffffffffffffffffffffffffff16815260200190815260200160002060009054906101000a900460ff16905092915050565b6000801b81565b7f41a3fffbda0f1c9e28bd52ae72187b3406590146b6ca8f19961d2250566efd1661148f8161148a611f8c565b611f94565b600160009054906101000a900473ffffffffffffffffffffffffffffffffffffffff1673ffffffffffffffffffffffffffffffffffffffff1663a3479421836040518263ffffffff1660e01b81526004016114ea9190614245565b600060405180830381600087803b15801561150457600080fd5b505af1158015611518573d6000803e3d6000fd5b505050505050565b7f41a3fffbda0f1c9e28bd52ae72187b3406590146b6ca8f19961d2250566efd166115528161154d611f8c565b611f94565b600160009054906101000a900473ffffffffffffffffffffffffffffffffffffffff1673ffffffffffffffffffffffffffffffffffffffff1663a8c2cda48585856040518463ffffffff1660e01b81526004016115b193929190614040565b600060405180830381600087803b1580156115cb57600080fd5b505af11580156115df573d6000803e3d6000fd5b5050505050505050565b7f41a3fffbda0f1c9e28bd52ae72187b3406590146b6ca8f19961d2250566efd1661161b81611616611f8c565b611f94565b600061162683610cff565b90506000611633846111a4565b905060006116598360e0015184610160015161164f91906145df565b8360200151612031565b90506000611668866002611be8565b90506000811415801561167b5750818110155b156116b2576040517f259125a100000000000000000000000000000000000000000000000000000000815260040160405180910390fd5b8673ffffffffffffffffffffffffffffffffffffffff1663cbc631c585610140015160200151866101400151600001518a876000015186886116f49190614639565b6040518663ffffffff1660e01b8152600401611714959493929190614130565b600060405180830381600087803b15801561172e57600080fd5b505af1158015611742573d6000803e3d6000fd5b5050505061175286600284611323565b853373ffffffffffffffffffffffffffffffffffffffff167fd58e36ccce0faf4ec8eabd7b3eda9e52a56e922ed16e4d22285ca124b5becbce8460405161179991906142a4565b60405180910390a350505050505050565b6000600160009054906101000a900473ffffffffffffffffffffffffffffffffffffffff1673ffffffffffffffffffffffffffffffffffffffff1663b3b736a3836040518263ffffffff1660e01b81526004016118079190613f8f565b60206040518083038186803b15801561181f57600080fd5b505afa158015611833573d6000803e3d6000fd5b505050506040513d601f19601f8201168201806040525081019061185791906138cf565b9050919050565b7f41a3fffbda0f1c9e28bd52ae72187b3406590146b6ca8f19961d2250566efd166118908161188b611f8c565b611f94565b600061189b83610cff565b905060018160200190151590811515815250506118b88382610e75565b505050565b7f41a3fffbda0f1c9e28bd52ae72187b3406590146b6ca8f19961d2250566efd166118ef816118ea611f8c565b611f94565b60006118fa83610cff565b905060008160e0015182610160015161191391906145df565b90506000611922856000611be8565b9050600081141580156119355750818110155b1561196c576040517f259125a100000000000000000000000000000000000000000000000000000000815260040160405180910390fd5b6000611977866111a4565b6020015190506119878382612031565b61199684866101800151612031565b846119a19190614639565b6119ab9190614639565b92508673ffffffffffffffffffffffffffffffffffffffff1663cbc631c585610140015160200151866101400151600001518a886040015187896119ef9190614639565b6040518663ffffffff1660e01b8152600401611a0f959493929190614130565b600060405180830381600087803b158015611a2957600080fd5b505af1158015611a3d573d6000803e3d6000fd5b50505050611a4d86600085611323565b853373ffffffffffffffffffffffffffffffffffffffff167fd58e36ccce0faf4ec8eabd7b3eda9e52a56e922ed16e4d22285ca124b5becbce85604051611a9491906142a4565b60405180910390a350505050505050565b6000611ab083610cff565b9050600084604051602001611ac59190613ef7565b604051602081830303815290604052805190602001209050611aec838360a0015183612377565b611b22576040517f017cc76a00000000000000000000000000000000000000000000000000000000815260040160405180910390fd5b5050505050565b611b3282610bdb565b611b4381611b3e611f8c565b611f94565b611b4d83836121d0565b505050565b7f41a3fffbda0f1c9e28bd52ae72187b3406590146b6ca8f19961d2250566efd1681565b600080611b8283610cff565b90506000611b8e61238e565b9050816020015115611ba557600092505050611be3565b81608001518260600151611bb99190614558565b8110611bdc578160e001518260c00151611bd39190614639565b92505050611be3565b6000925050505b919050565b6000600160009054906101000a900473ffffffffffffffffffffffffffffffffffffffff1673ffffffffffffffffffffffffffffffffffffffff1663efc427b784846040518363ffffffff1660e01b8152600401611c47929190614077565b60206040518083038186803b158015611c5f57600080fd5b505afa158015611c73573d6000803e3d6000fd5b505050506040513d601f19601f82011682018060405250810190611c9791906138cf565b905092915050565b611ca761238e565b81600001351015611ce4576040517f91b84bf300000000000000000000000000000000000000000000000000000000815260040160405180910390fd5b6000816020013511611d22576040517ff14a76df00000000000000000000000000000000000000000000000000000000815260040160405180910390fd5b60008160c0013511611d60576040517fe367fb1f00000000000000000000000000000000000000000000000000000000815260040160405180910390fd5b6000818060800190611d7291906142bf565b9050111580611d9357506000818060a00190611d8e9190614322565b905011155b80611dc05750808060a00190611da99190614322565b9050818060800190611dbb91906142bf565b905014155b15611df7576040517f382cac8400000000000000000000000000000000000000000000000000000000815260040160405180910390fd5b600073ffffffffffffffffffffffffffffffffffffffff1681610140016020810190611e239190613394565b73ffffffffffffffffffffffffffffffffffffffff16141580611e4c5750600081610160013514155b8015611ea75750600073ffffffffffffffffffffffffffffffffffffffff1681610140016020810190611e7f9190613394565b73ffffffffffffffffffffffffffffffffffffffff161480611ea657506000816101600135145b5b15611ede576040517f2eb4329500000000000000000000000000000000000000000000000000000000815260040160405180910390fd5b620f424081610160013510611f1f576040517f76c6dc5a00000000000000000000000000000000000000000000000000000000815260040160405180910390fd5b50565b60007f01ffc9a7000000000000000000000000000000000000000000000000000000007bffffffffffffffffffffffffffffffffffffffffffffffffffffffff1916827bffffffffffffffffffffffffffffffffffffffffffffffffffffffff1916149050919050565b600033905090565b611f9e82826113ec565b61202d57611fc38173ffffffffffffffffffffffffffffffffffffffff166014612396565b611fd18360001c6020612396565b604051602001611fe2929190613f55565b6040516020818303038152906040526040517f08c379a00000000000000000000000000000000000000000000000000000000081526004016120249190614183565b60405180910390fd5b5050565b6000808214156120445760009050612061565b620f4240828461205491906145df565b61205e91906145ae565b90505b92915050565b6120ea846323b872dd60e01b85858560405160240161208893929190613faa565b604051602081830303815290604052907bffffffffffffffffffffffffffffffffffffffffffffffffffffffff19166020820180517bffffffffffffffffffffffffffffffffffffffffffffffffffffffff83818316178352505050506125d2565b50505050565b6120fa82826113ec565b6121cc57600160008084815260200190815260200160002060000160008373ffffffffffffffffffffffffffffffffffffffff1673ffffffffffffffffffffffffffffffffffffffff16815260200190815260200160002060006101000a81548160ff021916908315150217905550612171611f8c565b73ffffffffffffffffffffffffffffffffffffffff168173ffffffffffffffffffffffffffffffffffffffff16837f2f8788117e7eff1d82e926ec794901d17c78024a50270940304540a733656f0d60405160405180910390a45b5050565b6121da82826113ec565b156122ad57600080600084815260200190815260200160002060000160008373ffffffffffffffffffffffffffffffffffffffff1673ffffffffffffffffffffffffffffffffffffffff16815260200190815260200160002060006101000a81548160ff021916908315150217905550612252611f8c565b73ffffffffffffffffffffffffffffffffffffffff168173ffffffffffffffffffffffffffffffffffffffff16837ff6391f5c32d9c69d2a47ea670b442974b53935d1edc7fd64eb21e047a839171b60405160405180910390a45b5050565b7f41a3fffbda0f1c9e28bd52ae72187b3406590146b6ca8f19961d2250566efd166122e3816122de611f8c565b611f94565b600160009054906101000a900473ffffffffffffffffffffffffffffffffffffffff1673ffffffffffffffffffffffffffffffffffffffff1663c535012884846040518363ffffffff1660e01b8152600401612340929190614017565b600060405180830381600087803b15801561235a57600080fd5b505af115801561236e573d6000803e3d6000fd5b50505050505050565b6000826123848584612699565b1490509392505050565b600042905090565b6060600060028360026123a991906145df565b6123b39190614558565b67ffffffffffffffff8111156123cc576123cb614905565b5b6040519080825280601f01601f1916602001820160405280156123fe5781602001600182028036833780820191505090505b5090507f300000000000000000000000000000000000000000000000000000000000000081600081518110612436576124356148d6565b5b60200101907effffffffffffffffffffffffffffffffffffffffffffffffffffffffffffff1916908160001a9053507f78000000000000000000000000000000000000000000000000000000000000008160018151811061249a576124996148d6565b5b60200101907effffffffffffffffffffffffffffffffffffffffffffffffffffffffffffff1916908160001a905350600060018460026124da91906145df565b6124e49190614558565b90505b6001811115612584577f3031323334353637383961626364656600000000000000000000000000000000600f861660108110612526576125256148d6565b5b1a60f81b82828151811061253d5761253c6148d6565b5b60200101907effffffffffffffffffffffffffffffffffffffffffffffffffffffffffffff1916908160001a905350600485901c94508061257d90614777565b90506124e7565b50600084146125c8576040517f08c379a00000000000000000000000000000000000000000000000000000000081526004016125bf906141a5565b60405180910390fd5b8091505092915050565b6000612634826040518060400160405280602081526020017f5361666545524332303a206c6f772d6c6576656c2063616c6c206661696c65648152508573ffffffffffffffffffffffffffffffffffffffff1661274c9092919063ffffffff16565b90506000815111156126945780806020019051810190612654919061353e565b612693576040517f08c379a000000000000000000000000000000000000000000000000000000000815260040161268a90614205565b60405180910390fd5b5b505050565b60008082905060005b84518110156127415760008582815181106126c0576126bf6148d6565b5b602002602001015190508083116127015782816040516020016126e4929190613f12565b60405160208183030381529060405280519060200120925061272d565b8083604051602001612714929190613f12565b6040516020818303038152906040528051906020012092505b508080612739906147d2565b9150506126a2565b508091505092915050565b606061275b8484600085612764565b90509392505050565b6060824710156127a9576040517f08c379a00000000000000000000000000000000000000000000000000000000081526004016127a0906141c5565b60405180910390fd5b6127b285612878565b6127f1576040517f08c379a00000000000000000000000000000000000000000000000000000000081526004016127e8906141e5565b60405180910390fd5b6000808673ffffffffffffffffffffffffffffffffffffffff16858760405161281a9190613f3e565b60006040518083038185875af1925050503d8060008114612857576040519150601f19603f3d011682016040523d82523d6000602084013e61285c565b606091505b509150915061286c82828661288b565b92505050949350505050565b600080823b905060008111915050919050565b6060831561289b578290506128eb565b6000835111156128ae5782518084602001fd5b816040517f08c379a00000000000000000000000000000000000000000000000000000000081526004016128e29190614183565b60405180910390fd5b9392505050565b604051806101c00160405280600015158152602001600015158152602001600073ffffffffffffffffffffffffffffffffffffffff168152602001600081526020016000815260200160008019168152602001600081526020016000815260200160608152602001606081526020016129696129b4565b81526020016000815260200160008152602001600081525090565b6040518060400160405280600073ffffffffffffffffffffffffffffffffffffffff168152602001600081525090565b6040518060400160405280600073ffffffffffffffffffffffffffffffffffffffff168152602001600060018111156129f0576129ef6148a7565b5b81525090565b6000612a09612a04846143aa565b614385565b90508083825260208201905082856020860282011115612a2c57612a2b614952565b5b60005b85811015612a5c5781612a428882612c68565b845260208401935060208301925050600181019050612a2f565b5050509392505050565b6000612a79612a74846143aa565b614385565b90508083825260208201905082856020860282011115612a9c57612a9b614952565b5b60005b85811015612acc5781612ab28882612c7d565b845260208401935060208301925050600181019050612a9f565b5050509392505050565b6000612ae9612ae4846143d6565b614385565b90508083825260208201905082856020860282011115612b0c57612b0b614952565b5b60005b85811015612b3c5781612b228882612da2565b845260208401935060208301925050600181019050612b0f565b5050509392505050565b6000612b59612b5484614402565b614385565b90508083825260208201905082856020860282011115612b7c57612b7b614952565b5b60005b85811015612bac5781612b92888261336a565b845260208401935060208301925050600181019050612b7f565b5050509392505050565b6000612bc9612bc484614402565b614385565b90508083825260208201905082856020860282011115612bec57612beb614952565b5b60005b85811015612c1c5781612c02888261337f565b845260208401935060208301925050600181019050612bef565b5050509392505050565b6000612c39612c348461442e565b614385565b905082815260208101848484011115612c5557612c5461495c565b5b612c60848285614735565b509392505050565b600081359050612c7781614b42565b92915050565b600081519050612c8c81614b42565b92915050565b600082601f830112612ca757612ca6614934565b5b8135612cb78482602086016129f6565b91505092915050565b600082601f830112612cd557612cd4614934565b5b8151612ce5848260208601612a66565b91505092915050565b600082601f830112612d0357612d02614934565b5b8135612d13848260208601612ad6565b91505092915050565b600082601f830112612d3157612d30614934565b5b8135612d41848260208601612b46565b91505092915050565b600082601f830112612d5f57612d5e614934565b5b8151612d6f848260208601612bb6565b91505092915050565b600081359050612d8781614b59565b92915050565b600081519050612d9c81614b59565b92915050565b600081359050612db181614b70565b92915050565b600081519050612dc681614b70565b92915050565b600081359050612ddb81614b87565b92915050565b600081359050612df081614b9e565b92915050565b600081519050612e0581614b9e565b92915050565b600081359050612e1a81614bae565b92915050565b600082601f830112612e3557612e34614934565b5b8135612e45848260208601612c26565b91505092915050565b600060408284031215612e6457612e63614943565b5b612e6e6040614385565b90506000612e7e84828501612c68565b6000830152506020612e9284828501612de1565b60208301525092915050565b600060408284031215612eb457612eb3614943565b5b612ebe6040614385565b90506000612ece84828501612c7d565b6000830152506020612ee284828501612df6565b60208301525092915050565b600060808284031215612f0457612f03614943565b5b612f0e6080614385565b90506000612f1e84828501612da2565b6000830152506020612f328482850161336a565b602083015250604082013567ffffffffffffffff811115612f5657612f5561494d565b5b612f6284828501612cee565b604083015250606082013567ffffffffffffffff811115612f8657612f8561494d565b5b612f9284828501612e20565b60608301525092915050565b60006101a08284031215612fb557612fb461493e565b5b81905092915050565b60006101e08284031215612fd557612fd4614943565b5b612fe06101c0614385565b90506000612ff084828501612d78565b600083015250602061300484828501612d78565b602083015250604061301884828501612c68565b604083015250606061302c8482850161336a565b60608301525060806130408482850161336a565b60808301525060a061305484828501612da2565b60a08301525060c06130688482850161336a565b60c08301525060e061307c8482850161336a565b60e08301525061010082013567ffffffffffffffff8111156130a1576130a061494d565b5b6130ad84828501612c92565b6101008301525061012082013567ffffffffffffffff8111156130d3576130d261494d565b5b6130df84828501612d1c565b610120830152506101406130f584828501612e4e565b6101408301525061018061310b8482850161336a565b610160830152506101a06131218482850161336a565b610180830152506101c06131378482850161336a565b6101a08301525092915050565b60006101e0828403121561315b5761315a614943565b5b6131666101c0614385565b9050600061317684828501612d8d565b600083015250602061318a84828501612d8d565b602083015250604061319e84828501612c7d565b60408301525060606131b28482850161337f565b60608301525060806131c68482850161337f565b60808301525060a06131da84828501612db7565b60a08301525060c06131ee8482850161337f565b60c08301525060e06132028482850161337f565b60e08301525061010082015167ffffffffffffffff8111156132275761322661494d565b5b61323384828501612cc0565b6101008301525061012082015167ffffffffffffffff8111156132595761325861494d565b5b61326584828501612d4a565b6101208301525061014061327b84828501612e9e565b610140830152506101806132918482850161337f565b610160830152506101a06132a78482850161337f565b610180830152506101c06132bd8482850161337f565b6101a08301525092915050565b6000604082840312156132e0576132df614943565b5b6132ea6040614385565b905060006132fa84828501612c68565b600083015250602061330e8482850161336a565b60208301525092915050565b6000604082840312156133305761332f614943565b5b61333a6040614385565b9050600061334a84828501612c7d565b600083015250602061335e8482850161337f565b60208301525092915050565b60008135905061337981614bbe565b92915050565b60008151905061338e81614bbe565b92915050565b6000602082840312156133aa576133a9614966565b5b60006133b884828501612c68565b91505092915050565b6000806000606084860312156133da576133d9614966565b5b60006133e886828701612c68565b93505060206133f986828701612c68565b925050604061340a86828701612da2565b9150509250925092565b600080600080600060a086880312156134305761342f614966565b5b600061343e88828901612c68565b955050602061344f88828901612c68565b945050604061346088828901612da2565b93505060606134718882890161336a565b92505060806134828882890161336a565b9150509295509295909350565b600080604083850312156134a6576134a5614966565b5b60006134b485828601612c68565b92505060206134c585828601612da2565b9150509250929050565b6000806000606084860312156134e8576134e7614966565b5b60006134f686828701612c68565b935050602061350786828701612da2565b925050604084013567ffffffffffffffff81111561352857613527614961565b5b61353486828701612cee565b9150509250925092565b60006020828403121561355457613553614966565b5b600061356284828501612d8d565b91505092915050565b60006020828403121561358157613580614966565b5b600061358f84828501612da2565b91505092915050565b600080604083850312156135af576135ae614966565b5b60006135bd85828601612da2565b92505060206135ce85828601612c68565b9150509250929050565b6000806000606084860312156135f1576135f0614966565b5b60006135ff86828701612da2565b935050602061361086828701612c68565b92505060406136218682870161336a565b9150509250925092565b6000806040838503121561364257613641614966565b5b600061365085828601612da2565b925050602061366185828601612da2565b9150509250929050565b6000806040838503121561368257613681614966565b5b600061369085828601612da2565b92505060206136a185828601612e0b565b9150509250929050565b6000806000606084860312156136c4576136c3614966565b5b60006136d286828701612da2565b93505060206136e386828701612e0b565b92505060406136f48682870161336a565b9150509250925092565b6000806040838503121561371557613714614966565b5b600061372385828601612da2565b925050602083013567ffffffffffffffff81111561374457613743614961565b5b61375085828601612fbe565b9150509250929050565b6000806060838503121561377157613770614966565b5b600061377f85828601612da2565b9250506020613790858286016132ca565b9150509250929050565b6000602082840312156137b0576137af614966565b5b60006137be84828501612dcc565b91505092915050565b6000602082840312156137dd576137dc614966565b5b600082013567ffffffffffffffff8111156137fb576137fa614961565b5b61380784828501612eee565b91505092915050565b60006020828403121561382657613825614966565b5b600082013567ffffffffffffffff81111561384457613843614961565b5b61385084828501612f9e565b91505092915050565b60006020828403121561386f5761386e614966565b5b600082015167ffffffffffffffff81111561388d5761388c614961565b5b61389984828501613144565b91505092915050565b6000604082840312156138b8576138b7614966565b5b60006138c68482850161331a565b91505092915050565b6000602082840312156138e5576138e4614966565b5b60006138f38482850161337f565b91505092915050565b60006139088383613944565b60208301905092915050565b60006139208383613ab1565b60208301905092915050565b60006139388383613ed9565b60208301905092915050565b61394d8161466d565b82525050565b61395c8161466d565b82525050565b61397361396e8261466d565b61481b565b82525050565b60006139848261448f565b61398e81856144ed565b93506139998361445f565b8060005b838110156139ca5781516139b188826138fc565b97506139bc836144c6565b92505060018101905061399d565b5085935050505092915050565b60006139e28261449a565b6139ec81856144fe565b93506139f78361446f565b8060005b83811015613a28578151613a0f8882613914565b9750613a1a836144d3565b9250506001810190506139fb565b5085935050505092915050565b6000613a40826144a5565b613a4a818561450f565b9350613a558361447f565b8060005b83811015613a86578151613a6d888261392c565b9750613a78836144e0565b925050600181019050613a59565b5085935050505092915050565b613a9c8161467f565b82525050565b613aab8161467f565b82525050565b613aba8161468b565b82525050565b613ac98161468b565b82525050565b613ae0613adb8261468b565b61482d565b82525050565b6000613af1826144b0565b613afb8185614520565b9350613b0b818560208601614744565b80840191505092915050565b613b2081614711565b82525050565b613b2f81614711565b82525050565b613b3e81614723565b82525050565b6000613b4f826144bb565b613b59818561452b565b9350613b69818560208601614744565b613b728161496b565b840191505092915050565b6000613b88826144bb565b613b92818561453c565b9350613ba2818560208601614744565b613bab8161496b565b840191505092915050565b6000613bc1826144bb565b613bcb818561454d565b9350613bdb818560208601614744565b80840191505092915050565b6000613bf460208361453c565b9150613bff82614989565b602082019050919050565b6000613c1760268361453c565b9150613c22826149b2565b604082019050919050565b6000613c3a601d8361453c565b9150613c4582614a01565b602082019050919050565b6000613c5d60178361454d565b9150613c6882614a2a565b601782019050919050565b6000613c80602a8361453c565b9150613c8b82614a53565b604082019050919050565b6000613ca360118361454d565b9150613cae82614aa2565b601182019050919050565b6000613cc6602f8361453c565b9150613cd182614acb565b604082019050919050565b604082016000820151613cf26000850182613944565b506020820151613d056020850182613b17565b50505050565b6000608083016000830151613d236000860182613ab1565b506020830151613d366020860182613ed9565b5060408301518482036040860152613d4e82826139d7565b91505060608301518482036060860152613d688282613b44565b9150508091505092915050565b60006101e083016000830151613d8e6000860182613a93565b506020830151613da16020860182613a93565b506040830151613db46040860182613944565b506060830151613dc76060860182613ed9565b506080830151613dda6080860182613ed9565b5060a0830151613ded60a0860182613ab1565b5060c0830151613e0060c0860182613ed9565b5060e0830151613e1360e0860182613ed9565b50610100830151848203610100860152613e2d8282613979565b915050610120830151848203610120860152613e498282613a35565b915050610140830151613e60610140860182613cdc565b50610160830151613e75610180860182613ed9565b50610180830151613e8a6101a0860182613ed9565b506101a0830151613e9f6101c0860182613ed9565b508091505092915050565b604082016000820151613ec06000850182613944565b506020820151613ed36020850182613ed9565b50505050565b613ee281614707565b82525050565b613ef181614707565b82525050565b6000613f038284613962565b60148201915081905092915050565b6000613f1e8285613acf565b602082019150613f2e8284613acf565b6020820191508190509392505050565b6000613f4a8284613ae6565b915081905092915050565b6000613f6082613c50565b9150613f6c8285613bb6565b9150613f7782613c96565b9150613f838284613bb6565b91508190509392505050565b6000602082019050613fa46000830184613953565b92915050565b6000606082019050613fbf6000830186613953565b613fcc6020830185613953565b613fd96040830184613ee8565b949350505050565b6000602082019050613ff66000830184613aa2565b92915050565b60006020820190506140116000830184613ac0565b92915050565b600060408201905061402c6000830185613ac0565b6140396020830184613953565b9392505050565b60006060820190506140556000830186613ac0565b6140626020830185613953565b61406f6040830184613ee8565b949350505050565b600060408201905061408c6000830185613ac0565b6140996020830184613b35565b9392505050565b60006060820190506140b56000830186613ac0565b6140c26020830185613b35565b6140cf6040830184613ee8565b949350505050565b60006040820190506140ec6000830185613ac0565b81810360208301526140fe8184613d75565b90509392505050565b600060608201905061411c6000830185613ac0565b6141296020830184613eaa565b9392505050565b600060a0820190506141456000830188613b26565b6141526020830187613953565b61415f6040830186613953565b61416c6060830185613953565b6141796080830184613ee8565b9695505050505050565b6000602082019050818103600083015261419d8184613b7d565b905092915050565b600060208201905081810360008301526141be81613be7565b9050919050565b600060208201905081810360008301526141de81613c0a565b9050919050565b600060208201905081810360008301526141fe81613c2d565b9050919050565b6000602082019050818103600083015261421e81613c73565b9050919050565b6000602082019050818103600083015261423e81613cb9565b9050919050565b6000602082019050818103600083015261425f8184613d0b565b905092915050565b600060208201905081810360008301526142818184613d75565b905092915050565b600060408201905061429e6000830184613eaa565b92915050565b60006020820190506142b96000830184613ee8565b92915050565b600080833560016020038436030381126142dc576142db614948565b5b80840192508235915067ffffffffffffffff8211156142fe576142fd614939565b5b60208301925060208202360383131561431a57614319614957565b5b509250929050565b6000808335600160200384360303811261433f5761433e614948565b5b80840192508235915067ffffffffffffffff82111561436157614360614939565b5b60208301925060208202360383131561437d5761437c614957565b5b509250929050565b600061438f6143a0565b905061439b82826147a1565b919050565b6000604051905090565b600067ffffffffffffffff8211156143c5576143c4614905565b5b602082029050602081019050919050565b600067ffffffffffffffff8211156143f1576143f0614905565b5b602082029050602081019050919050565b600067ffffffffffffffff82111561441d5761441c614905565b5b602082029050602081019050919050565b600067ffffffffffffffff82111561444957614448614905565b5b6144528261496b565b9050602081019050919050565b6000819050602082019050919050565b6000819050602082019050919050565b6000819050602082019050919050565b600081519050919050565b600081519050919050565b600081519050919050565b600081519050919050565b600081519050919050565b6000602082019050919050565b6000602082019050919050565b6000602082019050919050565b600082825260208201905092915050565b600082825260208201905092915050565b600082825260208201905092915050565b600081905092915050565b600082825260208201905092915050565b600082825260208201905092915050565b600081905092915050565b600061456382614707565b915061456e83614707565b9250827fffffffffffffffffffffffffffffffffffffffffffffffffffffffffffffffff038211156145a3576145a2614849565b5b828201905092915050565b60006145b982614707565b91506145c483614707565b9250826145d4576145d3614878565b5b828204905092915050565b60006145ea82614707565b91506145f583614707565b9250817fffffffffffffffffffffffffffffffffffffffffffffffffffffffffffffffff048311821515161561462e5761462d614849565b5b828202905092915050565b600061464482614707565b915061464f83614707565b92508282101561466257614661614849565b5b828203905092915050565b6000614678826146e7565b9050919050565b60008115159050919050565b6000819050919050565b60007fffffffff0000000000000000000000000000000000000000000000000000000082169050919050565b60008190506146cf82614b1a565b919050565b60008190506146e282614b2e565b919050565b600073ffffffffffffffffffffffffffffffffffffffff82169050919050565b6000819050919050565b600061471c826146c1565b9050919050565b600061472e826146d4565b9050919050565b82818337600083830152505050565b60005b83811015614762578082015181840152602081019050614747565b83811115614771576000848401525b50505050565b600061478282614707565b9150600082141561479657614795614849565b5b600182039050919050565b6147aa8261496b565b810181811067ffffffffffffffff821117156147c9576147c8614905565b5b80604052505050565b60006147dd82614707565b91507fffffffffffffffffffffffffffffffffffffffffffffffffffffffffffffffff8214156148105761480f614849565b5b600182019050919050565b600061482682614837565b9050919050565b6000819050919050565b60006148428261497c565b9050919050565b7f4e487b7100000000000000000000000000000000000000000000000000000000600052601160045260246000fd5b7f4e487b7100000000000000000000000000000000000000000000000000000000600052601260045260246000fd5b7f4e487b7100000000000000000000000000000000000000000000000000000000600052602160045260246000fd5b7f4e487b7100000000000000000000000000000000000000000000000000000000600052603260045260246000fd5b7f4e487b7100000000000000000000000000000000000000000000000000000000600052604160045260246000fd5b600080fd5b600080fd5b600080fd5b600080fd5b600080fd5b600080fd5b600080fd5b600080fd5b600080fd5b600080fd5b600080fd5b6000601f19601f8301169050919050565b60008160601b9050919050565b7f537472696e67733a20686578206c656e67746820696e73756666696369656e74600082015250565b7f416464726573733a20696e73756666696369656e742062616c616e636520666f60008201527f722063616c6c0000000000000000000000000000000000000000000000000000602082015250565b7f416464726573733a2063616c6c20746f206e6f6e2d636f6e7472616374000000600082015250565b7f416363657373436f6e74726f6c3a206163636f756e7420000000000000000000600082015250565b7f5361666545524332303a204552433230206f7065726174696f6e20646964206e60008201527f6f74207375636365656400000000000000000000000000000000000000000000602082015250565b7f206973206d697373696e6720726f6c6520000000000000000000000000000000600082015250565b7f416363657373436f6e74726f6c3a2063616e206f6e6c792072656e6f756e636560008201527f20726f6c657320666f722073656c660000000000000000000000000000000000602082015250565b60028110614b2b57614b2a6148a7565b5b50565b60048110614b3f57614b3e6148a7565b5b50565b614b4b8161466d565b8114614b5657600080fd5b50565b614b628161467f565b8114614b6d57600080fd5b50565b614b798161468b565b8114614b8457600080fd5b50565b614b9081614695565b8114614b9b57600080fd5b50565b60028110614bab57600080fd5b50565b60048110614bbb57600080fd5b50565b614bc781614707565b8114614bd257600080fd5b5056fea26469706673582212208212c385fe5ccfa1e296de96733040cdfa53496f3856dfc58f76f8db8598038e64736f6c63430008070033",
  "linkReferences": {},
  "deployedLinkReferences": {}
}