{
  "_format": "hh-sol-artifact-1",
  "contractName": "MembershipsView",
  "sourceName": "contracts/MembershipsView.sol",
  "abi": [
    {
      "inputs": [
        {
          "internalType": "address",
          "name": "eternalStorage",
          "type": "address"
        }
      ],
      "stateMutability": "nonpayable",
      "type": "constructor"
    },
    {
      "inputs": [
        {
          "internalType": "uint256",
          "name": "index",
          "type": "uint256"
        }
      ],
      "name": "getCampaign",
      "outputs": [
        {
          "components": [
            {
              "internalType": "bytes32",
              "name": "campaignId",
              "type": "bytes32"
            },
            {
              "internalType": "uint256",
              "name": "phasesLength",
              "type": "uint256"
            },
            {
              "internalType": "bytes32[]",
              "name": "phases",
              "type": "bytes32[]"
            },
            {
              "internalType": "string",
              "name": "metadata",
              "type": "string"
            }
          ],
          "internalType": "struct MembershipsTypes.Campaign",
          "name": "",
          "type": "tuple"
        }
      ],
      "stateMutability": "view",
      "type": "function"
    },
    {
      "inputs": [
        {
          "internalType": "address",
          "name": "owner",
          "type": "address"
        }
      ],
      "name": "getCampaignByOwner",
      "outputs": [
        {
          "components": [
            {
              "internalType": "bytes32",
              "name": "campaignId",
              "type": "bytes32"
            },
            {
              "internalType": "uint256",
              "name": "phasesLength",
              "type": "uint256"
            },
            {
              "internalType": "bytes32[]",
              "name": "phases",
              "type": "bytes32[]"
            },
            {
              "internalType": "string",
              "name": "metadata",
              "type": "string"
            }
          ],
          "internalType": "struct MembershipsTypes.Campaign[]",
          "name": "",
          "type": "tuple[]"
        }
      ],
      "stateMutability": "view",
      "type": "function"
    },
    {
      "inputs": [
        {
          "internalType": "bytes32",
          "name": "schedule",
          "type": "bytes32"
        }
      ],
      "name": "getCampaignBySchedule",
      "outputs": [
        {
          "components": [
            {
              "internalType": "bytes32",
              "name": "campaignId",
              "type": "bytes32"
            },
            {
              "internalType": "uint256",
              "name": "campaignIndex",
              "type": "uint256"
            },
            {
              "internalType": "uint256",
              "name": "scheduleIndex",
              "type": "uint256"
            }
          ],
          "internalType": "struct MembershipsTypes.ScheduleCampaign",
          "name": "",
          "type": "tuple"
        }
      ],
      "stateMutability": "view",
      "type": "function"
    },
    {
      "inputs": [],
      "name": "getCampaignsLength",
      "outputs": [
        {
          "internalType": "uint256",
          "name": "",
          "type": "uint256"
        }
      ],
      "stateMutability": "view",
      "type": "function"
    },
    {
      "inputs": [
        {
          "internalType": "bytes32",
          "name": "scheduleId",
          "type": "bytes32"
        }
      ],
      "name": "getSchedule",
      "outputs": [
        {
          "components": [
            {
              "internalType": "bool",
              "name": "initialized",
              "type": "bool"
            },
            {
              "internalType": "bool",
              "name": "revoked",
              "type": "bool"
            },
            {
              "internalType": "address",
              "name": "owner",
              "type": "address"
            },
            {
              "internalType": "uint256",
              "name": "start",
              "type": "uint256"
            },
            {
              "internalType": "uint256",
              "name": "duration",
              "type": "uint256"
            },
            {
              "internalType": "bytes32",
              "name": "merkleRoot",
              "type": "bytes32"
            },
            {
              "internalType": "uint256",
              "name": "amountTotal",
              "type": "uint256"
            },
            {
              "internalType": "uint256",
              "name": "released",
              "type": "uint256"
            },
            {
              "internalType": "address[]",
              "name": "lotToken",
              "type": "address[]"
            },
            {
              "internalType": "uint256[]",
              "name": "lotSize",
              "type": "uint256[]"
            },
            {
              "components": [
                {
                  "internalType": "address",
                  "name": "token",
                  "type": "address"
                },
                {
                  "internalType": "enum MembershipsTypes.AssetType",
                  "name": "assetType",
                  "type": "uint8"
                }
              ],
              "internalType": "struct MembershipsTypes.Asset",
              "name": "paymentAsset",
              "type": "tuple"
            },
            {
              "internalType": "uint256",
              "name": "pricePerLot",
              "type": "uint256"
            },
            {
              "internalType": "uint256",
              "name": "rollFee",
              "type": "uint256"
            },
            {
              "internalType": "uint256",
              "name": "maxBuyPerWallet",
              "type": "uint256"
            }
          ],
          "internalType": "struct MembershipsTypes.MintingSchedule",
          "name": "",
          "type": "tuple"
        }
      ],
      "stateMutability": "view",
      "type": "function"
    }
  ],
  "bytecode": "0x60806040523480156200001157600080fd5b5060405162001aef38038062001aef8339818101604052810190620000379190620000e8565b806000806101000a81548173ffffffffffffffffffffffffffffffffffffffff021916908373ffffffffffffffffffffffffffffffffffffffff160217905550506200011a565b600080fd5b600073ffffffffffffffffffffffffffffffffffffffff82169050919050565b6000620000b08262000083565b9050919050565b620000c281620000a3565b8114620000ce57600080fd5b50565b600081519050620000e281620000b7565b92915050565b6000602082840312156200010157620001006200007e565b5b60006200011184828501620000d1565b91505092915050565b6119c5806200012a6000396000f3fe608060405234801561001057600080fd5b50600436106100575760003560e01c80633adc277a1461005c5780635598f8cc1461008c578063786dd9dd146100bc578063f3e2ec16146100ec578063fb5474ae1461011c575b600080fd5b6100766004803603810190610071919061085e565b61013a565b6040516100839190610c48565b60405180910390f35b6100a660048036038101906100a19190610c96565b6101f7565b6040516100b39190610e75565b60405180910390f35b6100d660048036038101906100d1919061085e565b6102b4565b6040516100e39190610ed9565b60405180910390f35b61010660048036038101906101019190610f20565b610396565b6040516101139190611079565b60405180910390f35b61012461064b565b60405161013191906110aa565b60405180910390f35b6101426106f1565b60008054906101000a900473ffffffffffffffffffffffffffffffffffffffff1673ffffffffffffffffffffffffffffffffffffffff16633adc277a836040518263ffffffff1660e01b815260040161019b91906110d4565b60006040518083038186803b1580156101b357600080fd5b505afa1580156101c7573d6000803e3d6000fd5b505050506040513d6000823e3d601f19601f820116820180604052508101906101f0919061156a565b9050919050565b6101ff610783565b60008054906101000a900473ffffffffffffffffffffffffffffffffffffffff1673ffffffffffffffffffffffffffffffffffffffff16635598f8cc836040518263ffffffff1660e01b815260040161025891906110aa565b60006040518083038186803b15801561027057600080fd5b505afa158015610284573d6000803e3d6000fd5b505050506040513d6000823e3d601f19601f820116820180604052508101906102ad91906117cc565b9050919050565b6102bc6107ae565b60008060008060009054906101000a900473ffffffffffffffffffffffffffffffffffffffff1673ffffffffffffffffffffffffffffffffffffffff1663e4e4f803866040518263ffffffff1660e01b815260040161031b91906110d4565b60606040518083038186803b15801561033357600080fd5b505afa158015610347573d6000803e3d6000fd5b505050506040513d601f19601f8201168201806040525081019061036b9190611815565b9250925092506040518060600160405280848152602001838152602001828152509350505050919050565b606060008060009054906101000a900473ffffffffffffffffffffffffffffffffffffffff1673ffffffffffffffffffffffffffffffffffffffff1663a5c23c24846040518263ffffffff1660e01b81526004016103f49190611877565b60206040518083038186803b15801561040c57600080fd5b505afa158015610420573d6000803e3d6000fd5b505050506040513d601f19601f820116820180604052508101906104449190611892565b905060008167ffffffffffffffff811115610462576104616110f4565b5b60405190808252806020026020018201604052801561049b57816020015b610488610783565b8152602001906001900390816104805790505b50905060005b828110156106405760008060009054906101000a900473ffffffffffffffffffffffffffffffffffffffff1673ffffffffffffffffffffffffffffffffffffffff1663198dccbb87846040518363ffffffff1660e01b81526004016105079291906118bf565b60206040518083038186803b15801561051f57600080fd5b505afa158015610533573d6000803e3d6000fd5b505050506040513d601f19601f820116820180604052508101906105579190611892565b905060008060009054906101000a900473ffffffffffffffffffffffffffffffffffffffff1673ffffffffffffffffffffffffffffffffffffffff16635598f8cc836040518263ffffffff1660e01b81526004016105b591906110aa565b60006040518083038186803b1580156105cd57600080fd5b505afa1580156105e1573d6000803e3d6000fd5b505050506040513d6000823e3d601f19601f8201168201806040525081019061060a91906117cc565b9050808484815181106106205761061f6118e8565b5b60200260200101819052505050808061063890611946565b9150506104a1565b508092505050919050565b60008060009054906101000a900473ffffffffffffffffffffffffffffffffffffffff1673ffffffffffffffffffffffffffffffffffffffff16635f3179c36040518163ffffffff1660e01b815260040160206040518083038186803b1580156106b457600080fd5b505afa1580156106c8573d6000803e3d6000fd5b505050506040513d601f19601f820116820180604052508101906106ec9190611892565b905090565b604051806101c00160405280600015158152602001600015158152602001600073ffffffffffffffffffffffffffffffffffffffff168152602001600081526020016000815260200160008019168152602001600081526020016000815260200160608152602001606081526020016107686107d2565b81526020016000815260200160008152602001600081525090565b6040518060800160405280600080191681526020016000815260200160608152602001606081525090565b60405180606001604052806000801916815260200160008152602001600081525090565b6040518060400160405280600073ffffffffffffffffffffffffffffffffffffffff1681526020016000600181111561080e5761080d610a6d565b5b81525090565b6000604051905090565b600080fd5b600080fd5b6000819050919050565b61083b81610828565b811461084657600080fd5b50565b60008135905061085881610832565b92915050565b6000602082840312156108745761087361081e565b5b600061088284828501610849565b91505092915050565b60008115159050919050565b6108a08161088b565b82525050565b600073ffffffffffffffffffffffffffffffffffffffff82169050919050565b60006108d1826108a6565b9050919050565b6108e1816108c6565b82525050565b6000819050919050565b6108fa816108e7565b82525050565b61090981610828565b82525050565b600081519050919050565b600082825260208201905092915050565b6000819050602082019050919050565b600061094783836108d8565b60208301905092915050565b6000602082019050919050565b600061096b8261090f565b610975818561091a565b93506109808361092b565b8060005b838110156109b1578151610998888261093b565b97506109a383610953565b925050600181019050610984565b5085935050505092915050565b600081519050919050565b600082825260208201905092915050565b6000819050602082019050919050565b60006109f683836108f1565b60208301905092915050565b6000602082019050919050565b6000610a1a826109be565b610a2481856109c9565b9350610a2f836109da565b8060005b83811015610a60578151610a4788826109ea565b9750610a5283610a02565b925050600181019050610a33565b5085935050505092915050565b7f4e487b7100000000000000000000000000000000000000000000000000000000600052602160045260246000fd5b60028110610aad57610aac610a6d565b5b50565b6000819050610abe82610a9c565b919050565b6000610ace82610ab0565b9050919050565b610ade81610ac3565b82525050565b604082016000820151610afa60008501826108d8565b506020820151610b0d6020850182610ad5565b50505050565b60006101e083016000830151610b2c6000860182610897565b506020830151610b3f6020860182610897565b506040830151610b5260408601826108d8565b506060830151610b6560608601826108f1565b506080830151610b7860808601826108f1565b5060a0830151610b8b60a0860182610900565b5060c0830151610b9e60c08601826108f1565b5060e0830151610bb160e08601826108f1565b50610100830151848203610100860152610bcb8282610960565b915050610120830151848203610120860152610be78282610a0f565b915050610140830151610bfe610140860182610ae4565b50610160830151610c136101808601826108f1565b50610180830151610c286101a08601826108f1565b506101a0830151610c3d6101c08601826108f1565b508091505092915050565b60006020820190508181036000830152610c628184610b13565b905092915050565b610c73816108e7565b8114610c7e57600080fd5b50565b600081359050610c9081610c6a565b92915050565b600060208284031215610cac57610cab61081e565b5b6000610cba84828501610c81565b91505092915050565b600081519050919050565b600082825260208201905092915050565b6000819050602082019050919050565b6000610cfb8383610900565b60208301905092915050565b6000602082019050919050565b6000610d1f82610cc3565b610d298185610cce565b9350610d3483610cdf565b8060005b83811015610d65578151610d4c8882610cef565b9750610d5783610d07565b925050600181019050610d38565b5085935050505092915050565b600081519050919050565b600082825260208201905092915050565b60005b83811015610dac578082015181840152602081019050610d91565b83811115610dbb576000848401525b50505050565b6000601f19601f8301169050919050565b6000610ddd82610d72565b610de78185610d7d565b9350610df7818560208601610d8e565b610e0081610dc1565b840191505092915050565b6000608083016000830151610e236000860182610900565b506020830151610e3660208601826108f1565b5060408301518482036040860152610e4e8282610d14565b91505060608301518482036060860152610e688282610dd2565b9150508091505092915050565b60006020820190508181036000830152610e8f8184610e0b565b905092915050565b606082016000820151610ead6000850182610900565b506020820151610ec060208501826108f1565b506040820151610ed360408501826108f1565b50505050565b6000606082019050610eee6000830184610e97565b92915050565b610efd816108c6565b8114610f0857600080fd5b50565b600081359050610f1a81610ef4565b92915050565b600060208284031215610f3657610f3561081e565b5b6000610f4484828501610f0b565b91505092915050565b600081519050919050565b600082825260208201905092915050565b6000819050602082019050919050565b6000608083016000830151610f916000860182610900565b506020830151610fa460208601826108f1565b5060408301518482036040860152610fbc8282610d14565b91505060608301518482036060860152610fd68282610dd2565b9150508091505092915050565b6000610fef8383610f79565b905092915050565b6000602082019050919050565b600061100f82610f4d565b6110198185610f58565b93508360208202850161102b85610f69565b8060005b8581101561106757848403895281516110488582610fe3565b945061105383610ff7565b925060208a0199505060018101905061102f565b50829750879550505050505092915050565b600060208201905081810360008301526110938184611004565b905092915050565b6110a4816108e7565b82525050565b60006020820190506110bf600083018461109b565b92915050565b6110ce81610828565b82525050565b60006020820190506110e960008301846110c5565b92915050565b600080fd5b7f4e487b7100000000000000000000000000000000000000000000000000000000600052604160045260246000fd5b61112c82610dc1565b810181811067ffffffffffffffff8211171561114b5761114a6110f4565b5b80604052505050565b600061115e610814565b905061116a8282611123565b919050565b600080fd5b61117d8161088b565b811461118857600080fd5b50565b60008151905061119a81611174565b92915050565b6000815190506111af81610ef4565b92915050565b6000815190506111c481610c6a565b92915050565b6000815190506111d981610832565b92915050565b600080fd5b600067ffffffffffffffff8211156111ff576111fe6110f4565b5b602082029050602081019050919050565b600080fd5b6000611228611223846111e4565b611154565b9050808382526020820190506020840283018581111561124b5761124a611210565b5b835b81811015611274578061126088826111a0565b84526020840193505060208101905061124d565b5050509392505050565b600082601f830112611293576112926111df565b5b81516112a3848260208601611215565b91505092915050565b600067ffffffffffffffff8211156112c7576112c66110f4565b5b602082029050602081019050919050565b60006112eb6112e6846112ac565b611154565b9050808382526020820190506020840283018581111561130e5761130d611210565b5b835b81811015611337578061132388826111b5565b845260208401935050602081019050611310565b5050509392505050565b600082601f830112611356576113556111df565b5b81516113668482602086016112d8565b91505092915050565b6002811061137c57600080fd5b50565b60008151905061138e8161136f565b92915050565b6000604082840312156113aa576113a96110ef565b5b6113b46040611154565b905060006113c4848285016111a0565b60008301525060206113d88482850161137f565b60208301525092915050565b60006101e082840312156113fb576113fa6110ef565b5b6114066101c0611154565b905060006114168482850161118b565b600083015250602061142a8482850161118b565b602083015250604061143e848285016111a0565b6040830152506060611452848285016111b5565b6060830152506080611466848285016111b5565b60808301525060a061147a848285016111ca565b60a08301525060c061148e848285016111b5565b60c08301525060e06114a2848285016111b5565b60e08301525061010082015167ffffffffffffffff8111156114c7576114c661116f565b5b6114d38482850161127e565b6101008301525061012082015167ffffffffffffffff8111156114f9576114f861116f565b5b61150584828501611341565b6101208301525061014061151b84828501611394565b61014083015250610180611531848285016111b5565b610160830152506101a0611547848285016111b5565b610180830152506101c061155d848285016111b5565b6101a08301525092915050565b6000602082840312156115805761157f61081e565b5b600082015167ffffffffffffffff81111561159e5761159d610823565b5b6115aa848285016113e4565b91505092915050565b600067ffffffffffffffff8211156115ce576115cd6110f4565b5b602082029050602081019050919050565b60006115f26115ed846115b3565b611154565b9050808382526020820190506020840283018581111561161557611614611210565b5b835b8181101561163e578061162a88826111ca565b845260208401935050602081019050611617565b5050509392505050565b600082601f83011261165d5761165c6111df565b5b815161166d8482602086016115df565b91505092915050565b600080fd5b600067ffffffffffffffff821115611696576116956110f4565b5b61169f82610dc1565b9050602081019050919050565b60006116bf6116ba8461167b565b611154565b9050828152602081018484840111156116db576116da611676565b5b6116e6848285610d8e565b509392505050565b600082601f830112611703576117026111df565b5b81516117138482602086016116ac565b91505092915050565b600060808284031215611732576117316110ef565b5b61173c6080611154565b9050600061174c848285016111ca565b6000830152506020611760848285016111b5565b602083015250604082015167ffffffffffffffff8111156117845761178361116f565b5b61179084828501611648565b604083015250606082015167ffffffffffffffff8111156117b4576117b361116f565b5b6117c0848285016116ee565b60608301525092915050565b6000602082840312156117e2576117e161081e565b5b600082015167ffffffffffffffff811115611800576117ff610823565b5b61180c8482850161171c565b91505092915050565b60008060006060848603121561182e5761182d61081e565b5b600061183c868287016111ca565b935050602061184d868287016111b5565b925050604061185e868287016111b5565b9150509250925092565b611871816108c6565b82525050565b600060208201905061188c6000830184611868565b92915050565b6000602082840312156118a8576118a761081e565b5b60006118b6848285016111b5565b91505092915050565b60006040820190506118d46000830185611868565b6118e1602083018461109b565b9392505050565b7f4e487b7100000000000000000000000000000000000000000000000000000000600052603260045260246000fd5b7f4e487b7100000000000000000000000000000000000000000000000000000000600052601160045260246000fd5b6000611951826108e7565b91507fffffffffffffffffffffffffffffffffffffffffffffffffffffffffffffffff82141561198457611983611917565b5b60018201905091905056fea26469706673582212205dc0d65490c1cae5ece537b1e1cd583cf893f91d19f3a6fe171e21a51ff337db64736f6c63430008090033",
  "linkReferences": {},
  "deployedLinkReferences": {}
}