{
  "_format": "hh-sol-artifact-1",
  "contractName": "Memberships",
  "sourceName": "contracts/Memberships.sol",
  "abi": [
    {
      "inputs": [
        {
          "internalType": "address",
          "name": "eternalStorage_",
          "type": "address"
        },
        {
          "internalType": "address",
          "name": "membershipsImpl_",
          "type": "address"
        },
        {
          "internalType": "address",
          "name": "rollWallet",
          "type": "address"
        },
        {
          "internalType": "uint256",
          "name": "minRollFee",
          "type": "uint256"
        }
      ],
      "stateMutability": "nonpayable",
      "type": "constructor"
    },
    {
      "inputs": [
        {
          "internalType": "uint256",
          "name": "minRollFee",
          "type": "uint256"
        },
        {
          "internalType": "uint256",
          "name": "maxFee",
          "type": "uint256"
        }
      ],
      "name": "ErrorME01InvalidFee",
      "type": "error"
    },
    {
      "inputs": [],
      "name": "ErrorME02TokenNotAllowed",
      "type": "error"
    },
    {
      "inputs": [],
      "name": "ErrorME03NotEnoughTokens",
      "type": "error"
    },
    {
      "inputs": [],
      "name": "ErrorME04NotEnoughPhases",
      "type": "error"
    },
    {
      "inputs": [],
      "name": "ErrorME05OnlyOwnerAllowed",
      "type": "error"
    },
    {
      "inputs": [],
      "name": "ErrorME06ScheduleDoesNotExists",
      "type": "error"
    },
    {
      "inputs": [],
      "name": "ErrorME07ScheduleRevoked",
      "type": "error"
    },
    {
      "inputs": [],
      "name": "ErrorME08ScheduleNotActive",
      "type": "error"
    },
    {
      "inputs": [],
      "name": "ErrorME09ScheduleNotFinished",
      "type": "error"
    },
    {
      "inputs": [],
      "name": "ErrorME10ActionAllowlisted",
      "type": "error"
    },
    {
      "inputs": [],
      "name": "ErrorME11TransferError",
      "type": "error"
    },
    {
      "inputs": [],
      "name": "ErrorME12IndexOutOfBounds",
      "type": "error"
    },
    {
      "inputs": [],
      "name": "ErrorME13InvalidAddress",
      "type": "error"
    },
    {
      "inputs": [],
      "name": "ErrorME14BetaPeriodAlreadyFinish",
      "type": "error"
    },
    {
      "inputs": [],
      "name": "ErrorME15InvalidDate",
      "type": "error"
    },
    {
      "inputs": [],
      "name": "ErrorME16InvalidDuration",
      "type": "error"
    },
    {
      "inputs": [],
      "name": "ErrorME17InvalidPrice",
      "type": "error"
    },
    {
      "inputs": [],
      "name": "ErrorME18LotArrayLengthMismatch",
      "type": "error"
    },
    {
      "inputs": [],
      "name": "ErrorME19NotEnoughEth",
      "type": "error"
    },
    {
      "inputs": [],
      "name": "ErrorME20InvalidReferral",
      "type": "error"
    },
    {
      "inputs": [],
      "name": "ErrorME21InvalidReferralFee",
      "type": "error"
    },
    {
      "inputs": [],
      "name": "ErrorME22MaxBuyPerWalletExceeded",
      "type": "error"
    },
    {
      "inputs": [],
      "name": "ErrorME23TotalClaimedError",
      "type": "error"
    },
    {
      "inputs": [],
      "name": "ErrorME24InvalidProof",
      "type": "error"
    },
    {
      "inputs": [],
      "name": "ErrorME25ScheduleNotFinishedOrSoldOut",
      "type": "error"
    },
    {
      "inputs": [],
      "name": "ErrorME26OnlyMembershipsImpl",
      "type": "error"
    },
    {
      "inputs": [],
      "name": "ErrorME27TotalAmountExceeded",
      "type": "error"
    },
    {
      "inputs": [],
      "name": "ErrorME28InvalidAmount",
      "type": "error"
    },
    {
      "inputs": [],
      "name": "ErrorME29InvalidMaxBuyPerWallet",
      "type": "error"
    },
    {
      "anonymous": false,
      "inputs": [
        {
          "indexed": true,
          "internalType": "address",
          "name": "from",
          "type": "address"
        },
        {
          "indexed": true,
          "internalType": "address",
          "name": "addr",
          "type": "address"
        }
      ],
      "name": "EventEternalStorageUpdated",
      "type": "event"
    },
    {
      "anonymous": false,
      "inputs": [
        {
          "indexed": true,
          "internalType": "address",
          "name": "from",
          "type": "address"
        },
        {
          "indexed": true,
          "internalType": "address",
          "name": "addr",
          "type": "address"
        }
      ],
      "name": "EventMembershipsImplUpdated",
      "type": "event"
    },
    {
      "anonymous": false,
      "inputs": [
        {
          "indexed": false,
          "internalType": "uint256",
          "name": "newMinRollFee",
          "type": "uint256"
        }
      ],
      "name": "EventMinRollFeeUpdated",
      "type": "event"
    },
    {
      "anonymous": false,
      "inputs": [
        {
          "indexed": true,
          "internalType": "address",
          "name": "from",
          "type": "address"
        },
        {
          "indexed": true,
          "internalType": "bytes32",
          "name": "scheduleId",
          "type": "bytes32"
        },
        {
          "indexed": true,
          "internalType": "address",
          "name": "newReferral",
          "type": "address"
        }
      ],
      "name": "EventReferralUpdated",
      "type": "event"
    },
    {
      "anonymous": false,
      "inputs": [
        {
          "indexed": true,
          "internalType": "address",
          "name": "from",
          "type": "address"
        },
        {
          "indexed": true,
          "internalType": "address",
          "name": "addr",
          "type": "address"
        }
      ],
      "name": "EventRollWalletUpdated",
      "type": "event"
    },
    {
      "anonymous": false,
      "inputs": [
        {
          "indexed": true,
          "internalType": "address",
          "name": "from",
          "type": "address"
        },
        {
          "indexed": true,
          "internalType": "bytes32",
          "name": "scheduleId",
          "type": "bytes32"
        }
      ],
      "name": "EventScheduleCreated",
      "type": "event"
    },
    {
      "anonymous": false,
      "inputs": [
        {
          "indexed": true,
          "internalType": "address",
          "name": "from",
          "type": "address"
        },
        {
          "indexed": true,
          "internalType": "bytes32",
          "name": "scheduleId",
          "type": "bytes32"
        },
        {
          "indexed": true,
          "internalType": "address",
          "name": "token",
          "type": "address"
        }
      ],
      "name": "EventScheduleCreatedWithToken",
      "type": "event"
    },
    {
      "anonymous": false,
      "inputs": [
        {
          "indexed": true,
          "internalType": "address",
          "name": "sender",
          "type": "address"
        },
        {
          "indexed": true,
          "internalType": "bytes32",
          "name": "scheduleId",
          "type": "bytes32"
        },
        {
          "indexed": true,
          "internalType": "address",
          "name": "referral",
          "type": "address"
        },
        {
          "indexed": false,
          "internalType": "uint256",
          "name": "referralFee",
          "type": "uint256"
        }
      ],
      "name": "EventScheduleReferralSet",
      "type": "event"
    },
    {
      "anonymous": false,
      "inputs": [
        {
          "indexed": true,
          "internalType": "address",
          "name": "from",
          "type": "address"
        },
        {
          "indexed": true,
          "internalType": "address",
          "name": "token",
          "type": "address"
        },
        {
          "indexed": false,
          "internalType": "bool",
          "name": "value",
          "type": "bool"
        }
      ],
      "name": "EventTokenAllowedUpdated",
      "type": "event"
    },
    {
      "anonymous": false,
      "inputs": [
        {
          "indexed": true,
          "internalType": "address",
          "name": "previousOwner",
          "type": "address"
        },
        {
          "indexed": true,
          "internalType": "address",
          "name": "newOwner",
          "type": "address"
        }
      ],
      "name": "OwnershipTransferred",
      "type": "event"
    },
    {
      "anonymous": false,
      "inputs": [
        {
          "indexed": false,
          "internalType": "address",
          "name": "account",
          "type": "address"
        }
      ],
      "name": "Paused",
      "type": "event"
    },
    {
      "anonymous": false,
      "inputs": [
        {
          "indexed": true,
          "internalType": "bytes32",
          "name": "scheduleId",
          "type": "bytes32"
        }
      ],
      "name": "Revoked",
      "type": "event"
    },
    {
      "anonymous": false,
      "inputs": [
        {
          "indexed": false,
          "internalType": "address",
          "name": "account",
          "type": "address"
        }
      ],
      "name": "Unpaused",
      "type": "event"
    },
    {
      "inputs": [
        {
          "internalType": "bytes32",
          "name": "scheduleId",
          "type": "bytes32"
        },
        {
          "internalType": "uint256",
          "name": "amount",
          "type": "uint256"
        }
      ],
      "name": "buy",
      "outputs": [],
      "stateMutability": "payable",
      "type": "function"
    },
    {
      "inputs": [
        {
          "internalType": "bytes32",
          "name": "scheduleId",
          "type": "bytes32"
        },
        {
          "internalType": "uint256",
          "name": "amount",
          "type": "uint256"
        },
        {
          "internalType": "bytes32[]",
          "name": "proof",
          "type": "bytes32[]"
        }
      ],
      "name": "buyWithAllowlist",
      "outputs": [],
      "stateMutability": "payable",
      "type": "function"
    },
    {
      "inputs": [
        {
          "internalType": "bytes32",
          "name": "scheduleId",
          "type": "bytes32"
        }
      ],
      "name": "claim",
      "outputs": [],
      "stateMutability": "nonpayable",
      "type": "function"
    },
    {
      "inputs": [
        {
          "internalType": "bytes32",
          "name": "scheduleId",
          "type": "bytes32"
        }
      ],
      "name": "claimReferral",
      "outputs": [],
      "stateMutability": "nonpayable",
      "type": "function"
    },
    {
      "inputs": [
        {
          "internalType": "bytes32",
          "name": "scheduleId",
          "type": "bytes32"
        }
      ],
      "name": "claimRoll",
      "outputs": [],
      "stateMutability": "nonpayable",
      "type": "function"
    },
    {
      "inputs": [
        {
          "internalType": "bytes32",
          "name": "scheduleId",
          "type": "bytes32"
        }
      ],
      "name": "claimUnsoldTokens",
      "outputs": [],
      "stateMutability": "nonpayable",
      "type": "function"
    },
    {
      "inputs": [
        {
          "internalType": "address",
          "name": "holder",
          "type": "address"
        },
        {
          "internalType": "uint256",
          "name": "index",
          "type": "uint256"
        },
        {
          "internalType": "uint256",
          "name": "length",
          "type": "uint256"
        }
      ],
      "name": "computeScheduleIdForAddressAndIndex",
      "outputs": [
        {
          "internalType": "bytes32",
          "name": "",
          "type": "bytes32"
        }
      ],
      "stateMutability": "pure",
      "type": "function"
    },
    {
      "inputs": [
        {
          "internalType": "bytes32",
          "name": "scheduleId",
          "type": "bytes32"
        }
      ],
      "name": "computeUnsoldLots",
      "outputs": [
        {
          "internalType": "uint256",
          "name": "",
          "type": "uint256"
        }
      ],
      "stateMutability": "view",
      "type": "function"
    },
    {
      "inputs": [
        {
          "components": [
            {
              "internalType": "uint256",
              "name": "start",
              "type": "uint256"
            },
            {
              "internalType": "uint256",
              "name": "duration",
              "type": "uint256"
            },
            {
              "internalType": "bytes32",
              "name": "merkleRoot",
              "type": "bytes32"
            },
            {
              "internalType": "uint256",
              "name": "amountTotal",
              "type": "uint256"
            },
            {
              "internalType": "address[]",
              "name": "lotToken",
              "type": "address[]"
            },
            {
              "internalType": "uint256[]",
              "name": "lotSize",
              "type": "uint256[]"
            },
            {
              "internalType": "uint256",
              "name": "pricePerLot",
              "type": "uint256"
            },
            {
              "components": [
                {
                  "internalType": "address",
                  "name": "token",
                  "type": "address"
                },
                {
                  "internalType": "enum MembershipsTypes.AssetType",
                  "name": "assetType",
                  "type": "uint8"
                }
              ],
              "internalType": "struct MembershipsTypes.Asset",
              "name": "paymentAsset",
              "type": "tuple"
            },
            {
              "internalType": "uint256",
              "name": "rollFee",
              "type": "uint256"
            },
            {
              "internalType": "address",
              "name": "referral",
              "type": "address"
            },
            {
              "internalType": "uint256",
              "name": "referralFee",
              "type": "uint256"
            },
            {
              "internalType": "uint256",
              "name": "maxBuyPerWallet",
              "type": "uint256"
            }
          ],
          "internalType": "struct MembershipsTypes.CreateMintingScheduleParams[]",
          "name": "params",
          "type": "tuple[]"
        },
        {
          "internalType": "string",
          "name": "metadata",
          "type": "string"
        }
      ],
      "name": "createCampaign",
      "outputs": [],
      "stateMutability": "nonpayable",
      "type": "function"
    },
    {
      "inputs": [
        {
          "internalType": "enum MembershipsTypes.AssetType",
          "name": "assetType",
          "type": "uint8"
        },
        {
          "internalType": "address",
          "name": "tokenAddress",
          "type": "address"
        },
        {
          "internalType": "address",
          "name": "from",
          "type": "address"
        },
        {
          "internalType": "address",
          "name": "to",
          "type": "address"
        },
        {
          "internalType": "uint256",
          "name": "value",
          "type": "uint256"
        }
      ],
      "name": "doTransfer",
      "outputs": [],
      "stateMutability": "nonpayable",
      "type": "function"
    },
    {
      "inputs": [],
      "name": "owner",
      "outputs": [
        {
          "internalType": "address",
          "name": "",
          "type": "address"
        }
      ],
      "stateMutability": "view",
      "type": "function"
    },
    {
      "inputs": [],
      "name": "pause",
      "outputs": [],
      "stateMutability": "nonpayable",
      "type": "function"
    },
    {
      "inputs": [],
      "name": "paused",
      "outputs": [
        {
          "internalType": "bool",
          "name": "",
          "type": "bool"
        }
      ],
      "stateMutability": "view",
      "type": "function"
    },
    {
      "inputs": [],
      "name": "renounceOwnership",
      "outputs": [],
      "stateMutability": "nonpayable",
      "type": "function"
    },
    {
      "inputs": [
        {
          "internalType": "bytes32",
          "name": "scheduleId",
          "type": "bytes32"
        }
      ],
      "name": "revoke",
      "outputs": [],
      "stateMutability": "nonpayable",
      "type": "function"
    },
    {
      "inputs": [
        {
          "internalType": "bytes32",
          "name": "scheduleId",
          "type": "bytes32"
        },
        {
          "internalType": "bytes32",
          "name": "root",
          "type": "bytes32"
        }
      ],
      "name": "setAllowlist",
      "outputs": [],
      "stateMutability": "nonpayable",
      "type": "function"
    },
    {
      "inputs": [
        {
          "internalType": "address",
          "name": "addr",
          "type": "address"
        }
      ],
      "name": "setEternalStorageAddress",
      "outputs": [],
      "stateMutability": "nonpayable",
      "type": "function"
    },
    {
      "inputs": [
        {
          "internalType": "address",
          "name": "addr",
          "type": "address"
        }
      ],
      "name": "setMembershipsImplAddress",
      "outputs": [],
      "stateMutability": "nonpayable",
      "type": "function"
    },
    {
      "inputs": [
        {
          "internalType": "uint256",
          "name": "newMinRollFee",
          "type": "uint256"
        }
      ],
      "name": "setMinRollFee",
      "outputs": [],
      "stateMutability": "nonpayable",
      "type": "function"
    },
    {
      "inputs": [
        {
          "internalType": "address",
          "name": "newRollWallet",
          "type": "address"
        }
      ],
      "name": "setRollWallet",
      "outputs": [],
      "stateMutability": "nonpayable",
      "type": "function"
    },
    {
      "inputs": [
        {
          "internalType": "address",
          "name": "token",
          "type": "address"
        },
        {
          "internalType": "bool",
          "name": "value",
          "type": "bool"
        }
      ],
      "name": "setTokenAllow",
      "outputs": [],
      "stateMutability": "nonpayable",
      "type": "function"
    },
    {
      "inputs": [
        {
          "internalType": "address",
          "name": "newOwner",
          "type": "address"
        }
      ],
      "name": "transferOwnership",
      "outputs": [],
      "stateMutability": "nonpayable",
      "type": "function"
    },
    {
      "inputs": [
        {
          "internalType": "bytes32",
          "name": "scheduleId",
          "type": "bytes32"
        },
        {
          "internalType": "address",
          "name": "owner_",
          "type": "address"
        }
      ],
      "name": "transferScheduleOwner",
      "outputs": [],
      "stateMutability": "nonpayable",
      "type": "function"
    },
    {
      "inputs": [
        {
          "internalType": "bytes32",
          "name": "scheduleId",
          "type": "bytes32"
        },
        {
          "internalType": "address",
          "name": "referral",
          "type": "address"
        }
      ],
      "name": "updateReferral",
      "outputs": [],
      "stateMutability": "nonpayable",
      "type": "function"
    }
  ],
  "bytecode": "0x60a06040523480156200001157600080fd5b5060405162005fad38038062005fad83398181016040528101906200003791906200035b565b620000576200004b6200025960201b60201c565b6200026160201b60201c565b60008060146101000a81548160ff02191690831515021790555060018081905550600073ffffffffffffffffffffffffffffffffffffffff168473ffffffffffffffffffffffffffffffffffffffff161480620000e05750600073ffffffffffffffffffffffffffffffffffffffff168373ffffffffffffffffffffffffffffffffffffffff16145b80620001185750600073ffffffffffffffffffffffffffffffffffffffff168273ffffffffffffffffffffffffffffffffffffffff16145b1562000150576040517fdae3f98f00000000000000000000000000000000000000000000000000000000815260040160405180910390fd5b83600260006101000a81548173ffffffffffffffffffffffffffffffffffffffff021916908373ffffffffffffffffffffffffffffffffffffffff16021790555082600360006101000a81548173ffffffffffffffffffffffffffffffffffffffff021916908373ffffffffffffffffffffffffffffffffffffffff16021790555081600460006101000a81548173ffffffffffffffffffffffffffffffffffffffff021916908373ffffffffffffffffffffffffffffffffffffffff160217905550806005819055506201518060b46200022c91906200042a565b6200023c6200032560201b60201c565b620002489190620003cd565b608081815250505050505062000531565b600033905090565b60008060009054906101000a900473ffffffffffffffffffffffffffffffffffffffff169050816000806101000a81548173ffffffffffffffffffffffffffffffffffffffff021916908373ffffffffffffffffffffffffffffffffffffffff1602179055508173ffffffffffffffffffffffffffffffffffffffff168173ffffffffffffffffffffffffffffffffffffffff167f8be0079c531659141344cd1fd0a4f28419497f9722a3daafe3b4186f6b6457e060405160405180910390a35050565b600042905090565b6000815190506200033e81620004fd565b92915050565b600081519050620003558162000517565b92915050565b60008060008060808587031215620003785762000377620004f8565b5b600062000388878288016200032d565b94505060206200039b878288016200032d565b9350506040620003ae878288016200032d565b9250506060620003c18782880162000344565b91505092959194509250565b6000620003da82620004bf565b9150620003e783620004bf565b9250827fffffffffffffffffffffffffffffffffffffffffffffffffffffffffffffffff038211156200041f576200041e620004c9565b5b828201905092915050565b60006200043782620004bf565b91506200044483620004bf565b9250817fffffffffffffffffffffffffffffffffffffffffffffffffffffffffffffffff048311821515161562000480576200047f620004c9565b5b828202905092915050565b600062000498826200049f565b9050919050565b600073ffffffffffffffffffffffffffffffffffffffff82169050919050565b6000819050919050565b7f4e487b7100000000000000000000000000000000000000000000000000000000600052601160045260246000fd5b600080fd5b62000508816200048b565b81146200051457600080fd5b50565b6200052281620004bf565b81146200052e57600080fd5b50565b608051615a606200054d60003960006119d50152615a606000f3fe60806040526004361061014b5760003560e01c80638456cb59116100b6578063d1a81d9f1161006f578063d1a81d9f1461040c578063d3bcccbd14610435578063dca9e48d1461045e578063e040994314610487578063e8d3e8c4146104c4578063f2fde38b146104ed5761014b565b80638456cb59146103265780638da5cb5b1461033d578063b042657a14610368578063b75c7dc614610391578063bd66528a146103ba578063cbc631c5146103e35761014b565b806339d0e28f1161010857806339d0e28f146102405780635c975abb14610269578063715018a6146102945780638215b882146102ab578063827430e9146102d457806383b8473c146102fd5761014b565b806304e4cb34146101505780630c9b91a81461016c5780630ddeb6321461019557806319e8dc9b146101b157806330ea5903146101ee57806335d35ad014610217575b600080fd5b61016a600480360381019061016591906145e8565b610516565b005b34801561017857600080fd5b50610193600480360381019061018e9190614528565b610816565b005b6101af60048036038101906101aa91906145a8565b6109c9565b005b3480156101bd57600080fd5b506101d860048036038101906101d39190614403565b610d2f565b6040516101e591906150b3565b60405180910390f35b3480156101fa57600080fd5b50610215600480360381019061021091906144fb565b610d65565b005b34801561022357600080fd5b5061023e6004803603810190610239919061471b565b610fd8565b005b34801561024c57600080fd5b5061026760048036038101906102629190614568565b6110e1565b005b34801561027557600080fd5b5061027e611294565b60405161028b9190615098565b60405180910390f35b3480156102a057600080fd5b506102a96112aa565b005b3480156102b757600080fd5b506102d260048036038101906102cd9190614528565b611332565b005b3480156102e057600080fd5b506102fb60048036038101906102f691906144fb565b611595565b005b34801561030957600080fd5b50610324600480360381019061031f9190614396565b6117ce565b005b34801561033257600080fd5b5061033b61194f565b005b34801561034957600080fd5b50610352611a36565b60405161035f9190614f03565b60405180910390f35b34801561037457600080fd5b5061038f600480360381019061038a91906144fb565b611a5f565b005b34801561039d57600080fd5b506103b860048036038101906103b391906144fb565b611cae565b005b3480156103c657600080fd5b506103e160048036038101906103dc91906144fb565b611fa6565b005b3480156103ef57600080fd5b5061040a60048036038101906104059190614657565b6121f5565b005b34801561041857600080fd5b50610433600480360381019061042e9190614396565b6123f4565b005b34801561044157600080fd5b5061045c60048036038101906104579190614396565b612575565b005b34801561046a57600080fd5b50610485600480360381019061048091906143c3565b6126f6565b005b34801561049357600080fd5b506104ae60048036038101906104a991906144fb565b612899565b6040516104bb91906152bf565b60405180910390f35b3480156104d057600080fd5b506104eb60048036038101906104e69190614456565b612a4d565b005b3480156104f957600080fd5b50610514600480360381019061050f9190614396565b612ca9565b005b61051e611294565b1561055e576040517f08c379a0000000000000000000000000000000000000000000000000000000008152600401610555906151db565b60405180910390fd5b600260015414156105a4576040517f08c379a000000000000000000000000000000000000000000000000000000000815260040161059b9061525b565b60405180910390fd5b6002600181905550826000600360009054906101000a900473ffffffffffffffffffffffffffffffffffffffff1673ffffffffffffffffffffffffffffffffffffffff16633adc277a836040518263ffffffff1660e01b815260040161060a91906150b3565b60006040518083038186803b15801561062257600080fd5b505afa158015610636573d6000803e3d6000fd5b505050506040513d6000823e3d601f19601f8201168201806040525081019061065f91906146d2565b905080600001511580610673575080602001515b806106885750610681612da1565b8160600151115b806106ad5750610696612da1565b816080015182606001516106aa9190615508565b11155b156106e4576040517f729f015700000000000000000000000000000000000000000000000000000000815260040160405180910390fd5b600360009054906101000a900473ffffffffffffffffffffffffffffffffffffffff1673ffffffffffffffffffffffffffffffffffffffff1663ca2e8df33387866040518463ffffffff1660e01b815260040161074393929190615031565b60006040518083038186803b15801561075b57600080fd5b505afa15801561076f573d6000803e3d6000fd5b50505050600360009054906101000a900473ffffffffffffffffffffffffffffffffffffffff1673ffffffffffffffffffffffffffffffffffffffff16631d81019d30338888346040518663ffffffff1660e01b81526004016107d6959493929190614f7e565b600060405180830381600087803b1580156107f057600080fd5b505af1158015610804573d6000803e3d6000fd5b50505050505060018081905550505050565b816000600360009054906101000a900473ffffffffffffffffffffffffffffffffffffffff1673ffffffffffffffffffffffffffffffffffffffff16633adc277a836040518263ffffffff1660e01b815260040161087491906150b3565b60006040518083038186803b15801561088c57600080fd5b505afa1580156108a0573d6000803e3d6000fd5b505050506040513d6000823e3d601f19601f820116820180604052508101906108c991906146d2565b9050806040015173ffffffffffffffffffffffffffffffffffffffff163373ffffffffffffffffffffffffffffffffffffffff1614610934576040517f3811ecb400000000000000000000000000000000000000000000000000000000815260040160405180910390fd5b600360009054906101000a900473ffffffffffffffffffffffffffffffffffffffff1673ffffffffffffffffffffffffffffffffffffffff16630c9b91a885856040518363ffffffff1660e01b81526004016109919291906150ce565b600060405180830381600087803b1580156109ab57600080fd5b505af11580156109bf573d6000803e3d6000fd5b5050505050505050565b6109d1611294565b15610a11576040517f08c379a0000000000000000000000000000000000000000000000000000000008152600401610a08906151db565b60405180910390fd5b60026001541415610a57576040517f08c379a0000000000000000000000000000000000000000000000000000000008152600401610a4e9061525b565b60405180910390fd5b6002600181905550816000600360009054906101000a900473ffffffffffffffffffffffffffffffffffffffff1673ffffffffffffffffffffffffffffffffffffffff16633adc277a836040518263ffffffff1660e01b8152600401610abd91906150b3565b60006040518083038186803b158015610ad557600080fd5b505afa158015610ae9573d6000803e3d6000fd5b505050506040513d6000823e3d601f19601f82011682018060405250810190610b1291906146d2565b905080600001511580610b26575080602001515b80610b3b5750610b34612da1565b8160600151115b80610b605750610b49612da1565b81608001518260600151610b5d9190615508565b11155b15610b97576040517f729f015700000000000000000000000000000000000000000000000000000000815260040160405180910390fd5b6000600360009054906101000a900473ffffffffffffffffffffffffffffffffffffffff1673ffffffffffffffffffffffffffffffffffffffff16633adc277a866040518263ffffffff1660e01b8152600401610bf491906150b3565b60006040518083038186803b158015610c0c57600080fd5b505afa158015610c20573d6000803e3d6000fd5b505050506040513d6000823e3d601f19601f82011682018060405250810190610c4991906146d2565b905060008019168160a0015114610c8c576040517f4568b11c00000000000000000000000000000000000000000000000000000000815260040160405180910390fd5b600360009054906101000a900473ffffffffffffffffffffffffffffffffffffffff1673ffffffffffffffffffffffffffffffffffffffff16631d81019d30338888346040518663ffffffff1660e01b8152600401610cef959493929190614f7e565b600060405180830381600087803b158015610d0957600080fd5b505af1158015610d1d573d6000803e3d6000fd5b50505050505050600180819055505050565b6000838383604051602001610d4693929190614e9a565b6040516020818303038152906040528051906020012090509392505050565b610d6d611294565b15610dad576040517f08c379a0000000000000000000000000000000000000000000000000000000008152600401610da4906151db565b60405180910390fd5b60026001541415610df3576040517f08c379a0000000000000000000000000000000000000000000000000000000008152600401610dea9061525b565b60405180910390fd5b6002600181905550806000600360009054906101000a900473ffffffffffffffffffffffffffffffffffffffff1673ffffffffffffffffffffffffffffffffffffffff16633adc277a836040518263ffffffff1660e01b8152600401610e5991906150b3565b60006040518083038186803b158015610e7157600080fd5b505afa158015610e85573d6000803e3d6000fd5b505050506040513d6000823e3d601f19601f82011682018060405250810190610eae91906146d2565b9050610eb8612da1565b81608001518260600151610ecc9190615508565b10158015610ee257508060c001518160e0015114155b15610f19576040517f16553ad800000000000000000000000000000000000000000000000000000000815260040160405180910390fd5b600360009054906101000a900473ffffffffffffffffffffffffffffffffffffffff1673ffffffffffffffffffffffffffffffffffffffff16631172d77330600460009054906101000a900473ffffffffffffffffffffffffffffffffffffffff16866040518463ffffffff1660e01b8152600401610f9a93929190614f47565b600060405180830381600087803b158015610fb457600080fd5b505af1158015610fc8573d6000803e3d6000fd5b5050505050506001808190555050565b610fe0612da9565b73ffffffffffffffffffffffffffffffffffffffff16610ffe611a36565b73ffffffffffffffffffffffffffffffffffffffff1614611054576040517f08c379a000000000000000000000000000000000000000000000000000000000815260040161104b906151fb565b60405180910390fd5b620f424081106110a05780620f42406040517fc4ce64390000000000000000000000000000000000000000000000000000000081526004016110979291906152da565b60405180910390fd5b806005819055507fe7182f53622a6a079c8ce7fd586656e6e8e4a79e907bd54f19039ed4768824ef816040516110d691906152bf565b60405180910390a150565b816000600360009054906101000a900473ffffffffffffffffffffffffffffffffffffffff1673ffffffffffffffffffffffffffffffffffffffff16633adc277a836040518263ffffffff1660e01b815260040161113f91906150b3565b60006040518083038186803b15801561115757600080fd5b505afa15801561116b573d6000803e3d6000fd5b505050506040513d6000823e3d601f19601f8201168201806040525081019061119491906146d2565b9050806040015173ffffffffffffffffffffffffffffffffffffffff163373ffffffffffffffffffffffffffffffffffffffff16146111ff576040517f3811ecb400000000000000000000000000000000000000000000000000000000815260040160405180910390fd5b600360009054906101000a900473ffffffffffffffffffffffffffffffffffffffff1673ffffffffffffffffffffffffffffffffffffffff166339d0e28f85856040518363ffffffff1660e01b815260040161125c9291906150f7565b600060405180830381600087803b15801561127657600080fd5b505af115801561128a573d6000803e3d6000fd5b5050505050505050565b60008060149054906101000a900460ff16905090565b6112b2612da9565b73ffffffffffffffffffffffffffffffffffffffff166112d0611a36565b73ffffffffffffffffffffffffffffffffffffffff1614611326576040517f08c379a000000000000000000000000000000000000000000000000000000000815260040161131d906151fb565b60405180910390fd5b6113306000612db1565b565b60026001541415611378576040517f08c379a000000000000000000000000000000000000000000000000000000000815260040161136f9061525b565b60405180910390fd5b6002600181905550816000600360009054906101000a900473ffffffffffffffffffffffffffffffffffffffff1673ffffffffffffffffffffffffffffffffffffffff16633adc277a836040518263ffffffff1660e01b81526004016113de91906150b3565b60006040518083038186803b1580156113f657600080fd5b505afa15801561140a573d6000803e3d6000fd5b505050506040513d6000823e3d601f19601f8201168201806040525081019061143391906146d2565b9050806040015173ffffffffffffffffffffffffffffffffffffffff163373ffffffffffffffffffffffffffffffffffffffff161461149e576040517f3811ecb400000000000000000000000000000000000000000000000000000000815260040160405180910390fd5b600360009054906101000a900473ffffffffffffffffffffffffffffffffffffffff1673ffffffffffffffffffffffffffffffffffffffff16638215b88285856040518363ffffffff1660e01b81526004016114fb9291906150ce565b600060405180830381600087803b15801561151557600080fd5b505af1158015611529573d6000803e3d6000fd5b505050508273ffffffffffffffffffffffffffffffffffffffff16843373ffffffffffffffffffffffffffffffffffffffff167f1a3a8da1b8fd95dfec524d0586226a4e2c0bfc1b451eec177e17feb66ea1ce4d60405160405180910390a45050600180819055505050565b61159d611294565b156115dd576040517f08c379a00000000000000000000000000000000000000000000000000000000081526004016115d4906151db565b60405180910390fd5b60026001541415611623576040517f08c379a000000000000000000000000000000000000000000000000000000000815260040161161a9061525b565b60405180910390fd5b6002600181905550806000600360009054906101000a900473ffffffffffffffffffffffffffffffffffffffff1673ffffffffffffffffffffffffffffffffffffffff16633adc277a836040518263ffffffff1660e01b815260040161168991906150b3565b60006040518083038186803b1580156116a157600080fd5b505afa1580156116b5573d6000803e3d6000fd5b505050506040513d6000823e3d601f19601f820116820180604052508101906116de91906146d2565b90506116e8612da1565b816080015182606001516116fc9190615508565b10611733576040517f7a41948400000000000000000000000000000000000000000000000000000000815260040160405180910390fd5b600360009054906101000a900473ffffffffffffffffffffffffffffffffffffffff1673ffffffffffffffffffffffffffffffffffffffff16636e7019d130856040518363ffffffff1660e01b8152600401611790929190615008565b600060405180830381600087803b1580156117aa57600080fd5b505af11580156117be573d6000803e3d6000fd5b5050505050506001808190555050565b6117d6612da9565b73ffffffffffffffffffffffffffffffffffffffff166117f4611a36565b73ffffffffffffffffffffffffffffffffffffffff161461184a576040517f08c379a0000000000000000000000000000000000000000000000000000000008152600401611841906151fb565b60405180910390fd5b600073ffffffffffffffffffffffffffffffffffffffff168173ffffffffffffffffffffffffffffffffffffffff1614156118b1576040517fdae3f98f00000000000000000000000000000000000000000000000000000000815260040160405180910390fd5b80600260006101000a81548173ffffffffffffffffffffffffffffffffffffffff021916908373ffffffffffffffffffffffffffffffffffffffff1602179055508073ffffffffffffffffffffffffffffffffffffffff163373ffffffffffffffffffffffffffffffffffffffff167f498ca7b9e8f8e4c2f37dbb4a8dea2129800564d80cc820794a93f1aa214354d360405160405180910390a350565b611957612da9565b73ffffffffffffffffffffffffffffffffffffffff16611975611a36565b73ffffffffffffffffffffffffffffffffffffffff16146119cb576040517f08c379a00000000000000000000000000000000000000000000000000000000081526004016119c2906151fb565b60405180910390fd5b6119d3612da1565b7f00000000000000000000000000000000000000000000000000000000000000001015611a2c576040517f6396554f00000000000000000000000000000000000000000000000000000000815260040160405180910390fd5b611a34612e75565b565b60008060009054906101000a900473ffffffffffffffffffffffffffffffffffffffff16905090565b611a67611294565b15611aa7576040517f08c379a0000000000000000000000000000000000000000000000000000000008152600401611a9e906151db565b60405180910390fd5b60026001541415611aed576040517f08c379a0000000000000000000000000000000000000000000000000000000008152600401611ae49061525b565b60405180910390fd5b6002600181905550806000600360009054906101000a900473ffffffffffffffffffffffffffffffffffffffff1673ffffffffffffffffffffffffffffffffffffffff16633adc277a836040518263ffffffff1660e01b8152600401611b5391906150b3565b60006040518083038186803b158015611b6b57600080fd5b505afa158015611b7f573d6000803e3d6000fd5b505050506040513d6000823e3d601f19601f82011682018060405250810190611ba891906146d2565b9050611bb2612da1565b81608001518260600151611bc69190615508565b10158015611bdc57508060c001518160e0015114155b15611c13576040517f16553ad800000000000000000000000000000000000000000000000000000000815260040160405180910390fd5b600360009054906101000a900473ffffffffffffffffffffffffffffffffffffffff1673ffffffffffffffffffffffffffffffffffffffff1663af9806cb30856040518363ffffffff1660e01b8152600401611c70929190615008565b600060405180830381600087803b158015611c8a57600080fd5b505af1158015611c9e573d6000803e3d6000fd5b5050505050506001808190555050565b806000600360009054906101000a900473ffffffffffffffffffffffffffffffffffffffff1673ffffffffffffffffffffffffffffffffffffffff16633adc277a836040518263ffffffff1660e01b8152600401611d0c91906150b3565b60006040518083038186803b158015611d2457600080fd5b505afa158015611d38573d6000803e3d6000fd5b505050506040513d6000823e3d601f19601f82011682018060405250810190611d6191906146d2565b9050806040015173ffffffffffffffffffffffffffffffffffffffff163373ffffffffffffffffffffffffffffffffffffffff1614611dcc576040517f3811ecb400000000000000000000000000000000000000000000000000000000815260040160405180910390fd5b826000600360009054906101000a900473ffffffffffffffffffffffffffffffffffffffff1673ffffffffffffffffffffffffffffffffffffffff16633adc277a836040518263ffffffff1660e01b8152600401611e2a91906150b3565b60006040518083038186803b158015611e4257600080fd5b505afa158015611e56573d6000803e3d6000fd5b505050506040513d6000823e3d601f19601f82011682018060405250810190611e7f91906146d2565b905080600001511580611e93575080602001515b15611eca576040517fc9693df700000000000000000000000000000000000000000000000000000000815260040160405180910390fd5b611ed2611294565b15611f12576040517f08c379a0000000000000000000000000000000000000000000000000000000008152600401611f09906151db565b60405180910390fd5b600360009054906101000a900473ffffffffffffffffffffffffffffffffffffffff1673ffffffffffffffffffffffffffffffffffffffff1663b75c7dc6866040518263ffffffff1660e01b8152600401611f6d91906150b3565b600060405180830381600087803b158015611f8757600080fd5b505af1158015611f9b573d6000803e3d6000fd5b505050505050505050565b611fae611294565b15611fee576040517f08c379a0000000000000000000000000000000000000000000000000000000008152600401611fe5906151db565b60405180910390fd5b60026001541415612034576040517f08c379a000000000000000000000000000000000000000000000000000000000815260040161202b9061525b565b60405180910390fd5b6002600181905550806000600360009054906101000a900473ffffffffffffffffffffffffffffffffffffffff1673ffffffffffffffffffffffffffffffffffffffff16633adc277a836040518263ffffffff1660e01b815260040161209a91906150b3565b60006040518083038186803b1580156120b257600080fd5b505afa1580156120c6573d6000803e3d6000fd5b505050506040513d6000823e3d601f19601f820116820180604052508101906120ef91906146d2565b90506120f9612da1565b8160800151826060015161210d9190615508565b1015801561212357508060c001518160e0015114155b1561215a576040517f16553ad800000000000000000000000000000000000000000000000000000000815260040160405180910390fd5b600360009054906101000a900473ffffffffffffffffffffffffffffffffffffffff1673ffffffffffffffffffffffffffffffffffffffff1663c8622c2430856040518363ffffffff1660e01b81526004016121b7929190615008565b600060405180830381600087803b1580156121d157600080fd5b505af11580156121e5573d6000803e3d6000fd5b5050505050506001808190555050565b600360009054906101000a900473ffffffffffffffffffffffffffffffffffffffff1673ffffffffffffffffffffffffffffffffffffffff163373ffffffffffffffffffffffffffffffffffffffff161461227c576040517fd4689e3e00000000000000000000000000000000000000000000000000000000815260040160405180910390fd5b600073ffffffffffffffffffffffffffffffffffffffff168273ffffffffffffffffffffffffffffffffffffffff1614156122e3576040517fdae3f98f00000000000000000000000000000000000000000000000000000000815260040160405180910390fd5b600060018111156122f7576122f6615748565b5b85600181111561230a57612309615748565b5b14156123b95760008273ffffffffffffffffffffffffffffffffffffffff168260405161233690614eee565b60006040518083038185875af1925050503d8060008114612373576040519150601f19603f3d011682016040523d82523d6000602084013e612378565b606091505b50509050806123b3576040517f4fed01d600000000000000000000000000000000000000000000000000000000815260040160405180910390fd5b506123ed565b60008490506123eb8484848473ffffffffffffffffffffffffffffffffffffffff16612f18909392919063ffffffff16565b505b5050505050565b6123fc612da9565b73ffffffffffffffffffffffffffffffffffffffff1661241a611a36565b73ffffffffffffffffffffffffffffffffffffffff1614612470576040517f08c379a0000000000000000000000000000000000000000000000000000000008152600401612467906151fb565b60405180910390fd5b600073ffffffffffffffffffffffffffffffffffffffff168173ffffffffffffffffffffffffffffffffffffffff1614156124d7576040517fdae3f98f00000000000000000000000000000000000000000000000000000000815260040160405180910390fd5b80600460006101000a81548173ffffffffffffffffffffffffffffffffffffffff021916908373ffffffffffffffffffffffffffffffffffffffff1602179055508073ffffffffffffffffffffffffffffffffffffffff163373ffffffffffffffffffffffffffffffffffffffff167f92baa2c8b1b2bb52209462231f74c5b73540ece9f023368c56272d877351ceeb60405160405180910390a350565b61257d612da9565b73ffffffffffffffffffffffffffffffffffffffff1661259b611a36565b73ffffffffffffffffffffffffffffffffffffffff16146125f1576040517f08c379a00000000000000000000000000000000000000000000000000000000081526004016125e8906151fb565b60405180910390fd5b600073ffffffffffffffffffffffffffffffffffffffff168173ffffffffffffffffffffffffffffffffffffffff161415612658576040517fdae3f98f00000000000000000000000000000000000000000000000000000000815260040160405180910390fd5b80600360006101000a81548173ffffffffffffffffffffffffffffffffffffffff021916908373ffffffffffffffffffffffffffffffffffffffff1602179055508073ffffffffffffffffffffffffffffffffffffffff163373ffffffffffffffffffffffffffffffffffffffff167f158c38d986c668cc9bc5ddbd3cfe5168008bdf4a8ab2f813855f8edae60ee64660405160405180910390a350565b6126fe612da9565b73ffffffffffffffffffffffffffffffffffffffff1661271c611a36565b73ffffffffffffffffffffffffffffffffffffffff1614612772576040517f08c379a0000000000000000000000000000000000000000000000000000000008152600401612769906151fb565b60405180910390fd5b600073ffffffffffffffffffffffffffffffffffffffff168273ffffffffffffffffffffffffffffffffffffffff1614156127d9576040517fdae3f98f00000000000000000000000000000000000000000000000000000000815260040160405180910390fd5b80600660008473ffffffffffffffffffffffffffffffffffffffff1673ffffffffffffffffffffffffffffffffffffffff16815260200190815260200160002060006101000a81548160ff0219169083151502179055508173ffffffffffffffffffffffffffffffffffffffff163373ffffffffffffffffffffffffffffffffffffffff167fb1e1107fa60e4c971a024ca8254246a18e31afa3f950e360da5f608e145c36b18360405161288d9190615098565b60405180910390a35050565b6000816000600360009054906101000a900473ffffffffffffffffffffffffffffffffffffffff1673ffffffffffffffffffffffffffffffffffffffff16633adc277a836040518263ffffffff1660e01b81526004016128f991906150b3565b60006040518083038186803b15801561291157600080fd5b505afa158015612925573d6000803e3d6000fd5b505050506040513d6000823e3d601f19601f8201168201806040525081019061294e91906146d2565b905080600001511580612962575080602001515b15612999576040517fc9693df700000000000000000000000000000000000000000000000000000000815260040160405180910390fd5b600360009054906101000a900473ffffffffffffffffffffffffffffffffffffffff1673ffffffffffffffffffffffffffffffffffffffff1663e0409943856040518263ffffffff1660e01b81526004016129f491906150b3565b60206040518083038186803b158015612a0c57600080fd5b505afa158015612a20573d6000803e3d6000fd5b505050506040513d601f19601f82011682018060405250810190612a449190614748565b92505050919050565b60026001541415612a93576040517f08c379a0000000000000000000000000000000000000000000000000000000008152600401612a8a9061525b565b60405180910390fd5b6002600181905550612aa3611294565b15612ae3576040517f08c379a0000000000000000000000000000000000000000000000000000000008152600401612ada906151db565b60405180910390fd5b6000825190506001811015612b24576040517fba1d8ef700000000000000000000000000000000000000000000000000000000815260040160405180910390fd5b60006040518060600160405280600080191681526020018367ffffffffffffffff811115612b5557612b546157a6565b5b604051908082528060200260200182016040528015612b835781602001602082028036833780820191505090505b50815260200184815250905060005b82811015612c0e576000612bc0868381518110612bb257612bb1615777565b5b602002602001015183612fa1565b90506000821415612bd657808360000181815250505b8083602001518381518110612bee57612bed615777565b5b602002602001018181525050508080612c06906156a2565b915050612b92565b50600360009054906101000a900473ffffffffffffffffffffffffffffffffffffffff1673ffffffffffffffffffffffffffffffffffffffff16631c9784f9826040518263ffffffff1660e01b8152600401612c6a919061527b565b600060405180830381600087803b158015612c8457600080fd5b505af1158015612c98573d6000803e3d6000fd5b505050505050600180819055505050565b612cb1612da9565b73ffffffffffffffffffffffffffffffffffffffff16612ccf611a36565b73ffffffffffffffffffffffffffffffffffffffff1614612d25576040517f08c379a0000000000000000000000000000000000000000000000000000000008152600401612d1c906151fb565b60405180910390fd5b600073ffffffffffffffffffffffffffffffffffffffff168173ffffffffffffffffffffffffffffffffffffffff161415612d95576040517f08c379a0000000000000000000000000000000000000000000000000000000008152600401612d8c9061519b565b60405180910390fd5b612d9e81612db1565b50565b600042905090565b600033905090565b60008060009054906101000a900473ffffffffffffffffffffffffffffffffffffffff169050816000806101000a81548173ffffffffffffffffffffffffffffffffffffffff021916908373ffffffffffffffffffffffffffffffffffffffff1602179055508173ffffffffffffffffffffffffffffffffffffffff168173ffffffffffffffffffffffffffffffffffffffff167f8be0079c531659141344cd1fd0a4f28419497f9722a3daafe3b4186f6b6457e060405160405180910390a35050565b612e7d611294565b15612ebd576040517f08c379a0000000000000000000000000000000000000000000000000000000008152600401612eb4906151db565b60405180910390fd5b6001600060146101000a81548160ff0219169083151502179055507f62e78cea01bee320cd4e420270b5ea74000d11b0c9f74754ebdbfc544b05a258612f01612da9565b604051612f0e9190614f03565b60405180910390a1565b612f9b846323b872dd60e01b858585604051602401612f3993929190614fd1565b604051602081830303815290604052907bffffffffffffffffffffffffffffffffffffffffffffffffffffffff19166020820180517bffffffffffffffffffffffffffffffffffffffffffffffffffffffff83818316178352505050506136b5565b50505050565b6000600360009054906101000a900473ffffffffffffffffffffffffffffffffffffffff1673ffffffffffffffffffffffffffffffffffffffff1663fe947f3c846040518263ffffffff1660e01b8152600401612ffe919061529d565b60006040518083038186803b15801561301657600080fd5b505afa15801561302a573d6000803e3d6000fd5b50505050600554836101000151108061304a5750620f4240836101000151115b8061306c5750620f424083610140015184610100015161306a9190615508565b115b156130b557600554620f42406040517fc4ce64390000000000000000000000000000000000000000000000000000000081526004016130ac9291906152da565b60405180910390fd5b6001808111156130c8576130c7615748565b5b8360e001516020015160018111156130e3576130e2615748565b5b1480156131425750600660008460e001516000015173ffffffffffffffffffffffffffffffffffffffff1673ffffffffffffffffffffffffffffffffffffffff16815260200190815260200160002060009054906101000a900460ff16155b15613179576040517f1f313be500000000000000000000000000000000000000000000000000000000815260040160405180910390fd5b60005b836080015151811015613294576000846080015182815181106131a2576131a1615777565b5b60200260200101519050613226600360009054906101000a900473ffffffffffffffffffffffffffffffffffffffff1686606001518760a0015185815181106131ee576131ed615777565b5b6020026020010151613200919061555e565b8373ffffffffffffffffffffffffffffffffffffffff1661377c9092919063ffffffff16565b613280333087606001518860a00151868151811061324757613246615777565b5b6020026020010151613259919061555e565b8473ffffffffffffffffffffffffffffffffffffffff16612f18909392919063ffffffff16565b50808061328c906156a2565b91505061317c565b506001808111156132a8576132a7615748565b5b8360e001516020015160018111156132c3576132c2615748565b5b14156133165760008360e001516000015190506133143085606001518660c001516132ee919061555e565b8373ffffffffffffffffffffffffffffffffffffffff1661377c9092919063ffffffff16565b505b6000604051806101c001604052806001151581526020016000151581526020013373ffffffffffffffffffffffffffffffffffffffff1681526020018560000151815260200185602001518152602001856040015181526020018560600151815260200160008152602001856080015181526020018560a0015181526020018560e0015181526020018560c0015181526020018561010001518152602001856101600151815250905060006133cb338561389d565b9050600360009054906101000a900473ffffffffffffffffffffffffffffffffffffffff1673ffffffffffffffffffffffffffffffffffffffff1663433f4c2b82846040518363ffffffff1660e01b815260040161342a929190615120565b600060405180830381600087803b15801561344457600080fd5b505af1158015613458573d6000803e3d6000fd5b50505050600073ffffffffffffffffffffffffffffffffffffffff1685610120015173ffffffffffffffffffffffffffffffffffffffff16146135c957600360009054906101000a900473ffffffffffffffffffffffffffffffffffffffff1673ffffffffffffffffffffffffffffffffffffffff16638d0ba65c82604051806040016040528089610120015173ffffffffffffffffffffffffffffffffffffffff1681526020018961014001518152506040518363ffffffff1660e01b8152600401613526929190615150565b600060405180830381600087803b15801561354057600080fd5b505af1158015613554573d6000803e3d6000fd5b5050505084610120015173ffffffffffffffffffffffffffffffffffffffff16813373ffffffffffffffffffffffffffffffffffffffff167f19589ccbdb0271dc4fbbd9f49082601f0d1ff3b8e7087c1026a8428411448e1c8861014001516040516135c091906152bf565b60405180910390a45b803373ffffffffffffffffffffffffffffffffffffffff167f078433ece835af411dea2934e9a4a3478be367902b1a036902693b0a0e9ce01860405160405180910390a360005b8560800151518110156136a9578560800151818151811061363457613633615777565b5b602002602001015173ffffffffffffffffffffffffffffffffffffffff16823373ffffffffffffffffffffffffffffffffffffffff167fa6a45dd8f88187786a5d483f7f2a4b4a6f3a2623c142e29b04ad351fe7fa159060405160405180910390a480806136a1906156a2565b915050613610565b50809250505092915050565b6000613717826040518060400160405280602081526020017f5361666545524332303a206c6f772d6c6576656c2063616c6c206661696c65648152508573ffffffffffffffffffffffffffffffffffffffff1661395c9092919063ffffffff16565b9050600081511115613777578080602001905181019061373791906144ce565b613776576040517f08c379a000000000000000000000000000000000000000000000000000000000815260040161376d9061523b565b60405180910390fd5b5b505050565b6000818473ffffffffffffffffffffffffffffffffffffffff1663dd62ed3e30866040518363ffffffff1660e01b81526004016137ba929190614f1e565b60206040518083038186803b1580156137d257600080fd5b505afa1580156137e6573d6000803e3d6000fd5b505050506040513d601f19601f8201168201806040525081019061380a9190614748565b6138149190615508565b90506138978463095ea7b360e01b858460405160240161383592919061506f565b604051602081830303815290604052907bffffffffffffffffffffffffffffffffffffffffffffffffffffffff19166020820180517bffffffffffffffffffffffffffffffffffffffffffffffffffffffff83818316178352505050506136b5565b50505050565b60006139548383600360009054906101000a900473ffffffffffffffffffffffffffffffffffffffff1673ffffffffffffffffffffffffffffffffffffffff16633923c75a876040518263ffffffff1660e01b81526004016138ff9190614f03565b60206040518083038186803b15801561391757600080fd5b505afa15801561392b573d6000803e3d6000fd5b505050506040513d601f19601f8201168201806040525081019061394f9190614748565b610d2f565b905092915050565b606061396b8484600085613974565b90509392505050565b6060824710156139b9576040517f08c379a00000000000000000000000000000000000000000000000000000000081526004016139b0906151bb565b60405180910390fd5b6139c285613a88565b613a01576040517f08c379a00000000000000000000000000000000000000000000000000000000081526004016139f89061521b565b60405180910390fd5b6000808673ffffffffffffffffffffffffffffffffffffffff168587604051613a2a9190614ed7565b60006040518083038185875af1925050503d8060008114613a67576040519150601f19603f3d011682016040523d82523d6000602084013e613a6c565b606091505b5091509150613a7c828286613a9b565b92505050949350505050565b600080823b905060008111915050919050565b60608315613aab57829050613afb565b600083511115613abe5782518084602001fd5b816040517f08c379a0000000000000000000000000000000000000000000000000000000008152600401613af29190615179565b60405180910390fd5b9392505050565b6000613b15613b1084615328565b615303565b90508083825260208201905082856020860282011115613b3857613b376157e4565b5b60005b85811015613b685781613b4e8882613e02565b845260208401935060208301925050600181019050613b3b565b5050509392505050565b6000613b85613b8084615328565b615303565b90508083825260208201905082856020860282011115613ba857613ba76157e4565b5b60005b85811015613bd85781613bbe8882613e17565b845260208401935060208301925050600181019050613bab565b5050509392505050565b6000613bf5613bf084615354565b615303565b90508083825260208201905082856020860282011115613c1857613c176157e4565b5b60005b85811015613c485781613c2e8882613f6a565b845260208401935060208301925050600181019050613c1b565b5050509392505050565b6000613c65613c6084615380565b615303565b90508083825260208201905082856020860282011115613c8857613c876157e4565b5b60005b85811015613cd657813567ffffffffffffffff811115613cae57613cad6157d5565b5b808601613cbb898261408c565b85526020850194506020840193505050600181019050613c8b565b5050509392505050565b6000613cf3613cee846153ac565b615303565b90508083825260208201905082856020860282011115613d1657613d156157e4565b5b60005b85811015613d465781613d2c888261436c565b845260208401935060208301925050600181019050613d19565b5050509392505050565b6000613d63613d5e846153ac565b615303565b90508083825260208201905082856020860282011115613d8657613d856157e4565b5b60005b85811015613db65781613d9c8882614381565b845260208401935060208301925050600181019050613d89565b5050509392505050565b6000613dd3613dce846153d8565b615303565b905082815260208101848484011115613def57613dee6157e9565b5b613dfa84828561562f565b509392505050565b600081359050613e11816159be565b92915050565b600081519050613e26816159be565b92915050565b600082601f830112613e4157613e406157d5565b5b8135613e51848260208601613b02565b91505092915050565b600082601f830112613e6f57613e6e6157d5565b5b8151613e7f848260208601613b72565b91505092915050565b600082601f830112613e9d57613e9c6157d5565b5b8135613ead848260208601613be2565b91505092915050565b600082601f830112613ecb57613eca6157d5565b5b8135613edb848260208601613c52565b91505092915050565b600082601f830112613ef957613ef86157d5565b5b8135613f09848260208601613ce0565b91505092915050565b600082601f830112613f2757613f266157d5565b5b8151613f37848260208601613d50565b91505092915050565b600081359050613f4f816159d5565b92915050565b600081519050613f64816159d5565b92915050565b600081359050613f79816159ec565b92915050565b600081519050613f8e816159ec565b92915050565b600081359050613fa381615a03565b92915050565b600081519050613fb881615a03565b92915050565b600082601f830112613fd357613fd26157d5565b5b8135613fe3848260208601613dc0565b91505092915050565b600060408284031215614002576140016157da565b5b61400c6040615303565b9050600061401c84828501613e02565b600083015250602061403084828501613f94565b60208301525092915050565b600060408284031215614052576140516157da565b5b61405c6040615303565b9050600061406c84828501613e17565b600083015250602061408084828501613fa9565b60208301525092915050565b60006101a082840312156140a3576140a26157da565b5b6140ae610180615303565b905060006140be8482850161436c565b60008301525060206140d28482850161436c565b60208301525060406140e684828501613f6a565b60408301525060606140fa8482850161436c565b606083015250608082013567ffffffffffffffff81111561411e5761411d6157df565b5b61412a84828501613e2c565b60808301525060a082013567ffffffffffffffff81111561414e5761414d6157df565b5b61415a84828501613ee4565b60a08301525060c061416e8482850161436c565b60c08301525060e061418284828501613fec565b60e0830152506101206141978482850161436c565b610100830152506101406141ad84828501613e02565b610120830152506101606141c38482850161436c565b610140830152506101806141d98482850161436c565b6101608301525092915050565b60006101e082840312156141fd576141fc6157da565b5b6142086101c0615303565b9050600061421884828501613f55565b600083015250602061422c84828501613f55565b602083015250604061424084828501613e17565b604083015250606061425484828501614381565b606083015250608061426884828501614381565b60808301525060a061427c84828501613f7f565b60a08301525060c061429084828501614381565b60c08301525060e06142a484828501614381565b60e08301525061010082015167ffffffffffffffff8111156142c9576142c86157df565b5b6142d584828501613e5a565b6101008301525061012082015167ffffffffffffffff8111156142fb576142fa6157df565b5b61430784828501613f12565b6101208301525061014061431d8482850161403c565b6101408301525061018061433384828501614381565b610160830152506101a061434984828501614381565b610180830152506101c061435f84828501614381565b6101a08301525092915050565b60008135905061437b81615a13565b92915050565b60008151905061439081615a13565b92915050565b6000602082840312156143ac576143ab6157f3565b5b60006143ba84828501613e02565b91505092915050565b600080604083850312156143da576143d96157f3565b5b60006143e885828601613e02565b92505060206143f985828601613f40565b9150509250929050565b60008060006060848603121561441c5761441b6157f3565b5b600061442a86828701613e02565b935050602061443b8682870161436c565b925050604061444c8682870161436c565b9150509250925092565b6000806040838503121561446d5761446c6157f3565b5b600083013567ffffffffffffffff81111561448b5761448a6157ee565b5b61449785828601613eb6565b925050602083013567ffffffffffffffff8111156144b8576144b76157ee565b5b6144c485828601613fbe565b9150509250929050565b6000602082840312156144e4576144e36157f3565b5b60006144f284828501613f55565b91505092915050565b600060208284031215614511576145106157f3565b5b600061451f84828501613f6a565b91505092915050565b6000806040838503121561453f5761453e6157f3565b5b600061454d85828601613f6a565b925050602061455e85828601613e02565b9150509250929050565b6000806040838503121561457f5761457e6157f3565b5b600061458d85828601613f6a565b925050602061459e85828601613f6a565b9150509250929050565b600080604083850312156145bf576145be6157f3565b5b60006145cd85828601613f6a565b92505060206145de8582860161436c565b9150509250929050565b600080600060608486031215614601576146006157f3565b5b600061460f86828701613f6a565b93505060206146208682870161436c565b925050604084013567ffffffffffffffff811115614641576146406157ee565b5b61464d86828701613e88565b9150509250925092565b600080600080600060a08688031215614673576146726157f3565b5b600061468188828901613f94565b955050602061469288828901613e02565b94505060406146a388828901613e02565b93505060606146b488828901613e02565b92505060806146c58882890161436c565b9150509295509295909350565b6000602082840312156146e8576146e76157f3565b5b600082015167ffffffffffffffff811115614706576147056157ee565b5b614712848285016141e6565b91505092915050565b600060208284031215614731576147306157f3565b5b600061473f8482850161436c565b91505092915050565b60006020828403121561475e5761475d6157f3565b5b600061476c84828501614381565b91505092915050565b600061478183836147bd565b60208301905092915050565b60006147998383614988565b60208301905092915050565b60006147b18383614e65565b60208301905092915050565b6147c6816155b8565b82525050565b6147d5816155b8565b82525050565b6147ec6147e7826155b8565b6156eb565b82525050565b60006147fd82615439565b6148078185615497565b935061481283615409565b8060005b8381101561484357815161482a8882614775565b975061483583615470565b925050600181019050614816565b5085935050505092915050565b600061485b82615444565b61486581856154a8565b935061487083615419565b8060005b838110156148a1578151614888888261478d565b97506148938361547d565b925050600181019050614874565b5085935050505092915050565b60006148b982615444565b6148c381856154b9565b93506148ce83615419565b8060005b838110156148ff5781516148e6888261478d565b97506148f18361547d565b9250506001810190506148d2565b5085935050505092915050565b60006149178261544f565b61492181856154ca565b935061492c83615429565b8060005b8381101561495d57815161494488826147a5565b975061494f8361548a565b925050600181019050614930565b5085935050505092915050565b614973816155ca565b82525050565b614982816155ca565b82525050565b614991816155d6565b82525050565b6149a0816155d6565b82525050565b60006149b18261545a565b6149bb81856154db565b93506149cb81856020860161563e565b80840191505092915050565b6149e08161561d565b82525050565b60006149f182615465565b6149fb81856154e6565b9350614a0b81856020860161563e565b614a14816157f8565b840191505092915050565b6000614a2a82615465565b614a3481856154f7565b9350614a4481856020860161563e565b614a4d816157f8565b840191505092915050565b6000614a656026836154f7565b9150614a7082615816565b604082019050919050565b6000614a886026836154f7565b9150614a9382615865565b604082019050919050565b6000614aab6010836154f7565b9150614ab6826158b4565b602082019050919050565b6000614ace6020836154f7565b9150614ad9826158dd565b602082019050919050565b6000614af16000836154db565b9150614afc82615906565b600082019050919050565b6000614b14601d836154f7565b9150614b1f82615909565b602082019050919050565b6000614b37602a836154f7565b9150614b4282615932565b604082019050919050565b6000614b5a601f836154f7565b9150614b6582615981565b602082019050919050565b604082016000820151614b8660008501826147bd565b506020820151614b9960208501826149d7565b50505050565b6000606083016000830151614bb76000860182614988565b5060208301518482036020860152614bcf8282614850565b91505060408301518482036040860152614be982826149e6565b9150508091505092915050565b60006101a083016000830151614c0f6000860182614e65565b506020830151614c226020860182614e65565b506040830151614c356040860182614988565b506060830151614c486060860182614e65565b5060808301518482036080860152614c6082826147f2565b91505060a083015184820360a0860152614c7a828261490c565b91505060c0830151614c8f60c0860182614e65565b5060e0830151614ca260e0860182614b70565b50610100830151614cb7610120860182614e65565b50610120830151614ccc6101408601826147bd565b50610140830151614ce1610160860182614e65565b50610160830151614cf6610180860182614e65565b508091505092915050565b60006101e083016000830151614d1a600086018261496a565b506020830151614d2d602086018261496a565b506040830151614d4060408601826147bd565b506060830151614d536060860182614e65565b506080830151614d666080860182614e65565b5060a0830151614d7960a0860182614988565b5060c0830151614d8c60c0860182614e65565b5060e0830151614d9f60e0860182614e65565b50610100830151848203610100860152614db982826147f2565b915050610120830151848203610120860152614dd5828261490c565b915050610140830151614dec610140860182614b70565b50610160830151614e01610180860182614e65565b50610180830151614e166101a0860182614e65565b506101a0830151614e2b6101c0860182614e65565b508091505092915050565b604082016000820151614e4c60008501826147bd565b506020820151614e5f6020850182614e65565b50505050565b614e6e81615613565b82525050565b614e7d81615613565b82525050565b614e94614e8f82615613565b61570f565b82525050565b6000614ea682866147db565b601482019150614eb68285614e83565b602082019150614ec68284614e83565b602082019150819050949350505050565b6000614ee382846149a6565b915081905092915050565b6000614ef982614ae4565b9150819050919050565b6000602082019050614f1860008301846147cc565b92915050565b6000604082019050614f3360008301856147cc565b614f4060208301846147cc565b9392505050565b6000606082019050614f5c60008301866147cc565b614f6960208301856147cc565b614f766040830184614997565b949350505050565b600060a082019050614f9360008301886147cc565b614fa060208301876147cc565b614fad6040830186614997565b614fba6060830185614e74565b614fc76080830184614e74565b9695505050505050565b6000606082019050614fe660008301866147cc565b614ff360208301856147cc565b6150006040830184614e74565b949350505050565b600060408201905061501d60008301856147cc565b61502a6020830184614997565b9392505050565b600060608201905061504660008301866147cc565b6150536020830185614997565b818103604083015261506581846148ae565b9050949350505050565b600060408201905061508460008301856147cc565b6150916020830184614e74565b9392505050565b60006020820190506150ad6000830184614979565b92915050565b60006020820190506150c86000830184614997565b92915050565b60006040820190506150e36000830185614997565b6150f060208301846147cc565b9392505050565b600060408201905061510c6000830185614997565b6151196020830184614997565b9392505050565b60006040820190506151356000830185614997565b81810360208301526151478184614d01565b90509392505050565b60006060820190506151656000830185614997565b6151726020830184614e36565b9392505050565b600060208201905081810360008301526151938184614a1f565b905092915050565b600060208201905081810360008301526151b481614a58565b9050919050565b600060208201905081810360008301526151d481614a7b565b9050919050565b600060208201905081810360008301526151f481614a9e565b9050919050565b6000602082019050818103600083015261521481614ac1565b9050919050565b6000602082019050818103600083015261523481614b07565b9050919050565b6000602082019050818103600083015261525481614b2a565b9050919050565b6000602082019050818103600083015261527481614b4d565b9050919050565b600060208201905081810360008301526152958184614b9f565b905092915050565b600060208201905081810360008301526152b78184614bf6565b905092915050565b60006020820190506152d46000830184614e74565b92915050565b60006040820190506152ef6000830185614e74565b6152fc6020830184614e74565b9392505050565b600061530d61531e565b90506153198282615671565b919050565b6000604051905090565b600067ffffffffffffffff821115615343576153426157a6565b5b602082029050602081019050919050565b600067ffffffffffffffff82111561536f5761536e6157a6565b5b602082029050602081019050919050565b600067ffffffffffffffff82111561539b5761539a6157a6565b5b602082029050602081019050919050565b600067ffffffffffffffff8211156153c7576153c66157a6565b5b602082029050602081019050919050565b600067ffffffffffffffff8211156153f3576153f26157a6565b5b6153fc826157f8565b9050602081019050919050565b6000819050602082019050919050565b6000819050602082019050919050565b6000819050602082019050919050565b600081519050919050565b600081519050919050565b600081519050919050565b600081519050919050565b600081519050919050565b6000602082019050919050565b6000602082019050919050565b6000602082019050919050565b600082825260208201905092915050565b600082825260208201905092915050565b600082825260208201905092915050565b600082825260208201905092915050565b600081905092915050565b600082825260208201905092915050565b600082825260208201905092915050565b600061551382615613565b915061551e83615613565b9250827fffffffffffffffffffffffffffffffffffffffffffffffffffffffffffffffff0382111561555357615552615719565b5b828201905092915050565b600061556982615613565b915061557483615613565b9250817fffffffffffffffffffffffffffffffffffffffffffffffffffffffffffffffff04831182151516156155ad576155ac615719565b5b828202905092915050565b60006155c3826155f3565b9050919050565b60008115159050919050565b6000819050919050565b60008190506155ee826159aa565b919050565b600073ffffffffffffffffffffffffffffffffffffffff82169050919050565b6000819050919050565b6000615628826155e0565b9050919050565b82818337600083830152505050565b60005b8381101561565c578082015181840152602081019050615641565b8381111561566b576000848401525b50505050565b61567a826157f8565b810181811067ffffffffffffffff82111715615699576156986157a6565b5b80604052505050565b60006156ad82615613565b91507fffffffffffffffffffffffffffffffffffffffffffffffffffffffffffffffff8214156156e0576156df615719565b5b600182019050919050565b60006156f6826156fd565b9050919050565b600061570882615809565b9050919050565b6000819050919050565b7f4e487b7100000000000000000000000000000000000000000000000000000000600052601160045260246000fd5b7f4e487b7100000000000000000000000000000000000000000000000000000000600052602160045260246000fd5b7f4e487b7100000000000000000000000000000000000000000000000000000000600052603260045260246000fd5b7f4e487b7100000000000000000000000000000000000000000000000000000000600052604160045260246000fd5b600080fd5b600080fd5b600080fd5b600080fd5b600080fd5b600080fd5b600080fd5b6000601f19601f8301169050919050565b60008160601b9050919050565b7f4f776e61626c653a206e6577206f776e657220697320746865207a65726f206160008201527f6464726573730000000000000000000000000000000000000000000000000000602082015250565b7f416464726573733a20696e73756666696369656e742062616c616e636520666f60008201527f722063616c6c0000000000000000000000000000000000000000000000000000602082015250565b7f5061757361626c653a2070617573656400000000000000000000000000000000600082015250565b7f4f776e61626c653a2063616c6c6572206973206e6f7420746865206f776e6572600082015250565b50565b7f416464726573733a2063616c6c20746f206e6f6e2d636f6e7472616374000000600082015250565b7f5361666545524332303a204552433230206f7065726174696f6e20646964206e60008201527f6f74207375636365656400000000000000000000000000000000000000000000602082015250565b7f5265656e7472616e637947756172643a207265656e7472616e742063616c6c00600082015250565b600281106159bb576159ba615748565b5b50565b6159c7816155b8565b81146159d257600080fd5b50565b6159de816155ca565b81146159e957600080fd5b50565b6159f5816155d6565b8114615a0057600080fd5b50565b60028110615a1057600080fd5b50565b615a1c81615613565b8114615a2757600080fd5b5056fea264697066735822122004eea3de98c4a45967b43bb87ffd2501b34a4a158c1bcca9e9e1497ced5825a464736f6c63430008070033",
  "linkReferences": {},
  "deployedLinkReferences": {}
}