{
  "_format": "hh-sol-artifact-1",
  "contractName": "MembershipsView",
  "sourceName": "contracts/MembershipsView.sol",
  "abi": [
    {
      "inputs": [
        {
          "internalType": "address",
          "name": "eternalStorage",
          "type": "address"
        }
      ],
      "stateMutability": "nonpayable",
      "type": "constructor"
    },
    {
      "inputs": [
        {
          "internalType": "bytes32",
          "name": "scheduleId",
          "type": "bytes32"
        },
        {
          "internalType": "address",
          "name": "addr",
          "type": "address"
        }
      ],
      "name": "getBuyPerWallet",
      "outputs": [
        {
          "internalType": "uint256",
          "name": "",
          "type": "uint256"
        }
      ],
      "stateMutability": "view",
      "type": "function"
    },
    {
      "inputs": [
        {
          "internalType": "bytes32",
          "name": "record",
          "type": "bytes32"
        }
      ],
      "name": "getBuyWalletCount",
      "outputs": [
        {
          "internalType": "uint256",
          "name": "",
          "type": "uint256"
        }
      ],
      "stateMutability": "view",
      "type": "function"
    },
    {
      "inputs": [
        {
          "internalType": "uint256",
          "name": "index",
          "type": "uint256"
        }
      ],
      "name": "getCampaign",
      "outputs": [
        {
          "components": [
            {
              "internalType": "bytes32",
              "name": "campaignId",
              "type": "bytes32"
            },
            {
              "internalType": "uint256",
              "name": "phasesLength",
              "type": "uint256"
            },
            {
              "internalType": "bytes32[]",
              "name": "phases",
              "type": "bytes32[]"
            },
            {
              "internalType": "string",
              "name": "metadata",
              "type": "string"
            }
          ],
          "internalType": "struct MembershipsTypes.Campaign",
          "name": "",
          "type": "tuple"
        }
      ],
      "stateMutability": "view",
      "type": "function"
    },
    {
      "inputs": [
        {
          "internalType": "address",
          "name": "owner",
          "type": "address"
        }
      ],
      "name": "getCampaignByOwner",
      "outputs": [
        {
          "internalType": "uint256",
          "name": "",
          "type": "uint256"
        },
        {
          "components": [
            {
              "internalType": "bytes32",
              "name": "campaignId",
              "type": "bytes32"
            },
            {
              "internalType": "uint256",
              "name": "phasesLength",
              "type": "uint256"
            },
            {
              "internalType": "bytes32[]",
              "name": "phases",
              "type": "bytes32[]"
            },
            {
              "internalType": "string",
              "name": "metadata",
              "type": "string"
            }
          ],
          "internalType": "struct MembershipsTypes.Campaign[]",
          "name": "",
          "type": "tuple[]"
        }
      ],
      "stateMutability": "view",
      "type": "function"
    },
    {
      "inputs": [
        {
          "internalType": "address",
          "name": "referral",
          "type": "address"
        }
      ],
      "name": "getCampaignByReferral",
      "outputs": [
        {
          "internalType": "uint256",
          "name": "",
          "type": "uint256"
        },
        {
          "components": [
            {
              "internalType": "bytes32",
              "name": "campaignId",
              "type": "bytes32"
            },
            {
              "internalType": "uint256",
              "name": "phasesLength",
              "type": "uint256"
            },
            {
              "internalType": "bytes32[]",
              "name": "phases",
              "type": "bytes32[]"
            },
            {
              "internalType": "string",
              "name": "metadata",
              "type": "string"
            }
          ],
          "internalType": "struct MembershipsTypes.Campaign[]",
          "name": "",
          "type": "tuple[]"
        }
      ],
      "stateMutability": "view",
      "type": "function"
    },
    {
      "inputs": [
        {
          "internalType": "bytes32",
          "name": "schedule",
          "type": "bytes32"
        }
      ],
      "name": "getCampaignBySchedule",
      "outputs": [
        {
          "components": [
            {
              "internalType": "bytes32",
              "name": "campaignId",
              "type": "bytes32"
            },
            {
              "internalType": "uint256",
              "name": "campaignIndex",
              "type": "uint256"
            },
            {
              "internalType": "uint256",
              "name": "scheduleIndex",
              "type": "uint256"
            }
          ],
          "internalType": "struct MembershipsTypes.ScheduleCampaign",
          "name": "",
          "type": "tuple"
        }
      ],
      "stateMutability": "view",
      "type": "function"
    },
    {
      "inputs": [],
      "name": "getCampaignsLength",
      "outputs": [
        {
          "internalType": "uint256",
          "name": "",
          "type": "uint256"
        }
      ],
      "stateMutability": "view",
      "type": "function"
    },
    {
      "inputs": [
        {
          "internalType": "bytes32",
          "name": "scheduleID",
          "type": "bytes32"
        },
        {
          "internalType": "enum MembershipsTypes.UserType",
          "name": "userType",
          "type": "uint8"
        }
      ],
      "name": "getClaimed",
      "outputs": [
        {
          "internalType": "uint256",
          "name": "",
          "type": "uint256"
        }
      ],
      "stateMutability": "view",
      "type": "function"
    },
    {
      "inputs": [
        {
          "internalType": "bytes32",
          "name": "record",
          "type": "bytes32"
        }
      ],
      "name": "getReferral",
      "outputs": [
        {
          "components": [
            {
              "internalType": "address",
              "name": "referral",
              "type": "address"
            },
            {
              "internalType": "uint256",
              "name": "referralFee",
              "type": "uint256"
            }
          ],
          "internalType": "struct MembershipsTypes.ScheduleReferral",
          "name": "",
          "type": "tuple"
        }
      ],
      "stateMutability": "view",
      "type": "function"
    },
    {
      "inputs": [
        {
          "internalType": "bytes32",
          "name": "scheduleId",
          "type": "bytes32"
        }
      ],
      "name": "getSchedule",
      "outputs": [
        {
          "components": [
            {
              "internalType": "bool",
              "name": "initialized",
              "type": "bool"
            },
            {
              "internalType": "bool",
              "name": "revoked",
              "type": "bool"
            },
            {
              "internalType": "address",
              "name": "owner",
              "type": "address"
            },
            {
              "internalType": "uint256",
              "name": "start",
              "type": "uint256"
            },
            {
              "internalType": "uint256",
              "name": "duration",
              "type": "uint256"
            },
            {
              "internalType": "bytes32",
              "name": "merkleRoot",
              "type": "bytes32"
            },
            {
              "internalType": "uint256",
              "name": "amountTotal",
              "type": "uint256"
            },
            {
              "internalType": "uint256",
              "name": "released",
              "type": "uint256"
            },
            {
              "internalType": "address[]",
              "name": "lotToken",
              "type": "address[]"
            },
            {
              "internalType": "uint256[]",
              "name": "lotSize",
              "type": "uint256[]"
            },
            {
              "components": [
                {
                  "internalType": "address",
                  "name": "token",
                  "type": "address"
                },
                {
                  "internalType": "enum MembershipsTypes.AssetType",
                  "name": "assetType",
                  "type": "uint8"
                }
              ],
              "internalType": "struct MembershipsTypes.Asset",
              "name": "paymentAsset",
              "type": "tuple"
            },
            {
              "internalType": "uint256",
              "name": "pricePerLot",
              "type": "uint256"
            },
            {
              "internalType": "uint256",
              "name": "rollFee",
              "type": "uint256"
            },
            {
              "internalType": "uint256",
              "name": "maxBuyPerWallet",
              "type": "uint256"
            }
          ],
          "internalType": "struct MembershipsTypes.MintingSchedule",
          "name": "",
          "type": "tuple"
        }
      ],
      "stateMutability": "view",
      "type": "function"
    }
  ],
  "bytecode": "0x60806040523480156200001157600080fd5b50604051620024e7380380620024e7833981810160405281019062000037919062000095565b806000806101000a81548173ffffffffffffffffffffffffffffffffffffffff021916908373ffffffffffffffffffffffffffffffffffffffff160217905550506200011a565b6000815190506200008f8162000100565b92915050565b600060208284031215620000ae57620000ad620000fb565b5b6000620000be848285016200007e565b91505092915050565b6000620000d482620000db565b9050919050565b600073ffffffffffffffffffffffffffffffffffffffff82169050919050565b600080fd5b6200010b81620000c7565b81146200011757600080fd5b50565b6123bd806200012a6000396000f3fe608060405234801561001057600080fd5b506004361061009e5760003560e01c8063ac886f2611610066578063ac886f2614610193578063e3ba797a146101c3578063efc427b7146101f4578063f3e2ec1614610224578063fb5474ae146102555761009e565b80633adc277a146100a35780633c639278146100d35780635598f8cc14610103578063786dd9dd1461013357806382e58d5114610163575b600080fd5b6100bd60048036038101906100b891906115ad565b610273565b6040516100ca9190611e2d565b60405180910390f35b6100ed60048036038101906100e891906115da565b610330565b6040516100fa9190611e85565b60405180910390f35b61011d6004803603810190610118919061176c565b6103e6565b60405161012a9190611e0b565b60405180910390f35b61014d600480360381019061014891906115ad565b6104a3565b60405161015a9190611e4f565b60405180910390f35b61017d600480360381019061017891906115ad565b610585565b60405161018a9190611e6a565b60405180910390f35b6101ad60048036038101906101a891906115ad565b61063c565b6040516101ba9190611e85565b60405180910390f35b6101dd60048036038101906101d89190611580565b6106ef565b6040516101eb929190611ea0565b60405180910390f35b61020e6004803603810190610209919061161a565b6109e7565b60405161021b9190611e85565b60405180910390f35b61023e60048036038101906102399190611580565b610a9d565b60405161024c929190611ea0565b60405180910390f35b61025d610d95565b60405161026a9190611e85565b60405180910390f35b61027b610e3b565b60008054906101000a900473ffffffffffffffffffffffffffffffffffffffff1673ffffffffffffffffffffffffffffffffffffffff16633adc277a836040518263ffffffff1660e01b81526004016102d49190611d9e565b60006040518083038186803b1580156102ec57600080fd5b505afa158015610300573d6000803e3d6000fd5b505050506040513d6000823e3d601f19601f8201168201806040525081019061032991906116f6565b9050919050565b60008060009054906101000a900473ffffffffffffffffffffffffffffffffffffffff1673ffffffffffffffffffffffffffffffffffffffff16633c63927884846040518363ffffffff1660e01b815260040161038e929190611db9565b60206040518083038186803b1580156103a657600080fd5b505afa1580156103ba573d6000803e3d6000fd5b505050506040513d601f19601f820116820180604052508101906103de9190611799565b905092915050565b6103ee610ecd565b60008054906101000a900473ffffffffffffffffffffffffffffffffffffffff1673ffffffffffffffffffffffffffffffffffffffff16635598f8cc836040518263ffffffff1660e01b81526004016104479190611e85565b60006040518083038186803b15801561045f57600080fd5b505afa158015610473573d6000803e3d6000fd5b505050506040513d6000823e3d601f19601f8201168201806040525081019061049c91906116ad565b9050919050565b6104ab610ef8565b60008060008060009054906101000a900473ffffffffffffffffffffffffffffffffffffffff1673ffffffffffffffffffffffffffffffffffffffff1663e4e4f803866040518263ffffffff1660e01b815260040161050a9190611d9e565b60606040518083038186803b15801561052257600080fd5b505afa158015610536573d6000803e3d6000fd5b505050506040513d601f19601f8201168201806040525081019061055a919061165a565b9250925092506040518060600160405280848152602001838152602001828152509350505050919050565b61058d610f1c565b60008054906101000a900473ffffffffffffffffffffffffffffffffffffffff1673ffffffffffffffffffffffffffffffffffffffff166382e58d51836040518263ffffffff1660e01b81526004016105e69190611d9e565b604080518083038186803b1580156105fd57600080fd5b505afa158015610611573d6000803e3d6000fd5b505050506040513d601f19601f82011682018060405250810190610635919061173f565b9050919050565b60008060009054906101000a900473ffffffffffffffffffffffffffffffffffffffff1673ffffffffffffffffffffffffffffffffffffffff1663ac886f26836040518263ffffffff1660e01b81526004016106989190611d9e565b60206040518083038186803b1580156106b057600080fd5b505afa1580156106c4573d6000803e3d6000fd5b505050506040513d601f19601f820116820180604052508101906106e89190611799565b9050919050565b6000606060008060009054906101000a900473ffffffffffffffffffffffffffffffffffffffff1673ffffffffffffffffffffffffffffffffffffffff1663f5aa2053856040518263ffffffff1660e01b815260040161074f9190611d5a565b60206040518083038186803b15801561076757600080fd5b505afa15801561077b573d6000803e3d6000fd5b505050506040513d601f19601f8201168201806040525081019061079f9190611799565b905060008167ffffffffffffffff8111156107bd576107bc612280565b5b6040519080825280602002602001820160405280156107f657816020015b6107e3610ecd565b8152602001906001900390816107db5790505b5090506000805b838110156109d85760008060008054906101000a900473ffffffffffffffffffffffffffffffffffffffff1673ffffffffffffffffffffffffffffffffffffffff166338ff4d578a856040518363ffffffff1660e01b8152600401610863929190611d75565b604080518083038186803b15801561087a57600080fd5b505afa15801561088e573d6000803e3d6000fd5b505050506040513d601f19601f820116820180604052508101906108b291906117c6565b91509150600260038111156108ca576108c9612222565b5b8160038111156108dd576108dc612222565b5b14156109c35760008060009054906101000a900473ffffffffffffffffffffffffffffffffffffffff1673ffffffffffffffffffffffffffffffffffffffff16635598f8cc846040518263ffffffff1660e01b815260040161093f9190611e85565b60006040518083038186803b15801561095757600080fd5b505afa15801561096b573d6000803e3d6000fd5b505050506040513d6000823e3d601f19601f8201168201806040525081019061099491906116ad565b9050808686806109a3906121aa565b9750815181106109b6576109b5612251565b5b6020026020010181905250505b505080806109d0906121aa565b9150506107fd565b50808294509450505050915091565b60008060009054906101000a900473ffffffffffffffffffffffffffffffffffffffff1673ffffffffffffffffffffffffffffffffffffffff1663efc427b784846040518363ffffffff1660e01b8152600401610a45929190611de2565b60206040518083038186803b158015610a5d57600080fd5b505afa158015610a71573d6000803e3d6000fd5b505050506040513d601f19601f82011682018060405250810190610a959190611799565b905092915050565b6000606060008060009054906101000a900473ffffffffffffffffffffffffffffffffffffffff1673ffffffffffffffffffffffffffffffffffffffff1663f5aa2053856040518263ffffffff1660e01b8152600401610afd9190611d5a565b60206040518083038186803b158015610b1557600080fd5b505afa158015610b29573d6000803e3d6000fd5b505050506040513d601f19601f82011682018060405250810190610b4d9190611799565b905060008167ffffffffffffffff811115610b6b57610b6a612280565b5b604051908082528060200260200182016040528015610ba457816020015b610b91610ecd565b815260200190600190039081610b895790505b5090506000805b83811015610d865760008060008054906101000a900473ffffffffffffffffffffffffffffffffffffffff1673ffffffffffffffffffffffffffffffffffffffff166338ff4d578a856040518363ffffffff1660e01b8152600401610c11929190611d75565b604080518083038186803b158015610c2857600080fd5b505afa158015610c3c573d6000803e3d6000fd5b505050506040513d601f19601f82011682018060405250810190610c6091906117c6565b9150915060006003811115610c7857610c77612222565b5b816003811115610c8b57610c8a612222565b5b1415610d715760008060009054906101000a900473ffffffffffffffffffffffffffffffffffffffff1673ffffffffffffffffffffffffffffffffffffffff16635598f8cc846040518263ffffffff1660e01b8152600401610ced9190611e85565b60006040518083038186803b158015610d0557600080fd5b505afa158015610d19573d6000803e3d6000fd5b505050506040513d6000823e3d601f19601f82011682018060405250810190610d4291906116ad565b905080868680610d51906121aa565b975081518110610d6457610d63612251565b5b6020026020010181905250505b50508080610d7e906121aa565b915050610bab565b50808294509450505050915091565b60008060009054906101000a900473ffffffffffffffffffffffffffffffffffffffff1673ffffffffffffffffffffffffffffffffffffffff16635f3179c36040518163ffffffff1660e01b815260040160206040518083038186803b158015610dfe57600080fd5b505afa158015610e12573d6000803e3d6000fd5b505050506040513d601f19601f82011682018060405250810190610e369190611799565b905090565b604051806101c00160405280600015158152602001600015158152602001600073ffffffffffffffffffffffffffffffffffffffff16815260200160008152602001600081526020016000801916815260200160008152602001600081526020016060815260200160608152602001610eb2610f4c565b81526020016000815260200160008152602001600081525090565b6040518060800160405280600080191681526020016000815260200160608152602001606081525090565b60405180606001604052806000801916815260200160008152602001600081525090565b6040518060400160405280600073ffffffffffffffffffffffffffffffffffffffff168152602001600081525090565b6040518060400160405280600073ffffffffffffffffffffffffffffffffffffffff16815260200160006001811115610f8857610f87612222565b5b81525090565b6000610fa1610f9c84611ef5565b611ed0565b90508083825260208201905082856020860282011115610fc457610fc36122be565b5b60005b85811015610ff45781610fda8882611135565b845260208401935060208301925050600181019050610fc7565b5050509392505050565b600061101161100c84611f21565b611ed0565b90508083825260208201905082856020860282011115611034576110336122be565b5b60005b85811015611064578161104a88826111fe565b845260208401935060208301925050600181019050611037565b5050509392505050565b600061108161107c84611f4d565b611ed0565b905080838252602082019050828560208602820111156110a4576110a36122be565b5b60005b858110156110d457816110ba888261156b565b8452602084019350602083019250506001810190506110a7565b5050509392505050565b60006110f16110ec84611f79565b611ed0565b90508281526020810184848401111561110d5761110c6122c3565b5b611118848285612146565b509392505050565b60008135905061112f8161230b565b92915050565b6000815190506111448161230b565b92915050565b600082601f83011261115f5761115e6122af565b5b815161116f848260208601610f8e565b91505092915050565b600082601f83011261118d5761118c6122af565b5b815161119d848260208601610ffe565b91505092915050565b600082601f8301126111bb576111ba6122af565b5b81516111cb84826020860161106e565b91505092915050565b6000815190506111e381612322565b92915050565b6000813590506111f881612339565b92915050565b60008151905061120d81612339565b92915050565b60008151905061122281612350565b92915050565b60008135905061123781612360565b92915050565b60008151905061124c81612360565b92915050565b600082601f830112611267576112666122af565b5b81516112778482602086016110de565b91505092915050565b600060408284031215611296576112956122b4565b5b6112a06040611ed0565b905060006112b084828501611135565b60008301525060206112c484828501611213565b60208301525092915050565b6000608082840312156112e6576112e56122b4565b5b6112f06080611ed0565b90506000611300848285016111fe565b60008301525060206113148482850161156b565b602083015250604082015167ffffffffffffffff811115611338576113376122b9565b5b61134484828501611178565b604083015250606082015167ffffffffffffffff811115611368576113676122b9565b5b61137484828501611252565b60608301525092915050565b60006101e08284031215611397576113966122b4565b5b6113a26101c0611ed0565b905060006113b2848285016111d4565b60008301525060206113c6848285016111d4565b60208301525060406113da84828501611135565b60408301525060606113ee8482850161156b565b60608301525060806114028482850161156b565b60808301525060a0611416848285016111fe565b60a08301525060c061142a8482850161156b565b60c08301525060e061143e8482850161156b565b60e08301525061010082015167ffffffffffffffff811115611463576114626122b9565b5b61146f8482850161114a565b6101008301525061012082015167ffffffffffffffff811115611495576114946122b9565b5b6114a1848285016111a6565b610120830152506101406114b784828501611280565b610140830152506101806114cd8482850161156b565b610160830152506101a06114e38482850161156b565b610180830152506101c06114f98482850161156b565b6101a08301525092915050565b60006040828403121561151c5761151b6122b4565b5b6115266040611ed0565b9050600061153684828501611135565b600083015250602061154a8482850161156b565b60208301525092915050565b60008135905061156581612370565b92915050565b60008151905061157a81612370565b92915050565b600060208284031215611596576115956122cd565b5b60006115a484828501611120565b91505092915050565b6000602082840312156115c3576115c26122cd565b5b60006115d1848285016111e9565b91505092915050565b600080604083850312156115f1576115f06122cd565b5b60006115ff858286016111e9565b925050602061161085828601611120565b9150509250929050565b60008060408385031215611631576116306122cd565b5b600061163f858286016111e9565b925050602061165085828601611228565b9150509250929050565b600080600060608486031215611673576116726122cd565b5b6000611681868287016111fe565b93505060206116928682870161156b565b92505060406116a38682870161156b565b9150509250925092565b6000602082840312156116c3576116c26122cd565b5b600082015167ffffffffffffffff8111156116e1576116e06122c8565b5b6116ed848285016112d0565b91505092915050565b60006020828403121561170c5761170b6122cd565b5b600082015167ffffffffffffffff81111561172a576117296122c8565b5b61173684828501611380565b91505092915050565b600060408284031215611755576117546122cd565b5b600061176384828501611506565b91505092915050565b600060208284031215611782576117816122cd565b5b600061179084828501611556565b91505092915050565b6000602082840312156117af576117ae6122cd565b5b60006117bd8482850161156b565b91505092915050565b600080604083850312156117dd576117dc6122cd565b5b60006117eb8582860161156b565b92505060206117fc8582860161123d565b9150509250929050565b60006118128383611862565b60208301905092915050565b600061182a8383611a1e565b60208301905092915050565b60006118428383611ac2565b905092915050565b60006118568383611d3c565b60208301905092915050565b61186b816120aa565b82525050565b61187a816120aa565b82525050565b600061188b82611fea565b6118958185612055565b93506118a083611faa565b8060005b838110156118d15781516118b88882611806565b97506118c383612021565b9250506001810190506118a4565b5085935050505092915050565b60006118e982611ff5565b6118f38185612066565b93506118fe83611fba565b8060005b8381101561192f578151611916888261181e565b97506119218361202e565b925050600181019050611902565b5085935050505092915050565b600061194782612000565b6119518185612077565b93508360208202850161196385611fca565b8060005b8581101561199f57848403895281516119808582611836565b945061198b8361203b565b925060208a01995050600181019050611967565b50829750879550505050505092915050565b60006119bc8261200b565b6119c68185612088565b93506119d183611fda565b8060005b83811015611a025781516119e9888261184a565b97506119f483612048565b9250506001810190506119d5565b5085935050505092915050565b611a18816120bc565b82525050565b611a27816120c8565b82525050565b611a36816120c8565b82525050565b611a4581612122565b82525050565b611a5481612134565b82525050565b6000611a6582612016565b611a6f8185612099565b9350611a7f818560208601612146565b611a88816122d2565b840191505092915050565b604082016000820151611aa96000850182611862565b506020820151611abc6020850182611a3c565b50505050565b6000608083016000830151611ada6000860182611a1e565b506020830151611aed6020860182611d3c565b5060408301518482036040860152611b0582826118de565b91505060608301518482036060860152611b1f8282611a5a565b9150508091505092915050565b6000608083016000830151611b446000860182611a1e565b506020830151611b576020860182611d3c565b5060408301518482036040860152611b6f82826118de565b91505060608301518482036060860152611b898282611a5a565b9150508091505092915050565b60006101e083016000830151611baf6000860182611a0f565b506020830151611bc26020860182611a0f565b506040830151611bd56040860182611862565b506060830151611be86060860182611d3c565b506080830151611bfb6080860182611d3c565b5060a0830151611c0e60a0860182611a1e565b5060c0830151611c2160c0860182611d3c565b5060e0830151611c3460e0860182611d3c565b50610100830151848203610100860152611c4e8282611880565b915050610120830151848203610120860152611c6a82826119b1565b915050610140830151611c81610140860182611a93565b50610160830151611c96610180860182611d3c565b50610180830151611cab6101a0860182611d3c565b506101a0830151611cc06101c0860182611d3c565b508091505092915050565b606082016000820151611ce16000850182611a1e565b506020820151611cf46020850182611d3c565b506040820151611d076040850182611d3c565b50505050565b604082016000820151611d236000850182611862565b506020820151611d366020850182611d3c565b50505050565b611d4581612118565b82525050565b611d5481612118565b82525050565b6000602082019050611d6f6000830184611871565b92915050565b6000604082019050611d8a6000830185611871565b611d976020830184611d4b565b9392505050565b6000602082019050611db36000830184611a2d565b92915050565b6000604082019050611dce6000830185611a2d565b611ddb6020830184611871565b9392505050565b6000604082019050611df76000830185611a2d565b611e046020830184611a4b565b9392505050565b60006020820190508181036000830152611e258184611b2c565b905092915050565b60006020820190508181036000830152611e478184611b96565b905092915050565b6000606082019050611e646000830184611ccb565b92915050565b6000604082019050611e7f6000830184611d0d565b92915050565b6000602082019050611e9a6000830184611d4b565b92915050565b6000604082019050611eb56000830185611d4b565b8181036020830152611ec7818461193c565b90509392505050565b6000611eda611eeb565b9050611ee68282612179565b919050565b6000604051905090565b600067ffffffffffffffff821115611f1057611f0f612280565b5b602082029050602081019050919050565b600067ffffffffffffffff821115611f3c57611f3b612280565b5b602082029050602081019050919050565b600067ffffffffffffffff821115611f6857611f67612280565b5b602082029050602081019050919050565b600067ffffffffffffffff821115611f9457611f93612280565b5b611f9d826122d2565b9050602081019050919050565b6000819050602082019050919050565b6000819050602082019050919050565b6000819050602082019050919050565b6000819050602082019050919050565b600081519050919050565b600081519050919050565b600081519050919050565b600081519050919050565b600081519050919050565b6000602082019050919050565b6000602082019050919050565b6000602082019050919050565b6000602082019050919050565b600082825260208201905092915050565b600082825260208201905092915050565b600082825260208201905092915050565b600082825260208201905092915050565b600082825260208201905092915050565b60006120b5826120f8565b9050919050565b60008115159050919050565b6000819050919050565b60008190506120e0826122e3565b919050565b60008190506120f3826122f7565b919050565b600073ffffffffffffffffffffffffffffffffffffffff82169050919050565b6000819050919050565b600061212d826120d2565b9050919050565b600061213f826120e5565b9050919050565b60005b83811015612164578082015181840152602081019050612149565b83811115612173576000848401525b50505050565b612182826122d2565b810181811067ffffffffffffffff821117156121a1576121a0612280565b5b80604052505050565b60006121b582612118565b91507fffffffffffffffffffffffffffffffffffffffffffffffffffffffffffffffff8214156121e8576121e76121f3565b5b600182019050919050565b7f4e487b7100000000000000000000000000000000000000000000000000000000600052601160045260246000fd5b7f4e487b7100000000000000000000000000000000000000000000000000000000600052602160045260246000fd5b7f4e487b7100000000000000000000000000000000000000000000000000000000600052603260045260246000fd5b7f4e487b7100000000000000000000000000000000000000000000000000000000600052604160045260246000fd5b600080fd5b600080fd5b600080fd5b600080fd5b600080fd5b600080fd5b600080fd5b6000601f19601f8301169050919050565b600281106122f4576122f3612222565b5b50565b6004811061230857612307612222565b5b50565b612314816120aa565b811461231f57600080fd5b50565b61232b816120bc565b811461233657600080fd5b50565b612342816120c8565b811461234d57600080fd5b50565b6002811061235d57600080fd5b50565b6004811061236d57600080fd5b50565b61237981612118565b811461238457600080fd5b5056fea26469706673582212205803c41da78c6a1f1450880db266d91468793c0101f51378489487295c4c76a064736f6c63430008070033",
  "linkReferences": {},
  "deployedLinkReferences": {}
}