{
  "_format": "hh-sol-artifact-1",
  "contractName": "TestContract",
  "sourceName": "contracts/test/TestContract.sol",
  "abi": [
    {
      "inputs": [],
      "stateMutability": "nonpayable",
      "type": "constructor"
    },
    {
      "anonymous": false,
      "inputs": [
        {
          "indexed": true,
          "internalType": "address",
          "name": "from",
          "type": "address"
        },
        {
          "indexed": false,
          "internalType": "uint256",
          "name": "id",
          "type": "uint256"
        }
      ],
      "name": "EventCool",
      "type": "event"
    },
    {
      "stateMutability": "payable",
      "type": "fallback"
    },
    {
      "inputs": [],
      "name": "getValue",
      "outputs": [
        {
          "internalType": "uint256",
          "name": "",
          "type": "uint256"
        }
      ],
      "stateMutability": "view",
      "type": "function"
    },
    {
      "inputs": [
        {
          "internalType": "uint256",
          "name": "_value",
          "type": "uint256"
        }
      ],
      "name": "setValue",
      "outputs": [
        {
          "internalType": "uint256",
          "name": "",
          "type": "uint256"
        }
      ],
      "stateMutability": "nonpayable",
      "type": "function"
    },
    {
      "inputs": [],
      "name": "testEvent",
      "outputs": [],
      "stateMutability": "nonpayable",
      "type": "function"
    },
    {
      "inputs": [
        {
          "internalType": "bool",
          "name": "abort",
          "type": "bool"
        }
      ],
      "name": "testRequire",
      "outputs": [],
      "stateMutability": "pure",
      "type": "function"
    },
    {
      "stateMutability": "payable",
      "type": "receive"
    }
  ],
  "bytecode": "0x608060405234801561001057600080fd5b5061037e806100206000396000f3fe6080604052600436106100435760003560e01c8063209652551461004c5780634f9d719e14610077578063552410771461008e578063fb667036146100cb5761004a565b3661004a57005b005b34801561005857600080fd5b506100616100f4565b60405161006e919061029d565b60405180910390f35b34801561008357600080fd5b5061008c6100fd565b005b34801561009a57600080fd5b506100b560048036038101906100b091906101f8565b61014e565b6040516100c2919061029d565b60405180910390f35b3480156100d757600080fd5b506100f260048036038101906100ed91906101cf565b610161565b005b60008054905090565b3373ffffffffffffffffffffffffffffffffffffffff167f66c934ef7a943022516fb8577026f8e1d3644c7cab53f91637a611f7b4f59b1d600a6040516101449190610262565b60405180910390a2565b6000816000819055506000549050919050565b80156101a2576040517f08c379a00000000000000000000000000000000000000000000000000000000081526004016101999061027d565b60405180910390fd5b50565b6000813590506101b48161031a565b92915050565b6000813590506101c981610331565b92915050565b6000602082840312156101e157600080fd5b60006101ef848285016101a5565b91505092915050565b60006020828403121561020a57600080fd5b6000610218848285016101ba565b91505092915050565b61022a816102df565b82525050565b600061023d6009836102b8565b9150610248826102f1565b602082019050919050565b61025c816102d5565b82525050565b60006020820190506102776000830184610221565b92915050565b6000602082019050818103600083015261029681610230565b9050919050565b60006020820190506102b26000830184610253565b92915050565b600082825260208201905092915050565b60008115159050919050565b6000819050919050565b60006102ea826102d5565b9050919050565b7f4e4557204552524f520000000000000000000000000000000000000000000000600082015250565b610323816102c9565b811461032e57600080fd5b50565b61033a816102d5565b811461034557600080fd5b5056fea264697066735822122068c343455bd29ae43c3a094589bba2a7d393e394de397a99ce0093c866dad8a264736f6c63430008040033",
  "linkReferences": {},
  "deployedLinkReferences": {}
}