{
  "_format": "hh-sol-artifact-1",
  "contractName": "TestERC20",
  "sourceName": "contracts/test/TestERC20.sol",
  "abi": [
    {
      "inputs": [
        {
          "internalType": "string",
          "name": "tokenName",
          "type": "string"
        },
        {
          "internalType": "string",
          "name": "symbol",
          "type": "string"
        }
      ],
      "stateMutability": "nonpayable",
      "type": "constructor"
    },
    {
      "anonymous": false,
      "inputs": [
        {
          "indexed": true,
          "internalType": "address",
          "name": "owner",
          "type": "address"
        },
        {
          "indexed": true,
          "internalType": "address",
          "name": "spender",
          "type": "address"
        },
        {
          "indexed": false,
          "internalType": "uint256",
          "name": "value",
          "type": "uint256"
        }
      ],
      "name": "Approval",
      "type": "event"
    },
    {
      "anonymous": false,
      "inputs": [
        {
          "indexed": true,
          "internalType": "address",
          "name": "from",
          "type": "address"
        },
        {
          "indexed": true,
          "internalType": "address",
          "name": "to",
          "type": "address"
        },
        {
          "indexed": false,
          "internalType": "uint256",
          "name": "value",
          "type": "uint256"
        }
      ],
      "name": "Transfer",
      "type": "event"
    },
    {
      "inputs": [
        {
          "internalType": "address",
          "name": "owner",
          "type": "address"
        },
        {
          "internalType": "address",
          "name": "spender",
          "type": "address"
        }
      ],
      "name": "allowance",
      "outputs": [
        {
          "internalType": "uint256",
          "name": "",
          "type": "uint256"
        }
      ],
      "stateMutability": "view",
      "type": "function"
    },
    {
      "inputs": [
        {
          "internalType": "address",
          "name": "spender",
          "type": "address"
        },
        {
          "internalType": "uint256",
          "name": "amount",
          "type": "uint256"
        }
      ],
      "name": "approve",
      "outputs": [
        {
          "internalType": "bool",
          "name": "",
          "type": "bool"
        }
      ],
      "stateMutability": "nonpayable",
      "type": "function"
    },
    {
      "inputs": [
        {
          "internalType": "address",
          "name": "account",
          "type": "address"
        }
      ],
      "name": "balanceOf",
      "outputs": [
        {
          "internalType": "uint256",
          "name": "",
          "type": "uint256"
        }
      ],
      "stateMutability": "view",
      "type": "function"
    },
    {
      "inputs": [
        {
          "internalType": "uint256",
          "name": "amount",
          "type": "uint256"
        }
      ],
      "name": "burn",
      "outputs": [],
      "stateMutability": "nonpayable",
      "type": "function"
    },
    {
      "inputs": [
        {
          "internalType": "address",
          "name": "account",
          "type": "address"
        },
        {
          "internalType": "uint256",
          "name": "amount",
          "type": "uint256"
        }
      ],
      "name": "burnFrom",
      "outputs": [],
      "stateMutability": "nonpayable",
      "type": "function"
    },
    {
      "inputs": [],
      "name": "decimals",
      "outputs": [
        {
          "internalType": "uint8",
          "name": "",
          "type": "uint8"
        }
      ],
      "stateMutability": "view",
      "type": "function"
    },
    {
      "inputs": [
        {
          "internalType": "address",
          "name": "spender",
          "type": "address"
        },
        {
          "internalType": "uint256",
          "name": "subtractedValue",
          "type": "uint256"
        }
      ],
      "name": "decreaseAllowance",
      "outputs": [
        {
          "internalType": "bool",
          "name": "",
          "type": "bool"
        }
      ],
      "stateMutability": "nonpayable",
      "type": "function"
    },
    {
      "inputs": [
        {
          "internalType": "address",
          "name": "spender",
          "type": "address"
        },
        {
          "internalType": "uint256",
          "name": "addedValue",
          "type": "uint256"
        }
      ],
      "name": "increaseAllowance",
      "outputs": [
        {
          "internalType": "bool",
          "name": "",
          "type": "bool"
        }
      ],
      "stateMutability": "nonpayable",
      "type": "function"
    },
    {
      "inputs": [
        {
          "internalType": "uint256",
          "name": "amount",
          "type": "uint256"
        }
      ],
      "name": "mint",
      "outputs": [],
      "stateMutability": "nonpayable",
      "type": "function"
    },
    {
      "inputs": [],
      "name": "name",
      "outputs": [
        {
          "internalType": "string",
          "name": "",
          "type": "string"
        }
      ],
      "stateMutability": "view",
      "type": "function"
    },
    {
      "inputs": [],
      "name": "symbol",
      "outputs": [
        {
          "internalType": "string",
          "name": "",
          "type": "string"
        }
      ],
      "stateMutability": "view",
      "type": "function"
    },
    {
      "inputs": [],
      "name": "totalSupply",
      "outputs": [
        {
          "internalType": "uint256",
          "name": "",
          "type": "uint256"
        }
      ],
      "stateMutability": "view",
      "type": "function"
    },
    {
      "inputs": [
        {
          "internalType": "address",
          "name": "recipient",
          "type": "address"
        },
        {
          "internalType": "uint256",
          "name": "amount",
          "type": "uint256"
        }
      ],
      "name": "transfer",
      "outputs": [
        {
          "internalType": "bool",
          "name": "",
          "type": "bool"
        }
      ],
      "stateMutability": "nonpayable",
      "type": "function"
    },
    {
      "inputs": [
        {
          "internalType": "address",
          "name": "sender",
          "type": "address"
        },
        {
          "internalType": "address",
          "name": "recipient",
          "type": "address"
        },
        {
          "internalType": "uint256",
          "name": "amount",
          "type": "uint256"
        }
      ],
      "name": "transferFrom",
      "outputs": [
        {
          "internalType": "bool",
          "name": "",
          "type": "bool"
        }
      ],
      "stateMutability": "nonpayable",
      "type": "function"
    }
  ],
  "bytecode": "0x60806040523480156200001157600080fd5b506040516200268a3803806200268a8339818101604052810190620000379190620004ab565b81818160039080519060200190620000519291906200025e565b5080600490805190602001906200006a9291906200025e565b505050620000ad3362000082620000b560201b60201c565b600a620000909190620006ca565b6305f5e100620000a191906200071b565b620000be60201b60201c565b5050620008ef565b60006012905090565b600073ffffffffffffffffffffffffffffffffffffffff168273ffffffffffffffffffffffffffffffffffffffff16141562000131576040517f08c379a00000000000000000000000000000000000000000000000000000000081526004016200012890620007dd565b60405180910390fd5b62000145600083836200023760201b60201c565b8060026000828254620001599190620007ff565b92505081905550806000808473ffffffffffffffffffffffffffffffffffffffff1673ffffffffffffffffffffffffffffffffffffffff1681526020019081526020016000206000828254620001b09190620007ff565b925050819055508173ffffffffffffffffffffffffffffffffffffffff16600073ffffffffffffffffffffffffffffffffffffffff167fddf252ad1be2c89b69c2b068fc378daa952ba7f163c4a11628f55a4df523b3ef836040516200021791906200086d565b60405180910390a362000233600083836200025460201b60201c565b5050565b6200024f8383836200025960201b620008961760201c565b505050565b505050565b505050565b8280546200026c90620008b9565b90600052602060002090601f016020900481019282620002905760008555620002dc565b82601f10620002ab57805160ff1916838001178555620002dc565b82800160010185558215620002dc579182015b82811115620002db578251825591602001919060010190620002be565b5b509050620002eb9190620002ef565b5090565b5b808211156200030a576000816000905550600101620002f0565b5090565b6000604051905090565b600080fd5b600080fd5b600080fd5b600080fd5b6000601f19601f8301169050919050565b7f4e487b7100000000000000000000000000000000000000000000000000000000600052604160045260246000fd5b62000377826200032c565b810181811067ffffffffffffffff821117156200039957620003986200033d565b5b80604052505050565b6000620003ae6200030e565b9050620003bc82826200036c565b919050565b600067ffffffffffffffff821115620003df57620003de6200033d565b5b620003ea826200032c565b9050602081019050919050565b60005b8381101562000417578082015181840152602081019050620003fa565b8381111562000427576000848401525b50505050565b6000620004446200043e84620003c1565b620003a2565b90508281526020810184848401111562000463576200046262000327565b5b62000470848285620003f7565b509392505050565b600082601f83011262000490576200048f62000322565b5b8151620004a28482602086016200042d565b91505092915050565b60008060408385031215620004c557620004c462000318565b5b600083015167ffffffffffffffff811115620004e657620004e56200031d565b5b620004f48582860162000478565b925050602083015167ffffffffffffffff8111156200051857620005176200031d565b5b620005268582860162000478565b9150509250929050565b7f4e487b7100000000000000000000000000000000000000000000000000000000600052601160045260246000fd5b60008160011c9050919050565b6000808291508390505b6001851115620005be5780860481111562000596576200059562000530565b5b6001851615620005a65780820291505b8081029050620005b6856200055f565b945062000576565b94509492505050565b600082620005d95760019050620006ac565b81620005e95760009050620006ac565b81600181146200060257600281146200060d5762000643565b6001915050620006ac565b60ff84111562000622576200062162000530565b5b8360020a9150848211156200063c576200063b62000530565b5b50620006ac565b5060208310610133831016604e8410600b84101617156200067d5782820a90508381111562000677576200067662000530565b5b620006ac565b6200068c84848460016200056c565b92509050818404811115620006a657620006a562000530565b5b81810290505b9392505050565b6000819050919050565b600060ff82169050919050565b6000620006d782620006b3565b9150620006e483620006bd565b9250620007137fffffffffffffffffffffffffffffffffffffffffffffffffffffffffffffffff8484620005c7565b905092915050565b60006200072882620006b3565b91506200073583620006b3565b9250817fffffffffffffffffffffffffffffffffffffffffffffffffffffffffffffffff048311821515161562000771576200077062000530565b5b828202905092915050565b600082825260208201905092915050565b7f45524332303a206d696e7420746f20746865207a65726f206164647265737300600082015250565b6000620007c5601f836200077c565b9150620007d2826200078d565b602082019050919050565b60006020820190508181036000830152620007f881620007b6565b9050919050565b60006200080c82620006b3565b91506200081983620006b3565b9250827fffffffffffffffffffffffffffffffffffffffffffffffffffffffffffffffff0382111562000851576200085062000530565b5b828201905092915050565b6200086781620006b3565b82525050565b60006020820190506200088460008301846200085c565b92915050565b7f4e487b7100000000000000000000000000000000000000000000000000000000600052602260045260246000fd5b60006002820490506001821680620008d257607f821691505b60208210811415620008e957620008e86200088a565b5b50919050565b611d8b80620008ff6000396000f3fe608060405234801561001057600080fd5b50600436106100ea5760003560e01c806370a082311161008c578063a0712d6811610066578063a0712d681461025f578063a457c2d71461027b578063a9059cbb146102ab578063dd62ed3e146102db576100ea565b806370a08231146101f557806379cc67901461022557806395d89b4114610241576100ea565b806323b872dd116100c857806323b872dd1461015b578063313ce5671461018b57806339509351146101a957806342966c68146101d9576100ea565b806306fdde03146100ef578063095ea7b31461010d57806318160ddd1461013d575b600080fd5b6100f761030b565b60405161010491906111c4565b60405180910390f35b6101276004803603810190610122919061127f565b61039d565b60405161013491906112da565b60405180910390f35b6101456103bb565b6040516101529190611304565b60405180910390f35b6101756004803603810190610170919061131f565b6103c5565b60405161018291906112da565b60405180910390f35b6101936104bd565b6040516101a0919061138e565b60405180910390f35b6101c360048036038101906101be919061127f565b6104c6565b6040516101d091906112da565b60405180910390f35b6101f360048036038101906101ee91906113a9565b610572565b005b61020f600480360381019061020a91906113d6565b610586565b60405161021c9190611304565b60405180910390f35b61023f600480360381019061023a919061127f565b6105ce565b005b610249610649565b60405161025691906111c4565b60405180910390f35b610279600480360381019061027491906113a9565b6106db565b005b6102956004803603810190610290919061127f565b610706565b6040516102a291906112da565b60405180910390f35b6102c560048036038101906102c0919061127f565b6107f1565b6040516102d291906112da565b60405180910390f35b6102f560048036038101906102f09190611403565b61080f565b6040516103029190611304565b60405180910390f35b60606003805461031a90611472565b80601f016020809104026020016040519081016040528092919081815260200182805461034690611472565b80156103935780601f1061036857610100808354040283529160200191610393565b820191906000526020600020905b81548152906001019060200180831161037657829003601f168201915b5050505050905090565b60006103b16103aa61089b565b84846108a3565b6001905092915050565b6000600254905090565b60006103d2848484610a6e565b6000600160008673ffffffffffffffffffffffffffffffffffffffff1673ffffffffffffffffffffffffffffffffffffffff168152602001908152602001600020600061041d61089b565b73ffffffffffffffffffffffffffffffffffffffff1673ffffffffffffffffffffffffffffffffffffffff1681526020019081526020016000205490508281101561049d576040517f08c379a000000000000000000000000000000000000000000000000000000000815260040161049490611516565b60405180910390fd5b6104b1856104a961089b565b8584036108a3565b60019150509392505050565b60006012905090565b60006105686104d361089b565b8484600160006104e161089b565b73ffffffffffffffffffffffffffffffffffffffff1673ffffffffffffffffffffffffffffffffffffffff16815260200190815260200160002060008873ffffffffffffffffffffffffffffffffffffffff1673ffffffffffffffffffffffffffffffffffffffff168152602001908152602001600020546105639190611565565b6108a3565b6001905092915050565b61058361057d61089b565b82610b5e565b50565b60008060008373ffffffffffffffffffffffffffffffffffffffff1673ffffffffffffffffffffffffffffffffffffffff168152602001908152602001600020549050919050565b60006105e1836105dc61089b565b61080f565b905081811015610626576040517f08c379a000000000000000000000000000000000000000000000000000000000815260040161061d9061162d565b60405180910390fd5b61063a8361063261089b565b8484036108a3565b6106448383610b5e565b505050565b60606004805461065890611472565b80601f016020809104026020016040519081016040528092919081815260200182805461068490611472565b80156106d15780601f106106a6576101008083540402835291602001916106d1565b820191906000526020600020905b8154815290600101906020018083116106b457829003601f168201915b5050505050905090565b610703336106e76104bd565b600a6106f39190611780565b836106fe91906117cb565b610d35565b50565b6000806001600061071561089b565b73ffffffffffffffffffffffffffffffffffffffff1673ffffffffffffffffffffffffffffffffffffffff16815260200190815260200160002060008573ffffffffffffffffffffffffffffffffffffffff1673ffffffffffffffffffffffffffffffffffffffff168152602001908152602001600020549050828110156107d2576040517f08c379a00000000000000000000000000000000000000000000000000000000081526004016107c990611897565b60405180910390fd5b6107e66107dd61089b565b858584036108a3565b600191505092915050565b60006108056107fe61089b565b8484610a6e565b6001905092915050565b6000600160008473ffffffffffffffffffffffffffffffffffffffff1673ffffffffffffffffffffffffffffffffffffffff16815260200190815260200160002060008373ffffffffffffffffffffffffffffffffffffffff1673ffffffffffffffffffffffffffffffffffffffff16815260200190815260200160002054905092915050565b505050565b600033905090565b600073ffffffffffffffffffffffffffffffffffffffff168373ffffffffffffffffffffffffffffffffffffffff161415610913576040517f08c379a000000000000000000000000000000000000000000000000000000000815260040161090a90611929565b60405180910390fd5b600073ffffffffffffffffffffffffffffffffffffffff168273ffffffffffffffffffffffffffffffffffffffff161415610983576040517f08c379a000000000000000000000000000000000000000000000000000000000815260040161097a906119bb565b60405180910390fd5b80600160008573ffffffffffffffffffffffffffffffffffffffff1673ffffffffffffffffffffffffffffffffffffffff16815260200190815260200160002060008473ffffffffffffffffffffffffffffffffffffffff1673ffffffffffffffffffffffffffffffffffffffff168152602001908152602001600020819055508173ffffffffffffffffffffffffffffffffffffffff168373ffffffffffffffffffffffffffffffffffffffff167f8c5be1e5ebec7d5bd14f71427d1e84f3dd0314c0f7b2291e5b200ac8c7c3b92583604051610a619190611304565b60405180910390a3505050565b600073ffffffffffffffffffffffffffffffffffffffff168373ffffffffffffffffffffffffffffffffffffffff161415610ade576040517f08c379a0000000000000000000000000000000000000000000000000000000008152600401610ad590611a4d565b60405180910390fd5b600073ffffffffffffffffffffffffffffffffffffffff168273ffffffffffffffffffffffffffffffffffffffff161415610b4e576040517f08c379a0000000000000000000000000000000000000000000000000000000008152600401610b4590611adf565b60405180910390fd5b610b59838383610e95565b505050565b600073ffffffffffffffffffffffffffffffffffffffff168273ffffffffffffffffffffffffffffffffffffffff161415610bce576040517f08c379a0000000000000000000000000000000000000000000000000000000008152600401610bc590611b71565b60405180910390fd5b610bda82600083611116565b60008060008473ffffffffffffffffffffffffffffffffffffffff1673ffffffffffffffffffffffffffffffffffffffff16815260200190815260200160002054905081811015610c60576040517f08c379a0000000000000000000000000000000000000000000000000000000008152600401610c5790611c03565b60405180910390fd5b8181036000808573ffffffffffffffffffffffffffffffffffffffff1673ffffffffffffffffffffffffffffffffffffffff168152602001908152602001600020819055508160026000828254610cb79190611c23565b92505081905550600073ffffffffffffffffffffffffffffffffffffffff168373ffffffffffffffffffffffffffffffffffffffff167fddf252ad1be2c89b69c2b068fc378daa952ba7f163c4a11628f55a4df523b3ef84604051610d1c9190611304565b60405180910390a3610d3083600084611126565b505050565b600073ffffffffffffffffffffffffffffffffffffffff168273ffffffffffffffffffffffffffffffffffffffff161415610da5576040517f08c379a0000000000000000000000000000000000000000000000000000000008152600401610d9c90611ca3565b60405180910390fd5b610db160008383611116565b8060026000828254610dc39190611565565b92505081905550806000808473ffffffffffffffffffffffffffffffffffffffff1673ffffffffffffffffffffffffffffffffffffffff1681526020019081526020016000206000828254610e189190611565565b925050819055508173ffffffffffffffffffffffffffffffffffffffff16600073ffffffffffffffffffffffffffffffffffffffff167fddf252ad1be2c89b69c2b068fc378daa952ba7f163c4a11628f55a4df523b3ef83604051610e7d9190611304565b60405180910390a3610e9160008383611126565b5050565b600073ffffffffffffffffffffffffffffffffffffffff168373ffffffffffffffffffffffffffffffffffffffff161415610f05576040517f08c379a0000000000000000000000000000000000000000000000000000000008152600401610efc90611a4d565b60405180910390fd5b600073ffffffffffffffffffffffffffffffffffffffff168273ffffffffffffffffffffffffffffffffffffffff161415610f75576040517f08c379a0000000000000000000000000000000000000000000000000000000008152600401610f6c90611adf565b60405180910390fd5b610f80838383611116565b60008060008573ffffffffffffffffffffffffffffffffffffffff1673ffffffffffffffffffffffffffffffffffffffff16815260200190815260200160002054905081811015611006576040517f08c379a0000000000000000000000000000000000000000000000000000000008152600401610ffd90611d35565b60405180910390fd5b8181036000808673ffffffffffffffffffffffffffffffffffffffff1673ffffffffffffffffffffffffffffffffffffffff16815260200190815260200160002081905550816000808573ffffffffffffffffffffffffffffffffffffffff1673ffffffffffffffffffffffffffffffffffffffff16815260200190815260200160002060008282546110999190611565565b925050819055508273ffffffffffffffffffffffffffffffffffffffff168473ffffffffffffffffffffffffffffffffffffffff167fddf252ad1be2c89b69c2b068fc378daa952ba7f163c4a11628f55a4df523b3ef846040516110fd9190611304565b60405180910390a3611110848484611126565b50505050565b611121838383610896565b505050565b505050565b600081519050919050565b600082825260208201905092915050565b60005b8381101561116557808201518184015260208101905061114a565b83811115611174576000848401525b50505050565b6000601f19601f8301169050919050565b60006111968261112b565b6111a08185611136565b93506111b0818560208601611147565b6111b98161117a565b840191505092915050565b600060208201905081810360008301526111de818461118b565b905092915050565b600080fd5b600073ffffffffffffffffffffffffffffffffffffffff82169050919050565b6000611216826111eb565b9050919050565b6112268161120b565b811461123157600080fd5b50565b6000813590506112438161121d565b92915050565b6000819050919050565b61125c81611249565b811461126757600080fd5b50565b60008135905061127981611253565b92915050565b60008060408385031215611296576112956111e6565b5b60006112a485828601611234565b92505060206112b58582860161126a565b9150509250929050565b60008115159050919050565b6112d4816112bf565b82525050565b60006020820190506112ef60008301846112cb565b92915050565b6112fe81611249565b82525050565b600060208201905061131960008301846112f5565b92915050565b600080600060608486031215611338576113376111e6565b5b600061134686828701611234565b935050602061135786828701611234565b92505060406113688682870161126a565b9150509250925092565b600060ff82169050919050565b61138881611372565b82525050565b60006020820190506113a3600083018461137f565b92915050565b6000602082840312156113bf576113be6111e6565b5b60006113cd8482850161126a565b91505092915050565b6000602082840312156113ec576113eb6111e6565b5b60006113fa84828501611234565b91505092915050565b6000806040838503121561141a576114196111e6565b5b600061142885828601611234565b925050602061143985828601611234565b9150509250929050565b7f4e487b7100000000000000000000000000000000000000000000000000000000600052602260045260246000fd5b6000600282049050600182168061148a57607f821691505b6020821081141561149e5761149d611443565b5b50919050565b7f45524332303a207472616e7366657220616d6f756e742065786365656473206160008201527f6c6c6f77616e6365000000000000000000000000000000000000000000000000602082015250565b6000611500602883611136565b915061150b826114a4565b604082019050919050565b6000602082019050818103600083015261152f816114f3565b9050919050565b7f4e487b7100000000000000000000000000000000000000000000000000000000600052601160045260246000fd5b600061157082611249565b915061157b83611249565b9250827fffffffffffffffffffffffffffffffffffffffffffffffffffffffffffffffff038211156115b0576115af611536565b5b828201905092915050565b7f45524332303a206275726e20616d6f756e74206578636565647320616c6c6f7760008201527f616e636500000000000000000000000000000000000000000000000000000000602082015250565b6000611617602483611136565b9150611622826115bb565b604082019050919050565b600060208201905081810360008301526116468161160a565b9050919050565b60008160011c9050919050565b6000808291508390505b60018511156116a4578086048111156116805761167f611536565b5b600185161561168f5780820291505b808102905061169d8561164d565b9450611664565b94509492505050565b6000826116bd5760019050611779565b816116cb5760009050611779565b81600181146116e157600281146116eb5761171a565b6001915050611779565b60ff8411156116fd576116fc611536565b5b8360020a91508482111561171457611713611536565b5b50611779565b5060208310610133831016604e8410600b841016171561174f5782820a90508381111561174a57611749611536565b5b611779565b61175c848484600161165a565b9250905081840481111561177357611772611536565b5b81810290505b9392505050565b600061178b82611249565b915061179683611372565b92506117c37fffffffffffffffffffffffffffffffffffffffffffffffffffffffffffffffff84846116ad565b905092915050565b60006117d682611249565b91506117e183611249565b9250817fffffffffffffffffffffffffffffffffffffffffffffffffffffffffffffffff048311821515161561181a57611819611536565b5b828202905092915050565b7f45524332303a2064656372656173656420616c6c6f77616e63652062656c6f7760008201527f207a65726f000000000000000000000000000000000000000000000000000000602082015250565b6000611881602583611136565b915061188c82611825565b604082019050919050565b600060208201905081810360008301526118b081611874565b9050919050565b7f45524332303a20617070726f76652066726f6d20746865207a65726f2061646460008201527f7265737300000000000000000000000000000000000000000000000000000000602082015250565b6000611913602483611136565b915061191e826118b7565b604082019050919050565b6000602082019050818103600083015261194281611906565b9050919050565b7f45524332303a20617070726f766520746f20746865207a65726f20616464726560008201527f7373000000000000000000000000000000000000000000000000000000000000602082015250565b60006119a5602283611136565b91506119b082611949565b604082019050919050565b600060208201905081810360008301526119d481611998565b9050919050565b7f45524332303a207472616e736665722066726f6d20746865207a65726f20616460008201527f6472657373000000000000000000000000000000000000000000000000000000602082015250565b6000611a37602583611136565b9150611a42826119db565b604082019050919050565b60006020820190508181036000830152611a6681611a2a565b9050919050565b7f45524332303a207472616e7366657220746f20746865207a65726f206164647260008201527f6573730000000000000000000000000000000000000000000000000000000000602082015250565b6000611ac9602383611136565b9150611ad482611a6d565b604082019050919050565b60006020820190508181036000830152611af881611abc565b9050919050565b7f45524332303a206275726e2066726f6d20746865207a65726f2061646472657360008201527f7300000000000000000000000000000000000000000000000000000000000000602082015250565b6000611b5b602183611136565b9150611b6682611aff565b604082019050919050565b60006020820190508181036000830152611b8a81611b4e565b9050919050565b7f45524332303a206275726e20616d6f756e7420657863656564732062616c616e60008201527f6365000000000000000000000000000000000000000000000000000000000000602082015250565b6000611bed602283611136565b9150611bf882611b91565b604082019050919050565b60006020820190508181036000830152611c1c81611be0565b9050919050565b6000611c2e82611249565b9150611c3983611249565b925082821015611c4c57611c4b611536565b5b828203905092915050565b7f45524332303a206d696e7420746f20746865207a65726f206164647265737300600082015250565b6000611c8d601f83611136565b9150611c9882611c57565b602082019050919050565b60006020820190508181036000830152611cbc81611c80565b9050919050565b7f45524332303a207472616e7366657220616d6f756e742065786365656473206260008201527f616c616e63650000000000000000000000000000000000000000000000000000602082015250565b6000611d1f602683611136565b9150611d2a82611cc3565b604082019050919050565b60006020820190508181036000830152611d4e81611d12565b905091905056fea2646970667358221220c0c79263e3a0d1adf3bb7a4822fd3b309f67baafde24e20f8242c7d9a06deb4f64736f6c63430008090033",
  "linkReferences": {},
  "deployedLinkReferences": {}
}