{
  "_format": "hh-sol-artifact-1",
  "contractName": "TestERC20",
  "sourceName": "contracts/test/TestERC20.sol",
  "abi": [
    {
      "inputs": [
        {
          "internalType": "string",
          "name": "tokenName",
          "type": "string"
        },
        {
          "internalType": "string",
          "name": "symbol",
          "type": "string"
        }
      ],
      "stateMutability": "nonpayable",
      "type": "constructor"
    },
    {
      "anonymous": false,
      "inputs": [
        {
          "indexed": true,
          "internalType": "address",
          "name": "owner",
          "type": "address"
        },
        {
          "indexed": true,
          "internalType": "address",
          "name": "spender",
          "type": "address"
        },
        {
          "indexed": false,
          "internalType": "uint256",
          "name": "value",
          "type": "uint256"
        }
      ],
      "name": "Approval",
      "type": "event"
    },
    {
      "anonymous": false,
      "inputs": [
        {
          "indexed": true,
          "internalType": "address",
          "name": "from",
          "type": "address"
        },
        {
          "indexed": true,
          "internalType": "address",
          "name": "to",
          "type": "address"
        },
        {
          "indexed": false,
          "internalType": "uint256",
          "name": "value",
          "type": "uint256"
        }
      ],
      "name": "Transfer",
      "type": "event"
    },
    {
      "inputs": [
        {
          "internalType": "address",
          "name": "owner",
          "type": "address"
        },
        {
          "internalType": "address",
          "name": "spender",
          "type": "address"
        }
      ],
      "name": "allowance",
      "outputs": [
        {
          "internalType": "uint256",
          "name": "",
          "type": "uint256"
        }
      ],
      "stateMutability": "view",
      "type": "function"
    },
    {
      "inputs": [
        {
          "internalType": "address",
          "name": "spender",
          "type": "address"
        },
        {
          "internalType": "uint256",
          "name": "amount",
          "type": "uint256"
        }
      ],
      "name": "approve",
      "outputs": [
        {
          "internalType": "bool",
          "name": "",
          "type": "bool"
        }
      ],
      "stateMutability": "nonpayable",
      "type": "function"
    },
    {
      "inputs": [
        {
          "internalType": "address",
          "name": "account",
          "type": "address"
        }
      ],
      "name": "balanceOf",
      "outputs": [
        {
          "internalType": "uint256",
          "name": "",
          "type": "uint256"
        }
      ],
      "stateMutability": "view",
      "type": "function"
    },
    {
      "inputs": [
        {
          "internalType": "uint256",
          "name": "amount",
          "type": "uint256"
        }
      ],
      "name": "burn",
      "outputs": [],
      "stateMutability": "nonpayable",
      "type": "function"
    },
    {
      "inputs": [
        {
          "internalType": "address",
          "name": "account",
          "type": "address"
        },
        {
          "internalType": "uint256",
          "name": "amount",
          "type": "uint256"
        }
      ],
      "name": "burnFrom",
      "outputs": [],
      "stateMutability": "nonpayable",
      "type": "function"
    },
    {
      "inputs": [],
      "name": "decimals",
      "outputs": [
        {
          "internalType": "uint8",
          "name": "",
          "type": "uint8"
        }
      ],
      "stateMutability": "view",
      "type": "function"
    },
    {
      "inputs": [
        {
          "internalType": "address",
          "name": "spender",
          "type": "address"
        },
        {
          "internalType": "uint256",
          "name": "subtractedValue",
          "type": "uint256"
        }
      ],
      "name": "decreaseAllowance",
      "outputs": [
        {
          "internalType": "bool",
          "name": "",
          "type": "bool"
        }
      ],
      "stateMutability": "nonpayable",
      "type": "function"
    },
    {
      "inputs": [
        {
          "internalType": "address",
          "name": "spender",
          "type": "address"
        },
        {
          "internalType": "uint256",
          "name": "addedValue",
          "type": "uint256"
        }
      ],
      "name": "increaseAllowance",
      "outputs": [
        {
          "internalType": "bool",
          "name": "",
          "type": "bool"
        }
      ],
      "stateMutability": "nonpayable",
      "type": "function"
    },
    {
      "inputs": [
        {
          "internalType": "uint256",
          "name": "amount",
          "type": "uint256"
        }
      ],
      "name": "mint",
      "outputs": [],
      "stateMutability": "nonpayable",
      "type": "function"
    },
    {
      "inputs": [],
      "name": "name",
      "outputs": [
        {
          "internalType": "string",
          "name": "",
          "type": "string"
        }
      ],
      "stateMutability": "view",
      "type": "function"
    },
    {
      "inputs": [],
      "name": "symbol",
      "outputs": [
        {
          "internalType": "string",
          "name": "",
          "type": "string"
        }
      ],
      "stateMutability": "view",
      "type": "function"
    },
    {
      "inputs": [],
      "name": "totalSupply",
      "outputs": [
        {
          "internalType": "uint256",
          "name": "",
          "type": "uint256"
        }
      ],
      "stateMutability": "view",
      "type": "function"
    },
    {
      "inputs": [
        {
          "internalType": "address",
          "name": "recipient",
          "type": "address"
        },
        {
          "internalType": "uint256",
          "name": "amount",
          "type": "uint256"
        }
      ],
      "name": "transfer",
      "outputs": [
        {
          "internalType": "bool",
          "name": "",
          "type": "bool"
        }
      ],
      "stateMutability": "nonpayable",
      "type": "function"
    },
    {
      "inputs": [
        {
          "internalType": "address",
          "name": "sender",
          "type": "address"
        },
        {
          "internalType": "address",
          "name": "recipient",
          "type": "address"
        },
        {
          "internalType": "uint256",
          "name": "amount",
          "type": "uint256"
        }
      ],
      "name": "transferFrom",
      "outputs": [
        {
          "internalType": "bool",
          "name": "",
          "type": "bool"
        }
      ],
      "stateMutability": "nonpayable",
      "type": "function"
    }
  ],
  "bytecode": "0x60806040523480156200001157600080fd5b506040516200263f3803806200263f833981810160405281019062000037919062000380565b81818160039080519060200190620000519291906200025e565b5080600490805190602001906200006a9291906200025e565b505050620000ad3362000082620000b560201b60201c565b600a62000090919062000592565b6305f5e100620000a19190620006cf565b620000be60201b60201c565b5050620008bd565b60006012905090565b600073ffffffffffffffffffffffffffffffffffffffff168273ffffffffffffffffffffffffffffffffffffffff16141562000131576040517f08c379a000000000000000000000000000000000000000000000000000000000815260040162000128906200042b565b60405180910390fd5b62000145600083836200023760201b60201c565b8060026000828254620001599190620004da565b92505081905550806000808473ffffffffffffffffffffffffffffffffffffffff1673ffffffffffffffffffffffffffffffffffffffff1681526020019081526020016000206000828254620001b09190620004da565b925050819055508173ffffffffffffffffffffffffffffffffffffffff16600073ffffffffffffffffffffffffffffffffffffffff167fddf252ad1be2c89b69c2b068fc378daa952ba7f163c4a11628f55a4df523b3ef836040516200021791906200044d565b60405180910390a362000233600083836200025460201b60201c565b5050565b6200024f8383836200025960201b620008961760201c565b505050565b505050565b505050565b8280546200026c906200077d565b90600052602060002090601f016020900481019282620002905760008555620002dc565b82601f10620002ab57805160ff1916838001178555620002dc565b82800160010185558215620002dc579182015b82811115620002db578251825591602001919060010190620002be565b5b509050620002eb9190620002ef565b5090565b5b808211156200030a576000816000905550600101620002f0565b5090565b6000620003256200031f8462000493565b6200046a565b9050828152602081018484840111156200033e57600080fd5b6200034b84828562000747565b509392505050565b600082601f8301126200036557600080fd5b8151620003778482602086016200030e565b91505092915050565b600080604083850312156200039457600080fd5b600083015167ffffffffffffffff811115620003af57600080fd5b620003bd8582860162000353565b925050602083015167ffffffffffffffff811115620003db57600080fd5b620003e98582860162000353565b9150509250929050565b600062000402601f83620004c9565b91506200040f8262000894565b602082019050919050565b620004258162000730565b82525050565b600060208201905081810360008301526200044681620003f3565b9050919050565b60006020820190506200046460008301846200041a565b92915050565b60006200047662000489565b9050620004848282620007b3565b919050565b6000604051905090565b600067ffffffffffffffff821115620004b157620004b062000847565b5b620004bc8262000876565b9050602081019050919050565b600082825260208201905092915050565b6000620004e78262000730565b9150620004f48362000730565b9250827fffffffffffffffffffffffffffffffffffffffffffffffffffffffffffffffff038211156200052c576200052b620007e9565b5b828201905092915050565b6000808291508390505b60018511156200058957808604811115620005615762000560620007e9565b5b6001851615620005715780820291505b8081029050620005818562000887565b945062000541565b94509492505050565b60006200059f8262000730565b9150620005ac836200073a565b9250620005db7fffffffffffffffffffffffffffffffffffffffffffffffffffffffffffffffff8484620005e3565b905092915050565b600082620005f55760019050620006c8565b81620006055760009050620006c8565b81600181146200061e576002811462000629576200065f565b6001915050620006c8565b60ff8411156200063e576200063d620007e9565b5b8360020a915084821115620006585762000657620007e9565b5b50620006c8565b5060208310610133831016604e8410600b8410161715620006995782820a905083811115620006935762000692620007e9565b5b620006c8565b620006a8848484600162000537565b92509050818404811115620006c257620006c1620007e9565b5b81810290505b9392505050565b6000620006dc8262000730565b9150620006e98362000730565b9250817fffffffffffffffffffffffffffffffffffffffffffffffffffffffffffffffff0483118215151615620007255762000724620007e9565b5b828202905092915050565b6000819050919050565b600060ff82169050919050565b60005b83811015620007675780820151818401526020810190506200074a565b8381111562000777576000848401525b50505050565b600060028204905060018216806200079657607f821691505b60208210811415620007ad57620007ac62000818565b5b50919050565b620007be8262000876565b810181811067ffffffffffffffff82111715620007e057620007df62000847565b5b80604052505050565b7f4e487b7100000000000000000000000000000000000000000000000000000000600052601160045260246000fd5b7f4e487b7100000000000000000000000000000000000000000000000000000000600052602260045260246000fd5b7f4e487b7100000000000000000000000000000000000000000000000000000000600052604160045260246000fd5b6000601f19601f8301169050919050565b60008160011c9050919050565b7f45524332303a206d696e7420746f20746865207a65726f206164647265737300600082015250565b611d7280620008cd6000396000f3fe608060405234801561001057600080fd5b50600436106100ea5760003560e01c806370a082311161008c578063a0712d6811610066578063a0712d681461025f578063a457c2d71461027b578063a9059cbb146102ab578063dd62ed3e146102db576100ea565b806370a08231146101f557806379cc67901461022557806395d89b4114610241576100ea565b806323b872dd116100c857806323b872dd1461015b578063313ce5671461018b57806339509351146101a957806342966c68146101d9576100ea565b806306fdde03146100ef578063095ea7b31461010d57806318160ddd1461013d575b600080fd5b6100f761030b565b6040516101049190611470565b60405180910390f35b61012760048036038101906101229190611209565b61039d565b6040516101349190611455565b60405180910390f35b6101456103bb565b60405161015291906115f2565b60405180910390f35b610175600480360381019061017091906111ba565b6103c5565b6040516101829190611455565b60405180910390f35b6101936104bd565b6040516101a0919061160d565b60405180910390f35b6101c360048036038101906101be9190611209565b6104c6565b6040516101d09190611455565b60405180910390f35b6101f360048036038101906101ee9190611245565b610572565b005b61020f600480360381019061020a9190611155565b610586565b60405161021c91906115f2565b60405180910390f35b61023f600480360381019061023a9190611209565b6105ce565b005b610249610649565b6040516102569190611470565b60405180910390f35b61027960048036038101906102749190611245565b6106db565b005b61029560048036038101906102909190611209565b610706565b6040516102a29190611455565b60405180910390f35b6102c560048036038101906102c09190611209565b6107f1565b6040516102d29190611455565b60405180910390f35b6102f560048036038101906102f0919061117e565b61080f565b60405161030291906115f2565b60405180910390f35b60606003805461031a90611921565b80601f016020809104026020016040519081016040528092919081815260200182805461034690611921565b80156103935780601f1061036857610100808354040283529160200191610393565b820191906000526020600020905b81548152906001019060200180831161037657829003601f168201915b5050505050905090565b60006103b16103aa61089b565b84846108a3565b6001905092915050565b6000600254905090565b60006103d2848484610a6e565b6000600160008673ffffffffffffffffffffffffffffffffffffffff1673ffffffffffffffffffffffffffffffffffffffff168152602001908152602001600020600061041d61089b565b73ffffffffffffffffffffffffffffffffffffffff1673ffffffffffffffffffffffffffffffffffffffff1681526020019081526020016000205490508281101561049d576040517f08c379a000000000000000000000000000000000000000000000000000000000815260040161049490611512565b60405180910390fd5b6104b1856104a961089b565b8584036108a3565b60019150509392505050565b60006012905090565b60006105686104d361089b565b8484600160006104e161089b565b73ffffffffffffffffffffffffffffffffffffffff1673ffffffffffffffffffffffffffffffffffffffff16815260200190815260200160002060008873ffffffffffffffffffffffffffffffffffffffff1673ffffffffffffffffffffffffffffffffffffffff168152602001908152602001600020546105639190611644565b6108a3565b6001905092915050565b61058361057d61089b565b82610b5e565b50565b60008060008373ffffffffffffffffffffffffffffffffffffffff1673ffffffffffffffffffffffffffffffffffffffff168152602001908152602001600020549050919050565b60006105e1836105dc61089b565b61080f565b905081811015610626576040517f08c379a000000000000000000000000000000000000000000000000000000000815260040161061d90611532565b60405180910390fd5b61063a8361063261089b565b8484036108a3565b6106448383610b5e565b505050565b60606004805461065890611921565b80601f016020809104026020016040519081016040528092919081815260200182805461068490611921565b80156106d15780601f106106a6576101008083540402835291602001916106d1565b820191906000526020600020905b8154815290600101906020018083116106b457829003601f168201915b5050505050905090565b610703336106e76104bd565b600a6106f391906116ed565b836106fe919061180b565b610d35565b50565b6000806001600061071561089b565b73ffffffffffffffffffffffffffffffffffffffff1673ffffffffffffffffffffffffffffffffffffffff16815260200190815260200160002060008573ffffffffffffffffffffffffffffffffffffffff1673ffffffffffffffffffffffffffffffffffffffff168152602001908152602001600020549050828110156107d2576040517f08c379a00000000000000000000000000000000000000000000000000000000081526004016107c9906115b2565b60405180910390fd5b6107e66107dd61089b565b858584036108a3565b600191505092915050565b60006108056107fe61089b565b8484610a6e565b6001905092915050565b6000600160008473ffffffffffffffffffffffffffffffffffffffff1673ffffffffffffffffffffffffffffffffffffffff16815260200190815260200160002060008373ffffffffffffffffffffffffffffffffffffffff1673ffffffffffffffffffffffffffffffffffffffff16815260200190815260200160002054905092915050565b505050565b600033905090565b600073ffffffffffffffffffffffffffffffffffffffff168373ffffffffffffffffffffffffffffffffffffffff161415610913576040517f08c379a000000000000000000000000000000000000000000000000000000000815260040161090a90611592565b60405180910390fd5b600073ffffffffffffffffffffffffffffffffffffffff168273ffffffffffffffffffffffffffffffffffffffff161415610983576040517f08c379a000000000000000000000000000000000000000000000000000000000815260040161097a906114d2565b60405180910390fd5b80600160008573ffffffffffffffffffffffffffffffffffffffff1673ffffffffffffffffffffffffffffffffffffffff16815260200190815260200160002060008473ffffffffffffffffffffffffffffffffffffffff1673ffffffffffffffffffffffffffffffffffffffff168152602001908152602001600020819055508173ffffffffffffffffffffffffffffffffffffffff168373ffffffffffffffffffffffffffffffffffffffff167f8c5be1e5ebec7d5bd14f71427d1e84f3dd0314c0f7b2291e5b200ac8c7c3b92583604051610a6191906115f2565b60405180910390a3505050565b600073ffffffffffffffffffffffffffffffffffffffff168373ffffffffffffffffffffffffffffffffffffffff161415610ade576040517f08c379a0000000000000000000000000000000000000000000000000000000008152600401610ad590611572565b60405180910390fd5b600073ffffffffffffffffffffffffffffffffffffffff168273ffffffffffffffffffffffffffffffffffffffff161415610b4e576040517f08c379a0000000000000000000000000000000000000000000000000000000008152600401610b4590611492565b60405180910390fd5b610b59838383610e95565b505050565b600073ffffffffffffffffffffffffffffffffffffffff168273ffffffffffffffffffffffffffffffffffffffff161415610bce576040517f08c379a0000000000000000000000000000000000000000000000000000000008152600401610bc590611552565b60405180910390fd5b610bda82600083611116565b60008060008473ffffffffffffffffffffffffffffffffffffffff1673ffffffffffffffffffffffffffffffffffffffff16815260200190815260200160002054905081811015610c60576040517f08c379a0000000000000000000000000000000000000000000000000000000008152600401610c57906114b2565b60405180910390fd5b8181036000808573ffffffffffffffffffffffffffffffffffffffff1673ffffffffffffffffffffffffffffffffffffffff168152602001908152602001600020819055508160026000828254610cb79190611865565b92505081905550600073ffffffffffffffffffffffffffffffffffffffff168373ffffffffffffffffffffffffffffffffffffffff167fddf252ad1be2c89b69c2b068fc378daa952ba7f163c4a11628f55a4df523b3ef84604051610d1c91906115f2565b60405180910390a3610d3083600084611126565b505050565b600073ffffffffffffffffffffffffffffffffffffffff168273ffffffffffffffffffffffffffffffffffffffff161415610da5576040517f08c379a0000000000000000000000000000000000000000000000000000000008152600401610d9c906115d2565b60405180910390fd5b610db160008383611116565b8060026000828254610dc39190611644565b92505081905550806000808473ffffffffffffffffffffffffffffffffffffffff1673ffffffffffffffffffffffffffffffffffffffff1681526020019081526020016000206000828254610e189190611644565b925050819055508173ffffffffffffffffffffffffffffffffffffffff16600073ffffffffffffffffffffffffffffffffffffffff167fddf252ad1be2c89b69c2b068fc378daa952ba7f163c4a11628f55a4df523b3ef83604051610e7d91906115f2565b60405180910390a3610e9160008383611126565b5050565b600073ffffffffffffffffffffffffffffffffffffffff168373ffffffffffffffffffffffffffffffffffffffff161415610f05576040517f08c379a0000000000000000000000000000000000000000000000000000000008152600401610efc90611572565b60405180910390fd5b600073ffffffffffffffffffffffffffffffffffffffff168273ffffffffffffffffffffffffffffffffffffffff161415610f75576040517f08c379a0000000000000000000000000000000000000000000000000000000008152600401610f6c90611492565b60405180910390fd5b610f80838383611116565b60008060008573ffffffffffffffffffffffffffffffffffffffff1673ffffffffffffffffffffffffffffffffffffffff16815260200190815260200160002054905081811015611006576040517f08c379a0000000000000000000000000000000000000000000000000000000008152600401610ffd906114f2565b60405180910390fd5b8181036000808673ffffffffffffffffffffffffffffffffffffffff1673ffffffffffffffffffffffffffffffffffffffff16815260200190815260200160002081905550816000808573ffffffffffffffffffffffffffffffffffffffff1673ffffffffffffffffffffffffffffffffffffffff16815260200190815260200160002060008282546110999190611644565b925050819055508273ffffffffffffffffffffffffffffffffffffffff168473ffffffffffffffffffffffffffffffffffffffff167fddf252ad1be2c89b69c2b068fc378daa952ba7f163c4a11628f55a4df523b3ef846040516110fd91906115f2565b60405180910390a3611110848484611126565b50505050565b611121838383610896565b505050565b505050565b60008135905061113a81611d0e565b92915050565b60008135905061114f81611d25565b92915050565b60006020828403121561116757600080fd5b60006111758482850161112b565b91505092915050565b6000806040838503121561119157600080fd5b600061119f8582860161112b565b92505060206111b08582860161112b565b9150509250929050565b6000806000606084860312156111cf57600080fd5b60006111dd8682870161112b565b93505060206111ee8682870161112b565b92505060406111ff86828701611140565b9150509250925092565b6000806040838503121561121c57600080fd5b600061122a8582860161112b565b925050602061123b85828601611140565b9150509250929050565b60006020828403121561125757600080fd5b600061126584828501611140565b91505092915050565b611277816118ab565b82525050565b600061128882611628565b6112928185611633565b93506112a28185602086016118ee565b6112ab816119b1565b840191505092915050565b60006112c3602383611633565b91506112ce826119cf565b604082019050919050565b60006112e6602283611633565b91506112f182611a1e565b604082019050919050565b6000611309602283611633565b915061131482611a6d565b604082019050919050565b600061132c602683611633565b915061133782611abc565b604082019050919050565b600061134f602883611633565b915061135a82611b0b565b604082019050919050565b6000611372602483611633565b915061137d82611b5a565b604082019050919050565b6000611395602183611633565b91506113a082611ba9565b604082019050919050565b60006113b8602583611633565b91506113c382611bf8565b604082019050919050565b60006113db602483611633565b91506113e682611c47565b604082019050919050565b60006113fe602583611633565b915061140982611c96565b604082019050919050565b6000611421601f83611633565b915061142c82611ce5565b602082019050919050565b611440816118d7565b82525050565b61144f816118e1565b82525050565b600060208201905061146a600083018461126e565b92915050565b6000602082019050818103600083015261148a818461127d565b905092915050565b600060208201905081810360008301526114ab816112b6565b9050919050565b600060208201905081810360008301526114cb816112d9565b9050919050565b600060208201905081810360008301526114eb816112fc565b9050919050565b6000602082019050818103600083015261150b8161131f565b9050919050565b6000602082019050818103600083015261152b81611342565b9050919050565b6000602082019050818103600083015261154b81611365565b9050919050565b6000602082019050818103600083015261156b81611388565b9050919050565b6000602082019050818103600083015261158b816113ab565b9050919050565b600060208201905081810360008301526115ab816113ce565b9050919050565b600060208201905081810360008301526115cb816113f1565b9050919050565b600060208201905081810360008301526115eb81611414565b9050919050565b60006020820190506116076000830184611437565b92915050565b60006020820190506116226000830184611446565b92915050565b600081519050919050565b600082825260208201905092915050565b600061164f826118d7565b915061165a836118d7565b9250827fffffffffffffffffffffffffffffffffffffffffffffffffffffffffffffffff0382111561168f5761168e611953565b5b828201905092915050565b6000808291508390505b60018511156116e4578086048111156116c0576116bf611953565b5b60018516156116cf5780820291505b80810290506116dd856119c2565b94506116a4565b94509492505050565b60006116f8826118d7565b9150611703836118e1565b92506117307fffffffffffffffffffffffffffffffffffffffffffffffffffffffffffffffff8484611738565b905092915050565b6000826117485760019050611804565b816117565760009050611804565b816001811461176c5760028114611776576117a5565b6001915050611804565b60ff84111561178857611787611953565b5b8360020a91508482111561179f5761179e611953565b5b50611804565b5060208310610133831016604e8410600b84101617156117da5782820a9050838111156117d5576117d4611953565b5b611804565b6117e7848484600161169a565b925090508184048111156117fe576117fd611953565b5b81810290505b9392505050565b6000611816826118d7565b9150611821836118d7565b9250817fffffffffffffffffffffffffffffffffffffffffffffffffffffffffffffffff048311821515161561185a57611859611953565b5b828202905092915050565b6000611870826118d7565b915061187b836118d7565b92508282101561188e5761188d611953565b5b828203905092915050565b60006118a4826118b7565b9050919050565b60008115159050919050565b600073ffffffffffffffffffffffffffffffffffffffff82169050919050565b6000819050919050565b600060ff82169050919050565b60005b8381101561190c5780820151818401526020810190506118f1565b8381111561191b576000848401525b50505050565b6000600282049050600182168061193957607f821691505b6020821081141561194d5761194c611982565b5b50919050565b7f4e487b7100000000000000000000000000000000000000000000000000000000600052601160045260246000fd5b7f4e487b7100000000000000000000000000000000000000000000000000000000600052602260045260246000fd5b6000601f19601f8301169050919050565b60008160011c9050919050565b7f45524332303a207472616e7366657220746f20746865207a65726f206164647260008201527f6573730000000000000000000000000000000000000000000000000000000000602082015250565b7f45524332303a206275726e20616d6f756e7420657863656564732062616c616e60008201527f6365000000000000000000000000000000000000000000000000000000000000602082015250565b7f45524332303a20617070726f766520746f20746865207a65726f20616464726560008201527f7373000000000000000000000000000000000000000000000000000000000000602082015250565b7f45524332303a207472616e7366657220616d6f756e742065786365656473206260008201527f616c616e63650000000000000000000000000000000000000000000000000000602082015250565b7f45524332303a207472616e7366657220616d6f756e742065786365656473206160008201527f6c6c6f77616e6365000000000000000000000000000000000000000000000000602082015250565b7f45524332303a206275726e20616d6f756e74206578636565647320616c6c6f7760008201527f616e636500000000000000000000000000000000000000000000000000000000602082015250565b7f45524332303a206275726e2066726f6d20746865207a65726f2061646472657360008201527f7300000000000000000000000000000000000000000000000000000000000000602082015250565b7f45524332303a207472616e736665722066726f6d20746865207a65726f20616460008201527f6472657373000000000000000000000000000000000000000000000000000000602082015250565b7f45524332303a20617070726f76652066726f6d20746865207a65726f2061646460008201527f7265737300000000000000000000000000000000000000000000000000000000602082015250565b7f45524332303a2064656372656173656420616c6c6f77616e63652062656c6f7760008201527f207a65726f000000000000000000000000000000000000000000000000000000602082015250565b7f45524332303a206d696e7420746f20746865207a65726f206164647265737300600082015250565b611d1781611899565b8114611d2257600080fd5b50565b611d2e816118d7565b8114611d3957600080fd5b5056fea26469706673582212206f05af279778b20215e4b74b06e6a79c1a806bd78a6ab4f9c889242372ec47d464736f6c63430008040033",
  "linkReferences": {},
  "deployedLinkReferences": {}
}